:020000040800F2
:1000000000040020B9010008BB010008BB01000882
:10001000BB010008BB010008BB010008BB010008D0
:10002000BB010008BB010008BB0100087D88000877
:10003000BB010008BB010008BB010008D194000807
:10004000BB010008BB010008BB010008BB010008A0
:10005000BB010008BB010008918C0008B98C0008A6
:10006000E18C0008098D0008318D0008BB010008F3
:10007000BB010008BB010008099C0008BB01000887
:10008000598D0008BB010008BB010008BB01000836
:10009000BB010008BB010008BB010008BB01000850
:1000A000BB010008BB0100089D9A0008B19A000836
:1000B000BB010008BB010008BB010008BB01000830
:1000C000BB010008BD8D0008BB010008BB01000892
:1000D000BB010008BB010008BB010008BB01000810
:1000E00072B6264880F30888254880F30988254899
:1000F00025490860022080F31488BFF36F8F04F055
:100100003DF805F0DDFC4FF0553020491B4A914287
:100110003CBF41F8040BFAE71D49194A91423CBF24
:1001200041F8040BFAE71B491B4A1C4B9A423EBF9D
:1001300051F8040B42F8040BF8E700201849194A5B
:1001400091423CBF41F8040BFAE705F057FD05F07A
:1001500053FD154C154DAC4203DA54F8041B884787
:10016000F9E707F01BF8124C124DAC4203DA54F8D1
:10017000041B8847F9E705F040BD0000000400209B
:10018000000C00200000000808ED00E00000002046
:100190000004002040B50008000C0020B011002031
:1001A000B011002024260020E0000008E000000834
:1001B000E0000008E000000892E700F000F8FEE729
:1001C0002DE9F04FC1F80CD0C3689D46BDE8F08F13
:1001D000002383F311882846A047002005F098FDEE
:1001E000FEE705F037FD00DFFEE7000038B5124BF3
:1001F00004461D682A6B1AB10023C2E9044338BDC6
:10020000182000F091F80246286378B100210B23F2
:1002100001209381C2E90401084B0949094DC2E953
:10022000011300231560C2E9044338BD4621064B83
:10023000064800F053F800BF000C0020ECDE05007B
:1002400034126DE60E33CDAB68B4000880B40008FC
:1002500038B5194B1C68226B8AB113691749546968
:1002600003FB01F1164800FB0411A3FB003001332E
:1002700041EB0001C2E9043121F0004038BD1820F3
:1002800000F052F80246206388B1012400250B23B8
:100290000A480C49C2E90445116001460A4D0B4C5D
:1002A00093810B4BC2E90154C2E9043138BD52219C
:1002B000084B094800F012F8000C00202DF45158AA
:1002C0002D7F954C0E33CDAB34126DE6ECDE050080
:1002D0002E7F954C68B4000880B40008144600B521
:1002E0001A460A4B0D461B6885B0DE6803464CB1C2
:1002F00007490191304607490294009500F0E0F863
:1003000000F006F904490C46F3E700BF000C00209A
:10031000BCB40008CCB40008C8B4000808B5134643
:100320000022FFF7DBFF00BF024B0146186800F018
:1003300031B800BF000C0020024B0146186800F0E5
:10034000EFB800BF000C002070B5114E05463368B1
:100350000C46BBB12146284608F056FC431C01461A
:100360000CD0C41C24F00304A04205D02846611A16
:1003700008F04AFC013001D0204670BD4FF0FF3438
:10038000204670BD194608F03FFC3060E2E700BF30
:10039000B01100202DE9F041CD1C25F003050835F2
:1003A0000C2D38BF0C25002D064682B016DBA94265
:1003B00014D8354F00F06AF87A68AAB1144603E001
:1003C0006368224683B11C4623685B1BF8D40B2B61
:1003D00021D8A242636855D053600DE00C233360EE
:1003E000002002B0BDE8F08129463046FFF7ACFF9F
:1003F000431C044619D00560304600F04DF804F166
:100400000B00231D20F00700C21A1CBF1B1AA350AB
:1004100002B0BDE8F0816119A242256014BF5160AD
:100420007960635163684B60E6E77B6823B31C46E1
:100430005B68002BFBD122681946304604EB0208AA
:10044000019308F0E1FB804516D122683046AD1AD1
:100450002946FFF779FF01300ED0226878682A44D8
:1004600022604268019B12B90CE010465268A24219
:10047000FBD100234360BFE70C233046336000F01C
:100480000BF8ADE77B60B7E7B0110020014800F042
:1004900035B800BFC8110020014800F037B800BFD0
:1004A000C81100200CB400B583B004AB53F8042B82
:1004B000019300F0CFF803B05DF804EB02B0704791
:1004C0000EB400B5074A82B003AB0146106853F87A
:1004D000042B019300F0BEF802B05DF804EB03B00A
:1004E000704700BF000C0020704700BF704700BF7E
:1004F000704700BF704700BF704700BF704700BF24
:100500000120704701207047704700BF704700BF4F
:10051000062008B501F03AF9012008F0A1FB00BF60
:10052000002950D038B551F8043C0C1F002BB8BF3F
:10053000E4180546FFF7AAFF274A13682BB1A34228
:100540000CD92168601883422CD02846636014605F
:10055000BDE83840FFF7A0BFA3420FD81A465B683A
:10056000002BF9D111685018844217D02CD3636046
:1005700054602846BDE83840FFF78EBF1168501818
:10058000A04214D020D8216860188342EFD11868A7
:100590005B680844C4E900035460EAE723680B443D
:1005A0001360E6E718685B6808442060CDE72068C0
:1005B0000144501883421160DBD1D3E900040144A7
:1005C000C2E90014D5E770470C2328462B60BDE82C
:1005D0003840FFF761BF00BFB41100209368013BB2
:1005E000002B936005DAD2F818C0634507DB0A29AF
:1005F00005D01368581C106008461970704700F049
:10060000B3BE00BF9BB1F8B5134406460F46541E57
:100610005D1E01E0AC4208D03A46304614F8011F96
:10062000FFF7DCFF431CF5D1F8BD0020F8BD00202A
:10063000704700BF936810B514461BB918460023D5
:10064000636010BD00F0AEFC0023A3600023636074
:1006500010BD00BF2DE9F04FA1B08B4691461C465E
:10066000049018B1036A002B00F04181DBF864208C
:10067000BBF90C30D20702D49F0540F131811E072F
:1006800040F19A80DBF81030002B00F095800023B9
:1006900043F220020D9399F800300127954E0794FC
:1006A000ADF83920002B77D04D4604E015F8013F16
:1006B000002B00F09780252BF8D1B5EB090A40F00C
:1006C00094802B78002B67D000234FF0FF32013548
:1006D000CDE9092308930B938DF863301E9306E050
:1006E0002546089B801B07FA00F0034308932C461D
:1006F000052214F8011B304601F0FAF8A146002843
:10070000EED1089BD80644BF20228DF8632019073C
:1007100048BF2B22297848BF8DF863202A297AD137
:10072000079A1168043200290792C0F2AD800B913C
:1007300069782E2900F086806F4C0322204601F054
:10074000D7F838B14022089B001B8240134309F1BF
:100750000109089319F8011B062268488DF8381022
:1007600001F0C6F8002800F09580654B002B7ED084
:1007700007A900915A460498624B08A9AFF300807C
:100780000390039B013307D00D9B039A13440D93F1
:1007900099F80030002B87D1DBF8643013F0010F9B
:1007A000BBF80C3002D19A0540F193805B0616D459
:1007B0000D9821B0BDE8F08F5946049800F022FE54
:1007C00000283FF464AFDBF86430DD0707D4BBF8E2
:1007D0000C309C0503D4DBF85800FFF797FE4FF070
:1007E000FF30E6E7B5EB090AD6D009F1FF380595E9
:1007F0004546DDF8108001E0A2453FD92C465A4617
:10080000404615F8011FFFF7E9FE02340130A4EB62
:100810000904F1D1C0E7A1F13002092A88BFA94635
:1008200087D80B9B00E00134217803EB830302EBB4
:100830004303A1F13002092AF5D92E29A1460B93D1
:100840007FF47AAF99F801102A292DD1079B09F17D
:1008500002001A680433002A0793B8BF4FF0FF3331
:1008600099F8021009928146B8BF099364E7079B83
:10087000073323F007030833079385E70D99059D98
:1008800051442B780D911DE7494243F002030B912F
:1008900008934DE707A900915A460498194B08A9F7
:1008A00000F0D2F803906CE70023A1F13002092A8E
:1008B00009F1010909933FF63FAF19F8011F03EB56
:1008C000830302EB4303A1F13002092AF5D909930E
:1008D00032E7DBF85800FFF719FEBBF80C3065E78C
:1008E000DBF85800FFF70AFEBBF90C30C7E600F052
:1008F00009FBBBE6FCB4000804B5000808B5000815
:1009000000000000050600088C4600B58646134628
:10091000034A714610685DF804EB6246FFF79ABE21
:10092000000C00202DE9F84F92461F460A698B689B
:100930000C469A42B8BF1A46CAF8002091F84330D4
:100940000646DDF8289013B10132CAF8002022686B
:1009500091065FD5DAF800300233CAF80030226819
:1009600012F0060F11461DD1E1689942D8BF114619
:1009700018DD4FF0000804F1190B05E0E568DAF81E
:100980000030ED1A45450CDD01235A463946304604
:10099000C847013008F10108F0D14FF0FF30BDE841
:1009A000F88F216894F84330003B18BF01238A0672
:1009B0000AD53021E21882F8431094F845105A1CE9
:1009C0002244023382F843103946304604F1430290
:1009D000C8470130E1D0D4E902202368DAF800509A
:1009E00003F00603042B21691BD08A4220DD4FF05F
:1009F0000008521A904400251A3401E0454517DAE0
:100A00000123224639463046C847013005F1010529
:100A1000F4D1C2E712F0060F0DD0003B18BF01233E
:100A2000D2E7401B8A4220EAE078E2DC0028E2DCE0
:100A30000020BDE8F88FE168DAF800309942D8BFAD
:100A4000114696DCAEE700BF2DE9F04717460A7E57
:100A500084B00C46064698460C9D01F1430C002AD2
:100A600035D0A2F15803D9B2202969D8202B67D8F4
:100A7000DFE813F0E00066006600660066006600CE
:100A800066006600660066006600940070006600FE
:100A9000660066006600700066006600660066001C
:100AA00021008300AE00660066009E0066008300A1
:100AB00066006600E6002B682268181D61692860E0
:100AC00010061B6802D4520600F1DC801960002376
:100AD000E14623613B4621463046CDF8008003AA1B
:100AE000FFF720FF013020D04A46394630462369BF
:100AF000C047013019D02368E0689B07DDF80C90EF
:100B000018D5484516DD002504F1190A04E0E0680F
:100B1000A0EB0903AB420DDD0123524639463046B6
:100B2000C047013005F10105F1D14FF0FF3004B0AD
:100B3000BDE8F0874845B8BF484604B0BDE8F08737
:100B4000012084F8422004F142090023206184F846
:100B50004330BFE72A682368111D2960190602D4B3
:100B60005D0600F193801068014600286268C0F2BB
:100B700091804FF00A0E52484AE02B682168181DF8
:100B80002860080601D449067ED419686F2A14BF6C
:100B90004FF00A0E4FF0080E494835E02A68012050
:100BA000116804322A6004F1420984F84210CCE74B
:100BB0002B6800211A1D2A60D3F80090626848460D
:100BC00000F096FE002879D0A0EB09006060BCE739
:100BD000236843F02003236078223A4884F84520B4
:100BE0002A68111D29601D064AD4590648D5118866
:100BF000DA0744BF43F02003236019B9236823F0C8
:100C0000200323604FF0100E0023626884F8433005
:100C1000002AA26016DB236823F00403236089B94D
:100C2000002A45D1E146BEF1080F1CD0ACEB090308
:100C300023614FE75823224884F845302368CFE7E3
:100C40002368C9E77546E146B1FBF5F30A4605FBA3
:100C5000131A194610F80A30AA4209F8013DF3D2D6
:100C6000BEF1080FE2D12368DD07DFD56268236992
:100C70009A42DBDC302309F1FF3989F80030D5E7EF
:100C80001168B5E7198022E719887FE7B2F90010EB
:100C900008466AE72D20002AA26084F8430002DBA0
:100CA00023F0040323600A250548AE464942CAE7FB
:100CB000037804F1420984F84230B4E7606844E7FD
:100CC00010B5000824B50008024A0349034800F0A3
:100CD000DFBA00BF500C0020ED1B0008040C002000
:100CE0000C4B416810B59942044601D000F07EFFDC
:100CF000A168094B994202D0204600F077FFE168D5
:100D0000064B994204D02046BDE8104000F06EBF6B
:100D100010BD00BFD811002040120020A8120020F2
:100D200008B54B6EDA0702D48B899B0501D50020EC
:100D300008BD886DFFF7E2FB002008BD08B54B6ECB
:100D4000DA0702D48B899B0501D5002008BD886D88
:100D5000FFF7DCFB002008BD2DE9F8430025042344
:100D6000304C3149DFF8C490DFF8C480314F324E47
:100D70000822C4F8381104F15C002946C4E903359F
:100D8000C4E90055C4E90555A560656600F018FC86
:100D900004F15800C4E90849C4E90A872663FFF74B
:100DA000A5FB264B2946082204F1C4006367C4E969
:100DB0001A55C4E91E552567C4F8CC50C4F88050B4
:100DC00000F0FEFB04F1680304F1C000C4F88830B1
:100DD000C4E92398C4E92576FFF788FB184B294618
:100DE00004F596700822C4F8DC30C4E93455C4E92F
:100DF0003855C4F8D850C4F83451C4F8E85000F05D
:100E0000DFFB04F1D003C4E93E87C4F8F49004F595
:100E10009470C4F80061C4F8F030BDE8F843FFF7FF
:100E200065BB00BFD8110020C90C0008D51200080E
:100E3000FD1200083D1300086113000809000100BD
:100E400012000200F8B506462A48FFF757FB2A4B66
:100E5000D3F83831002B43D0284FD7E90134013B78
:100E600004D524E05A1C04F1680420D0B4F90C50D5
:100E7000013B002DF6D1224B04F15800E36065667A
:100E8000FFF734FB1B48FFF741FB08222946C4E962
:100E90000155C4E904552560A56104F15C0000F02A
:100EA0008FFBC4E90D55C4E912552046F8BD3D68D5
:100EB0000DB12F46D1E74FF4D6713046FFF76AFAED
:100EC000044680B104230560294605460C304FF4E2
:100ED000D072A060636000F073FB3C602F46BCE7FB
:100EE000FFF73AFFB8E703483C60FFF70FFB0C231E
:100EF0003360DAE7D4110020D8110020500C002014
:100F00000100FFFF10B504460B48FFF7F7FA236A0C
:100F10002BB90A4B0A4AD3F83831226223B1BDE813
:100F200010400548FFF7F2BAFFF716FFBDE8104082
:100F30000148FFF7EBBA00BFD4110020D811002000
:100F4000E10C00080148FFF7D9BA00BFD411002016
:100F50000148FFF7DBBA00BFD411002008B50548EF
:100F6000FFF7CCFABDE808400020034A034900F02F
:100F70008FB900BFD4110020500C0020210D0008B3
:100F800008B50020044A054900F082F9BDE8084090
:100F90000348FFF7BBBA00BF500C00203D0D00080E
:100FA000D41100209368002B00F0F0802DE9F04F61
:100FB000B1F90CC090461CF0080F81460C4683B076
:100FC0002BD00B694BB31CF00207D8F8006032D06D
:100FD0004FF0000A5546D4F828B0216AAB4FC5B18E
:100FE000BD422B46524628BF3B464846D8470028BC
:100FF00040F3C280D8F8083082441B1A2D1AC8F872
:101000000830002B00F0AE80D4F828B0216A002D03
:10101000E6D1D6E900A50836E1E72146484600F0CA
:10102000F1F9002840F0AD80B4F90CC0D8F80060A8
:101030001CF00207CCD11CF0010A63D1574623688B
:10104000A16818468B46002F58D01CF4007F00F092
:10105000B180B9420A4600F2DD801CF4906F2FD0B7
:10106000216962695D1A02EB420202EBD2726B1CCB
:1010700052103B44934292BF93469B461A461CF43F
:10108000806F00F0E68011464846FFF783F900289C
:1010900000F0F5802A462169019000F075FCA289D4
:1010A000019B22F4906242F08002A2815819C4F898
:1010B00014B0ABEB05053A46BB462361A560206042
:1010C0003D4600275146019200F0FCF9A1682368D3
:1010D000019AA1EB0B011A44A1602260D8F80830F4
:1010E000AA445B1BC8F80830002B3BD02368A168DA
:1010F00018468B46B4F90CC0002FA6D1D6E900A73C
:1011000008369EE73846BB463D46002D40D00028B5
:1011100045D03A46D4E904C32068AA4228BF2A46EB
:101120006045A16804D901EB030A524500F38280AF
:10113000934272DC5A464846216AD4F828C0E047F8
:10114000B0F1000A18DDB7EB0A070FD00120D8F87C
:101150000830D344A3EB0A03A5EB0A05C8F808300E
:10116000002BD2D1002003B0BDE8F08F21464846C5
:1011700000F03CFD0028EAD0B4F90C3043F0400305
:10118000A3814FF0FF3003B0BDE8F08F002070471F
:10119000756833460836002DFAD0D3F800B02A46D9
:1011A0000A21584600F0A4FB002865D00130A0EBCE
:1011B0000B07AEE722699A4214D36569BD4211D884
:1011C0006FF00043BB4228BF3B4693FBF5F352460A
:1011D00005FB03F34846A56A216AA847051ECBDD37
:1011E0007F1B7BE7B94228BF39460D46184651465A
:1011F0002A4600F067F9A1682368491B2B44A160C7
:1012000023600029ECD12146484600F0EFFC00287D
:10121000E6D0B1E7BB463A4652E7594692460192BC
:1012200000F050F9A368019A9B1AA3602368134445
:10123000236088E75946524600F044F92368214666
:1012400053444846236000F0D1FC00283FF47BAFB4
:1012500092E7484600F00EFC034600287FF426AFD4
:1012600048462169FFF75CF90C22B4F90C30C9F843
:10127000002023F0800381E76A1C17464AE70C220E
:10128000B4F90C30C9F8002078E700BF00FCFF7FFC
:101290002DE9F8434FF0000980460F461646D6E97F
:1012A0000154013D10D4A389013D012B08D9B4F9A3
:1012B0000E30013304D021464046B84749EA0009C0
:1012C0006B1C04F16804EED13668002EE7D1484665
:1012D000BDE8F88310B50C46B1F90E1007F088FC94
:1012E000002803DB636D0344636510BDA38923F409
:1012F0008053A38110BD00BF002070472DE9F0414D
:101300000C46B1F90C101F46CB05054616460BD40A
:1013100021F48051A1813B4632462846B4F90E1093
:10132000BDE8F04107F06BBCB4F90E1002230022B7
:1013300007F063FCB4F90C10EAE700BF10B50C46E7
:10134000B1F90E1007F059FCB4F90C30421C0EBF75
:1013500023F4805343F480536065A38110BD00BF24
:10136000B1F90E1007F04DBCF8B506460D4614460F
:1013700010B1036A002B37D0A269A389A2601A07B3
:1013800019D52369BBB122686169D31AEDB29942BC
:101390002F4620DD0133A1680139A160511C216075
:1013A000157062699A420DD0A389DB0701D50A2D19
:1013B00008D03846F8BD2146304600F023F838B949
:1013C0002369E0E72146304600F010FC0028F0D009
:1013D0004FF0FF37EDE72146304600F007FC0028CC
:1013E000F6D101232268D6E7FFF78CFDC4E700BFE2
:1013F00003460A46024908681946FFF7B5BF00BF11
:10140000000C002038B52E4B05461B680C4613B166
:101410001A6A002A4BD0B4F90C3018071CD522697F
:1014200022B313F0010107D000206169A060494296
:10143000A1613AB1002038BD980758BF6169A16029
:10144000002AF7D1190658BF1046F4D543F04003DF
:101450004FF0FF30A38138BDD9062CD55A0712D4DE
:10146000226943F00803A381002ADAD103F4207132
:10147000B1F5007FD5D02146284600F0F7FBB4F93E
:101480000C302269CDE7616B51B104F14402914205
:1014900004D02846FFF744F8B4F90C300022626308
:1014A0000021226923F02403C4E90021D9E718466A
:1014B000FFF728FDAFE7092243F040032A60C7E7A2
:1014C000000C002088420ED98B1883420BD900EB08
:1014D000020C002A6DD0624613F801CD994202F841
:1014E00001CDF9D170470F2A0FD8034602F1FF3C16
:1014F000002A5ED00CF1010C013B8C4411F8012B49
:10150000614503F8012FF9D1704740EA01039B07B9
:1015100050D1A2F1100370B501F1200C23F00F059A
:1015200001F1100E00F11004AC441B095EF8105CD0
:101530000EF1100E44F8105C5EF81C5C103444F898
:101540001C5C5EF8185C44F8185C5EF8145CE645B8
:1015500044F8145CEAD1013312F00C0F01EB0311D3
:1015600002F00F0400EB031328D08E46043C24F055
:1015700003064FEA940C1E441C1F5EF8045B44F8FB
:10158000045FB442F9D10CF1010402F0030203EB51
:10159000840301EB840102F1FF3C4AB10CF1010C20
:1015A000013B8C4411F8012B614503F8012FF9D15F
:1015B00070BD7047034602F1FF3C9BE72246EAE715
:1015C00070B5860747D0541E002A3ED00346CAB2E3
:1015D00001E0013C39D303F8012B9D07F9D1032C1D
:1015E0002CD9CDB205EB05250F2C1A4605EB054588
:1015F00034D9A4F1100C2CF00F0603F1100EB644F0
:101600004FEA1C1C156055609560D560103272451C
:10161000F8D10CF1010214F00C0F03EB021204F0EC
:101620000F0C13D0ACF1040323F003030433134471
:1016300042F8045B9A42FBD10CF003042CB1C9B20E
:101640001C4403F8011B9C42FBD170BD6446134649
:10165000002CF4D1F9E703461446C0E7A446E1E7BD
:1016600038B5C46B0CB1002038BD80210546FEF7AB
:1016700091FE0246E86330B1031F7C3243F8044F09
:101680009342FBD1EFE74FF0FF3038BD30B51F2953
:10169000054683B008D8C36B0C4653B153F82400F9
:1016A00043F8242003B030BD162303604FF0FF3011
:1016B000F8E780210192FEF76DFE019A0346E86388
:1016C0000028F3D0011F00F17C05002041F8040F31
:1016D000A942FBD1E2E700BF1F2938B505461ED855
:1016E000C26B0C466AB152F8213053B1012B06D0BF
:1016F000591C10D00021204642F8241098470020A1
:1017000038BD284600F0F2F8224601462846BDE8DA
:10171000384000F0D7B8162301202B6038BD1623BF
:101720004FF0FF302B6038BD1F292BD838B5C36B65
:101730000C460546A3B153F8242003EB84034AB1B9
:10174000511C0BD0012A07D0002520461D60904770
:10175000284638BD012038BD032038BD022038BDE1
:101760008021FEF717FE0346E86340B100201A1FF0
:1017700003F17C0142F8040F9142FBD1DBE74FF00B
:10178000FF3038BD4FF0FF30704700BF38B5134B06
:101790001F281D681DD8EA6B044662B152F820303C
:1017A0004BB1012B05D0591C0FD0002142F820105D
:1017B0009847002038BD284600F098F82246014698
:1017C0002846BDE8384000F07DB8162301202B6084
:1017D00038BD16234FF0FF302B6038BD000C0020C1
:1017E000114B1F2870B51E6808D8F36B04460D46D0
:1017F0004BB153F8240043F8245070BD16233360D6
:101800004FF0FF3070BD80213046FEF7C3FD034628
:10181000F0630028F4D00021021F7C3042F8041F3E
:101820009042FBD1E5E700BF000C002038B50B4B20
:101830001D68EC6B0CB1002038BD80212846FEF7F6
:10184000A9FDE86338B1031F00F17C0243F8044F9F
:101850009342FBD1EFE74FF0FF3038BD000C002082
:1018600038B5174B1F281D6826D80446E86BA0B171
:1018700050F8242000EB84034AB1511C0BD0012AFC
:1018800007D0002520461D609047284638BD01201E
:1018900038BD032038BD022038BD80212846FEF720
:1018A00079FDE86340B10021031F00F17C0243F899
:1018B000041F9A42FBD1DBE74FF0FF3038BD00BF79
:1018C000000C002070B50026074D0446084611465E
:1018D0002E6007F0CFF9431C00D070BD2B68002BA1
:1018E000FBD0236070BD00BF1413002007F0CCB9FB
:1018F0005FFA81FC810744D00346511E22B909E0FA
:101900009A0709D0013905D3184602780133624598
:10191000F6D1704700207047184603290CD80029DB
:10192000F8D00346014401E08B42F3D0184613F887
:10193000012B6245F8D1ECE710B50CEB0C24024604
:1019400004EB044402E00439032918D9104652F884
:10195000043B6340A3F1013E2EEA030313F0803FF2
:10196000F1D051B10346014401E08B4205D0184645
:1019700013F8012B6245F8D110BD002010BD1046B0
:10198000EFE71146C9E700BF844641EA000313F0C0
:10199000030349D1403A23D30B6803604B6843608B
:1019A0008B688360CB68C3600B6903614B694361DB
:1019B0008B698361CB69C3610B6A03624B6A4362C3
:1019C0008B6A8362CB6AC3620B6B03634B6B4363AB
:1019D0008B6B8363CB6BC36340304031403ADBD2C7
:1019E00030320BD30B6803604B6843608B688360B5
:1019F000CB68C36010301031103AF3D20C3205D3EB
:101A000051F8043B40F8043B043AF9D2043208D0C0
:101A1000D2071CBF11F8013B00F8013B01D30B8832
:101A200003806046704700BF082A13D38B07B1D0EC
:101A300010F00303AED0C3F10403D21ADB071CBFBE
:101A400011F8013B00F8013BA4D331F8023B20F828
:101A5000023B9FE7043AD9D3013A11F8013B00F861
:101A6000013BF9D20B7803704B7843708B7883700D
:101A7000604670472DE9F041144649B3EAB1064685
:101A80000D4600F07BF98442074602D8B4EB500FB4
:101A90001AD821463046FEF77DFC804678B1BC421C
:101AA0002246294628BF3A46FFF76EFF30462946B0
:101AB000FEF736FD4046BDE8F081FEF731FD4FF000
:101AC00000084046BDE8F081A8464046BDE8F081E8
:101AD0001146BDE8F041FEF75DBC00BFF8B5B1F9B5
:101AE0000C30074618070C4639D44A68002A53DDE3
:101AF000E56A002D31D000223E683A6013F480522E
:101B0000216A55D101233846A847411C02465ED0C0
:101B1000B4F90C30E56A216A5B0705D56368D21A0F
:101B2000636B0BB1236CD21A00233846A847451CBF
:101B300040D00022236962602360A389D90400D5C4
:101B40006065616B3E6041B104F14403994202D08B
:101B50003846FEF7E5FC002363630020F8BD0E69FC
:101B6000002EFAD09B0718BF00230D6808BF4B69F1
:101B70000E60AD1B8B600CE02B463246D4F828C0BB
:101B80003846216AE047B0F1000CA5EB0C0566442D
:101B900006DD002DF0DCE0E70A6C002AA8DCDCE7BB
:101BA000B4F90C3043F040034FF0FF30A381F8BD8F
:101BB000626DB1E73A68B4F90C308AB11D2A01D0E0
:101BC000162AEFD100232269C4E90023B9E73B6854
:101BD000002B9DD01D2B01D0162BE1D13E60BCE720
:101BE000626022692260DA04AAD4AAE738B50B69D8
:101BF000CBB10C46054608B1036ABBB1B4F90C3051
:101C00008BB1626ED00701D4990512D528462146C2
:101C1000FFF764FF636E0546DA0702D4A3899B05CC
:101C20000BD5284638BD0025284638BDFFF76AF990
:101C3000E4E7A06DFEF762FCE8E7A06DFEF766FC46
:101C4000EFE700BF014618B1044B1868FFF7CEBF9D
:101C5000034A04490448FFF71BBB00BF000C0020E7
:101C6000500C0020ED1B0008040C002070B5B1F9E9
:101C70000C300C46990796B007D5012204F14703B2
:101C8000C4E90432236016B070BDB4F90E100546E5
:101C9000002929DB6A4606F0D5FF002822DB4FF435
:101CA00080612846019EFEF775FB88B3A38906F480
:101CB000704643F08003A3814FF48063B6F5005F64
:101CC000C4E904032060DED12846B4F90E1006F002
:101CD000C5FF0028D7D0A38923F0030343F00103F5
:101CE000A381D0E7B4F90C3013F0800F14BF402665
:101CF0004FF4806628463146FEF74CFB40B1A3897D
:101D0000C4E9040643F080032060A38116B070BDCF
:101D1000B4F90C309A05B6D4012123F0030304F181
:101D2000470243F00203C4E90421A3812260AAE729
:101D300070B50C46B1F90E10154600291E4696B036
:101D40000FDB6A4606F07EFF00280ADB019B4FF49A
:101D5000806203F47043A3F50053B3FA83F35B0985
:101D600007E0A289002312F0800F14BF40224FF435
:101D70008062002033602A6016B070BD51F8043CC8
:101D8000181F002BBCBF0B58C0187047032A70B532
:101D900011D940EA01039B071ED104460B4602E01D
:101DA000043A032A1CD91946204653F8045B54F818
:101DB000046BAE42F4D0541EAAB1421E013901E0B8
:101DC000C3180BD012F801EF11F801CFA31AE645A2
:101DD000F6D0AEEB0C0070BD541EEEE7184670BD99
:101DE00020461946E7E7104670BD00BF53B94AB90F
:101DF000002908BF00281CBF4FF0FF314FF0FF3013
:101E000000F00CB8ADF1080C6DE904CE08F0F4FB5D
:101E1000DDF804E0DDE9022304B07047704700BF3D
:101E2000A0F58072B2F5F85F034610B421D213F426
:101E3000805F00F4007403F48062C0F3002003F4B8
:101E400000630BD000010CB140F020000AB140F05B
:101E500040000BB140F0800010BC08470CB140F0CE
:101E600002000AB140F00400002BF5D040F0080059
:101E7000F2E70020F0E7000010F0020F0CBF102284
:101E80004FF48012014B9A61704700BF0008004078
:101E9000044B1B881BB1034103F001007047184637
:101EA000704700BF362400200123034A8340118875
:101EB0000B431380704700BF362400200123034AE0
:101EC0008340108820EA03001080704736240020E9
:101ED0000123034A834011884B401380704700BFA1
:101EE0003624002030B5012401F00703C90802EBB5
:101EF000810200219C40E4B2013A12F8015F20FA0D
:101F000001F343F300036B40234001315D4004299A
:101F10001570F2D130BD002210B500F00704C008E2
:101F200001EB800110468B5CE34003F0010393401A
:101F300001321843042AC0B2F5D110BD17B40C46C3
:101F4000C1B2C0F3072005280BD80E290FD8C0EB6B
:101F500000100144074A89B2204603B010BCFFF7C5
:101F6000C1BF031DDBB2012B01D8034AF4E703B064
:101F700010BC7047E4230020E0230020C3B2C0F36C
:101F80000720052882B009D80E2B0ED8C0EB001010
:101F90001844074980B202B0FFF7BDBF0430C0B299
:101FA000012802D818460349F5E7002002B070471F
:101FB000E4230020E023002030B50124084D04FA7A
:101FC00001F12B8804FA00F0084381B218408142E5
:101FD00004FA02F406BF23439BB2A3432B8030BD17
:101FE00036240020054B064A1B7812789A4200D10D
:101FF0007047013303F00703F8E700BF3E240020D9
:102000003D24002010B509490B7823EA000010F0A8
:102010000704087009D1984207D0054B5B785B072D
:1020200003D5C008FFF74AFF0C7010BD382400200C
:102030003A24002070B5134B134D1878134B2C78AD
:102040001B781843D4B1124B1B78C3B1114B124A01
:1020500093F900301149002BAEBF05231D23114613
:10206000002211F8016B0EB10132D2B2013BDBB29A
:10207000FF2BF6D10AB100232B70204370BD05233E
:102080000649EDE730240020312400203C240020C4
:102090004C1100203A24002026160020461600206D
:1020A000024A137823EA000313707047302400209B
:1020B000E72850D8DF2807D8312865D00ED829283E
:1020C00058D02A2867D07047A0F1E003072B42D8E8
:1020D000DFE803F01541242933413D42392804D07B
:1020E000822802D0352840D07047334B1A789207A7
:1020F0005CD15B7813F0080F18BF292070472E4A77
:102100001378D9074ED4527812F0010F23D013F070
:10211000100F08BFE32018BF00207047264B1B7824
:1021200013F0040FF2E7244A137859073CD452788D
:10213000D2073BD413F0100FEDE71F4B5A789107ED
:1021400009D51B7813F0100F08BFE720E3E71A4BFF
:102150001B781A07F6D47047174A1378190727D443
:1021600052789107E6D5E4207047134B1B7813F0A3
:10217000200FC1E7104B1A7892061BD45B7813F03E
:10218000080F18BF392070470B4B1B7813F0400F16
:1021900018BF2A207047084B1B7813F0400F18BF58
:1021A0003120704739207047E2207047E0207047A7
:1021B000E62070473520CEE73A24002010B52F4C9A
:1021C00021784B0713D500F01402A2F1040C00F0A3
:1021D0001803DCF1000242EB0C02A3F1080CDCF165
:1021E000000343EB0C039A4218BF80F00C000B076E
:1021F00013D500F01402A2F1140C00F01803DCF166
:10220000000242EB0C02A3F1180CDCF1000343EBDB
:102210000C039A4218BF80F00C006478E30713D5D2
:1022200000F0110202F1FF3C00F01803DCF10002A3
:1022300042EB0C02A3F1080CDCF1000343EB0C03AE
:102240009A4218BF80F00900A30711D500F01102CF
:1022500000F01803A2F111046242A3F1180C6241CC
:10226000DCF1000343EB0C039A4218BF80F0090035
:10227000CB0648BF00F0E70010BD00BF3A240020A5
:1022800038B5FFF715FFB0F5A44F044643D2B0F5BB
:10229000A04F80F0AD80DF2816D8CC2800F28B80CC
:1022A000A7280AD8A42879D8012804D0031F9BB2F4
:1022B000A12B28BF0024204638BDA0F1A8039BB263
:1022C0001A2B70D90024F6E7B0F5804F19D2B0F57B
:1022D000005F80F09C80E728EDD9A0F580739BB269
:1022E000B3F5F85FEED2C0F30720FFF767FF0546AE
:1022F000E0B2FFF7DDFE2D0205F4F85540EA0504D3
:1023000007E0C0B2FFF7D4FE04F47064044344F461
:102310002044A4B2CFE7B0F5A54F22D245F25F2307
:10232000984252D845F23F2398420BD9012300F03E
:102330000304C0F38202A34043EA421343F40C4374
:102340009CB2B8E745F21F23984237D8012300F02A
:102350000304C0F38502A34043EA421343F40D4350
:10236000EEE745F2BF2398420AD845F29F239842F0
:1023700000F01F0034D84AF2F40343EA00249AE73D
:10238000A0F5A543403B9BB21F2B9BD8040204F44D
:10239000F85444F4204444F0F0048CE7A0F1240401
:1023A00044F48044B5E7224B5834E4B233F8144087
:1023B00044F488447FE740F4A044AAE74AF2F103DA
:1023C00000F01F0443EA042475E7012300F003042E
:1023D000C0F38202A34043EA421343F40A43AFE747
:1023E000FFF7ECFE040204F4F85444F4005462E7EE
:1023F00000F01F00FFF7E2FEC306C4F3431448BF1A
:102400000001240200B2044344F4104481E7C0F305
:102410000420FFF7D3FE0546E0B2FFF749FE2D0288
:1024200005F4F855054345F40055ACB243E700BF49
:102430008AB30008002070470020704730BFFDE7D6
:1024400010B5044610B9C90FC80110BD80EAE0728A
:10245000A2EBE07212B2002901EB02030CDB891A35
:10246000490191FBF3F1C1F120014BB2D8B2002C2C
:10247000BCBF4042C0B2E8E75B01521A93FBF2F3E3
:10248000C3F160035BB2F1E7144B84B003EB41038B
:10249000E42193F85A3001904B43C2EB13231C33D1
:1024A000002BC0F30720B8BF5B42A0EBC3031BB2F5
:1024B00023EAE373434300201B128DF80530019B90
:1024C000DAB262F30700C3F3072262F30F20C3F30B
:1024D000074363F3174004B0704700BF30B20008F1
:1024E000144B84B003EB4103E42193F85A3001907C
:1024F0004B43C2EB13231C33002BC0F30740B8BF80
:102500005B42A0EBC3031BB223EAE3734343002007
:102510001B128DF80630019BDAB262F30700C3F399
:10252000072262F30F20C3F3074363F3174004B09D
:10253000704700BF30B2000830B5C0F3072585B042
:10254000EB1A01901046DCB2FFF77AFFC0EB801364
:1025500000EB830004440020E4B26C4324128DF8A5
:102560000540019BDAB262F30700C3F3072262F36E
:102570000F20C3F3074363F3174005B030BD30B5F8
:10258000C0F3074585B0EB1A01901046DCB2FFF7A7
:1025900057FFC0EB801300EB830004440020E4B23B
:1025A0006C4324128DF80640019BDAB262F30700F7
:1025B000C3F3072262F30F20C3F3074363F317400B
:1025C00005B030BD30B585B0C0F3072501909DF84A
:1025D00020001C1A1046FFF733FF2C44E4B2241AE3
:1025E0000020E4B26C4324128DF80540019BDAB25E
:1025F00062F30700C3F3072262F30F20C3F307431C
:1026000063F3174005B030BD30B585B0C0F3074562
:1026100001909DF820001C1A1046FFF711FF2C4472
:10262000E4B2241A0020E4B26C4324128DF8064070
:10263000019BDAB262F30700C3F3072262F30F20B3
:10264000C3F3074363F3174005B030BD84B0019076
:1026500000208DF80420019BDAB262F30700C3F377
:10266000072262F30F20C3F3074363F3174004B05C
:102670007047000084B0019000200B4B03EB410336
:1026800093F85A309B1A8DF80430019BDAB262F34A
:102690000700C3F3072262F30F20C3F3074363F37A
:1026A000174004B0704700BF30B2000884B00190FA
:1026B00000200B4B03EB410393F85B309B1A8DF822
:1026C0000430019BDAB262F30700C3F3072262F31E
:1026D0000F20C3F3074363F3174004B0704700BFF4
:1026E00030B20008144B2C3130B503EB4104E578CF
:1026F00003EB4103A5F1200464B29B78002CB8BF22
:10270000C5F1200585B0B8BF6CB29A1A0190224479
:10271000C0B210448DF804000020019BDAB262F3CD
:102720000700C3F3072262F30F20C3F3074363F3E9
:10273000174005B030BD00BF30B2000884B0019032
:1027400000209DF8102003EB430302EB53038DF8A8
:102750000430019BDAB262F30700C3F3072262F38D
:102760000F20C3F3074363F3174004B070471FB54E
:10277000019010461C46FFF763FE031900208DF8F8
:102780000430019BDAB262F30700C3F3072262F35D
:102790000F20C3F3074363F3174004B010BD1FB508
:1027A00001909DF818001C1A1046FFF749FEE4B28C
:1027B000241A00208DF80440019BDAB262F307006E
:1027C000C3F3072262F30F20C3F3074363F31740F9
:1027D00004B010BD84B0019003F12C00104B03EB4A
:1027E0004003D8789B782038703B4B4302FB003283
:1027F00000209DF80430002AB8BF7F3203EBE213BB
:102800008DF80430019BDAB262F30700C3F30722AC
:1028100062F30F20C3F3074363F3174004B070471C
:1028200030B2000884B0019003F12C00104B03EB90
:102830004003D8789B782038703B4B4302FB003232
:1028400000209DF80430002AB8BF3F3203EBA213EA
:102850008DF80430019BDAB262F30700C3F307225C
:1028600062F30F20C3F3074363F3174004B07047CC
:1028700030B200081FB5164C2C3304EB4304E37848
:10288000A478203B5343A4F1700252B2002ABCBF8B
:10289000C4F1700462B2C2F1380201FB023111EBE3
:1028A0004101019048BF7F31C0B200EBE1108DF8CB
:1028B00004000020019BDAB262F30700C3F3072291
:1028C00062F30F20C3F3074363F3174004B010BD56
:1028D00030B20008114B84B003EB410393F85A1057
:1028E00001908B1A5BB2002BBCBF521A53B2182254
:1028F000DBB25343C0B200EB13208DF8040000207C
:10290000019BDAB262F30700C3F3072262F30F20E0
:10291000C3F3074363F3174004B0704730B20008B5
:10292000C94384B00190C9B2C0F3074041430020BD
:1029300009128DF80610019BDAB262F30700C3F3A7
:10294000072262F30F20C3F3074363F3174004B079
:102950007047C94384B0C1F3850101900144002050
:102960008DF80410019BDAB262F30700C3F307226B
:1029700062F30F20C3F3074363F3174004B07047BB
:1029800084B003EB8302BDF81030019013449BB276
:10299000FF2B28BFFF23DB43C0F30740DBB2034418
:1029A000FF2B28BFFF2300208DF80630019BDAB2F1
:1029B00062F30700C3F3072262F30F20C3F3074358
:1029C00063F3174004B0704700291FB5B8BF4942F0
:1029D000002AB8BF524209B2090112B2FF294FEAD8
:1029E0000212A8BFFF21FF2AA8BFFF22BDF818408E
:1029F00009B2234412B29BB29142D4BF5B189B1818
:102A00009BB2FF2B28BFFF23DB430190DBB2C0F357
:102A100007400344FF2B28BFFF2300208DF806301A
:102A2000019BDAB262F30700C3F3072262F30F20BF
:102A3000C3F3074363F3174004B010BD1FB5482B21
:102A40000190C0F3074030D8BDF81840E31A9BB29C
:102A5000FF2B28BFFF23083189B2102905D902F1C5
:102A6000080189B2112928BFFF23DB43DBB21844D8
:102A7000002AB8BF0332FF2828BFFF208DF80600C8
:102A800000200B49497801EBA2028DF80420019B3C
:102A9000DAB262F30700C3F3072262F30F20C3F335
:102AA000074363F3174004B010BDFF23D3E700BF13
:102AB0002824002084B0BDF81020C0F30741D31AA9
:102AC0009BB2FF2B28BFFF23DBB2DA43D2B2114403
:102AD000FF2928BFFF210190034400208DF8043016
:102AE0008DF80610019BDAB262F30700C3F30722E8
:102AF00062F30F20C3F3074363F3174004B070473A
:102B000084B0BDF810200190D31A9BB2FF2B28BFD0
:102B1000FF23DB43C0F30740DBB20344FF2B28BF96
:102B2000FF2300208DF80630019BDAB262F3070024
:102B3000C3F3072262F30F20C3F3074363F3174085
:102B400004B07047024B1A7810431870704700BFEA
:102B5000B821002000F0D4B808B5074B074A187018
:102B6000074B1B78C3F30103137000F01FF9032216
:102B7000044B1A7008BD00BFB00E0020AF0E00203D
:102B800028240020AC1100200C4A03460846117886
:102B9000890711D063B12C2B0CD803F03F031178B7
:102BA00063F3870111700022054B1A70FFF7CABF4B
:102BB0000123F4E72C23F2E7704700BF282400200C
:102BC000AC11002030B4074C0546184623789B070B
:102BD00005D06570A170E27030BCFFF7B3BF30BCA8
:102BE000704700BF28240020034903464878CA786C
:102BF00008308978FFF7E6BF28240020054910B483
:102C00004C780346083CCA78A0B2897810BCFFF71C
:102C1000D9BF00BF2824002010B4064C0346A17879
:102C2000E2781031FF2928BFFF216078C9B210BCBB
:102C3000FFF7C8BF2824002010B4064C0346A17833
:102C4000E278103921EAE1716078C9B210BCFFF76F
:102C5000B9BF00BF2824002010B4064C0346E27818
:102C6000A1781032FF2A28BFFF226078D2B210BCB0
:102C7000FFF7A8BF2824002010B4064C0346E278D2
:102C8000A178103A22EAE2726078D2B210BCFFF763
:102C900099BF00BF282400206FF40042074B1A633D
:102CA0004FF055321A6000225A609A60DA60DA6298
:102CB0001A625A62024B1A70704700BF000400404B
:102CC0009C170020F0B50C4D00EB4007EE1996F86C
:102CD00001C044008C4505D1EF5D974202D1B67822
:102CE0009E4207D001272044044E2C183770617093
:102CF0002A54A370F0BD00BFAC1600209C17002022
:102D000070B5134605460E46002420463246294635
:102D10000134FFF7D7FF502CF7D170BD054BC1F13F
:102D20008041186901F2074101F00F01C84000F02D
:102D3000010070470004004070B5072301264FF4DE
:102D400000444FF00045184A06FA03F1014294612D
:102D500015D0062100BF00BF00BF00BF00BF00BFED
:102D60000139F7D10321956100BF00BF00BF00BF4B
:102D700000BF00BF0139F7D1013BE5D270BD03218F
:102D800000BF00BF00BF00BF00BF00BF0139F7D1C7
:102D90000621956100BF00BF00BF00BF00BF00BF9C
:102DA0000139F7D1E8E700BF0004004070B5124ECA
:102DB0003378FBB1302383F3118800250F4C207842
:102DC000FFF7BAFF6078FFF7B7FF0135A078FFF78C
:102DD000B3FF502D04F10304F1D14FF4E06300BFC1
:102DE00000BF00BF00BF00BF00BF013BF7D183F3AE
:102DF0001188337070BD00BF9C170020AC160020F6
:102E000000EB4003C3EB031300EB830083B200B27B
:102E1000002807DA803800B2002800DAFF3040F3DB
:102E20000720704703F18000F9E700000E4B1B7884
:102E3000D90710D49A0710D45B0710D40B4B1B781A
:102E40007BB11D2B4FF0500003D843431E20B3FB32
:102E5000F0F0C0B270471420FBE72820F9E75020BB
:102E6000F7E70820F5E700BF14240020162400200F
:102E70000F4B1B78D90710D49A0710D45B0712D4D4
:102E80000C4B187868B127280DD82823C000B0FB58
:102E9000F3F050B180B2C0B270470220FBE70420CB
:102EA000F9E70120F7E70820F5E70120704700BFA8
:102EB000142400201524002008B5A0F1CD03122B06
:102EC00010D8DFE803F00A1013192E2E2E2E2E2E06
:102ED0002E2E1C21252B363C4100FFF7A7FF404238
:102EE0001C4BD87008BDFFF7A1FFF9E7FFF79EFF65
:102EF0004042184B9870F5E7FFF798FFF9E7FFF7A6
:102F0000B7FF144B1871EDE7FFF7B2FF4042F8E747
:102F1000FFF7AEFF40420F4B5871E3E7FFF7A8FF02
:102F2000F9E701230B4AD138517883400B435370A2
:102F3000D8E7094A137843F001031370D2E7064A31
:102F4000137843F00203F8E7034A137843F00403CD
:102F5000F3E700BF172400201424002030B5414BB4
:102F6000CD2893F9041093F9052093F9024093F9C1
:102F7000035012D1002D01DA0022DA70D9789A7844
:102F80000A4351B20AB9384A11701A795B7913436E
:102F90005AB20BB9354B1A7030BDCE2802D1002D74
:102FA000EADCEBE7CF2804D1002CE7DA00229A70A4
:102FB000E4E7D02802D1002CF8DCDFE7D92804D1DF
:102FC0000029DBDD00221A71D8E7DA2802D10029B6
:102FD000D4DAF7E7DB2804D1002ACFDA00225A71CD
:102FE000CCE7DC2802D1002AF8DCC7E7D1380E286C
:102FF000C4D801A252F820F035300008353000085E
:10300000353000083530000835300008353000080C
:1030100035300008353000087D2F00087D2F00086E
:103020007D2F00087D2F0008433000084F30000836
:103030005930000801215A78814022EA01025A7071
:103040009CE70B490A7822F001020A7096E70849CA
:103050000A7822F00202F8E705490A7822F0040211
:10306000F3E700BF172400201624002015240020B9
:103070001424002002B1104770470000024B18686A
:1030800008B1036818477047D42300200B4B07B5DD
:103090001A8882420ED01880094B1B6853B1032254
:1030A0008DF80500000A8DF806001B698DF80420D4
:1030B00001A8984703B05DF804FB00BFAA160020E2
:1030C000D42300200B4B07B51A8882420FD01880FA
:1030D000094B1B685BB104228DF80500000A8DF8CE
:1030E00006001B698DF804200DEB0200984703B021
:1030F0005DF804FBA8160020D423002010B5164B61
:103100001B7893B1154B93F90030002B0DDAEF28A3
:103110004FEAD00308D8124A00F007001A440123EE
:10312000917883400B43937010BD00224FF0FF3322
:103130000C4911F8014FA042F6D0B3F1FF3F01D185
:1031400004B953B20132062AF3D15A1CECD0064A14
:1031500013449870E8E700BF4C1100203A24002087
:1031600024160020451600204416002010B5124BEE
:103170001B789BB1114B93F90030002B0EDAEF282E
:103180004FEAD00209D801210D4B00F0070013448B
:103190009A78814022EA01029A7010BD00231946F4
:1031A000084A12F8014F01338442DBB208BF1170A4
:1031B000062BF6D1F1E700BF4C1100203A24002085
:1031C0002416002045160020BFF34F8F0549064BFB
:1031D000CA6802F4E0621343CB60BFF34F8F00BFB5
:1031E000FDE700BF00ED00E00400FA05002310B584
:1031F00021494B6090F8474090F8462042EA04226B
:1032000090F8484090F8490044EA0024100A032846
:103210001CD005D801280FD0022813D018460FE083
:10322000212821D02228F9D1022CF7D8134B53F8AA
:103230002400134B1B5D11E0124B4B601223084618
:103240000B6010BD104B4B605B23F8E7D2B2022A33
:10325000E4D80E4B53F822000D4B9B5C064A002825
:10326000486018BF1046EBE7022CD7D8094B53F83B
:1032700024000923F2E700BFA01600201CAC0008C0
:1032800018AC000806AC0008ABAB000838AC00086E
:1032900034AC000828AC000890F84A2090F84B00A5
:1032A000084942EA0022022A0B7807D1012B01D0FB
:1032B000062B05D14A78044B1A707047024A1370E6
:1032C000704700BF9C1600209916002070B590F83A
:1032D0004410044601F07F03212B40F0938011F04D
:1032E000800F90F8453052D0022B34D0032B27D0DA
:1032F000012B4CD190F8483090F84610022B00F288
:10330000A580082900F2A280544AD25C022A00F269
:103310009D80A820524B00FB0233D3F8A430002B31
:1033200000F094804F4D5E6818682A46B04705F15A
:103330000803A363AB6C0022E3632264012070BD29
:1033400090F8482090F8493052EA03225AD1464B6F
:1033500083630123F0E790F8483090F84610022B81
:1033600074D8082972D83D4AD25C022A6ED8A820A7
:103370003B4B00FB0233D3F8A430002B66D05A69D4
:1033800018689047394B1870A3630123D3E70A2BC1
:103390001FD00B2B0FD0092B34D194F8483094F860
:1033A000492043EA022323F002035BBB304B314A3E
:1033B000A3630223C0E794F8483094F8492053EA05
:1033C000022303D194F84620274B1A700023A363ED
:1033D000B1E794F8483094F84610022B94F847204F
:1033E00034D8082932D81D48C05C02282ED8A82518
:1033F0001B4B05FB0033D3F8A4303BB31D691868A1
:10340000A847E3E701F09F01812916D194F84530E0
:10341000062B12D194F84920616894F848304D6821
:1034200043EA0223204694F8472094F84610A84720
:1034300060B14368A36303687DE70325084ED6F8AF
:103440009C302BB9013D06F1A806F8D1002076E7A3
:10345000204698470028F5D070E700BFA8AB0008C9
:10346000CC0E00204C1600204C1100209816002095
:103470009C16002099320008014B1878704700BF55
:1034800099160020302383F31188026943699A4218
:1034900010D1C36883B10123D0F8882090F88C1034
:1034A00012898B4013420CBF01200020002383F3BC
:1034B000118870470020F9E71846F7E7036843B121
:1034C0009100196003490B78002A18BF43F00103EB
:1034D0000B70704740230020006810B10068C0F3F3
:1034E00087007047036870B50BB9002070BD3023AA
:1034F00083F31188036800211C685B6881F31188DD
:10350000002CF2D04FF47A76074A0848D569084A69
:10351000ED1AE5FB06010023FEF768FC84428CBF30
:1035200000200120E2E700BF502300209F86010019
:10353000A08601004B1E072B0BD850F8213043B159
:103540009100196003490B78002A18BF43F001036A
:103550000B70704740230020082906D850F821003E
:1035600020B10068C0F3870070470020704700005A
:10357000082970B501D9002070BD50F82130002B0A
:10358000F9D0302383F3118850F8213000211C68D2
:103590005B6881F31188002CEDD04FF47A76074AEE
:1035A0000748D569074AED1AE5FB06010023FEF737
:1035B0001DFC84428CBF00200120DDE75023002049
:1035C0009F860100A086010010B51B4B1B78EBB154
:1035D0001A4B93F90030002B18DAFEF72BFD184C2C
:1035E0002022607017492046FEF7D0FB10B320223E
:1035F00021461448FEF7C8F9134B1B68D3B10622C5
:103600009B6822702046BDE810401847FEF712FD67
:103610000E4C082220700E492046FEF7B7FB48B139
:10362000082221460A48FEF7AFF9074B1B680BB189
:103630005B68E7E710BD00BF4C1100203A24002072
:1036400024160020B2230020D4230020441600209A
:10365000D823002038B51C4B1B78D3B19378C3B165
:1036600014785578844201D0854212D185424C7934
:103670000CBF012100211144CC7014BF0121002195
:103680005018C07828B1022B05D014D9D81E0128B3
:103690000CD9012038BD505C2CB9FFF72FFDFFF786
:1036A00093FF0020F6E7FFF761FDF8E7033B18BF43
:1036B00001239942F5D0505C14B9FFF71FFDE8E7EC
:1036C000FFF754FDE5E700BFAD11002028B1034B23
:1036D0001A7810431870FFF777BF70473024002026
:1036E00008B528B1FEF7DCFCBDE80840FFF76CBF69
:1036F00008BD000028B1034B1A7810431870FFF77B
:1037000063BF70473C24002030B1044A137823EA99
:1037100000031370FFF758BF704700BF3C24002020
:1037200010B5044602698169FFF7A4FC074AE178F5
:103730001378207923EA01031370FEF7B1FCFFF739
:1037400043FF00232360A38010BD00BF3C24002062
:10375000437910B59A07044613D4104A43F0020384
:1037600011784371C3780B4313700D4A03791178B4
:103770000B431370FFF728FF2046E268A169FFF7AB
:1037800079FC0022074B1A806379DB0704D42046BA
:10379000BDE81040FFF7C4BF10BD00BF3C240020AF
:1037A000302400208824002008B5034806F056FD88
:1037B0000022024B1A7008BD28240020B8210020E6
:1037C000006810B440B1054C8264E469083040F8E8
:1037D000044C10BCFEF7D8B810BC70475023002032
:1037E0000168134631B18A6C03F108009A6408310C
:1037F000FEF7CAB87047000010B40C78082C0BD83C
:1038000050F8240040B1054C8264E469083040F867
:10381000044C10BCFEF7B8B810BC70475023002011
:103820000829134609D850F8211031B18A6C03F1E8
:1038300008009A640831FEF7A7B8704701460822CD
:10384000012006F0C3BB01462022002006F0BEBBCB
:1038500001460622002006F0B9BB014603220020E3
:1038600006F0B4BB002307B501220DF107018DF866
:10387000073006F0E5FC9DF8070003B05DF804FB97
:10388000082838B517D8052915D80E2A13D81E23AD
:10389000540003FB0144B42303FB004404F128005B
:1038A000FFF7E0FF050204F12900FFF7DBFFADB2EF
:1038B000284380B238BD0020FCE7800038B500F214
:1038C0007C6559B12846FFF7CDFF04020120A4B260
:1038D0002844FFF7C7FF204380B238BD00F27E6066
:1038E000FFF7C0FF0402A4B20320F1E7CAB2C1F39C
:1038F0000721052982B006D80E2A14D8082812D824
:1039000002B0FFF7BDBFFD2906D162B908280AD869
:10391000012102B0FFF7D1BFFC2904D11AB9082850
:1039200001D81146F5E7002002B070477FB50824A2
:10393000104BADF804001D880F4B1B881D43ADB222
:1039400045FA04F3DB0705D4013CF9D200263046E2
:1039500004B070BDBDF80430E6B2ADF80C30039988
:103960003046FFF7C3FFFEF78BFC80B20128EBD097
:10397000EDE700BF362400203424002013B5028870
:103980004379ADF80420019873B169B1FFF7CEFF18
:10399000044601460198FEF7D1FA2046019902B08B
:1039A000BDE81040FFF7A2BFFEF7E8FA0446F4E7CF
:1039B0001FB5ADF804000198FFF7B8FFBDF804305B
:1039C000ADF80C300399FFF791FF05B05DF804EBFB
:1039D000FEF756BC08B503460079A8B11888FFF772
:1039E000E7FFC3B2C0F30330062813D094BF0E30F4
:1039F000063000F00F00012810D8F02B10D004D8AA
:103A0000E72B8CBF0020012008BDF42B14BF002041
:103A10000120F9E7E72B03D9F12BF7E70020F3E7C3
:103A20000120F1E7242008B5FFF71CFF242801D06E
:103A3000002008BD2520FFF715FF1028F8D126200B
:103A4000FFF710FFA0F1310358425841F1E708B5E4
:103A50002720FFF707FF08BD002307B502220DF15D
:103A60000601ADF8063006F0EBFBBDF8060003B02A
:103A70005DF804FB084B1B784BB1084B93F9003001
:103A8000002B04DA1E2200210548FDF799BD06220D
:103A900000210448F9E700BF4C1100203A2400201F
:103AA000261600204616002010B50446006840B1D6
:103AB000826C00210830FDF783FD002223681A6024
:103AC0005A6010BD70B50026051F00F1200455F89E
:103AD000040F38B1826C00210830FDF771FD2B68AE
:103AE0001E605E60A542F2D170BD37B5406BD0F864
:103AF00088402378042B13D1012390F88C5022891D
:103B0000AB4013420CD101A904F0C1FE024638B10A
:103B100029462046019B03B0BDE8304005F02CB893
:103B200003B030BD08B50846302383F311880A7D01
:103B30000023052A06D8DFE802F00B050503120E64
:103B4000826913604FF0FF33836105F049FD002364
:103B500083F3118808BD82699368013393604268DA
:103B6000036813605A60EDE737B50C460546FFF76A
:103B700079FEA04207D0012228460DF107018DF8F9
:103B8000074006F0FDFA03B030BD082838B51D46E1
:103B900016D8052914D80E2A12D81E23540003FB68
:103BA0000144B42303FB0044290A04F12800FFF771
:103BB000DBFFE9B204F12900BDE83840FFF7D4BFCC
:103BC00038BD082838B51C4615D8A1B9800000F2C8
:103BD0007C65190A4AB12846FFF7C6FF0120E1B209
:103BE0002844BDE83840FFF7BFBF00F27E60FFF712
:103BF000BBFF0320F3E738BD2DE9F84F0024DFF8C1
:103C00007C80DFF87CA0D1460027E6B211E0052CCD
:103C1000D4BF39F815300123EAB259463046013590
:103C2000FFF7B3FF0F2DF2D10137062F09F11E095F
:103C30000DD000255FFA87FBE9E7B8F800300122D4
:103C400000213046FFF7BDFFB8F8023008E0052C30
:103C5000F3DD012300211A463046FFF7B2FF0123AE
:103C60000022304611460134FFF7ABFF092C08F162
:103C700004080AF1B40AC6D1BDE8F88F7CB0000888
:103C800044AC000810B54FF4D46420460021013440
:103C9000FFF76AFFB4F5006FF7D110BD08B568B142
:103CA00024210846FFF760FF10212520FFF75CFF65
:103CB0003121BDE808402620FFF756BFFF21242010
:103CC000FFF752FFFF212520FFF74EFFFF21F0E70E
:103CD00008B50020FFF7E2FF27200021FFF744FF8F
:103CE000FFF78AFFFFF7CEFFBDE808400120FFF78E
:103CF000D5BF37B50C460546FFF7AEFEA04207D04C
:103D0000022228460DF10601ADF8064006F038FA09
:103D100003B030BD094A08B55378C3F3800181422E
:103D20000BD060F38203537004201188FFF7E1FF8A
:103D3000BDE808400220FEF765B908BD3A2400201E
:103D400007B506F0B6FA4FF6E5610020FFF7D1FFA0
:103D500000210220FFF708FF01211C4B03201980DE
:103D6000FFF702FF4FF4A0510420FFF7C2FF00212C
:103D70000620FFF7F9FE00210720FFF7F5FE0820D7
:103D800006F083FA00212320FFF7EEFE00210C202D
:103D9000FFF7EAFE00210D20FFF7E6FE00220023D8
:103DA0006846CDE9002306F059FA1F2006F06DFAA7
:103DB0000020FFF773FFFFF78BFF0F2006F065FA77
:103DC000132003B05DF804EB06F05FBA3424002042
:103DD000002208231146014806F080BB0C08004071
:103DE000F7B51F464BBA090C064615468DF8040078
:103DF000ADF806308DF80510FFF7EAFFE8B10421B1
:103E00000DEB010006F0CEFB044648B945B1022E89
:103E10000BD0032E0ED12846B9B206F0CDFB0446D6
:103E200006F0D4FB204603B0F0BD2846B9B206F038
:103E3000B9FBF4E74FF0FF34F2E74FF0FF34F1E75E
:103E400010B40346006F0278042A12D1012293F8BD
:103E5000741044898A4022420BD11A695C69A242DB
:103E600001D1DC682CB9DB6910BC043B043204F0DE
:103E70005BBE10BC7047406BFFF7E2BF08462DE900
:103E8000F843052900F2DB80DFE811F0AD00D9002E
:103E90000600AD00AD00DB00302383F3118800275E
:103EA0003E46704D704CD5F8883095F88C90E86C93
:103EB00003EB890805F13803C8F80C3018B1142257
:103EC0000021FDF77DFB286D18B114220021FDF7BC
:103ED00077FBD8F80C2009F00F01A173136803F0E9
:103EE0000303002978D0022B4DD0032B4BD0012B9C
:103EF00025D153690BB993690BB3E0205A4B4FF0AE
:103F0000010C9874108A0CFA01F1C0F3C700187400
:103F100040205874082058745874D879C9B208439E
:103F2000D871C0205875528AC2F3C702DA74802251
:103F30001A7510221A751A755A7A11435972284641
:103F4000013706F038F8032F2E7205F1A805AAD123
:103F5000464C636A204663612361E660A662E662BE
:103F600006F01AF820462672FFF76AFF86F31188DA
:103F70003F4B1B7813B1052006F0D8F80220BDE8AE
:103F8000F84306F0D3B8536983B10023A374138AAE
:103F90000120C3F3C70323744023637408236374AD
:103FA0006374E37988400343DBB2E3719369002BC8
:103FB000C5D000232C484375538A0122C3F3C7039D
:103FC000C37480230375102303750375437A8A40F5
:103FD0001343DBB24372B2E7002BB0D1E37943F075
:103FE0000103E371ABE706F0A1F8302383F31188F6
:103FF000002501261B4C2046267205F0CDFF2046E9
:1040000005F0D9FFD4F8A43013B1DA6818689047E6
:104010000135032D04F1A804EDD101230025134C33
:104020002046237205F0B8FF636A2046E5606361AD
:104030002361A562E56205F0AFFF85F31188BDE855
:10404000F883302383F311880023064A137282F821
:10405000B03082F85831054A137283F31188052075
:104060008DE700BFCC0E002000400140C4100020AE
:10407000FA21002000EB8103F7B59C6905460E4646
:10408000002C3AD0302383F311880023226984F86E
:10409000A03063699A4201D1E36803BB05EB860354
:1040A000DB685B691B68D3B1D4F8A47047B101A980
:1040B000204604F0ECFBBB680146019A386898473B
:1040C000E368E2690133E360636920461344A2694F
:1040D0006361934224BF636A636105F051FF204628
:1040E00001A904F0D4FB024648B1019B31462846A1
:1040F00004F042FD002383F3118803B0F0BD05EB0B
:104100008603DB681A68022AF4D15A691268002A09
:10411000F0D01B8A013B1340ECD105F14402E5E7E6
:1041200001F1090310B550F8234034B3302383F371
:10413000118800EB8100C3689B695B68BBB194F890
:104140007420236F204603EB8203DB689B695A6867
:1041500023691A60E2680132E260E2691344A269ED
:104160002361934224BF636A236105F009FF20465F
:10417000FFF766FE002383F3118810BD704708B572
:10418000302383F31188012100F00F03994020228E
:1041900020F00F0004F04AFE002383F3118808BDCD
:1041A0000123C1F1804101F2074101F00F012022FA
:1041B000024803FA01F104F039BE00BF00040040D8
:1041C000044B93F804281AB9012083F804087047B7
:1041D0000220704798190020054B93F8042822B15B
:1041E0000022012083F8042870470220704700BF96
:1041F0009819002008B5064B4FF4006200211846BC
:10420000FDF7DEF940F60802C0F8002808BD00BF3F
:10421000981900207FB503462749C3F3074213F4DA
:104220007F4F895CC0B2C3F3072642D00624FF2328
:1042300044439A1BB4FBF3F46FF05403634303EB62
:10424000400303EB4303DBB203FB06F5C3F1FF03BB
:1042500073432D121B12C5F1FF05C3F1FF034A433F
:104260004D434B43C2F30722C5F30725C3F307238E
:10427000062C19D8DFE804F00406110F1418040006
:104280000D461946002061F3070065F30F2062F325
:10429000174004B070BD0B46294615461A46F1E793
:1042A0001D460B461146F9E70B4611462A461D46A8
:1042B000E8E70A460D46E5E79CB00008012830B55E
:1042C00001D8C0B230BDB0F5F75F88BFFF224FF014
:1042D00001049EBF42090832D2B2A3185910C3F399
:1042E0004705C3F34F035B439BB2984206D2013D9F
:1042F000EAB29442F1D9013CE0B2E3E7FF2902D0EF
:104300000135ECB2F5E70846DCE71FB592B2019043
:1043100048B2002802FB02F2BCBF494248B2C0F1D9
:10432000380000FB002080B21C46FFF7C7FF00EBFF
:104330004000044400208DF80440019BDAB262F38F
:104340000700C3F3072262F30F20C3F3074363F3AD
:10435000174004B010BD0000074B188800EB402246
:1043600000EB820000F55850193080B2188000EB45
:104370001020C0B2704700BFB20E002041064CBFF3
:10438000C343024610B548BFDAB20D4CC2F3011266
:1043900004EB420148BF03F00F03497854BF00F01B
:1043A0000F030133594314F81230020603EB2113B3
:1043B000DBB244BF5B42DBB283F0800010BD00BFC4
:1043C00094B0000830B50D4685B00190C4B21046D7
:1043D000FFF7D4FF124901EB450191F85A30C2189A
:1043E000D2B2A2F180035BB2002BBCBFC2F180024B
:1043F00053B20C2200205B00DBB2534304EB1324C6
:104400008DF80440019BDAB262F30700C3F3072280
:1044100062F30F20C3F3074363F3174005B030BDC9
:1044200030B20008FEF74EBC03010020DBB203F1FE
:104430001002D2B2502A63F30700134628BF50235C
:1044400082B063F30F2002B070470000302370B5D4
:1044500083F31188124B13481349DC6903680A6817
:10446000E41AA242114A0AD9A3F58333E03B036060
:1044700010680F4B04F583340344E03413600C6080
:104480001668002181F311884FF47A7509480023DA
:10449000E4FB0501084AFDF7A9FC304470BD00BFEC
:1044A00050230020A8210020A4210020A0210020CA
:1044B00088598F029F860100A08601002DE9F041F6
:1044C0008846164600251F460E4B2A01995C03EBD1
:1044D000051491B9012160709954FFF7B7FF9DF859
:1044E00018307600A3739DF81C306060C4F8088013
:1044F00026736773E373BDE8F0810135142DE4D1B1
:10450000F9E700BF8C24002013B5FF2403222346C3
:10451000C821022001940094FFF7D0FF0322234614
:104520001046C82101940094FFF7C8FF23460322D8
:10453000C8213F2001940094FFF7C0FF23460322C7
:10454000C821042001940094FFF7B8FF02B010BD09
:10455000FF2313B504460322C8214F200193009383
:10456000FFF7ACFF84B1002403222346C8214E206C
:1045700001940094FFF7A2FF23460322C82120469E
:1045800001940094FFF79AFF02B010BD38B5FFF711
:104590005DFF00F57A75FFF759FF854214D9FFF7E3
:1045A00017FCA0B1052005F0D9FF05F0E9FF04468E
:1045B00006F00CF8002C04DB14F00104EBD12046CB
:1045C00038BD231DE7D0FAE76FF00104F7E74FF09D
:1045D000FF34F4E738B5FFF7D9FF054690B9FFF788
:1045E000F7FB044670B1062005F0B8FF05F0EEFFBA
:1045F0002B462A462946D820FFF7F2FB10B9FFF7D1
:10460000C5FF00B10024204638BD2DE9F041074622
:104610000C46D600FFF7BAFF054648B132460021E6
:104620002046FCF7CDFFB5FA85F04009BDE8F081E2
:104630003346224639460320FFF7D2FB05460028C1
:10464000ECD121462644D1E90023D243DB4341F893
:10465000082BB14241F8043CF5D1E4E72DE9F04FD5
:10466000074615464FF0000AC3B00191202D2E4693
:1046700028BF2026F3001A460093019B02A803EBF3
:10468000CA01FDF781F9002202ABD3E90001C04362
:10469000C943013243F8080B964243F8041CF4D195
:1046A000B946DDF800800DF1080B5FFA89F4C4F516
:1046B0008074444528BF4446FFF768FF40BBFFF7BE
:1046C00087FB28B3062005F049FF05F07FFF23464E
:1046D0005A4649460220FFF783FBC8B9B8EB0408E5
:1046E000A344A144E1D1FFF751FF88B9FFF770FB64
:1046F000044668B1042005F031FF05F067FF009B18
:10470000AD1B1F44B244B1D1204643B0BDE8F08F89
:104710000024F9E72DE9F347FFF75CFF0146A0B15C
:10472000FFF74EFD2A4904464FF480720020FFF740
:1047300095FF274D0146002841D1012C01D1FFF7FB
:104740004BFD40F60803C5F80038084602B0BDE846
:10475000F0871CF8013B4FEA4E195A40A2FB06387D
:1047600006FB0E884FEA421A49EAD26913EB0A03A4
:1047700048EB09084FEAC21A9B184FEACE194FEAD4
:1047800002274EEB080849EA526913EB0A034FEA85
:104790000E2E48EB09084EEA126EDB1948EB0E0E9E
:1047A000BE44C2180139D4D16946CDE9002E4FF478
:1047B00000600122FFF752FF4100C9B2BDE740F699
:1047C0000101AC4600201226024ADFF80CE0E9E7BE
:1047D0009819002025232284E49CF2CB044BD3F8C3
:1047E0000038B3F5805F01D3FFF794BF0120704715
:1047F000981900202DE9F04FA24B93B01B78A24DE1
:10480000834202904AD1A14A2B78127803F0030325
:104810009B1A18BF0123DFF878A29AF801208AF8C2
:1048200002306B799A4206D00022114610468AF86F
:104830000130FEF78FF9029A2C2A00F22883DFE874
:1048400012F02F0047007000B300E9002F016F0144
:104850007301750188018A018E0190019201940112
:10486000960198019A019C019E01A001A401A60154
:10487000A801D8010902530255025702E3029E0320
:104880005F04EB04920597059905A405A705AE05FD
:10489000B005B705B905C005C205C9050123BAE7CA
:1048A0009AF80230002B00F097850022114610463E
:1048B000FEF750F902229AF8003001338AF80030EE
:1048C000744B1A709AF80230002B00F08A8553E37B
:1048D0009AF80000FFF7A8FD6F490322ADF84000E9
:1048E000C5B2C0F3072411A8FDF74EF81198FFF7E1
:1048F00091FC6A4EC2B2C0F30721C0F30743E8B28D
:10490000844204D84F2C8CBF0020012011E1705D3F
:104910009AF80170384202D02846FFF783FD01352E
:10492000EDE79AF80000FFF77FFDAA78EB7895F89D
:1049300001808DF845208DF844808DF84630C6B250
:10494000ADF84000C0F307241198FFF763FCC0F3F3
:10495000074301932B795FFA80F998448DF84480DE
:10496000C0F307271198FFF755FC3546C0F30743FE
:104970004A4E5FFA80FBC0F307280393EBB29C42D8
:10498000C0D9735D9AF8012013420BD0D80747BFF6
:104990005A4641464A46394628464CBF039B019B2E
:1049A000FFF740FD0135E9E79AF80000FFF73CFD0D
:1049B000DFF8E880EB782F7995F80290ADF84000A9
:1049C000C0F307240193BF08C6B2A8F19F0BF3B24E
:1049D0009C4297D918F806309AF80120134217D054
:1049E0001BF816206B78120902FB07338DF8443050
:1049F000019B8DF845908DF846301198FFF70AFC21
:104A0000C0F30743C2B2C0F307213046FFF70AFDE7
:104A10000136DCE79AF80000FFF706FDDFF87C803E
:104A2000AB782F7995F80390ADF84000C0F30724D8
:104A30000193BF08C6B2A8F1A00BF3B29C427FF667
:104A400061AF18F806309AF80120134217D01BF80E
:104A500016206B787A4303EB62138DF84430019B88
:104A60008DF846908DF845301198FFF7D3FBC0F3D1
:104A70000743C2B2C0F307213046FFF7D3FC01362B
:104A8000DBE700BFB00E002028240020AF0E00207E
:104A9000AC0E0020AC110020292400202AB300080D
:104AA0009AF80000FFF7C0FCBB4BADF84000C6B25F
:104AB000C0F3072418882B79EF78DB085843C0F33C
:104AC0000720FFF75BFCA0F180035BB2002BBCBFAB
:104AD000C0F1800043B25B00DBB27B4395F80190EC
:104AE00095F802801B128DF846308DF844908DF8B1
:104AF00045801198FFF78EFBA84DC2B2C0F3072185
:104B0000C0F30743F0B284427FF6FCAEA85D9AF88A
:104B10000170384202D03046FFF784FC0136F1E7DD
:104B20009F4804F04FFB04E09E48FAE79E4804F0DB
:104B30009DF99E4B1A7801321A70002840F01C82B1
:104B400002219B4A9B781170002B40F01582029B3A
:104B5000BAE69848EBE7984804F0EAF9E9E797489D
:104B6000FAE79748DDE79748DBE79748D9E79748A2
:104B7000D7E79748F0E79748D9E79748D7E79748A6
:104B8000EAE7974804F048FAD3E79648FAE79648E8
:104B9000F8E79AF80000FFF747FC9AF80220ADF812
:104BA0004400C3B2C0F30724D2B92B797A4A103338
:104BB000FF2B28BFFF23128853430A22C3F30F237E
:104BC000B3FBF2F102FB11339BB2002B7FF49AAEE0
:104BD000FFF7C2FB50235843001204F087FA91E616
:104BE0001D46A542BFF68EAE284604F07FFA013579
:104BF000F7E79AF80000FFF717FC9AF80220ADF8E3
:104C00004400C3B2C0F30724DAB92B79624A1033E7
:104C1000FF2B28BFFF23128853430522C3F30F2322
:104C2000B3FBF2F202EB82029B1A9BB2002B7FF4E1
:104C300069AEFFF791FB50235843001204F092FA3B
:104C400060E61D46A542BFF65DAE284604F08AFA2E
:104C50000135F7E79AF80000FFF7E6FB6349032206
:104C6000ADF83C00C6B2C0F3072410A8FCF78CFED8
:104C7000494B6F7818882B79484DDB085843C0F3AF
:104C80000720FFF77BFB0C22A0F180035BB2002B17
:104C9000BCBFC0F1800043B25B00DBB2534307EB03
:104CA00013278DF840701098FFF7B4FAC0F307236C
:104CB0008DF84400C0F307408DF845308DF846006C
:104CC000F3B29C427FF61EAEAB5D9AF80120134210
:104CD00008D030469DF846309DF844209DF8451098
:104CE000FFF7A0FB0136EBE741481AE7414818E718
:104CF0009AF80000FFF798FB3F4E274BADF84000B5
:104D00001F683368C0F307249F427FF6FBADFFF7AF
:104D100023FB50235843394B4FEA202803EB202331
:104D200093F8FA209AF801301A423FF4EBADFFF7FE
:104D300013FB810764D4FFF70FFB0146FFF70CFB61
:104D400040F357037F33EA78DBB28DF844108DF8D7
:104D500045308DF846201198FFF75CFAC0F3072123
:104D6000C0F30743C2B28DF83C008DF83D108DF8BA
:104D70003E304046DBB2C9B2FFF754FB2B794FF40B
:104D8000FA721033FF2B28BFFF231B09B2FBF3F38A
:104D90003B443360B6E500BFD41800202AB30008B6
:104DA00089240008E124000839250008AC0E002001
:104DB000AC1100207F250008C52500080926000841
:104DC0004D26000875260008AD260008E5260008D7
:104DD0003D2700080B4300086F2700089F270008A5
:104DE000D527000825280008752800082924002058
:104DF000C5430008D5280008A417002030B20008D9
:104E0000002213461146A0E7B14BB24E1B68326830
:104E1000019301999AF802308A4238D8AE4C002B9F
:104E200039D19AF80000FFF7FFFA5FFA80FB0BEB2D
:104E30004B08AA4FADF84000C0F30729A0445FFA21
:104E40008BF3994563D8B9F14F0F40F29080A44994
:104E500009EB4909A9F10302C81EFCF733FBFFF770
:104E60007BFA830767D5002384F8ED3084F8EE30B1
:104E700084F8EF302B7940F6B8321033FF2B28BF7F
:104E8000FF231B09B2FBF3F3019A134433609AF832
:104E900000300133D1E200224FF0000811461046E5
:104EA000FDF758FEA1464746FFF756FA82070DD593
:104EB00089F8007089F8017089F8027008F101081A
:104EC000B8F1500F09F10309EED1AAE7FFF744FA50
:104ED0008DF84400FFF740FAEB7840F357007F303D
:104EE0008DF846308DF8450008EB4803119804EB27
:104EF000030B0293FFF78EF9029BE054C0F30723E4
:104F0000C0F307408BF801308BF80200D6E717F8A2
:104F10000B309AF80120134208D0584698F8023016
:104F200098F8002098F80110FFF77CFA08F10308C0
:104F30000BF1010B83E7FFF70FFA8DF84400FFF741
:104F40000BFAEB7840F357007F308DF846308DF840
:104F500045001198FFF75EF9C0F3072384F8ED00D0
:104F6000C0F3074084F8EE3084F8EF0082E79AF847
:104F7000003001338AF8003013B0BDE8F08F9AF8A2
:104F8000023023B1002211461046FDF7E3FD9AF8E6
:104F90000000FFF749FAC0F3072307934C4BADF825
:104FA0003C001B6801934F4B019A1B689A4240F2E8
:104FB000868003224C4911A8FCF7E6FC1198FFF704
:104FC00029F94A4CC0F30722A046C0F307438DF8E5
:104FD00041208DF84230C1B2D2B2DBB2444EDFF88C
:104FE00014918DF84000049105920693A24637462D
:104FF000D34600250F34039417F8013B002B61D0F2
:1050000004A90EC91BF8010B08EB000C9CF8FAE090
:1050100099F801C01EEA0C0F01D0FFF703FADDF882
:105020000CC01CF8010DCDF80CC008EB000C9CF86E
:10503000FAE099F801C01EEA0C0F01D0FFF7F2F96F
:1050400001353B78EDB2062D07F8013CD4D1B37998
:10505000002B3AD004A90EC99AF8060008EB000507
:1050600095F8FA7099F801502F4201D0FFF7DAF95C
:105070009AF8080008EB000595F8FA7099F80150C5
:105080002F4201D0FFF7CEF9FFF766F910F0030FBA
:105090000CBF01230023B371174B07369C42A5D1E7
:1050A000164B40F6B8321B791033FF2B28BFFF2375
:1050B0001B09B2FBF3F3019A13440A4A1360079BDE
:1050C0004F2B20E419461A469CE719461A46C3E7B7
:1050D000D418002098180020A81700202AB3000830
:1050E000AB170020C81800202924002030B2000887
:1050F0009C180020AC0E00208AB200082824002052
:105100009AF80000FFF790F9C3B201939AF80230C1
:10511000ADF83C00C0F3072B4BB1002211461046FE
:10512000FDF718FD5A220021AF48FCF749FA9AF81A
:1051300000307BB9AD4C2588FFF788F9401B80B261
:1051400018288CBF01220022A94B1A7002D9FFF740
:105150007DF9208000252F460026A64B05EB030A8B
:10516000A14B05EB03081AF8019B019B4B4542D864
:10517000CB4540D99F4B4B4493F8FA209E4B5B782C
:105180001A4236D098F800409C4904F1AA03FF2B3C
:1051900028BFFF2303EB43038A780233C978DBB2CD
:1051A0004B43A4F1550121EAE1711B0AC1F1AA01A7
:1051B0008DF840108DF841208DF842301098FFF79F
:1051C00029F8C0F30721C0F307438DF844008DF898
:1051D00045108DF84630C2B2DBB24846C9B2FFF77F
:1051E00021F9834B1B7823B1013C24EAE47488F84D
:1051F00000400137FFB20136F6B20F2E08F1010868
:10520000B1D14B2D03D1BBF14F0FFFF77CBB0F2F5B
:1052100005F10F05A0D9F6E7ED78794F05EB4503C9
:105220004FEAA30B9B080493FF23B3FBF5F303930F
:105230009AF802305BB1002211461046FDF78AFC55
:105240005A2200216848FCF7BBF900233B704FF05D
:105250000009DFF8B08198F80030013388F8003099
:10526000614B01930024634B019E4B4405933B78B3
:105270002343DBB273B9FAF7EBFF634B984209DCC7
:10528000019B1D705B4B13F80900FF2814D101240A
:105290000F36ECE733784BB19D4207D998F80020E0
:1052A00003998A4204BF03F1FF333370059AC4EBBC
:1052B0000413D05CFF2810D03278049B93424CD268
:1052C000A2EB0B030BFB03F3A5EB0B0293FBF2F337
:1052D0002A46DBB21946FFF7A5F80134062C06F181
:1052E0000F06C4D1019B09F101090133B9F10F0F78
:1052F0000193B7D198F80030039A934204BF00237A
:1053000088F800303B789AF800200133DBB21C2B80
:105310003B7040F29180002305203C4C3B706E1E98
:1053200022460F233A49052803D10F78BD4208BF12
:105330000E7012F8017F013BAF4224BF1670D57387
:1053400013F0FF0301F10101EDD1013810F0FF006E
:10535000A4F10F04E4D1FFF7ECBB6A43B2FBFBF20C
:105360000023D2B2B6E72B4803F082FFFFF7E1BB80
:105370002948F9E7294B2A491878013820EAE070D2
:10538000C0B203F0F1FFFFF7D4BB25490020F8E7D6
:10539000224B24491878013820EAE070F0E72149CF
:1053A000F4E71E4B20491878013820EAE070E7E75F
:1053B0001D49EBE7194B1D491878013820EAE070C8
:1053C000DEE71A49E2E7154B19491878013820EA57
:1053D000E070D5E71649D9E79AF8003001338AF82A
:1053E00000300322134B2CE050220020CE18002066
:1053F000CC18002030B20008AC0E00202824002079
:10540000D1180020D0180020545555058B220020BB
:105410009B2200202129000853290008B9210020DF
:1054200081290008C92900083D2A0008B52A00087A
:10543000012B0008AC110020531C02228AF8003016
:10544000014B1A7098E500BFAC1100202DE9F04324
:10545000A34C87B0D4F80080FEF7F8FF8146A0EB9C
:105460000806FEF7F3FF206000249E4F054697F8DC
:1054700000C02046614608F57F43FF33A3EB090EC9
:10548000E3B29C4515D800B13970974B1B783BBBF4
:10549000964B1B7813F0030400D09C08944E33788D
:1054A000032B00F2D381DFE813F01D002A00D401A2
:1054B000DA0104F10C0207EB4202537892F8028001
:1054C000013443EA08239E4529BF9B1901F1FF31AE
:1054D0005370C3F307233ABF0120C9B29370CFE7DB
:1054E0000024DBE70022834B7E491A70824B29227D
:1054F00082481D60FCF748FA01233370A6E120467C
:10550000FFF778F9002C00F0A1817A4B1878013868
:10551000C0B2FEF789FF7A4BADF800001B88C5B218
:105520001A0A002A16BF1346002108211A09C0F3DF
:1055300007240BD15A0852EA930207D131B96B4BB9
:105540005B79082B02D12E46A64252DB0120FCF7E4
:105550009FFC38B90320FCF79BFC18B90420FCF72A
:1055600097FC38B12E46A6424BDD0120FCF790FC9B
:1055700000286AD10220FCF78BFC002869D00026A5
:10558000604B01AF019317F8010B854206D88442A6
:1055900004D9802300211A46FEF744FF0136042E69
:1055A000F1D11022584902A8FCF7EEF9002702AE0B
:1055B00016F8010B854206D8844204D900231A4606
:1055C0001946FEF72FFF0137102FF1D1302D3ED8AD
:1055D000302C3ED90023FF211A463020FEF722FF4F
:1055E0004A2C36D9FF2300227A214A20FEF71AFFDF
:1055F0002FE0002330461A461946FEF713FF013606
:10560000A2E7B54207DCA64205DA002330461A4677
:105610001946FEF707FF0136A5E7B54207DCB4429D
:1056200005DD00233D22C0213046FEF7FBFE01369A
:10563000B442F2DA402D9DD8402C9BD9FF230021A3
:105640001A464020FEF7EEFE94E72E46F0E74A2D7C
:10565000C6D90320FCF71CFCA0B10D222B4902A8DF
:10566000FCF792F9002702AE16F8010B854206D826
:10567000844204D90023FF221946FEF7D3FE0137E6
:105680000D2FF1D10420FCF703FC002800F08F80DF
:105690002E46A64217DD2C2D3AD82C2C66D9002395
:1056A0002C201A46FF21FEF7BDFE0620FCF7F0FB7A
:1056B00098B3072D40F28580402C62D9FF2300214A
:1056C0001A4640209DE0B54207DCA64205DA0022DA
:1056D000FF2311463046FEF7A5FE0136D9E700BF8D
:1056E000A0170020AA220020FB210020282400204F
:1056F000AC110020AC0E0020D4180020B9210020ED
:10570000362400200527454C98A80008B1A90008B8
:105710000620FCF7BDFB002850D10027B846574EA5
:105720003378002B00F08C80D6F80490FEF78EFEC4
:10573000B368A0EB0900834275D8FEF787FE337B80
:105740007060002B6AD186F80080C6F804807078FB
:10575000B27B8542717BF37B72D8844270D9DB4384
:10576000D243C943DBB2D2B2C9B267E00620FCF72C
:105770008FFB0028D1D0072D9ED8072C21D8072DCC
:1057800035D107223E4902A8FCF7FEF8002702AEF9
:1057900016F8010B854206D8844204D980231A46A4
:1057A0001946FEF73FFE0137072FF1D1B5E7062076
:1057B000FCF76EFB0028B0D0072DDED9402DE0D8D5
:1057C0007AE70022FF2311460720FEF72BFE072D64
:1057D0003FF472AF13460620FF22FEF723FE052D8D
:1057E0003FF66AAF13460520FEF71CFE64E7072C60
:1057F0000AD0062DC5D0062CC3D1FF2300211A469E
:105800000520FEF70FFEBCE70023FF221946062005
:10581000FEF708FE052DB4D81346F1E7013BDBB2D5
:105820003373002B8FD0337BDB0790D570788542A4
:1058300006D8844204D9F37BB27B717BFEF7F2FD7C
:105840000137142F06F110067FF46AAF07B0BDE8E8
:10585000F083204607B0BDE8F043FDF77DB9094B62
:105860001B780BB1FDF7A0FF074B1C68FEF7EEFDA0
:10587000001B0F28EAD900233FE600BF8C2400203C
:10588000A8A80008B8210020D418002010B5FEF701
:10589000DDFD0D4B80B29A78D9780A4318BF0B4AC8
:1058A000597918BF10801A790A431CBF084A108022
:1058B000084A126832B1022119700348D368BDE862
:1058C0001040184710BD00BF17240020EE22002012
:1058D000EC220020D423002010B5044600285AD022
:1058E000031FDBB2A02B27D82B4B1B78A3B12B4B6C
:1058F00093F90030002B0FDA294B00F0070103EB7E
:10590000D0039A7801238B401A420ED02046FDF72F
:105910002DFCFDF759FE08E00023224A12F8011F72
:10592000A142F3D00133062BF8D12046FDF7E6FB68
:10593000BDE81040FDF748BE00F12003DBB2072BA5
:1059400008D80123184A00F007041178A3400B433C
:105950001370EDE700F15B03DBB2022B05D8BDE865
:105960001040243880B2FDF791BB00F15803DBB240
:105970001A2B06D8BDE810400C4A32F81300FDF788
:10598000A1BB3334E4B2122C05D8FDF795FABDE87B
:105990001040FFF77BBF10BD4C1100203A240020BF
:1059A0002416002045160020302400208AB3000869
:1059B00010B58378012B10D10C88A4F1E003072BDC
:1059C00000D944B909492046FCF72AFAE0B2BDE8FB
:1059D0001040FFF781BF0649F5E7022B04D1BDE86F
:1059E00010404B688878184710BD00BFCD360008BE
:1059F000F536000808B50346A0B3021FD2B2A02AAC
:105A000005D8FDF7B3FBBDE80840FDF7DDBD00F1AB
:105A10002002D2B2072A07D800F0070301209840DD
:105A2000C0B2FCF73DFBEEE700F15B02D2B2022A06
:105A300004D8BDE808400020FDF728BB00F158025B
:105A4000D2B21A2A04D8BDE808400020FDF73ABBBC
:105A50003333DBB2122B05D8FDF780FABDE80840DE
:105A6000FFF714BF08BD000010B500240E4B1C70DA
:105A7000FEF700F82046FDF709FB2046FDF722FB64
:105A80000A4B1C70FDF7A0FD214606220848FBF7D3
:105A900097FD084B1C70084B1C70084B1C70BDE830
:105AA0001040FFF7F3BE00BF302400203C2400204C
:105AB0001724002016240020152400201424002080
:105AC000464A13B5464B52F8041C99420CD10023A8
:105AD00042F8043C83F31488424B1A6882F3088826
