:020000040800F2
:1000000000040020B9010008BB010008BB01000882
:10001000BB010008BB010008BB010008BB010008D0
:10002000BB010008BB010008BB010008A9C2000811
:10003000BB010008BB010008BB010008EDD40008AB
:10004000BB010008BB010008BB010008BB010008A0
:10005000BB010008BB0100084534000885340008D6
:10006000C5340008093500084D350008BB010008FB
:10007000BB010008BB010008BDDB0008BB01000894
:1000800091350008BB010008BB010008BB01000856
:10009000BB010008BB010008BB010008BB01000850
:1000A000BB010008BB010008A9D70008BDD70008A4
:1000B000BB010008BB010008BB010008BB01000830
:1000C0000DD5000831360008BB010008E5360008F0
:1000D000BB010008BB010008BB010008BB01000810
:1000E00072B6264880F30888254880F30988254899
:1000F00025490860022080F31488BFF36F8F0BF04E
:10010000FFFD0BF0D9FB4FF0553020491B4A9142BF
:100110003CBF41F8040BFAE71D49194A91423CBF24
:1001200041F8040BFAE71B491B4A1C4B9A423EBF9D
:1001300051F8040B42F8040BF8E700201849194A5B
:1001400091423CBF41F8040BFAE70BF0DDFD0BF0E8
:10015000D8FD154C154DAC4203DA54F8041B884702
:10016000F9E706F063FC124C124DAC4203DA54F886
:10017000041B8847F9E70BF0C5BD00000004002010
:10018000000C00200000000808ED00E00000002046
:1001900000040020D4020108000C00209810002068
:1001A00098100020EC3E0020E0000008E00000086D
:1001B000E0000008E000000892E700F000F8FEE729
:1001C0002DE9F04FC1F80CD0C3689D46BDE8F08F13
:1001D000002383F311882846A04700200BF098FFE6
:1001E000FEE70BF0CBFE00DFFEE7000053B94AB993
:1001F000002908BF00281CBF4FF0FF314FF0FF302F
:1002000000F074B9ADF1080C6DE904CE00F006F809
:10021000DDF804E0DDE9022304B070472DE9F04782
:100220008C460446089E002B40F086808A42154684
:1002300048D9B2FA82F24AB1C2F1200701FA02F3B8
:1002400020FA07F7954047EA030C94404FEA154E11
:10025000BCFBFEF71FFA85F80EFB17C307FB08F976
:10026000210C41EA0343994509D9EB1807F1FF3105
:1002700080F0E180994540F2DE80023F2B44A3EB01
:100280000903B3FBFEF00EFB103300FB08F1A4B230
:1002900044EA0344A14209D92C1900F1FF3380F04C
:1002A000C880A14240F2C58002382C4440EA074091
:1002B0000027641A1EB10023D440C6E90043394622
:1002C000BDE8F087002A54D0B2FA82F2002A40F04A
:1002D000B4800127491B4FEA15481FFA85F9B1FB85
:1002E000F8FE08FB1E1109FB0EF04FEA144C4CEA15
:1002F0000143984207D9EB180EF1FF3102D2984220
:1003000000F2EB808E461B1AB3FBF8F008FB1033AB
:1003100009FB00F9A4B244EA0344A14507D92C190A
:1003200000F1FF3302D2A14500F2DB801846A4EBB6
:10033000090440EA0E40BDE78B4208D9002E75D073
:100340000027C6E9000138463946BDE8F087B3FA10
:1003500083F77FB98B4202D3824200F2BC80841AB9
:1003600061EB030301209C46002EA8D0C6E9004C97
:10037000A5E7FFDEC7F12005BB4022FA05FC4CEAE9
:10038000030C21FA05F44FEA1C4EB4FBFEF91FFAE8
:100390008CF80EFB194420FA05F3B94009FB08FA62
:1003A00019430B0C43EA0444A24502FA07F200FA8F
:1003B00007F30BD91CEB040409F1FF3080F08980AE
:1003C000A24540F28680A9F102096444A4EB0A0424
:1003D000B4FBFEF00EFB104400FB08FA89B241EAC0
:1003E0000444A24508D91CEB040400F1FF316CD28F
:1003F000A2456AD90238644440EA0940A0FB028958
:10040000A4EB0A044C454146CE4655D352D0002EAB
:100410006AD05A1A64EB0E0404FA05F522FA07F3BF
:10042000FC401D43C6E90054002748E737463046E4
:1004300045E718463AE70F4621E79540C2F1200309
:1004400021FA03F04FEA1548B0FBF8F71FFA85F9D7
:1004500008FB170E24FA03FC914007FB09FA4CEA4B
:100460000101080C40EA0E40824504FA02F407D963
:10047000281807F1FF332AD2824528D9023F2844A1
:10048000A0EB0A00B0FBF8FC08FB1C000CFB09F316
:1004900089B241EA00418B4208D969180CF1FF305A
:1004A00011D28B420FD9ACF1020C2944C91A4CEA83
:1004B000074714E74345AAD2B8EB020169EB0C02E7
:1004C00001389646A3E78446F0E7084694E71F46BE
:1004D000D6E781467AE7384646E7AEF1020E2B446E
:1004E00011E702382C4422E73746E8E6704700BFA0
:1004F00008B5062000F0C2FA01200CF03FFE00BF54
:10050000024B0146186800F055B900BF000C0020EE
:10051000024B0146186800F0F9B800BF000C00203B
:10052000032A70B412D940EA0105AD0704460B4610
:1005300020D11946204653F8045B54F8046BAE42B0
:1005400018D1043A032A20461946F2D8541E72B133
:1005500003780A789A4208BF241806D00CE010F8F5
:10056000013F11F8012F934206D1A042F7D100209C
:1005700070BC7047541EEBE7981A70BC704700BF00
:10058000844641EA000313F0030349D1403A23D3E0
:100590000B6803604B6843608B688360CB68C36003
:1005A0000B6903614B6943618B698361CB69C361EB
:1005B0000B6A03624B6A43628B6A8362CB6AC362D3
:1005C0000B6B03634B6B43638B6B8363CB6BC363BB
:1005D00040304031403ADBD230320BD30B680360FD
:1005E0004B6843608B688360CB68C3601030103108
:1005F000103AF3D20C3205D351F8043B40F8043BD7
:10060000043AF9D2043208D0D2071CBF11F8013BDA
:1006100000F8013B01D30B8803806046704700BFA0
:10062000082A13D38B07B1D010F00303AED0C3F167
:100630000403D21ADB071CBF11F8013B00F8013B91
:10064000A4D331F8023B20F8023B9FE7043AD9D308
:10065000013A11F8013B00F8013BF9D20B78037025
:100660004B7843708B78837060467047F0B4860790
:1006700046D0541E002A3CD0CAB2034602E014F110
:10068000FF3436D303F8012B9D07F8D1032C29D969
:10069000CDB245EA05250F2C45EA054533D9A4F12D
:1006A0001006360903F1200707EB061703F11002C5
:1006B00042E9045542E902551032BA42F8D1721C9F
:1006C00014F00C0F03EB021204F00F0613D0331FCB
:1006D00023F003030433134442F8045B9342FBD139
:1006E00006F003042CB1C9B21C4403F8011B9C4260
:1006F000FBD1F0BC704734461346002CF3D1F8E729
:1007000014460346C2E71A462646E0E700293AD0D7
:1007100038B551F8043C0C1F002BB8BFE41805464F
:1007200000F05AFA224B1A682AB1A2420DD9216868
:100730006018824221D0626028461C60BDE83840C3
:1007400000F04CBAA34203D81A465368002BF9D1E3
:1007500011685018A04217D022D82168601883422F
:1007600003BFD3E900030918C4E9001363605460B0
:100770002846BDE8384000F031BAD2E90002014411
:10078000C4E90012D8E7704720680144501883423A
:100790001160EDD1D3E900030144C2E90013E7E79A
:1007A0000C2328462B60BDE8384000F017BA00BF84
:1007B00098100020F8B5CD1C25F0030508350C2D48
:1007C00038BF0C25002D064633DBA94231D82A4F0D
:1007D00000F002FA3A6852B113685B1B04D43FE0A0
:1007E00023685B1B29D522465468002CF8D1796810
:1007F00000293BD0294630460CF0A4FC431C28D0ED
:10080000C41C24F00304A04205D0211A30460CF089
:1008100099FC01301DD02560304600F0DFF904F16D
:100820000B0020F00700231DC21A01D01B1AA35091
:10083000F8BD0C2200203260F8BD0B2B05D8A24277
:10084000636811D05360E7E7144623601C442560B9
:10085000E2E70C233046336000F0C0F90020F8BD19
:100860000B2BF1D8144653683B60D5E730460CF0AB
:1008700069FC7860BEE700BF9810002038B5124BC5
:1008800005461C68A06B18B10023C0E9045338BDAD
:100890001820FFF735FEA06378B101220023C0E9DC
:1008A00004230A4B0B24836000230949094A8481ED
:1008B000C0E90012C0E9045338BD0246064B42218C
:1008C000064800F041F900BF000C0020ECDE0500F6
:1008D0000E33CDAB34126DE6040201081C02010890
:1008E00038B51A4B1C68A26B92B114691849536948
:1008F00001FB04F1174800FB0313A4FB0045611C36
:100900001D4445F1000323F00040C2E9041338BD43
:100910001820FFF7F5FD0246A06388B101240025E9
:100920000B21C0E904450C4B0948136003460B4DED
:100930000B4C91810B49C2E90154C2E9041338BD43
:10094000094B4E21094800F0FFF800BF000C0020C1
:100950002DF451582D7F954C0E33CDAB34126DE6EE
:10096000ECDE05002E7F954C040201081C020108F4
:1009700010B580210446FFF71DFF606440B10022DE
:10098000031F7C3043F8042F8342FBD1002010BDAD
:100990004FF0FF3010BD00BF436C0BB1002070471B
:1009A000E6E700BF1F2970B5054608D8436C164618
:1009B0000C464BB153F8240043F8246070BD162256
:1009C0004FF0FF302A6070BDFFF7D2FF08B96B6CA3
:1009D000F0E74FF0FF3070BD1F2938B5054620D82D
:1009E000426C0C466AB152F8213053B1012B16D03B
:1009F000591C10D00025204642F82450984728461C
:100A000038BD284600F070F8224601462846BDE869
:100A1000384000F055B8162301202B6038BD002067
:100A200038BD16234FF0FF302B6038BD1F2921D869
:100A300038B5436C05460C4683B153F8242003EBCC
:100A400084034AB1511C10D0012A0CD00025204645
:100A50001D609047284638BD012038BDFFF788FF4C
:100A600028B96B6CE9E7032038BD022038BD4FF090
:100A7000FF3038BD4FF0FF30704700BF024B0146DA
:100A80001868FFF7A9BF00BF000C0020024B0A4600
:100A900001461868FFF786BF000C0020034B18685A
:100AA000436C0BB10020704762E700BF000C0020D0
:100AB000024B01461868FFF7B9BF00BF000C0020C9
:100AC00070B50D460023074C0646114628462360A4
:100AD0000CF05CFB431C00D070BD2368002BFBD0E6
:100AE000336070BDE83E00200CF058BB20F00301DD
:100AF00010F00300C0F1000051F8043B00F1040CB9
:100B00004FEACC0C6FF000021CBF22FA0CF2134328
:100B10004FF0010C4CEA0C2C4CEA0C4CA3EB0C02F1
:100B200022EA030212EACC1204BF51F8043B04305B
:100B3000F4D0C2F1000102EA0102B2FA82F2C2F17B
:100B40001F0200EBD200704700B50A4C0546206832
:100B500085B01C46C06852B1074BCDE90132009107
:100B60002B462246054900F023F8FFF7C1FC044B51
:100B70001A46F2E7000C002050020108600201084A
:100B80005C02010808B513460022FFF7DDFF00BF35
:100B90000CB410B582B004AC54F8042B2346019475
:100BA00000F060F802B0BDE8104002B0704700BF2E
:100BB0000EB430B582B005AC54F8042B054D014697
:100BC00023462868019400F04DF802B0BDE830409B
:100BD00003B07047000C0020704700BF704700BF93
:100BE0009368013B002B93600FDA10B49469A34221
:100BF00008DB0A2906D01368581C106019700846D3
:100C000010BC704710BC00F07BBB1368581C106010
:100C100019700846704700BF9BB1F8B513440F46E2
:100C200006465D1E541E01E0AC4208D03A4614F858
:100C3000011F3046FFF7D4FF431CF5D1F8BD00205B
:100C4000F8BD0020704700BF936810B5144613B973
:100C50005360184610BD00F013FE0023C4E90133B1
:100C600010BD00BF2DE9F04F9FB08B4690461C464B
:100C7000039018B18369002B00F0B980A34B9B450A
:100C800000F0BB80A24B9B4500F0C980A14B9B4567
:100C900004BF039BD3F80CB0BBF80C30180740F12D
:100CA000B480DBF81030002B00F0AF80302300213F
:100CB00020228DF8323098F8003005940B918DF891
:100CC0003120954E0127002B00F08980252B00F064
:100CD0001781454603E0252B00F0A58025466B785B
:100CE0006C1C002BF7D1B4EB080A78D0424653466F
:100CF00059460398FFF790FF013070D00B9B6A783C
:100D000053440B93002A6AD000234FF0FF32013482
:100D10000693CDE908338DF85B301C93079206E00B
:100D20002C46069B801B07FA00F0184306902546C8
:100D3000052215F8011B304600F0E6FFAA46002800
:100D4000EED1069BD90644BF20228DF85B201A07FE
:100D500048BF2B22217848BF8DF85B202A2967D114
:100D6000059A1168043200290592C0F29E8009910B
:100D70006178A51C2E2974D0684C0322204600F00F
:100D8000C3FF002800F087804022069B001B02FA68
:100D900000F00343069305F101082B78062219465B
:100DA0005F488DF8303000F0AFFF002800F08380FE
:100DB0005C4B002B72D005AB00935A465A4B06A9E8
:100DC0000398AFF300808146B9F1FF3F07D00B9B3A
:100DD0004B440B9398F80030002B7FF477AFBBF8AF
:100DE0000C305B0618D40B981FB0BDE8F08F00F0F4
:100DF00027FD464B9B457FF445AF039BD3F804B0DA
:100E0000BBF80C3018073FF54CAF5946039800F07B
:100E1000D7FA00283FF44AAF4FF0FF30E4E7039BD6
:100E2000D3F808B038E7B4EB080A3FF46DAF5DE7DC
:100E3000A1F13002092A88BFA2469BD8099B01E094
:100E40002C460135297803EB830302EB4303A1F120
:100E50003002092AAA46F3D92E2904F10205099382
:100E60008AD19AF801102A292FD1059B0AF1020094
:100E70001A680433002A079205939AF802100AF1BF
:100E8000030538DB254C82460322204600F03CFF58
:100E900000287FF479AFA84655467EE7059B0733C7
:100EA00023F007030833059391E7494243F0020317
:100EB000099106935CE705AB00935A461A4B06A9C5
:100EC000039800F0D3F881467EE70023A1F13002B9
:100ED000092A079301D915E05546697803EB830386
:100EE00002EB4303A1F13002092A05F1010AF3D90B
:100EF0000235079340E74FF0FF33824607933BE705
:100F0000444601E7AA46013536E700BFC0F00008B5
:100F1000A0F0000880F00008900201089802010883
:100F20009C02010800000000190C000810B4044CD9
:100F300013460A460146206810BCFFF793BE00BF67
:100F4000000C00202DE9F0470C460969A568914680
:100F50008D42B8BF0D46156094F8431006461F46F3
:100F6000DDF8208011B16A1CC9F8002023689906B9
:100F70005CD5D9F800200232C9F80020236813F0AC
:100F8000060F19461DD1E1688A1A002AD8BF1946F2
:100F900017DD002504F1190A05E0E368D9F80020FF
:100FA0009B1AAB420CDD0123524639463046C047FE
:100FB000013005F10105F0D14FF0FF30BDE8F087B9
:100FC000216894F84330003318BF01238A060AD5FC
:100FD0003021E21882F8431094F845105A1C22443C
:100FE00082F84310023304F1430239463046C047C9
:100FF0000130E1D02368A26803F00603042B2169C5
:101000001DD08A4226DD4FF00009521A9144002576
:101010001A3401E04D451DDA012322463946304697
:10102000C047013005F10105F4D1C5E713F0060F03
:1010300013D094F84330003318BF0123D3E7D9F815
:101040000000E3688A42A3EB000323EAE379DCDCD7
:10105000002BDCDC0020BDE8F087E168D9F8002037
:101060008A1A002AD8BF194693DCAAE72DE9F04373
:101070000C46097E85B06E2906461746984604F14F
:10108000430C0C986DD039D9732900F0F48044D901
:10109000752900F00281782940F00F8178232268B9
:1010A000DFF854E284F845300168150651F8043B36
:1010B000016040F1A180D10744BF42F020022260CC
:1010C000002B00F093801022002184F84310606808
:1010D0000028A060C0F2C680216821F004012160D0
:1010E000002B40F0A280002840F0BE806546082A10
:1010F00000F0AB80ACEB0503236141E0632900F015
:10110000E3801AD8002938D0582940F0D68084F8D6
:1011100045102268DFF8E4E1C6E76F2900F0BD80E2
:10112000702940F0CA8078232268DFF8CCE142F0D1
:101130002002226084F84530B6E7642902D069298C
:1011400040F0BB8022680368110603F1040557D5FF
:10115000196805600B46002959DB0A22DFF89CE17B
:10116000B5E7036822681D1D6169056015061B68E7
:1011700002D4500600F1BB8019600023654623614C
:10118000CDF800803B4603AA21463046FFF7DAFE41
:10119000013020D02A46236939463046C047013005
:1011A00019D0226803989207E36819D51A1A002A01
:1011B00016DD002504F1190904E0E36803981A1A02
:1011C000AA420DDD01234A4639463046C047013068
:1011D00005F10105F1D14FF0FF3005B0BDE8F08316
:1011E0009842B8BF184605B0BDE8F08321681022C8
:1011F00021F02001216067E7500648BF9BB25AE703
:101200005106A5D5B3F9003005601946A3E72D2096
:1012100061685B42002984F84300A16002DB22F090
:10122000040222600A22DFF8D4E0654600E00B46A3
:10123000B3FBF2F102FB11301EF80000934205F8F7
:10124000010DF4D2082A7FF455AF2368DB077FF540
:1012500051AF626823699A423FF74CAF3023013D9A
:101260002B7047E7002BE0D19EF8003004F14205D7
:1012700084F842303BE703686268191D01601D680D
:101280000021284600F040FD002832D0401B60605D
:101290002061002384F8433072E72268036812F06B
:1012A000800F03F104051AD01B6805606F290CBF7D
:1012B00008220A22DFF844E006E7012384F84210FE
:1012C000236104F14205E4E70122036804F14205C9
:1012D000191D1B68016084F842302261D9E712F0C1
:1012E000400F0DBF1B6805601B880560DEE7198095
:1012F00043E76068CCE700BFB8020108A402010818
:10130000F8B50D461446064608B1836943B3254B2C
:101310009C422AD0244B9C4229D0244B9C4208BF9B
:10132000F468A269A389A2601A0722D5236903B3CE
:1013300022686169D31AEDB299422F4629DD013343
:10134000A168501C0139A1602060157062699A4241
:1013500016D0A389DB0701D50A2D11D03846F8BD78
:1013600000F06EFA0F4B9C42D4D17468D9E7B46890
:10137000D7E72146304600F023F838B92369D7E78C
:101380002146304600F032F90028E7D04FF0FF3711
:10139000E4E72146304600F029F90028F6D1012380
:1013A0002268CDE7C0F00008A0F0000880F0000837
:1013B000024B0A4601461868FFF7A2BF000C002046
:1013C0003B4B70B51D6806460C460DB1AB69DBB1F1
:1013D000384B9C421ED0384B9C424AD0374B9C42E3
:1013E00008BFEC68B4F90C2093B2190718D520692E
:1013F00008B313F001022CD000226369A2605B42A3
:10140000A36160B3002070BD284600F019FA294B93
:101410009C42E0D16C68B4F90C2093B21907E6D471
:10142000DD063CD5580726D4206942F00803A38185
:101430009BB20028DDD103F42072B2F5007FD8D032
:101440003046214600F016FCA389206913F0010202
:10145000D2D1990758BF6269A2600028D2D1B4F9ED
:101460000C301A06CFD543F04003A3814FF0FF3074
:1014700070BDAC68B6E7616B51B104F144039942A9
:1014800004D03046FFF742F9B4F90C20002363631F
:101490000023206922F02402C4E90003C5E70923E0
:1014A00042F0400233604FF0FF30A28170BD00BFB8
:1014B000000C0020C0F00008A0F0000880F0000838
:1014C0002DE9F0418F890C463A07804641D44B689C
:1014D000002B59DDE66A002E53D0002317F480520A
:1014E000D8F80050216AC8F8003051D10123404695
:1014F000B047431C5FD0A789E66A216A7F0705D5FC
:101500006268636B801A0BB1236CC01A0246002319
:101510004046B047461C45D1D8F80030B4F90C20FD
:10152000002B55D01D2B01D0162B5AD10022236938
:10153000C4E90032616BC8F8005011B304F14403F0
:10154000994202D04046FFF7E1F800206063BDE811
:10155000F0810E69AEB10D680E60B90714BF0023AB
:101560006369AD1BA3600AE02B463246A76A216A75
:101570004046B8470028A5EB000506440ADD002DCB
:10158000F2DC0020BDE8F0810B6C002BA2DCF8E758
:10159000606DB3E7A3894FF0FF3043F04003A381B0
:1015A000BDE8F081002322696360A3892260DA0428
:1015B000C0D56065BEE7D8F80030002B9BD01D2B4E
:1015C0000CD0162B0AD0A38943F04003A381D9E79E
:1015D0002169C4E90013D304ACD5EAE7C8F8005088
:1015E000CFE742F04002A281CCE700BF0B6923B3F2
:1015F00010B5044682B008B18369BBB1104B994263
:1016000012D0104B994216D00F4B994208BFE16897
:10161000B1F90C302BB1204602B0BDE81040FFF705
:101620004FBF002002B010BD6168F1E7019100F0EA
:1016300007F90199E2E7A168EAE70020704700BFD7
:10164000C0F00008A0F0000880F0000820B1054BB1
:1016500001461868FFF7CABF034B0449186800F039
:10166000B3BA00BF000C00207CF00008ED150008A4
:1016700000207047014900F0A7BA00BFED1500082F
:101680000020704770B568254A1E05FB02F50E461E
:1016900005F17401FFF78EF8044640B100210C30CB
:1016A000666005F168022160A060FEF7DFFF20465A
:1016B00070BD00BF1E4B70B51D680646AB6943B3D5
:1016C0004835D5E90134013B05D51EE0013B5A1CE4
:1016D00004F1680419D0B4F90C20002AF6D10025D1
:1016E000144B6566C4E90055A560C4E90455A561BD
:1016F0002946E360082204F15C00FEF7B7FFC4E965
:101700000D55C4E91255204670BD2C682CB12546F4
:10171000D7E7284600F010F8D2E704213046FFF75B
:10172000B1FF044628600028F1D10C233360EAE7BA
:101730007CF000080100FFFF2DE9F84F0023334A39
:10174000C0E9123312680365904208BF0123304993
:1017500008BF836181620546FFF7ACFF68602846D9
:10176000FFF7A8FFA86028460024FFF7A3FF042383
:101770006E68E8602146F3607466C6E90044B460B0
:10178000C6E90444B46106F15C000822FEF76EFF6E
:10179000DFF888B0AF68DFF888A0DFF88890DFF85E
:1017A00088801C4BC6E9086BC6E90AA9C6F83080D8
:1017B0002146FB6008227C66C7E90044BC60C7E99B
:1017C0000444BC6107F15C00FEF750FFEE68124B69
:1017D000C7E9087BC7E90AA9C7F830802146F3604A
:1017E0007466C6E90044B460C6E90444B46106F115
:1017F0005C000822FEF73AFF0123C6E9086BC6E940
:101800000AA9C6F83080AB61BDE8F88F7CF000080B
:10181000751600080900010012000200AD1E000844
:10182000D51E0008151F0008351F0008024B03498C
:10183000186800F0C9B900BF7CF00008ED15000879
:10184000836903B978E77047704700BF704700BFEE
:10185000704700BF704700BF024B0349186800F093
:101860008FB900BF000C002071160008024B03491D
:10187000186800F085B900BF000C00208116000830
:101880009368002B00F0FC802DE9F04FB1F90C308B
:101890000C469BB2190783B0824690462BD522692D
:1018A0004AB313F00202D8F8006033D000273D4657
:1018B000D4F828B0216ADFF8C492C5B14D452B4653
:1018C0003A4628BF4B465046D847002840F3CE80C2
:1018D000D8F8083007441B1A2D1AC8F80830002B16
:1018E00000F0B380D4F828B0216A002DE6D1D6E903
:1018F00000750836E1E721465046FFF761FD0028F4
:1019000040F03781B4F90C30D8F800609BB213F086
:101910000202CBD113F0010940F0B4804D46A76814
:101920002068002D55D09A0540F1C080AF42BB46DB
:1019300000F2EE8013F4906F2FD0D4E9041707EB78
:101940004707A0EB010B07EBD777681C7F105844C3
:10195000B8423A4684BF07463A465B0540F1F080FC
:1019600011465046FEF726FF002800F0FC805A463C
:1019700021690190FEF704FEA289019B22F4906286
:1019800042F08002A281A7EB0B0203EB0B00676120
:10199000AB462F4623612060A2605A46494600F0BC
:1019A000F9F92368A2685B44AB460025D71BA76002
:1019B0002360D8F80870D944A7EB0B07C8F8087063
:1019C000002F42D0B4F90C30A7689BB22068002DDC
:1019D000A9D1D6E900950836A3E70BF1080353F81F
:1019E000047C9B4653F8086C0833002FF7D03A4626
:1019F0000A21304600F088F9002854D00130A0EBCD
:101A000006094B4620682169BB4228BF3B468842F5
:101A1000626903D9A5681544AB421ADC9A4200F307
:101A200081801346A56A3246216A5046A847051EA2
:101A30001CDDB9EB05096ED00120D8F808302E4422
:101A40005B1B7F1BC8F8083013BB002003B0BDE848
:101A5000F08F31462A4600F09DF9236821462B4439
:101A600023605046FFF7C2FD0028E2D0B4F90C30E5
:101A70004FF0FF3043F04003A38103B0BDE8F08F87
:101A80000020704733469146104617464E469B4607
:101A9000002FA2D00028B4D13A460A21304600F0E7
:101AA00033F90028AAD17B1C9946ABE7236983420E
:101AB00017D36269AA4214D82F4BA76A9D4294BFDC
:101AC0002B466FF0004393FBF2F3216A02FB03F312
:101AD00050464A46B847B0F1000BC7DDA5EB0B05F1
:101AE00067E7AF4228BF2F4649463A4600F052F911
:101AF000A3682268DB1B3A44BB46A3602260002B2C
:101B0000ECD121465046FFF771FD0028E6D0ADE745
:101B10002F46AB4641E721465046FFF767FD0028B8
:101B20008BD0A3E71A4631461D46019300F032F9E7
:101B3000A1682268019BC91A1344A160236078E759
:101B4000504600F08DF9034600287FF41CAF216950
:101B50005046FEF7DBFD0C22B4F90C30CAF8002029
:101B600023F0800384E70C22B4F90C30CAF800207B
:101B70007EE74FF0FF3069E7FEFFFF7F00FCFF7F4D
:101B80002DE9F04110F148071AD088460026D7E920
:101B90000154013D0ED4A389013D012B06D9B4F9AE
:101BA0000E30013302D02046C04706436B1C04F1BF
:101BB0006804F0D13F68002FE9D13046BDE8F081DC
:101BC0003E463046BDE8F0812DE9F84310F1480665
:101BD0001ED0884607464FF00009D6E90154013D62
:101BE00010D4A389013D012B08D9B4F90E3001337B
:101BF00004D021463846C04749EA00096B1C04F16D
:101C00006804EED13668002EE7D14846BDE8F88377
:101C1000B1464846BDE8F88370B50C46B1F90E10E0
:101C200096B0002916461D4613DB6A460BF097FA5C
:101C300000280EDB019A4FF4806302F47042A2F593
:101C40000052B2FA82F2002052092A60336016B0C4
:101C500070BD0022A3892A601B0604D54023002002
:101C6000336016B070BD4FF480630020336016B04F
:101C700070BD00BF8A890B46920706D5012103F18A
:101C8000470259611A601A61704770B582B001ABA2
:101C90006A460C460646FFF7BFFF009905463046E8
:101CA000FEF788FDB4F90C3070B1164A0099B262A3
:101CB000019A43F08003A3812060C4E904018AB93A
:101CC0002B43A38102B070BD9A05FBD4012123F000
:101CD000030304F1470243F00203A3816161226020
:101CE0002261EFE73046B4F90E100BF044FA10B958
:101CF000B4F90C30E4E7A38923F0030343F00103B4
:101D00001BB2DDE775160008830770B4CDB23DD075
:101D1000541E0AB30378AB421FD0431C05E014F1F4
:101D2000FF3419D30278AA4217D013F0030F1846D4
:101D300003F10103F3D1032C11D84CB30378AB4268
:101D40000BD00444431C02E00278AA4205D09C4216
:101D5000184603F10103F7D1002070BC704702461A
:101D60000E02B6B22E4346EA06461368104673408A
:101D7000A3F1013121EA030313F0803F02F10402D1
:101D8000DCD1043C032C1046EFD8D6E71446D2E74A
:101D90002046E2E78842F0B40DD98B1883420AD975
:101DA000841832B1224613F8014D994202F8014DD0
:101DB000F9D1F0BC70470F2A0ED80346541E002AF2
:101DC000F7D001340C44013B11F8012BA14203F878
:101DD000012FF9D1F0BC704740EA01039B073AD1CB
:101DE000A2F110073F0901F1200606EB071601F1E9
:101DF000100300F1100453F8105C103344F8105C29
:101E000053F81C5C103444F81C5C53F8185C44F81C
:101E1000185C53F8145CB34244F8145CEBD17B1C9F
:101E20001B0112F00C0F194402F00F05034415D0EA
:101E30000E46043DAD0803EB850C1C1F56F8047BD1
:101E400044F8047F6445F9D10135AD002B442944A1
:101E500002F00302B2E7541E0346B2E72A46ADE79A
:101E600009B3F8B51446CAB106460D4600F066F847
:101E7000A04202D32F463846F8BD21463046FEF731
:101E800099FC07460028F6D022462946FEF778FB43
:101E900030462946FEF73AFC3846F8BD2746FEF79D
:101EA00035FC3846F8BD1146FEF784BC10B50C462B
:101EB000B1F90E100BF03BF9002803DB636D03440E
:101EC000636510BDA38923F48053A38110BD00BFB7
:101ED000002070472DE9F041B1F90C409846E30528
:101EE0000D461746B1F90E10064609D424F4805465
:101EF000AC8143463A463046BDE8F0410BF01EB98E
:101F0000022300220BF018F9B5F90C40B5F90E10B8
:101F1000ECE700BF10B50C46B1F90E100BF00CF950
:101F2000A389421C0EBF23F4805343F480536065A1
:101F3000A38110BDB1F90E100BF002B951F8043CA9
:101F4000181F002BBCBF0B58C01870470E4A002347
:101F5000114610B5147C84420FD11C225343CA1879
:101F6000906848B1CB58FF2818BF43434FF0010099
:101F700018BF5B000133536010BD0133042B02F125
:101F80001C02E7D10020F7E79C0E0020F0B50A4DB7
:101F900000242E462F7C874207D11C2000FB0464BE
:101FA000012061762276A376F0BD0134042C05F180
:101FB0001C05EFD10020F7E79C0E0020094A30B540
:101FC00000231446157C854205D11C22012002FB0A
:101FD0000343996030BD0133042B02F11C02F1D19F
:101FE0000020F7E79C0E0020094A30B50023144674
:101FF000157C854205D11C22012002FB0343596058
:1020000030BD0133042B02F11C02F1D10020F7E7AF
:102010009C0E002070B50B4C00232546267C864282
:1020200009D11C204343E818E95000238260C360B3
:102030004374012070BD0133042B04F11C04EDD165
:102040000020F7E79C0E002070B500252E462B4C93
:102050006368002B4FD0E06808BB637CB3FA83F35E
:102060005B09637409F0E2F8D4E900239342E0606D
:102070002BD266606674E66063690BB1207C98477A
:10208000207CFF2824D100221146104606F03EFF96
:102090000135042D04F11C04DAD1012070BD09F0D2
:1020A0000BF923689842D8D26368002BE4D020460D
:1020B00002F042FB0028EBD0637C207CB3B1FF2808
:1020C0000CD1A27E217E607EE0E79B1A6360EBE785
:1020D0004F28DDD800231A46194604E04F28D7D8E8
:1020E000A37E227E617E06F097F8D1E7FF28CAD052
:1020F0004F28CDD8EFE76374E360C9E79C0E00205A
:1021000007B503788DF8003043788DF80130837877
:102110008DF8023003798DF80330C37868468DF866
:1021200004300CF013FE03B05DF804FB08B5074B58
:102130005A78032A07D8586809F0BEF8C72894BF10
:102140000020012008BD0020FCE700BFA40C0020F7
:10215000704708B5002280214FF080400BF08FF9C6
:10216000FFF7F6FF00BF00BF00BF00BF00BF00BF0A
:1021700000BF00BF00BF00BF00BF00BF00BF00BF67
:1021800000BF00BF00BF00BF08BD08B501F0EAFAFC
:1021900008BD000008B5054C20780CF0D3F8207875
:1021A000FFF7F3FF052009F0B8FFF5E7003B00203B
:1021B00010B5084C236803F07142074B13432360AA
:1021C00009F034F8054B18602068BDE8104003F0B2
:1021D00080BF00BF003B00200001010EA4100020C2
:1021E00010B5064C0122204602210BF048F90223CB
:1021F000A361BDE8104001F05BBB00BF00040040DC
:1022000001207047124B10B51C789CB9114B1B78FC
:10221000042B0FD103F04AFE03F05EFE03F010FE24
:1022200003F08AFE204608F0A5FE2046BDE81040D7
:1022300008F0BCBE0CF08EFD48B10CF079F8002817
:10224000FBD1BDE810404CF2503009F066BF10BD24
:10225000003B0020943E002038B500230D460B7053
:10226000074C30B108F0E2FF002320602B70002003
:1022700038BD206809F020F83228F3D8F7E700BF0E
:10228000B4100020084B9A78012A07D0022A09D0FE
:10229000064B1868B0FA80F040097047587801285A
:1022A000F6D170470120FCE7A40C00201812002092
:1022B00008B5054B9B78013B012B02D9FFF7E2FFE4
:1022C00008BD0120FCE700BFA40C002008B508F001
:1022D000ADFF014B986008BDA40C002038B5154C2B
:1022E000054623782070637008F0A0FF032D60601E
:1022F0001ED1012000F0FCF838B90F4B1A7882B1DA
:1023000059780246084600F01DF800220B4B1A705F
:1023100000F03EFEFFF7DAFFBDE8384053200CF036
:1023200091BC074909780129EFD111465878EAE7AD
:1023300038BD00BFA40C0020003B0020B0100020DE
:10234000943E00202DE9F0410C4615460746002832
:1023500041D0B1FA81F35B099BB15A4E5A4A3378A6
:10236000002C3CD00221012B91610AD030460BF0A9
:1023700065F830460AF02EFC5448554B836008F04F
:10238000CFFDA74201D0FFF73DFF524E3378013B0E
:10239000012B04D80320FFF7A1FF0023B3704E4E9A
:1023A0003378A34200D11DB100224C4B9A619A832D
:1023B000347024B1631E042B747098BFB4703068FD
:1023C00003F087FE3378062B76D8DFE803F0731925
:1023D00036404A545E000B1C18BF0123BCE74FF483
:1023E0000031042B9161CCD03D4BDFF8E0801C70B4
:1023F0003C4B3046C8F8083009F0CAF94046BEE701
:10240000312075B10CF01EFC52200CF01BFC012099
:102410000CF024FC4EF2844143F22D400CF078FC89
:1024200051200CF00FFCFFF751FF2A462146384699
:1024300001F058FD0120BDE8F0813220002DF0D0E0
:102440000CF000FC52200CF0FDFB0220E0E73320F2
:10245000002DE6D00CF0F6FB52200CF0F3FB03202D
:10246000D6E73420002DDCD00CF0ECFB52200CF031
:10247000E9FB0420CCE73520002DD2D00CF0E2FBA4
:1024800052200CF0DFFB0520C2E73020002DC8D021
:102490000CF0D8FB14480CF007FC14480CF01EFCA0
:1024A0004EF2844143F22D400CF032FC52200CF0ED
:1024B000C9FBB5E71120B4E711200CF0C3FBFFF70F
:1024C00077FEB0E7943E0020000400407810002022
:1024D00001210008A40C0020003B0020640C002017
:1024E000502B002055B800086DF1000877F1000866
:1024F000002313B50DF107018DF80730FFF7ACFE8F
:10250000044690B19DF80730013B032B0DD8DFE85E
:1025100003F002060F1200221146094B02E00022CE
:10252000074B99781878FFF70DFF204602B010BDD1
:1025300000220621F1E7024B00225978F2E700BFA2
:10254000003B002013B5124C20460BF083FE012304
:10255000A37703F0BBFD0F4C206008B9FFF728FEFE
:10256000E37843F00103E37008F060FE0A4BFF22BA
:10257000186000234FF4A87100930848084B09F035
:1025800099FDFFF7E6FD0120FFF7B2FF02B010BD95
:10259000640C0020003B0020A4100020B810002094
:1025A0009521000848B1074A1378013B012B07D851
:1025B00093782BB90320FFF791BE0122024B1A70CA
:1025C000704700BFA40C0020B0100020014B187809
:1025D000704700BFA40C0020014B9870704700BFEB
:1025E000A40C0020014B9878704700BFA40C002079
:1025F000014BD870704700BFA40C00200122014B92
:102600001A707047B0100020F8B51C4C1C4DE278D1
:10261000A968C2F3420219B9FFF758FE0020F8BDBD
:10262000184B53F8227023782BB9174B1B78042BC7
:1026300001D1FFF74BFE154E327892B10023337073
:102640004FF080431B69E278DB0963F300022378D3
:10265000E27073B101F0EEFD0028DFD101F0AEF8B9
:10266000DDE7002FDAD0A86808F026FEB842E5D2F0
:10267000D4E7054B1B78042BECD1CDE7003B0020C1
:10268000A40C00201CF10008943E0020B010002093
:102690000C4B10B55A781946012A03D0022A08D0EB
:1026A000002005E09C78012C03D101F0F3F82046CE
:1026B00010BD486808F000FEC728F1D9FFF7E2FD19
:1026C000F6E700BFA40C002008B5074BDB780BB180
:1026D000022B04D10220FFF701FE002008BD0320D9
:1026E000FFF7FCFD0120F9E7A40C002038B50A4DE6
:1026F0000024EB78033B012B08D80320FFF7EEFD05
:102700002046AC7001F064F8012038BD0220FFF7CC
:10271000E5FD2046F9E700BFA40C002010B50A4CE7
:10272000E378032B0AD3042B08D80320FFF7D6FD48
:102730000020A07001F06CF8012010BD0220FFF70E
:10274000CDFD0020F9E700BFA40C002070B58B4C34
:102750008B4D2068B8B108F0AFFDB0F5FA6F12D319
:102760000026552026600CF06DFA57200CF06AFA0E
:1027700070200CF067FA287832460146B0FA80F0F3
:102780004009FFF7DFFD2B7823B17E4B93F8202023
:102790007D4B1A702368DBB97C4E306808F08CFDE5
:1027A00040F6B733984213D92B788BB10BF0C0FDAC
:1027B00070B9744CA37F5BB108F038FD30605320D2
:1027C0000CF040FA94F8213013B970200CF03AFA6A
:1027D0004FF080431B69EA78DB096D4C63F300021C
:1027E0000020EA70FFF784FE2378032B1ED8DFE871
:1027F00003F002284FA4E36833B1984720B10120C9
:10280000FFF76CFD0023A370236933B1984720B113
:102810000120FFF763FD0223A370636933B198477A
:1028200020B10120FFF75AFD0123A3700CF004F939
:10283000584B1B78002B00F09F80BDE8704002F0E1
:1028400077BBA369002BF1D098470028EED001F0A8
:10285000AFFF514B187007F0F7F82A784F4B1A70FA
:102860000022484B9A772A684D4B134063B94D4C70
:102870002378012B08D002224B4B20469A610AF0A4
:10288000DDFD20460AF0A6F90220FFF727FDCDE77F
:10289000E369002BCAD098470028C7D00022434BD9
:1028A0001A704FF080434FF400129A612A683C4B33
:1028B0001340B3F1807F0FD0A37843B3022B0BD822
:1028C0006378022B08D0FFF79DFC11200CF0BAF9B9
:1028D0000BF02EFD0028FBD100F05AFF0023E3701F
:1028E0002E4B2A781B789A4208D12A682C4B134029
:1028F000B3F1807F02D0A07800F046FCA378012BD2
:1029000018D0A3B1022B91D1FFF7F0FE8EE71D4B3B
:102910005B7E002BE0D111200CF094F90BF008FD48
:102920000028FBD147F2305009F0F7FBD4E7FFF75E
:10293000CBFE7BE7FFF7F2FE78E7236A002B3FF43C
:1029400075AF984700283FF471AF01220D4B9A777D
:10295000114B1B782BB14FF0804320229A6107F076
:1029600061F8002400F014FB104B1C7000F004FF11
:10297000FFF7ACFC204688E770BD00BFA410002024
:10298000003B0020640C0020502B0020AC100020E5
:10299000A40C0020A9100020A0100020A8100020E6
:1029A000FF000001943E002000040040B010002011
:1029B0000120704708B5FFF7FBFF08BD37B5044697
:1029C0000D46FFF783FC29462046FFF7F3FF60B171
:1029D000074B1A784AB1074B20461B78D90900915A
:1029E000C3F30013A9780CF04BF803B030BD00BF5F
:1029F000003B0020083B002000B50B4B8FB093F844
:102A000021300A4A322101A804F0FFFA01A807F098
:102A1000D5FD0BF089FC07F0D1FD054807F0CEFD90
:102A20000FB05DF804FB00BF640C00203CF100080F
:102A30004BF100082B4B13B51A7804464AB12A4BC8
:102A400001211B78DB09009300230CF019F802B078
:102A500010BD0028FBD0031FDBB2A02B12D8234BE4
:102A60000146186808F0DCFA20B1204603F0E0F9CE
:102A700003F062FA204603F0D3F902B0BDE810403B
:102A800003F05ABA00F12003DBB2072B07D800F09D
:102A900007040120A040C0B203F0F8F9EDE700F10F
:102AA0005B03DBB2022B06D8114AD05C02B0BDE852
:102AB000104008F05FBA00F15803DBB21A2B07D8B8
:102AC0000C4A32F8130002B0BDE8104008F06EBAAC
:102AD0003334E4B2122CBAD8012102B0BDE8104060
:102AE00002F00CBB003B0020083B0020240F00201C
:102AF000E0F00008E4F00008244B13B51A7804460F
:102B00004AB1234B1B78DB090093002319460BF0D5
:102B1000B7FF02B010BD0028FBD0031FDBB2A02B13
:102B200006D803F085F902B0BDE8104003F004BAFE
:102B300000F12003DBB2072B07D800F007040120C7
:102B4000A040C0B203F0AAF9EDE700F15B03DBB2ED
:102B5000022B05D8104602B0BDE8104008F00ABAB2
:102B600000F15803DBB21A2B05D8104602B0BDE8BD
:102B7000104008F01BBA3334E4B2122CC9D8114605
:102B800002B0BDE8104002F0B9BA00BF003B00201F
:102B9000083B00202DE9F3410546C0B1114E3278C3
:102BA000C2B10127DFF84080284602F038FA044617
:102BB00098F80030E030DB090093327800230121DF
:102BC00080B207FA04F40BF05BFFA543ECD102B02E
:102BD000BDE8F08103F05AF902B0BDE8F04103F01E
:102BE000ABB900BF003B0020083B00202DE9F341BA
:102BF0000546C0B1114E3278C2B10127DFF84080DE
:102C0000284602F00CFA98F800300446DB090093DD
:102C10000023E0303278194680B207FA04F40BF052
:102C20002FFFA543ECD102B0BDE8F08103F036F9E7
:102C300002B0BDE8F04103F07FB900BF003B0020C7
:102C4000083B00202DE9F3410546C0B1114E327812
:102C5000C2B10127DFF84080284602F0E0F90446BF
:102C600098F80030E030DB0900933278002301212E
:102C700080B207FA04F40BF003FFA543ECD102B0D5
:102C8000BDE8F08103F018F902B0BDE8F04103F0AF
:102C900053B900BF003B0020083B00202DE9F34161
:102CA0000546C0B1114E3278C2B10127DFF840802D
:102CB000284602F0B4F998F800300446DB09009386
:102CC0000023E0303278194680B207FA04F40BF0A2
:102CD000D7FEA543ECD102B0BDE8F08103F0F4F8D3
:102CE00002B0BDE8F04103F027B900BF003B00206F
:102CF000083B00202DE9F04104460E4601F09CF906
:102D0000E8B92378013B142B4ED8DFE803F00B1B06
:102D1000486268727575757ACA80848A939C9FA28E
:102D2000ABB4BD00002363700C23A370614B31462C
:102D30001B782046002B40F0B98008F091FD01205F
:102D4000BDE8F0816378013B032B2DD8DFE803F069
:102D5000020C0F2108F06AFA030EA370030CE37053
:102D6000030A23716071E1E707F0F9F8F4E72546FB
:102D7000A77804F11C08052FD8D8F8B203F024FD79
:102D8000030AEB7028710235454507F10107F2D1BE
:102D9000CCE70023A370E37023716371C6E7637807
:102DA000022B04D0052B10D0FF232370BEE7E3785D
:102DB000A07840EA0320237940EA0340637940EA9F
:102DC000036000BA07F0CEF8B0E7A07807F0F4F897
:102DD000ACE7E278A178607807F0EAFCC0E72279F6
:102DE0006379A17843EA02236078E27807F0F6FC81
:102DF0009CE707F043FD99E73146204607F057F975
:102E000094E7002007F08EF807F0B7F88EE707F098
:102E1000BFFD60708AE707F0BDFD030A6370A07014
:102E200084E76078A378221DE17843EA002007F068
:102E3000B4FD7BE76078A378221DE17843EA0020A7
:102E400007F0C5FD72E707F0D5FD6FE707F0A4FCBA
:102E5000DFE76078A378221DE17843EA002007F0DD
:102E600057FD63E76078A378221DE17843EA0020EC
:102E700007F065FD5AE7E278A178003218BF012219
:102E8000607807F0C0FC6BE7E27821796379003263
:102E900043EA012318BF0122A178607807F0D2FC31
:102EA00044E70123044A637013703FE70BF0AAFF65
:102EB00045E700BF003B0020A910002010B5437873
:102EC000044613B1FF23237011E08378013B032BE9
:102ED000F8D8DFE803F0021A28410378072B07D05F
:102EE000082BEFD1294BDB78C3F34203C37010BD2D
:102EF000C1780729FBD8BDE81040244BDA7861F38C
:102F00004302DA70186803F0E4B80378072B05D0A1
:102F1000082BD7D101F09FF9E070E8E7C078BDE851
:102F2000104001F069BA0378072B0AD0082BC9D1E9
:102F300042790179C07801F090F9A071000AE0713E
:102F4000D5E7C2798379017943EA0223BDE81040CD
:102F50004279C07801F097B90378072B0BD0082B82
:102F6000B0D12379C078A21D617943EA0020BDE881
:102F7000104001F09DB92379C078A21D617943EA20
:102F80000020BDE8104001F0AEB900BF003B0020BA
:102F900008B508F04BF9014B186008BD0812002075
:102FA000164B10B51C788CB9154B1B78052B08D027
:102FB000022B06D008F03AF9124B1860124B1C7025
:102FC00010BD4FF080431B691B0603D4BDE81040C1
:102FD000FFF7DEBF0B4B18680028F7D008F06CF93C
:102FE00041F657339842EBD9FFF7D2FFBDE81040C6
:102FF0000122054B1A70FFF701BB00BF003B002008
:10300000943E0020081200200C1200202DE9F0410F
:103010001A4C804625781DB101242046BDE8F08178
:10302000FFF7D4FA0138012805D80320FFF756F935
:103030002846FFF7D1FA2778002FEDD1104D2B78D5
:10304000052BE9D1B5F84C309B0702D50D4E3478ED
:103050002CB9B8F1FF0F94BF00240124DDE7FFF77E
:10306000B5FA0328D8D83770FFF792FF284609F041
:103070005DFE284601F020F8CFE700BF003B0020AE
:10308000943E00200C120020704700001A4B70B5CF
:103090009C6C0F2644F4C0649C649B6C012301F07B
:1030A00003048B4021F0030101F1804101F5A0519F
:1030B0008D68A400C0F38320A04006FA04F425EA3A
:1030C000040528438860D8430C4912F0010F8C682E
:1030D00014BF1C4304408C6012F0020FCA6814BF76
:1030E0001A430240CA60054A536111680B431360DA
:1030F00053680340536070BD000C0140001800404D
:103100000F281FD8DFE800F0080C0F121518181848
:1031100018181B1B1B1B1B1B062108460AF041B875
:1031200006210720FAE706210820F7E706210920F3
:10313000F4E706210A20F1E706211020EEE7062138
:103140002120EBE7704701207047000008B5FFF72A
:10315000FAFFA8B1012207214FF08040FFF796FF48
:103160000720FFF7CDFFFFF73DFA48B905480322D6
:103170000721FFF78BFFBDE808400720FFF7C0BF1E
:1031800008BD00BF000400402DE9F047302305468C
:1031900083F31188FFF7DAFF00264FF00108884F0C
:1031A000DFF8489257F8040B95B1012D4DD14845F1
:1031B0004BD120F00F0A00F00F0008FA00F421466E
:1031C0000522504624040AF05AF9CAF8184001E0D2
:1031D000441CEED101360F2EE4D106240127794E8E
:1031E000DFF80C9256F8040B002D3AD0012D40F078
:1031F000D980484540F0D68000F00F01202207FA20
:1032000001F120F00F000AF03AF900BF00BF00BF43
:1032100000BF00BF00BF00BF00BF00BF00BF00BFB6
:1032200000BF00BF00BF00BF00BF00BF00BF56F817
:10323000040C022200F00F08414620F00F00FFF7B7
:1032400025FF4046FFF75CFF0DE0411CC2D000F0B7
:103250000F01202208FA01F120F00F000AF00FF907
:10326000B8E7421CC8D1013CBCD1574B4FF40061B8
:10327000DA6C564822F00802DA642246DB6C0AF067
:10328000FEF800BF00BF00BF00BF00BF00BF00BF0F
:1032900000BF00BF00BF00BF00BF00BF00BF00BF36
:1032A00000BF00BF00BF03220B214848FFF7EEFE1E
:1032B0000B20FFF725FF84F3118872B60120444AE2
:1032C000136823F001031360424B434A5A61002202
:1032D000A30003F1604303F56143D3F80011D5B2B5
:1032E000012D94BF002101F0010109B1C3F8800153
:1032F0000132202AF1D10134082CE8D1374C63681F
:1033000043F000736360364B1A6802F009021A60DA
:103310001A6842F46C3242F004021A6040F2B3328E
:103320001A62304B43F001039847236943F00403CA
:10333000236130BF2C4B43F0010398472369244A93
:1033400023F00403236113681F4C43F0010313604F
:10335000E36943F08003E361A36C43F40073A36467
:1033600008F0AAFA03F064FA40F282324FF40061E6
:1033700016480AF084F8E36C43F00803E364E36C56
:10338000A36C43F48053A364A36CE36C43F0100379
:10339000E364E36CFFF778FE002383F3118862B6E1
:1033A000BDE8F087431C3FF45EAF00F00F01402200
:1033B00007FA01F120F00F000AF061F853E700BFAF
:1033C000BCF1000854F20008000C01400008004065
:1033D00010E000E000180040FFFF070000ED00E0F3
:1033E000000001402CF20008F8F10008030800403A
:1033F0000D080040012070470120704701238B40D9
:10340000034210B50C4614D08B1E0B2B18D8DFE8E6
:1034100003F006171717171117171713171504209E
:10342000FFF7E6F82046FFF7E5FF10B12046FFF76B
:10343000E3FF10BD0320F3E70220F1E70520EFE7EB
:103440000120EDE708B50D4B5A69D20707D51A6878
:10345000002122F001021A600120FFF7CFFF402275
:10346000074BC3F88020BFF34F8FBFF36F8F01224C
:10347000024B5A61BDE8084008F044BF0018004004
:1034800000E100E008B50D4B586910F0020006D0CD
:103490001A68012122F002021A60FFF7AFFF8022B2
:1034A000074BC3F88020BFF34F8FBFF36F8F02220B
:1034B000024B5A61BDE8084008F024BF00180040E4
:1034C00000E100E008B50E4B586910F0040006D08A
:1034D0001A68022122F004021A60FFF78FFF4FF4EE
:1034E0008072084BC3F88020BFF34F8FBFF36F8FFC
:1034F0000422034B5A61BDE8084008F003BF00BF37
:103500000018004000E100E008B50E4B586910F0CB
:10351000080006D01A68032122F008021A60FFF79B
:103520006DFF4FF40072084BC3F88020BFF34F8F3C
:10353000BFF36F8F0822034B5A61BDE8084008F0C3
:10354000E1BE00BF0018004000E100E008B50E4BEE
:10355000586910F0100006D01A68042122F01002F9
:103560001A60FFF74BFF4FF48062084BC3F88020CE
:10357000BFF34F8FBFF36F8F1022034B5A61BDE82B
:10358000084008F0BFBE00BF0018004000E100E0A6
:1035900038B5254B5C69A20604F4787507D51A681E
:1035A000052122F020021A602846FFF727FF600657
:1035B00008D51D4A06211368284623F040031360EE
:1035C000FFF71CFF210608D5174A07211368284674
:1035D00023F080031360FFF711FFE20508D5124ABC
:1035E00008211368284623F480731360FFF706FF51
:1035F000A30508D50C4A09211368284623F4007353
:103600001360FFF7FBFE4FF48032084BC3F88020B5
:10361000BFF34F8FBFF36F8F4FF47872024B5A6135
:10362000BDE8384008F06EBE0018004000E100E040
:1036300038B52A4B5C69620504F47C4507D51A68E5
:103640000A2122F480621A602846FFF7D7FE23057C
:1036500008D5224A0B211368284623F4006313601F
:10366000FFF7CCFEE00408D51C4A0C21136828465D
:1036700023F480531360FFF7C1FEA10408D5174A55
:103680000D211368284623F400531360FFF7B6FE9C
:10369000620408D5114A0E211368284623F480439A
:1036A0001360FFF7ABFE230408D50C4A0F21136803
:1036B000284623F400431360FFF7A0FE0222084BC4
:1036C000C3F88420BFF34F8FBFF36F8F4FF47C425A
:1036D000024B5A61BDE8384008F014BE00180040A3
:1036E00000E100E008B50E4B586910F4802006D0C8
:1036F0001A68122122F480221A60FFF77FFE082246
:10370000084BC3F88420BFF34F8FBFF36F8F4FF484
:103710008022034B5A61BDE8084008F0F3BD00BFAA
:103720000018004000E100E010B5074C23784BB9C9
:1037300001F048F801F091FC07F0F8FB01F08EFC75
:1037400001232370012010BD0E12002010B5044C7F
:1037500023781BB101F0A8F800232370012010BDCD
:103760000E120020024B1B780BB10BF035BA7047DC
:10377000111200200120704708B5044B1B780BB9CB
:10378000FFF7D2FF01F022F808BD00BF0E120020A3
:1037900008B5064B1B780BB1FFF7D8FF0023044A8E
:1037A0001370044A1360FFF7E5FF08BD0E120020F6
:1037B0001C120020201200200120704708B5FFF7DE
:1037C000FBFF08BD014B1878704700BF0F120020A7
:1037D000014B1870704700BF0F120020014B187882
:1037E000704700BF10120020084B10B50446187037
:1037F00058B9FEF7EBFE022807D80320FEF76EFD4E
:103800002046BDE81040FEF7E7BE10BD10120020B4
:10381000FFF7EABF024B187880F00100FFF7E4BF22
:10382000101200200020FFF7DFBFFFF7F3BF0000FA
:10383000024B187880F00100704700BF1012002082
:10384000084B1A78084B1B784BB982F00102A0F59F
:10385000A443203B1F2B8CBF104601207047002241
:10386000F5E700BF101200200F12002000231946B8
:10387000064A937213609375D360054A01330B2B8C
:10388000917242F80C1BF9D1704700BF0C0F002059
:10389000C80C002008B503F03DF8FFF7E7FF002251
:1038A000014B1A6008BD00BF1812002001207047AC
:1038B00008B5FFF739FFFEF745FE00F085FF48B178
:1038C000012220214FF0804009F0D9FD4FF08043C4
:1038D00020229A6108BD000000230D4A10B5137024
:1038E0000C4A4FF0804413700B4A136006F0C4F882
:1038F00001280AD006F0B8F84FF40013A36101F0D4
:10390000F5F9BDE8104002F086BC2023F6E700BFC1
:103910000D120020121200201412002008B502F02F
:103920003FFC04F047FC02F0CAFB054B188000F096
:1039300065FF18B1BDE80840FFF7CEBF08BD00BF66
:10394000083B002037B504460D4600F069FF00280B
:1039500000F0BD80002D00F0BA8047F604639C4261
:1039600000F0858029D847F601639C425BD00AD8D5
:1039700047F603439C4200F0A780B4F5FC4F3CD0CF
:10398000284603B030BD47F602639C425DD047F63F
:1039900003639C42F4D100230DF1070101208DF84F
:1039A0000730FEF759FC9DF80730042B02D013F0C6
:1039B000FD0FE5D10122042130E047F612639C425D
:1039C0007BD00BD847F605639C4263D047F6116362
:1039D0009C42D5D10020FFF707FFD1E747F61363DC
:1039E0009C426ED047F643639C42C9D10122394BB9
:1039F0001A700022384B1A60C2E700230DF107014C
:103A000001208DF80730FEF727FC9DF80730042BC6
:103A100002D013F0FD0FB3D1012211462F4B1878BD
:103A2000FEF790FCACE700230DF1070101208DF8B3
:103A30000730FEF711FC9DF80730042B02D013F07D
:103A4000FD0F9DD101220221E8E700230DF10701BE
:103A500001208DF80730FEF7FFFB9DF80730042B9F
:103A600002D013F0FD0F8BD101220321D6E70023F2
:103A70000DF1070101208DF80730FEF7EDFB9DF8F1
:103A80000730042B03D013F0FD0F7FF479AF012230
:103A90000521C3E700230DF1070101208DF8073050
:103AA000FEF7DAFB9DF80730DA1E012A02D9002B57
:103AB0007FF466AF01220621B0E70122084B1A709D
:103AC0005EE7FFF7A7FE5BE7FFF728FF58E705462D
:103AD00056E700BF1212002014120020003B002005
:103AE0001012002070B5FEF731FE002501261B4C98
:103AF000206858B1A37A4BB907F0DEFB636898429F
:103B000004D3A67201212089FFF71CFF0C3415B3E2
:103B10000026134C206858B1A37A4BB907F0CCFBB0
:103B20006368984204D3A57201212089FFF70AFF38
:103B300001360B2E04F10C04ECD10A4B1A783AB181
:103B400000221A700AF0F4FB0028FBD1FFF7E6FE12
:103B500000F03EFE70BD0125CAE700BF0C0F00203B
:103B6000C80C00202412002008B5064B1B780BB9A6
:103B7000FFF7DAFD4FF0804320229A61BDE808404C
:103B800007F020BB0E1200202DE9F7430D46BA4A7C
:103B9000897804461368E9B1032B00D80133B74F85
:103BA0001360FEF793FB3889844217D0B88A8442A9
:103BB0000CD14FF0010995F802800C26B8F1000FE6
:103BC0000FD007F033FB06FB09F6B851AC4B0027CA
:103BD000984631E0002BE2D0013BE0E74FF00009CE
:103BE000E9E706FB09F607EB060999F80A300BB975
:103BF000BB51EBE74146FFF7A5FE89F80A8047F87D
:103C000006800028E2D100209BE07E4308EB0607F7
:103C1000BB7A13B948F806301CE049462046FFF746
:103C200091FE87F80A9048F8069098B9EBE70137BB
:103C30000B2F03F10C030DD01A899442F7D195F89C
:103C400002900C26B9F1000FDFD007F0EFFA7E43A7
:103C500048F8060029462046FFF7F2FD0028D2D09A
:103C60002946204600F02EFE0028CCD047F60463FB
:103C70009C4200F0C8802CD8B4F5FC4F6ED009D817
:103C800047F620039C4200F01C8147F603439C4208
:103C9000B9D02EE047F602639C42AB7800F09880E2
:103CA0007BD9002BAFD0774C2278042AABD00023ED
:103CB0000DF1070101208DF80730FEF7CDFA9DF8D0
:103CC0000730042B02D013F0FD0F9CD100220421F9
:103CD0005FE047F640639C4225D01CD847F6066358
:103CE0009C4200F0D580C0F0AA8047F607639C4252
:103CF00031D02946204600F09FFB002883D029467A
:103D00002046FFF783F900283FF47DAF294620467F
:103D1000FEF754FE15E047F642639C4214D009D3E7
:103D200047F64363B3E7AB78002B3FF46CAFFEF785
:103D300063FE68E7A878544B10B101221A7062E75D
:103D4000187003B0BDE8F083AB78002B3FF45BAF95
:103D5000FEF754FC57E7AA784C4BEFE7AB78002B03
:103D60003FF451AF474C2278012A3FF44CAF002377
:103D70000DF1070101208DF80730FEF76DFA9DF86F
:103D80000730042B03D013F0FD0F7FF43CAF00226B
:103D900001212078FEF7D6FA35E7002B3FF433AF48
:103DA000384C2278022A3FF42EAF00230DF1070190
:103DB00001208DF80730FEF74FFA9DF80730042BED
:103DC00003D013F0FD0F7FF41EAF00220221E0E7C5
:103DD000002B3FF418AF2B4C2278032A3FF413AF8B
:103DE00000230DF1070101208DF80730FEF734FAAA
:103DF0009DF80730042B03D013F0FD0F7FF403AFC1
:103E000000220321C5E7AB78002B3FF4FCAE1D4C2C
:103E10002278052A3FF4F7AE00230DF107010120B7
:103E20008DF80730FEF718FA9DF80730042B03D001
:103E300013F0FD0F7FF4E7AE00220521A9E7AB7870
:103E4000002B3FF4E0AE0F4C2278062A3FF4DBAEA5
:103E500000230DF1070101208DF80730FEF7FCF972
:103E60009DF80730DA1E012A02D9002B7FF4CBAE71
:103E7000002206218DE700BF181200200C0F002041
:103E8000C80C0020003B0020111200200D12002061
:103E9000AB78002B3FF4B7AE114C2278002A3FF4E8
:103EA000B2AE00230DF1070101208DF80730FEF7B7
:103EB000D3F99DF80730012B3FF6A5AE002211463D
:103EC00067E7AB78002B3FF414AF05F0D5FD4FF05A
:103ED000804318B14FF400129A610AE72022FBE7F1
:103EE000003B0020FEF78CB908B5094B1B786BB975
:103EF000FEF76CFB50B9074B1A783AB1064A527E6E
:103F000022B95978BDE80840FEF71CBA08BD00BFC9
:103F10001C120020003B0020640C002070470000B1
:103F20002DE9FF473F4E07468846FFF7F7FFFFF7AB
:103F3000DBFF3478002C32D03B4D2B6813B907F0EF
:103F400075F92860286807F0B7F941F2873398427D
:103F500005D933780133337007F068F92860337876
:103F6000013B032B17D8DFE803F0020C10140022EA
:103F70009620114604F0CAFF0024204604B0BDE894
:103F8000F087002296211046F4E700219622084689
:103F9000F0E79622F6E7002434702C60EDE7234B1F
:103FA0001B788BB941463846FFF780FC0028E3D0E8
:103FB0004146384600F056FC04460028DCD0414615
:103FC0003846FEF741F8D8E722462146204604F05D
:103FD0009DFFDFF85CA0DFF85C9001AE0A2551463A
:103FE0002A463046FCF7CCFA99F81F30E2B2B3FB10
:103FF000F5F59542A05D11D9312B03D90023962206
:10400000194605E01D2B4FF00003F8D81A469621FB
:10401000013404F001F90A2CE0D1C3E700231A4669
:10402000EEE700BF12120020141200200D12002033
:1040300060EF0008640C002070B505460E46FEF7E0
:1040400045F9FEF7C3FA10B10320FEF747F92B78C4
:104050000A2B0ED10124084B31461C70074B284611
:104060001B781BB907F0FCFB204670BD0AF0CAFEA6
:10407000FAE70020F9E700BF24120020003B0020EF
:10408000012810B5044611D002280AD1FEF79EFA85
:104090000138012805D80320FEF720F90020FEF79B
:1040A0009BFA2046BDE8104007F066B8014B187037
:1040B000F7E700BF74100020014808F02EB800BFD9
:1040C000A08601000D4BF0B51B688BB11E22490084
:1040D00002FB00100A4901220E461D5A31F8027BEC
:1040E000D4B2AF4205D104F0070236F812201A52BA
:1040F000F0BD0132092AF1D10022F8E72812002090
:1041000050F500082DE9F04385B004460E4605F051
:104110002DFD4FF01E084FF000092D4D2D4F6880EA
:10412000E0B2864250D92C4900230EE01CF801EB86
:10413000BEF1FF0F01D086451CD001320F2AF5D108
:104140000133062B01F10F013CD08C460022EDE734
:10415000012B08D1012A06D16B88ADF804908DF8A7
:104160000630019819E06B88ADF800108DF8023028
:10417000009812E0396829B308FB031333F81210D2
:1041800033F8123049BADAB21B0AE1D1002AEAD177
:10419000ADF808208DF80A20029803F017FBC0F351
:1041A00007238DF80C00C0F307408DF80D308DF813
:1041B0000E009DF80E309DF80C209DF80D10204645
:1041C00004F02AF80134ABE705B0BDE8F08300BF86
:1041D0004C0D002028120020500D002041EA02035F
:1041E000184310B405D10146B422094810BCFCF7AD
:1041F0003DBA00240F230648013B13F0FF03017072
:1042000042702044F8D11E34B42CF3D110BC704756
:104210002C12002010B5064A0B461478012C05D14B
:1042200058780978FFF74EFF204610BD0020FCE7C4
:104230004C0D0020024B1878431E584258417047DD
:104240004C0D0020B4235843C1EB01110A44223025
:1042500000EB4200704704207047032838B510D89F
:1042600005290ED80E2A0CD8FFF7ECFF054602F000
:10427000D9FE0446681C02F0D5FE44EA002080B254
:1042800038BD0020FCE7032870B51C460FD805296F
:104290000DD80E2A0BD8FFF7D5FF0546E1B202F084
:1042A00029FF210A681CBDE8704002F023BF70BDE1
:1042B0002DE9F843002405460F461646A14600F1B5
:1042C0002208BC4208EB040001D1BDE8F8832B1999
:1042D000B3F5347F04DA02F0A5FE30550134F0E77F
:1042E00006F80490FAE72DE9F04105460E4690469F
:1042F000002400F12207B44207EB040001D1BDE81D
:10430000F0812B19B3F5347F03DA18F8041002F0AA
:10431000F1FE0134EFE70000032806D8B42202FBC7
:1043200000F10248223102F0CBBE70472C1200206F
:10433000032838B50CD8084A00231478012C07D17B
:104340005578A84206D11370FFF7E6FF204638BD26
:104350000020FCE71846FAE74C0D0020032806D899
:10436000B42202FB00F10248223102F0F1BE704794
:104370002C120020074B084A10B51A600023074C86
:104380002370607005F0F2FB60806078BDE810403B
:10439000FFF7E4BF281200202C1200204C0D002053
:1043A000032808B50CD8074A5070FFF7D7FF05F06F
:1043B0008BFB2D2802D02D2005F083FB012000E08F
:1043C000002008BD4C0D0020032810B510D8094B63
:1043D000197869B9012458701C70FFF7BFFF05F008
:1043E00073FB2D2802D02D2005F06BFB204600E04A
:1043F000002010BD4C0D0020032810B5044609D83C
:10440000FFF7ACFF2046FFF793FF2046BDE81040C2
:10441000FFF7C6BF10BD000008B5054801F068FEF3
:10442000BDE808404FF434722221024802F048BE31
:104430006CF200081EF9000808B50B4B0A461B7801
:10444000012B0CD1A0F5A44020381F2809D9887869
:1044500020B150780978FFF735FE002008BD012013
:10446000FCE71846FAE700BF4C0D002070B5044683
:104470000078FF2801D105F027FB0C4900220D46EA
:1044800011F8016BD3B2864203D00132102AF7D162
:1044900013462278FF2A13BFFF22013303F00F03D4
:1044A0002270E85CBDE8704005F00BBB6EF50008BB
:1044B00038B50B780546FF2B0C4602D105F004FBFE
:1044C0002070284638BD38B540F2F62440F2063553
:1044D00020460021013402F0D0FDAC42F8D138BDB5
:1044E00010B505F0F1FA0023054911F8014BDAB2D5
:1044F000844203D00133102BF7D11A46104610BD69
:104500006EF5000810B50446FFF7EAFF2146BDE846
:10451000104000F2F62002F0B0BD08B5FFF7E0FF52
:1045200000F2F62002F07EFD072888BF002008BDBB
:1045300070B505F0C9FA0723124A12F8011B81422F
:104540001DD0013B13F0FF03F7D10725FFF7E5FF6F
:104550000130B0FBF5F405FB14040B4B13F81450B9
:1045600003EB44035E7805F001FB31460246284622
:1045700005F0EDFAE0B2BDE87040FFF7C3BF0625D5
:10458000E4E700BF7EF5000860F5000838B5FFF7E6
:104590006DFFFFF7C2FF074B13F8104003EB40031A
:1045A0005D7805F0E3FA294602462046BDE838402A
:1045B00005F0CDBA60F500082DE9FF411A4B1B78D4
:1045C0000BB300221146104604F0A0FC0024DFF8D3
:1045D0006080164F01AE0A2541462A463046FBF759
:1045E000CFFFFB7FE2B2B3FBF5F5954200D8AAB945
:1045F000312B305D0BD9002396221946013403F08C
:104600000BFE0A2CE7D1012004B0BDE8F0811D2B80
:104610004FF00003F0D81A469621EFE70023305DF3
:104620001A461946EAE700BFE0120020640C002099
:104630006AEF0008F8B5244E04463578042D30D8CA
:10464000DFE805F0033C23343C0006F077FC1F4E06
:10465000C0F34007307800F0E2FC022818BF1C4B82
:1046600030781CBF1D78C5F3001500F0D8FC821E01
:104670005342534139462A462046FDF787FCFF2224
:1046800032212046FDF7C6FC0BE0FF231A461946EF
:10469000FDF77CFC0322C8212046FDF7BBFC01236B
:1046A00033702046BDE8F840FDF750BCFF231A46A2
:1046B0001946FDF76BFC0122C821E2E700233370A5
:1046C000FFF7B8FFEDE700BFE1120020F212002073
:1046D000083B0020FF2810B504461BD10E4BDB6EB3
:1046E00023F07F43B3F5A04F0DD100225023114694
:1046F000FDF74CFC20460121FDF760FC2046BDE89B
:104700001040FDF723BCB3F5A00F03D100235022C6
:104710001946EDE710BD00BF9C0E002008B5054B03
:1047200000211870FB20FDF75FFCBDE80840FB206E
:10473000FFF780BFE112002008B5037CFB2B27D1D7
:10474000437C184AD3B1437E6BB910239361027E38
:10475000154B5AB94FF400729A61807E48B94FF4F4
:1047600080729A6108BD4FF48013EFE74FF000723A
:10477000F2E74FF080729A610020F3E71021916117
:104780004FF40071084A91614FF480719161F3E731
:10479000064B1B78002BEFD1FFF74CFD80F001009A
:1047A000C0B2DFE70008004000040040E91200202A
:1047B000034B187810F0030018BF0120704700BFAA
:1047C000243B0020012070470120704701207047E2
:1047D00010B5FDF7FBFE60B9074C206806F06CFDD4
:1047E000B0F57A7F05D906F021FD206053200AF04C
:1047F00029FA012010BD00BFE412002008B55023A3
:10480000FF201A461946FDF7C1FB0322FA21FF20BB
:10481000FDF700FCFF20FDF799FB012008BD00001B
:1048200008B547F61E63984210D179B10A4B1A6851
:104830000A4B1340B3F1807F0AD1094B1B78042B3C
:1048400006D1FEF7F5FF08B9FEF7ECFF012008BD21
:10485000FEF7EBFFFAE700BF003B0020FF0000017E
:10486000943E002038B5084B04461B780D4623B112
:1048700040221146104604F049FB29462046FFF726
:104880009BFE012038BD00BFE91200204FF480726A
:10489000044B9A614FF400729A611022C3F81824F5
:1048A000704700BF0004004008B5FFF7EFFF01208C
:1048B00008BD0000024B40F2F220196802F036BC3D
:1048C000043B002070B5B04E054633780C463BB132
:1048D0008B782BB1002211461046327004F016FB83
:1048E00047F628039D4200F0068152D845F2212365
:1048F0009D4200F0B4811AD8E72D00F0AE8004D8B4
:10490000E32D00F09380012430E0B5F5A44F00F0D2
:10491000048145F202239D42F5D1A378002B53D0A8
:104920009A4C207800F07BFB02284DD000E147F63E
:1049300021039D4200F00F811AD845F223239D42A6
:1049400000F0A08147F213039D42DCD1A478002C33
:10495000D9D0002350211A46FF20FDF717FB012173
:10496000FF20FDF72BFBFF20FDF7F0FA204670BD7E
:1049700047F623039D4200F0918047F627039D42AE
:10498000C1D1A378002BBED005F0F0F87728BAD9B2
:104990009DE047F61E639D4276D017D847F62A035E
:1049A0009D4200F09880C0F08980B5F5F84F7CD02A
:1049B00047F607639D42A6D1754B1B7803B1A378D8
:1049C000744A03F0010313700024CFE747F64C63E9
:1049D0009D4200F0098119D847F64A639D4200F0D4
:1049E000E18047F64B639D428DD1A378002BEBD03D
:1049F000694C607800F00F00FFF7B0FC607800F0C1
:104A00000F00FFF795FCA11C0120DCE047F6536383
:104A10009D4200F0FB8047F654639D427FF473AFE4
:104A2000A378002BD0D001233370CDE7574B1878F3
:104A300000F0F5FA02287FF466AF584B1B78D906D0
:104A40007FF561AFFFF7F6FB00287FF45CAFE32052
:104A5000A478B4B100F0E4F988E74C4B187800F082
:104A6000DEFA02287FF44FAF4C4B1B78DA067FF555
:104A70004AAFFFF7DFFB00287FF445AFA478284654
:104A8000E7E700F0E3F93EE7A478002C9CD1A820EA
:104A900000F0C6F9A82000F0D9F967E7A378002B49
:104AA0003FF431AFFFF744FD8EE7A478002C3FF4CC
:104AB0002AAF01F045FE06F017FC57E7A378002B5C
:104AC0003FF421AF05F0E0F8FF287FF41CAF02208F
:104AD000FFF724FE17E7A378002B3FF414AF05F08F
:104AE000D3F833283FF60FAF0220FFF717FE33202D
:104AF00005F0C2F868E7A478002C3FF404AF05F095
:104B000035F81E283FF6FFAE0220FFF707FE002211
:104B10001146104604F0FAF928E7A378002B3FF479
:104B200053AF1A4C207800F07AFA02287FF44CAF89
:104B3000207800F074FA30B9022000F0E1F900208A
:104B400000F0B9FD40E7207800F069FA02287FF410
:104B50003BAF0020F1E7A3789BB10F4C0020FFF79B
:104B6000DDFD607800F00F00FFF7F8FB607800F0E3
:104B70000F00FFF7DDFB0022094BA01C1A70FFF7A6
:104B800005FDFFF797FE1FE7E9120020F212002053
:104B9000003B0020E0120020043B0020083B0020E6
:104BA000E8120020A378002B3FF40EAF3F4C607852
:104BB00000F00F00FFF7D2FB607800F00F00FFF766
:104BC000B7FB0020A11CFFF773FC637860F30303BD
:104BD0006370FFF76FFE607800F00F00FFF7E0FBF7
:104BE0000020FFF79BFDEFE6A378002B3FF4ECAE2F
:104BF0002E4C607800F00F00FFF7B0FB607800F0FB
:104C00000F00FFF795FBA11C0220DCE7A378002B27
:104C10003FF4DAAE04F058FF2D287FF4D5AE234DD3
:104C20006B781B077FF4D0AEFFF704FB044668786F
:104C300000F00F0054B9FFF7C7FB2046224621467B
:104C4000FFF7CCFA0320FFF769FD8FE6FFF770FB53
:104C50000020FFF763FD0024154B1C7086E6A67844
:104C6000002E7FF450AEFFF7E5FA00283FF44BAE7C
:104C70000F4B1A7822B1214628461E70FFF7CAFA58
:104C80000124E9E7A378002B7FF43DAEFFF7D2FAC9
:104C900000283FF438AE064B1A78002AF0D00022E4
:104CA00021461A7045F22320E8E700BF043B0020AC
:104CB000E812002008B50020FFF730FD0022094B64
:104CC0001A70094A138823F4706323F0010343F038
:104CD00001031380FF239370FFF7F5FBBDE8084045
:104CE000FFF7E8BDE8120020043B002038B5194C5E
:104CF000012220464FF4007108F0C1FB4FF400730D
:104D0000154DA36101221021284608F0B8FB10239D
:104D10002046AB6101224FF4807108F0B0FB4FF4E4
:104D2000807340F2F220A36102F09AF90B4C2060EC
:104D300008B9FFF7BFFF607800F00F00FFF71AFB1C
:104D4000FF22C821FB20FDF765F9FB20FDF7FEF8E7
:104D5000012038BD0004004000080040043B002052
:104D60000520704704280DD805290BD80E2A09D82C
:104D70005A23C1EB011103FB0010034B104433F81D
:104D800010007047012070479AF500080520704711
:104D9000042808D839B9054B82F0010202EB400221
:104DA00033F8120070470120704700BF86F50008F5
:104DB000A0F58073B3F5F85F10B526D210F4805FCC
:104DC00000F4007400F4807300F4806100F4006269
:104DD0000DD0002B0CBF002010200CB140F02000A3
:104DE00009B140F040000AB140F0800010BD181C2D
:104DF00018BF01200CB140F0020009B140F00400DE
:104E0000002AF3D040F00800F0E70020EEE710B5EC
:104E10000C46FFF7CDFF2346BDE8104018470000C1
:104E2000A0F1E003072B10B5044600D940B9204695
:104E30000449FFF7ECFFE0B2BDE81040FDF7FABD12
:104E40000149F6E7952B0008452C000810B50446EB
:104E5000C0B2FDF751FEA4F1E003072B00D92CB935
:104E600003492046BDE81040FFF7D1BF0149F8E7EC
:104E7000ED2B00089D2C000801207047704708B5F5
:104E8000FFF7FCFF08BD000013B502AB03E9030008
:104E90000F4B1B78B3B99DF80230009873B16AB11B
:104EA00000F0BCFC04460146009800F077FC204668
:104EB000009902B0BDE8104001F030BB00F08EFC5C
:104EC0000446F4E7009800F0A9FC0099F1E700BF60
:104ED000F1120020034610B400885C880A4640EABC
:104EE0000440998810BCFFF7CFBF0120704710B570
:104EF00004460021FFF7EEFF2146FFF7C0FF10BD7B
:104F000010B501248440E4B2204601F0D4F82046D4
:104F1000BDE8104000F0A3BB704708B500F03AFBB5
:104F2000FFF7FAFFBDE8084046F2A81007F0F5B811
:104F300008B5FFF7F2FFBDE8084006F0D5B908B59F
:104F4000FFF7EBFFBDE8084006F0F6B938B50121E0
:104F50000546FFF7BFFF2946044605F02FF808B9BC
:104F6000002038BD29462046FEF70EFE0028F7D067
:104F70002946204605F024FE0028F1D02946204687
:104F800005F0B2F90028EBD02946204605F096FD41
:104F90000028E5D02946204604F0BEFE0028DFD0D8
:104FA0002946204605F05AFE0028D9D0AB785BB1DF
:104FB00047F603439C421DD00AD8B4F5F84F16D0EB
:104FC00047F601439C4217D02846FFF755FFC8E734
:104FD00047F65B439C4215D047F65C439C420ED09B
:104FE00047F65A439C42EFD101F040F8ECE7FFF757
:104FF0009FFFB5E701F041F8FFF7A1FFB0E701F02F
:1050000029F8E1E701F035F8DEE708B500F02EF801
:10501000002004F0F1FCBDE80840FEF7A5BD03093F
:105020001CBF1846042382081EBF10460233DBB2A1
:1050300042081CBF0133DBB218467047704701209D
:105040007047704738B50546FFF7F9FF044610B1C1
:105050002846FFF7F6FF204638BD704710B50446D6
:10506000FFF7ECFF2046FFF7EDFF10BD08B505F098
:105070005DFFFFF7F3FF08BD10B505F057FF074BC5
:1050800004461A78824207D0187006F0CFF8044B15
:1050900018602046FFF7E2FF10BD00BFF0120020AD
:1050A000EC12002010B586B06C4684E803009DF831
:1050B00002300BB100F010FF0023ADF8163094E879
:1050C0000300ADF8141089B20490ADF80C0004ACE4
:1050D00029B994E8030000F037FE06B010BD4FF682
:1050E000FF73BDF80C209A42F3D02046FFF7FDFE77
:1050F0000028EED1F1E7008800F0B2BB704738B568
:1051000005460C46FDF796FC1CB92846FDF7F4FC55
:1051100038BD6420013C07F000F8A4B2F4E708B5FC
:1051200039280CBF50210A21FFF7E9FF08BD000014
:105130002DE9F047877981460C46857800F096FE88
:105140003F09804600B3A846F5B1C4F3072303F036
:10515000F002402A09D004F12002D2B2072A25D950
:105160001FB903F0E003202B23D0AE4B93F801804E
:1051700018F0040808D0022000F038FF00F076FE96
:1051800080F001005FFA80F8C4F303330B2B41D8A1
:10519000DFE813F01100110062006200CE00400051
:1051A00040004000E4003F01510151014FF0000870
:1051B000EAE7B846E8E7C4F30723C4F3032613F08D
:1051C000F00F18BF3601E7B295B156B107F12003D1
:1051D000DBB2072B304600D93FB900F057FE00F094
:1051E000ABFE3846FDF726FC14E000F065FEF6E75E
:1051F0003846FDF781FC6EB107F12003DBB2072BC7
:10520000304600D917B900F049FE01E000F05CFE1D
:1052100000F092FEC4F30334083C032C03D805F0DD
:1052200085FEFFF71BFFB8F1000F00F05C8100F076
:1052300015FE10F0010040F0568189F8020000F0E0
:1052400005FE00F03FFA484600F064F900F0FEFD6C
:10525000BDE8F04700F042BAC4F3072303F0F003BF
:10526000C4F30326202B5FFA84FA18BF3601BAF183
:10527000000F0FD0BAF1010F41D0002D49D0002FFF
:1052800040D099F80630DA0741D56FF3071389F853
:10529000063037E0634B5B7859070FD43DB126B138
:1052A000304600F0F3FD00F047FE00209AE7284664
:1052B000FDF722FC002EADD03046A4E785B137B90A
:1052C00000F010FE3043C0B2FDF764FCA2E7012FEE
:1052D000F6D100F007FE3043C0B200F00FFE99E7B0
:1052E0002FB900F01DFE3046FDF780FC92E7012F3C
:1052F00090D03046FDF77AFC00F012FE8AE71DB12F
:10530000052F87D83046DFE7042F83D8EBE75046D8
:1053100068E7002FE7D0BAF1390F0CBF4FF4FA500D
:105320004FF47A7006F0F9FE5046FDF7E5FB71E7A1
:10533000C4F3812343B1012B7FF46CAF65B1C4F397
:10534000090005F033FE65E725B1C4F3090005F057
:1053500011FE5FE72846FAE72846F2E714F4407F9B
:1053600027D1002D7FF456AFC4F34210820014F011
:1053700010001EBF0F209040C04304F00F0303FA3B
:1053800002F3C4F3812218BFC0B2DBB2022A40EAA2
:10539000030008D00AD8012A02D000F06BF939E7DF
:1053A00000F060F936E700F06DF933E700F057F9E7
:1053B00030E7C4F30122D3B205B302F00103002B9E
:1053C0003FF428AFC4F34210820014F010001EBF57
:1053D0000F209040C04304F00F0303FA02F3C4F31C
:1053E000812218BFC0B2DBB2022A40EA03000AD011
:1053F0000CD8012A04D000F091F90BE75B08DEE736
:1054000000F084F906E700F091F903E700F048F9AD
:1054100000E7E7B2C4F3032635B1304600F052F995
:10542000384651E7083B00203846FDF7DFFB3046A1
:1054300000F054F9EEE6E6B2A6F1F003042B3DD8F5
:10544000DFE803F003220E151E003DB1042F3FF6E6
:10545000E1AEC4F3042000F04DF9DBE6052FF6E7DA
:10546000C4F30420002DE3D100F02CF9D2E625B1DD
:10547000C4F3042000F01FF9CCE600F019F9C9E6E6
:105480001A4B5B785B0704D4C4F30420002DCFD003
:10549000EAE74DB1C4F30425284600F013F90321CF
:1054A000284600F07FFDB5E6012000F09FFD012FAA
:1054B0007FF6B0AE022000F099FDABE62DB10FB142
:1054C00030468FE6C4F30420CEE74FB1392E0CBF2F
:1054D0004FF4FA504FF47A7006F01FFE304624E77E
:1054E000C4F30420A4E7BDE8F08700BF083B002018
:1054F00038B501880446807800F0BEF9054600F012
:105500001DF900F0ABF829462046BDE83840FFF70A
:105510000FBE000037B5858804460146022201A867
:10552000FBF72EF8F5B14FF6FF73BDF804209A4251
:1055300018D02046FFF70AFD70B900F097FC88B13B
:10554000A3787BB1084B5B785B070BD5022003B0D7
:10555000BDE8304000F04ABD2046FFF7C9FF2046B5
:10556000FFF7C5FC03B030BD083B002008B50020A4
:1055700005F000FD002005F019FD00F0ADFCBDE8D0
:10558000084000F0D9BC08B500F05AFCBDE808405E
:10559000FFF7ECBF08B500F089FCBDE80840FFF755
:1055A000F2BFC0F303320E3202F00F02092A10B527
:1055B000C4B21BD8012101FA02F340F203321342B4
:1055C00003D113F010000DD110BDF02C10D004D871
:1055D000E72C8CBF00200120F6E7F42C14BF00203C
:1055E0000120F1E7E72C03D9F12CF7E70020EBE7E6
:1055F0000846E9E737B5858804460146022201A836
:10560000FAF7BEFF6DB14FF6FF73BDF804209A4262
:1056100007D0208800F024F903B0BDE83040FFF740
:10562000C0BF002003B030BD82B002AB03E903006D
:1056300002B0704782B002AB03E9030002B07047CA
:10564000704708B5FFF7FCFF08BD000008B5FFF77D
:10565000F8FF014B187008BDF21200207047FFF7E9
:10566000F5BF0000024B1B781843FFF7EFBF00BFE8
:10567000F2120020024B1B781840FFF7E7BF00BF73
:10568000F2120020024B1B785840FFF7DFBF00BF2B
:10569000F2120020704708B5FFF7FCFF08BD0000BC
:1056A00008B5FFF7F8FF014B187008BDF61200208F
:1056B0000020FFF7F5BF012303FA00F0C0B2FFF7A7
:1056C000EFBF0000012303FA00F0034B1B781843DF
:1056D000C0B2FFF7E5BF00BFF6120020012303FAB6
:1056E00000F0034B1B7823EA0000FFF7D9BF00BF8F
:1056F000F6120020012303FA00F0034B1B785840F8
:10570000C0B2FFF7CDBF00BFF6120020024B1B78DE
:105710001843FFF7C5BF00BFF6120020024B1B78ED
:105720001840FFF7BDBF00BFF6120020024B1B78E8
:105730005840FFF7B5BF00BFF6120020704701F0D8
:105740000703C90830B501EB4101012401390A44BE
:1057500000219C40E4B212F8015F20FA01F343F308
:1057600000036B40234001316B4003291370F2D1D9
:1057700030BD002210B500F00704C00800EB400067
:10578000014410468B5CE34003F001039340013277
:105790001843032AC0B2F5D110BD000082B0ADF8A5
:1057A00004000B46C1B2C0F3072005280AD80E2911
:1057B0000ED8C0EB00100144064A89B2184602B068
:1057C000FFF7BDBF0430C0B2012801D8024AF5E797
:1057D00002B07047F7120020F312002082B0ADF83B
:1057E0000400C3B2C0F30720052809D80E2B0ED839
:1057F000C0EB00101844074980B202B0FFF7B9BFF0
:105800000430C0B2012802D803491846F5E7002049
:1058100002B07047F7120020F312002073B5042481
:105820000D4BADF804001E780C4B1B781E4346FA56
:1058300004F3DB07E5B206D414F1FF34F7D20025F8
:10584000284602B070BD0199284600F086FE80B25D
:105850000128F1D0F4E700BFF6120020F212002078
:1058600007B5ADF804000198FFF7D8FF019903B020
:105870005DF804EB00F071BE13B5104BADF80410E9
:105880001B782BB1019802B0BDE81040FFF7E8BFCC
:1058900070B10198FFF7C2FF044601460198FFF777
:1058A0007DFF2046019902B0BDE8104000F055BED2
:1058B0000198FFF793FF0446F3E700BFF1120020C1
:1058C00010B5012404FA02F204FA01F11143C9B23D
:1058D00031EA000204FA03F306BF1843C0B298434A
:1058E00010BD000008B513460A460146034800787B
:1058F000FFF7E6FFBDE80840FFF7D2BEF612002032
:10590000F8B50C4B0C4E1C780C4D3378A34200D1EB
:10591000F8BD05EBC40335F834005F889A88D98850
:1059200040EA074042EA01410134FFF783FE04F0F8
:105930000704EAE765130020641300202413002005
:10594000064B10B418885C889A88D98840EA0440CD
:1059500042EA014110BCFFF76DBE00BF1C130020DE
:1059600084B0ADF80C0049B14FF6FF7380B2C31A92
:105970005842584180F0010004B070470120F9E717
:10598000F0B50D4B0D4C1B7826780D4CB34201D170
:105990000020F0BD04EBC3056F788F4206D114F8E8
:1059A0003370874202D1AD78954203D1013303F0C1
:1059B0000703EBE70120ECE76513002064130020E8
:1059C000241300201F4A2DE9F843937913F0F00FB8
:1059D0000DD193785BB11C4B95881C781B4B92F8CA
:1059E00001801F7892F80090194EBC4201D1BDE8A9
:1059F000F88329461088FFF7B3FFF8B106EBC4031C
:105A0000597841451AD116F83410494516D199787C
:105A1000A1B99988491B89B2C7290FD8012190796A
:105A200061F3071090719A79064861F307129A7131
:105A3000FFF770FDBDE8F843FFF762BF013404F0E3
:105A40000704D2E71C130020651300206413002014
:105A5000241300202DE9F04FBA4D89B001460446C9
:105A6000062202A8FAF78CFDAB882A881946104650
:105A70000193FFF775FFA7780090AB46002800F070
:105A80004C81B4F804A0019BAE78AAEB030394F810
:105A9000009094F8018099B2002E00F0F980A87966
:105AA000C72900F0F00300F2B6802188002B7CD1DA
:105AB0008A423E460FD177B9012363F30710A871DC
:105AC000FFF73EFF2846FFF725FDAB79A37130466F
:105AD00009B0BDE8F08F8DF818908DF81980514607
