:020000040800F2
:1000000000040020B9010008BB010008BB01000882
:10001000BB010008BB010008BB010008BB010008D0
:10002000BB010008BB010008BB010008A5C800080F
:10003000BB010008BB010008BB010008E9DA0008A9
:10004000BB010008BB010008BB010008BB010008A0
:10005000BB010008BB01000889340008C93400084E
:10006000093500084D35000891350008BB0100082E
:10007000BB010008BB010008B9E10008BB01000892
:10008000D5350008BB010008BB010008BB01000812
:10009000BB010008BB010008BB010008BB01000850
:1000A000BB010008BB010008A5DD0008B9DD0008A0
:1000B000BB010008BB010008BB010008BB01000830
:1000C00009DB000875360008BB0100082937000865
:1000D000BB010008BB010008BB010008BB01000810
:1000E00072B6264880F30888254880F30988254899
:1000F00025490860022080F31488BFF36F8F0CF04D
:10010000FDF80BF0D7FE4FF0553020491B4A9142C5
:100110003CBF41F8040BFAE71D49194A91423CBF24
:1001200041F8040BFAE71B491B4A1C4B9A423EBF9D
:1001300051F8040B42F8040BF8E700201849194A5B
:1001400091423CBF41F8040BFAE70CF0DBF80CF0ED
:10015000D6F8154C154DAC4203DA54F8041B884709
:10016000F9E706F035FF124C124DAC4203DA54F8B1
:10017000041B8847F9E70CF0C3B800000004002016
:10018000000C00200000000808ED00E00000002046
:100190000004002070090108000C00209C100020C1
:1001A000A01000200C3F0020E0000008E000000844
:1001B000E0000008E000000892E700F000F8FEE729
:1001C0002DE9F04FC1F80CD0C3689D46BDE8F08F13
:1001D000002383F311882846A04700200CF096FAEC
:1001E000FEE70CF0C9F900DFFEE7000053B94AB999
:1001F000002908BF00281CBF4FF0FF314FF0FF302F
:1002000000F074B9ADF1080C6DE904CE00F006F809
:10021000DDF804E0DDE9022304B070472DE9F04782
:100220008C460446089E002B40F086808A42154684
:1002300048D9B2FA82F24AB1C2F1200701FA02F3B8
:1002400020FA07F7954047EA030C94404FEA154E11
:10025000BCFBFEF71FFA85F80EFB17C307FB08F976
:10026000210C41EA0343994509D9EB1807F1FF3105
:1002700080F0E180994540F2DE80023F2B44A3EB01
:100280000903B3FBFEF00EFB103300FB08F1A4B230
:1002900044EA0344A14209D92C1900F1FF3380F04C
:1002A000C880A14240F2C58002382C4440EA074091
:1002B0000027641A1EB10023D440C6E90043394622
:1002C000BDE8F087002A54D0B2FA82F2002A40F04A
:1002D000B4800127491B4FEA15481FFA85F9B1FB85
:1002E000F8FE08FB1E1109FB0EF04FEA144C4CEA15
:1002F0000143984207D9EB180EF1FF3102D2984220
:1003000000F2EB808E461B1AB3FBF8F008FB1033AB
:1003100009FB00F9A4B244EA0344A14507D92C190A
:1003200000F1FF3302D2A14500F2DB801846A4EBB6
:10033000090440EA0E40BDE78B4208D9002E75D073
:100340000027C6E9000138463946BDE8F087B3FA10
:1003500083F77FB98B4202D3824200F2BC80841AB9
:1003600061EB030301209C46002EA8D0C6E9004C97
:10037000A5E7FFDEC7F12005BB4022FA05FC4CEAE9
:10038000030C21FA05F44FEA1C4EB4FBFEF91FFAE8
:100390008CF80EFB194420FA05F3B94009FB08FA62
:1003A00019430B0C43EA0444A24502FA07F200FA8F
:1003B00007F30BD91CEB040409F1FF3080F08980AE
:1003C000A24540F28680A9F102096444A4EB0A0424
:1003D000B4FBFEF00EFB104400FB08FA89B241EAC0
:1003E0000444A24508D91CEB040400F1FF316CD28F
:1003F000A2456AD90238644440EA0940A0FB028958
:10040000A4EB0A044C454146CE4655D352D0002EAB
:100410006AD05A1A64EB0E0404FA05F522FA07F3BF
:10042000FC401D43C6E90054002748E737463046E4
:1004300045E718463AE70F4621E79540C2F1200309
:1004400021FA03F04FEA1548B0FBF8F71FFA85F9D7
:1004500008FB170E24FA03FC914007FB09FA4CEA4B
:100460000101080C40EA0E40824504FA02F407D963
:10047000281807F1FF332AD2824528D9023F2844A1
:10048000A0EB0A00B0FBF8FC08FB1C000CFB09F316
:1004900089B241EA00418B4208D969180CF1FF305A
:1004A00011D28B420FD9ACF1020C2944C91A4CEA83
:1004B000074714E74345AAD2B8EB020169EB0C02E7
:1004C00001389646A3E78446F0E7084694E71F46BE
:1004D000D6E781467AE7384646E7AEF1020E2B446E
:1004E00011E702382C4422E73746E8E6704700BFA0
:1004F00008B5062000F0C2FA01200DF03DF900BF5A
:10050000024B0146186800F055B900BF000C0020EE
:10051000024B0146186800F0F9B800BF000C00203B
:10052000032A70B412D940EA0105AD0704460B4610
:1005300020D11946204653F8045B54F8046BAE42B0
:1005400018D1043A032A20461946F2D8541E72B133
:1005500003780A789A4208BF241806D00CE010F8F5
:10056000013F11F8012F934206D1A042F7D100209C
:1005700070BC7047541EEBE7981A70BC704700BF00
:10058000844641EA000313F0030349D1403A23D3E0
:100590000B6803604B6843608B688360CB68C36003
:1005A0000B6903614B6943618B698361CB69C361EB
:1005B0000B6A03624B6A43628B6A8362CB6AC362D3
:1005C0000B6B03634B6B43638B6B8363CB6BC363BB
:1005D00040304031403ADBD230320BD30B680360FD
:1005E0004B6843608B688360CB68C3601030103108
:1005F000103AF3D20C3205D351F8043B40F8043BD7
:10060000043AF9D2043208D0D2071CBF11F8013BDA
:1006100000F8013B01D30B8803806046704700BFA0
:10062000082A13D38B07B1D010F00303AED0C3F167
:100630000403D21ADB071CBF11F8013B00F8013B91
:10064000A4D331F8023B20F8023B9FE7043AD9D308
:10065000013A11F8013B00F8013BF9D20B78037025
:100660004B7843708B78837060467047F0B4860790
:1006700046D0541E002A3CD0CAB2034602E014F110
:10068000FF3436D303F8012B9D07F8D1032C29D969
:10069000CDB245EA05250F2C45EA054533D9A4F12D
:1006A0001006360903F1200707EB061703F11002C5
:1006B00042E9045542E902551032BA42F8D1721C9F
:1006C00014F00C0F03EB021204F00F0613D0331FCB
:1006D00023F003030433134442F8045B9342FBD139
:1006E00006F003042CB1C9B21C4403F8011B9C4260
:1006F000FBD1F0BC704734461346002CF3D1F8E729
:1007000014460346C2E71A462646E0E700293AD0D7
:1007100038B551F8043C0C1F002BB8BFE41805464F
:1007200000F05AFA224B1A682AB1A2420DD9216868
:100730006018824221D0626028461C60BDE83840C3
:1007400000F04CBAA34203D81A465368002BF9D1E3
:1007500011685018A04217D022D82168601883422F
:1007600003BFD3E900030918C4E9001363605460B0
:100770002846BDE8384000F031BAD2E90002014411
:10078000C4E90012D8E7704720680144501883423A
:100790001160EDD1D3E900030144C2E90013E7E79A
:1007A0000C2328462B60BDE8384000F017BA00BF84
:1007B000A0100020F8B5CD1C25F0030508350C2D40
:1007C00038BF0C25002D064633DBA94231D82A4F0D
:1007D00000F002FA3A6852B113685B1B04D43FE0A0
:1007E00023685B1B29D522465468002CF8D1796810
:1007F00000293BD0294630460CF0A2FF431C28D0EC
:10080000C41C24F00304A04205D0211A30460CF089
:1008100097FF01301DD02560304600F0DFF904F16C
:100820000B0020F00700231DC21A01D01B1AA35091
:10083000F8BD0C2200203260F8BD0B2B05D8A24277
:10084000636811D05360E7E7144623601C442560B9
:10085000E2E70C233046336000F0C0F90020F8BD19
:100860000B2BF1D8144653683B60D5E730460CF0AB
:1008700067FF7860BEE700BFA010002038B5124BBC
:1008800005461C68A06B18B10023C0E9045338BDAD
:100890001820FFF735FEA06378B101220023C0E9DC
:1008A00004230A4B0B24836000230949094A8481ED
:1008B000C0E90012C0E9045338BD0246064B42218C
:1008C000064800F041F900BF000C0020ECDE0500F6
:1008D0000E33CDAB34126DE6A0080108B80801084C
:1008E00038B51A4B1C68A26B92B114691849536948
:1008F00001FB04F1174800FB0313A4FB0045611C36
:100900001D4445F1000323F00040C2E9041338BD43
:100910001820FFF7F5FD0246A06388B101240025E9
:100920000B21C0E904450C4B0948136003460B4DED
:100930000B4C91810B49C2E90154C2E9041338BD43
:10094000094B4E21094800F0FFF800BF000C0020C1
:100950002DF451582D7F954C0E33CDAB34126DE6EE
:10096000ECDE05002E7F954CA0080108B8080108B0
:1009700010B580210446FFF71DFF606440B10022DE
:10098000031F7C3043F8042F8342FBD1002010BDAD
:100990004FF0FF3010BD00BF436C0BB1002070471B
:1009A000E6E700BF1F2970B5054608D8436C164618
:1009B0000C464BB153F8240043F8246070BD162256
:1009C0004FF0FF302A6070BDFFF7D2FF08B96B6CA3
:1009D000F0E74FF0FF3070BD1F2938B5054620D82D
:1009E000426C0C466AB152F8213053B1012B16D03B
:1009F000591C10D00025204642F82450984728461C
:100A000038BD284600F070F8224601462846BDE869
:100A1000384000F055B8162301202B6038BD002067
:100A200038BD16234FF0FF302B6038BD1F2921D869
:100A300038B5436C05460C4683B153F8242003EBCC
:100A400084034AB1511C10D0012A0CD00025204645
:100A50001D609047284638BD012038BDFFF788FF4C
:100A600028B96B6CE9E7032038BD022038BD4FF090
:100A7000FF3038BD4FF0FF30704700BF024B0146DA
:100A80001868FFF7A9BF00BF000C0020024B0A4600
:100A900001461868FFF786BF000C0020034B18685A
:100AA000436C0BB10020704762E700BF000C0020D0
:100AB000024B01461868FFF7B9BF00BF000C0020C9
:100AC00070B50D460023074C0646114628462360A4
:100AD0000CF05AFE431C00D070BD2368002BFBD0E5
:100AE000336070BD083F00200CF056BE20F00301BB
:100AF00010F00300C0F1000051F8043B00F1040CB9
:100B00004FEACC0C6FF000021CBF22FA0CF2134328
:100B10004FF0010C4CEA0C2C4CEA0C4CA3EB0C02F1
:100B200022EA030212EACC1204BF51F8043B04305B
:100B3000F4D0C2F1000102EA0102B2FA82F2C2F17B
:100B40001F0200EBD200704700B50A4C0546206832
:100B500085B01C46C06852B1074BCDE90132009107
:100B60002B462246054900F023F8FFF7C1FC044B51
:100B70001A46F2E7000C0020EC080108FC08010806
:100B8000F808010808B513460022FFF7DDFF00BF93
:100B90000CB410B582B004AC54F8042B2346019475
:100BA00000F060F802B0BDE8104002B0704700BF2E
:100BB0000EB430B582B005AC54F8042B054D014697
:100BC00023462868019400F04DF802B0BDE830409B
:100BD00003B07047000C0020704700BF704700BF93
:100BE0009368013B002B93600FDA10B49469A34221
:100BF00008DB0A2906D01368581C106019700846D3
:100C000010BC704710BC00F07BBB1368581C106010
:100C100019700846704700BF9BB1F8B513440F46E2
:100C200006465D1E541E01E0AC4208D03A4614F858
:100C3000011F3046FFF7D4FF431CF5D1F8BD00205B
:100C4000F8BD0020704700BF936810B5144613B973
:100C50005360184610BD00F013FE0023C4E90133B1
:100C600010BD00BF2DE9F04F9FB08B4690461C464B
:100C7000039018B18369002B00F0B980A34B9B450A
:100C800000F0BB80A24B9B4500F0C980A14B9B4567
:100C900004BF039BD3F80CB0BBF80C30180740F12D
:100CA000B480DBF81030002B00F0AF80302300213F
:100CB00020228DF8323098F8003005940B918DF891
:100CC0003120954E0127002B00F08980252B00F064
:100CD0001781454603E0252B00F0A58025466B785B
:100CE0006C1C002BF7D1B4EB080A78D0424653466F
:100CF00059460398FFF790FF013070D00B9B6A783C
:100D000053440B93002A6AD000234FF0FF32013482
:100D10000693CDE908338DF85B301C93079206E00B
:100D20002C46069B801B07FA00F0184306902546C8
:100D3000052215F8011B304600F0E6FFAA46002800
:100D4000EED1069BD90644BF20228DF85B201A07FE
:100D500048BF2B22217848BF8DF85B202A2967D114
:100D6000059A1168043200290592C0F29E8009910B
:100D70006178A51C2E2974D0684C0322204600F00F
:100D8000C3FF002800F087804022069B001B02FA68
:100D900000F00343069305F101082B78062219465B
:100DA0005F488DF8303000F0AFFF002800F08380FE
:100DB0005C4B002B72D005AB00935A465A4B06A9E8
:100DC0000398AFF300808146B9F1FF3F07D00B9B3A
:100DD0004B440B9398F80030002B7FF477AFBBF8AF
:100DE0000C305B0618D40B981FB0BDE8F08F00F0F4
:100DF00027FD464B9B457FF445AF039BD3F804B0DA
:100E0000BBF80C3018073FF54CAF5946039800F07B
:100E1000D7FA00283FF44AAF4FF0FF30E4E7039BD6
:100E2000D3F808B038E7B4EB080A3FF46DAF5DE7DC
:100E3000A1F13002092A88BFA2469BD8099B01E094
:100E40002C460135297803EB830302EB4303A1F120
:100E50003002092AAA46F3D92E2904F10205099382
:100E60008AD19AF801102A292FD1059B0AF1020094
:100E70001A680433002A079205939AF802100AF1BF
:100E8000030538DB254C82460322204600F03CFF58
:100E900000287FF479AFA84655467EE7059B0733C7
:100EA00023F007030833059391E7494243F0020317
:100EB000099106935CE705AB00935A461A4B06A9C5
:100EC000039800F0D3F881467EE70023A1F13002B9
:100ED000092A079301D915E05546697803EB830386
:100EE00002EB4303A1F13002092A05F1010AF3D90B
:100EF0000235079340E74FF0FF33824607933BE705
:100F0000444601E7AA46013536E700BF6CF7000802
:100F10004CF700082CF700082C09010834090108D7
:100F20003809010800000000190C000810B4044C36
:100F300013460A460146206810BCFFF793BE00BF67
:100F4000000C00202DE9F0470C460969A568914680
:100F50008D42B8BF0D46156094F8431006461F46F3
:100F6000DDF8208011B16A1CC9F8002023689906B9
:100F70005CD5D9F800200232C9F80020236813F0AC
:100F8000060F19461DD1E1688A1A002AD8BF1946F2
:100F900017DD002504F1190A05E0E368D9F80020FF
:100FA0009B1AAB420CDD0123524639463046C047FE
:100FB000013005F10105F0D14FF0FF30BDE8F087B9
:100FC000216894F84330003318BF01238A060AD5FC
:100FD0003021E21882F8431094F845105A1C22443C
:100FE00082F84310023304F1430239463046C047C9
:100FF0000130E1D02368A26803F00603042B2169C5
:101000001DD08A4226DD4FF00009521A9144002576
:101010001A3401E04D451DDA012322463946304697
:10102000C047013005F10105F4D1C5E713F0060F03
:1010300013D094F84330003318BF0123D3E7D9F815
:101040000000E3688A42A3EB000323EAE379DCDCD7
:10105000002BDCDC0020BDE8F087E168D9F8002037
:101060008A1A002AD8BF194693DCAAE72DE9F04373
:101070000C46097E85B06E2906461746984604F14F
:10108000430C0C986DD039D9732900F0F48044D901
:10109000752900F00281782940F00F8178232268B9
:1010A000DFF854E284F845300168150651F8043B36
:1010B000016040F1A180D10744BF42F020022260CC
:1010C000002B00F093801022002184F84310606808
:1010D0000028A060C0F2C680216821F004012160D0
:1010E000002B40F0A280002840F0BE806546082A10
:1010F00000F0AB80ACEB0503236141E0632900F015
:10110000E3801AD8002938D0582940F0D68084F8D6
:1011100045102268DFF8E4E1C6E76F2900F0BD80E2
:10112000702940F0CA8078232268DFF8CCE142F0D1
:101130002002226084F84530B6E7642902D069298C
:1011400040F0BB8022680368110603F1040557D5FF
:10115000196805600B46002959DB0A22DFF89CE17B
:10116000B5E7036822681D1D6169056015061B68E7
:1011700002D4500600F1BB8019600023654623614C
:10118000CDF800803B4603AA21463046FFF7DAFE41
:10119000013020D02A46236939463046C047013005
:1011A00019D0226803989207E36819D51A1A002A01
:1011B00016DD002504F1190904E0E36803981A1A02
:1011C000AA420DDD01234A4639463046C047013068
:1011D00005F10105F1D14FF0FF3005B0BDE8F08316
:1011E0009842B8BF184605B0BDE8F08321681022C8
:1011F00021F02001216067E7500648BF9BB25AE703
:101200005106A5D5B3F9003005601946A3E72D2096
:1012100061685B42002984F84300A16002DB22F090
:10122000040222600A22DFF8D4E0654600E00B46A3
:10123000B3FBF2F102FB11301EF80000934205F8F7
:10124000010DF4D2082A7FF455AF2368DB077FF540
:1012500051AF626823699A423FF74CAF3023013D9A
:101260002B7047E7002BE0D19EF8003004F14205D7
:1012700084F842303BE703686268191D01601D680D
:101280000021284600F040FD002832D0401B60605D
:101290002061002384F8433072E72268036812F06B
:1012A000800F03F104051AD01B6805606F290CBF7D
:1012B00008220A22DFF844E006E7012384F84210FE
:1012C000236104F14205E4E70122036804F14205C9
:1012D000191D1B68016084F842302261D9E712F0C1
:1012E000400F0DBF1B6805601B880560DEE7198095
:1012F00043E76068CCE700BF5409010840090108D2
:10130000F8B50D461446064608B1836943B3254B2C
:101310009C422AD0244B9C4229D0244B9C4208BF9B
:10132000F468A269A389A2601A0722D5236903B3CE
:1013300022686169D31AEDB299422F4629DD013343
:10134000A168501C0139A1602060157062699A4241
:1013500016D0A389DB0701D50A2D11D03846F8BD78
:1013600000F06EFA0F4B9C42D4D17468D9E7B46890
:10137000D7E72146304600F023F838B92369D7E78C
:101380002146304600F032F90028E7D04FF0FF3711
:10139000E4E72146304600F029F90028F6D1012380
:1013A0002268CDE76CF700084CF700082CF700081E
:1013B000024B0A4601461868FFF7A2BF000C002046
:1013C0003B4B70B51D6806460C460DB1AB69DBB1F1
:1013D000384B9C421ED0384B9C424AD0374B9C42E3
:1013E00008BFEC68B4F90C2093B2190718D520692E
:1013F00008B313F001022CD000226369A2605B42A3
:10140000A36160B3002070BD284600F019FA294B93
:101410009C42E0D16C68B4F90C2093B21907E6D471
:10142000DD063CD5580726D4206942F00803A38185
:101430009BB20028DDD103F42072B2F5007FD8D032
:101440003046214600F016FCA389206913F0010202
:10145000D2D1990758BF6269A2600028D2D1B4F9ED
:101460000C301A06CFD543F04003A3814FF0FF3074
:1014700070BDAC68B6E7616B51B104F144039942A9
:1014800004D03046FFF742F9B4F90C20002363631F
:101490000023206922F02402C4E90003C5E70923E0
:1014A00042F0400233604FF0FF30A28170BD00BFB8
:1014B000000C00206CF700084CF700082CF700081F
:1014C0002DE9F0418F890C463A07804641D44B689C
:1014D000002B59DDE66A002E53D0002317F480520A
:1014E000D8F80050216AC8F8003051D10123404695
:1014F000B047431C5FD0A789E66A216A7F0705D5FC
:101500006268636B801A0BB1236CC01A0246002319
:101510004046B047461C45D1D8F80030B4F90C20FD
:10152000002B55D01D2B01D0162B5AD10022236938
:10153000C4E90032616BC8F8005011B304F14403F0
:10154000994202D04046FFF7E1F800206063BDE811
:10155000F0810E69AEB10D680E60B90714BF0023AB
:101560006369AD1BA3600AE02B463246A76A216A75
:101570004046B8470028A5EB000506440ADD002DCB
:10158000F2DC0020BDE8F0810B6C002BA2DCF8E758
:10159000606DB3E7A3894FF0FF3043F04003A381B0
:1015A000BDE8F081002322696360A3892260DA0428
:1015B000C0D56065BEE7D8F80030002B9BD01D2B4E
:1015C0000CD0162B0AD0A38943F04003A381D9E79E
:1015D0002169C4E90013D304ACD5EAE7C8F8005088
:1015E000CFE742F04002A281CCE700BF0B6923B3F2
:1015F00010B5044682B008B18369BBB1104B994263
:1016000012D0104B994216D00F4B994208BFE16897
:10161000B1F90C302BB1204602B0BDE81040FFF705
:101620004FBF002002B010BD6168F1E7019100F0EA
:1016300007F90199E2E7A168EAE70020704700BFD7
:101640006CF700084CF700082CF7000820B1054B98
:1016500001461868FFF7CABF034B0449186800F039
:10166000B3BA00BF000C002028F70008ED150008F1
:1016700000207047014900F0A7BA00BFED1500082F
:101680000020704770B568254A1E05FB02F50E461E
:1016900005F17401FFF78EF8044640B100210C30CB
:1016A000666005F168022160A060FEF7DFFF20465A
:1016B00070BD00BF1E4B70B51D680646AB6943B3D5
:1016C0004835D5E90134013B05D51EE0013B5A1CE4
:1016D00004F1680419D0B4F90C20002AF6D10025D1
:1016E000144B6566C4E90055A560C4E90455A561BD
:1016F0002946E360082204F15C00FEF7B7FFC4E965
:101700000D55C4E91255204670BD2C682CB12546F4
:10171000D7E7284600F010F8D2E704213046FFF75B
:10172000B1FF044628600028F1D10C233360EAE7BA
:1017300028F700080100FFFF2DE9F84F0023334A86
:10174000C0E9123312680365904208BF0123304993
:1017500008BF836181620546FFF7ACFF68602846D9
:10176000FFF7A8FFA86028460024FFF7A3FF042383
:101770006E68E8602146F3607466C6E90044B460B0
:10178000C6E90444B46106F15C000822FEF76EFF6E
:10179000DFF888B0AF68DFF888A0DFF88890DFF85E
:1017A00088801C4BC6E9086BC6E90AA9C6F83080D8
:1017B0002146FB6008227C66C7E90044BC60C7E99B
:1017C0000444BC6107F15C00FEF750FFEE68124B69
:1017D000C7E9087BC7E90AA9C7F830802146F3604A
:1017E0007466C6E90044B460C6E90444B46106F115
:1017F0005C000822FEF73AFF0123C6E9086BC6E940
:101800000AA9C6F83080AB61BDE8F88F28F7000858
:10181000751600080900010012000200AD1E000844
:10182000D51E0008151F0008351F0008024B03498C
:10183000186800F0C9B900BF28F70008ED150008C6
:10184000836903B978E77047704700BF704700BFEE
:10185000704700BF704700BF024B0349186800F093
:101860008FB900BF000C002071160008024B03491D
:10187000186800F085B900BF000C00208116000830
:101880009368002B00F0FC802DE9F04FB1F90C308B
:101890000C469BB2190783B0824690462BD522692D
:1018A0004AB313F00202D8F8006033D000273D4657
:1018B000D4F828B0216ADFF8C492C5B14D452B4653
:1018C0003A4628BF4B465046D847002840F3CE80C2
:1018D000D8F8083007441B1A2D1AC8F80830002B16
:1018E00000F0B380D4F828B0216A002DE6D1D6E903
:1018F00000750836E1E721465046FFF761FD0028F4
:1019000040F03781B4F90C30D8F800609BB213F086
:101910000202CBD113F0010940F0B4804D46A76814
:101920002068002D55D09A0540F1C080AF42BB46DB
:1019300000F2EE8013F4906F2FD0D4E9041707EB78
:101940004707A0EB010B07EBD777681C7F105844C3
:10195000B8423A4684BF07463A465B0540F1F080FC
:1019600011465046FEF726FF002800F0FC805A463C
:1019700021690190FEF704FEA289019B22F4906286
:1019800042F08002A281A7EB0B0203EB0B00676120
:10199000AB462F4623612060A2605A46494600F0BC
:1019A000F9F92368A2685B44AB460025D71BA76002
:1019B0002360D8F80870D944A7EB0B07C8F8087063
:1019C000002F42D0B4F90C30A7689BB22068002DDC
:1019D000A9D1D6E900950836A3E70BF1080353F81F
:1019E000047C9B4653F8086C0833002FF7D03A4626
:1019F0000A21304600F088F9002854D00130A0EBCD
:101A000006094B4620682169BB4228BF3B468842F5
:101A1000626903D9A5681544AB421ADC9A4200F307
:101A200081801346A56A3246216A5046A847051EA2
:101A30001CDDB9EB05096ED00120D8F808302E4422
:101A40005B1B7F1BC8F8083013BB002003B0BDE848
:101A5000F08F31462A4600F09DF9236821462B4439
:101A600023605046FFF7C2FD0028E2D0B4F90C30E5
:101A70004FF0FF3043F04003A38103B0BDE8F08F87
:101A80000020704733469146104617464E469B4607
:101A9000002FA2D00028B4D13A460A21304600F0E7
:101AA00033F90028AAD17B1C9946ABE7236983420E
:101AB00017D36269AA4214D82F4BA76A9D4294BFDC
:101AC0002B466FF0004393FBF2F3216A02FB03F312
:101AD00050464A46B847B0F1000BC7DDA5EB0B05F1
:101AE00067E7AF4228BF2F4649463A4600F052F911
:101AF000A3682268DB1B3A44BB46A3602260002B2C
:101B0000ECD121465046FFF771FD0028E6D0ADE745
:101B10002F46AB4641E721465046FFF767FD0028B8
:101B20008BD0A3E71A4631461D46019300F032F9E7
:101B3000A1682268019BC91A1344A160236078E759
:101B4000504600F08DF9034600287FF41CAF216950
:101B50005046FEF7DBFD0C22B4F90C30CAF8002029
:101B600023F0800384E70C22B4F90C30CAF800207B
:101B70007EE74FF0FF3069E7FEFFFF7F00FCFF7F4D
:101B80002DE9F04110F148071AD088460026D7E920
:101B90000154013D0ED4A389013D012B06D9B4F9AE
:101BA0000E30013302D02046C04706436B1C04F1BF
:101BB0006804F0D13F68002FE9D13046BDE8F081DC
:101BC0003E463046BDE8F0812DE9F84310F1480665
:101BD0001ED0884607464FF00009D6E90154013D62
:101BE00010D4A389013D012B08D9B4F90E3001337B
:101BF00004D021463846C04749EA00096B1C04F16D
:101C00006804EED13668002EE7D14846BDE8F88377
:101C1000B1464846BDE8F88370B50C46B1F90E10E0
:101C200096B0002916461D4613DB6A460BF095FD5B
:101C300000280EDB019A4FF4806302F47042A2F593
:101C40000052B2FA82F2002052092A60336016B0C4
:101C500070BD0022A3892A601B0604D54023002002
:101C6000336016B070BD4FF480630020336016B04F
:101C700070BD00BF8A890B46920706D5012103F18A
:101C8000470259611A601A61704770B582B001ABA2
:101C90006A460C460646FFF7BFFF009905463046E8
:101CA000FEF788FDB4F90C3070B1164A0099B262A3
:101CB000019A43F08003A3812060C4E904018AB93A
:101CC0002B43A38102B070BD9A05FBD4012123F000
:101CD000030304F1470243F00203A3816161226020
:101CE0002261EFE73046B4F90E100BF042FD10B957
:101CF000B4F90C30E4E7A38923F0030343F00103B4
:101D00001BB2DDE775160008830770B4CDB23DD075
:101D1000541E0AB30378AB421FD0431C05E014F1F4
:101D2000FF3419D30278AA4217D013F0030F1846D4
:101D300003F10103F3D1032C11D84CB30378AB4268
:101D40000BD00444431C02E00278AA4205D09C4216
:101D5000184603F10103F7D1002070BC704702461A
:101D60000E02B6B22E4346EA06461368104673408A
:101D7000A3F1013121EA030313F0803F02F10402D1
:101D8000DCD1043C032C1046EFD8D6E71446D2E74A
:101D90002046E2E78842F0B40DD98B1883420AD975
:101DA000841832B1224613F8014D994202F8014DD0
:101DB000F9D1F0BC70470F2A0ED80346541E002AF2
:101DC000F7D001340C44013B11F8012BA14203F878
:101DD000012FF9D1F0BC704740EA01039B073AD1CB
:101DE000A2F110073F0901F1200606EB071601F1E9
:101DF000100300F1100453F8105C103344F8105C29
:101E000053F81C5C103444F81C5C53F8185C44F81C
:101E1000185C53F8145CB34244F8145CEBD17B1C9F
:101E20001B0112F00C0F194402F00F05034415D0EA
:101E30000E46043DAD0803EB850C1C1F56F8047BD1
:101E400044F8047F6445F9D10135AD002B442944A1
:101E500002F00302B2E7541E0346B2E72A46ADE79A
:101E600009B3F8B51446CAB106460D4600F066F847
:101E7000A04202D32F463846F8BD21463046FEF731
:101E800099FC07460028F6D022462946FEF778FB43
:101E900030462946FEF73AFC3846F8BD2746FEF79D
:101EA00035FC3846F8BD1146FEF784BC10B50C462B
:101EB000B1F90E100BF039FC002803DB636D03440D
:101EC000636510BDA38923F48053A38110BD00BFB7
:101ED000002070472DE9F041B1F90C409846E30528
:101EE0000D461746B1F90E10064609D424F4805465
:101EF000AC8143463A463046BDE8F0410BF01CBC8D
:101F0000022300220BF016FCB5F90C40B5F90E10B7
:101F1000ECE700BF10B50C46B1F90E100BF00AFC4F
:101F2000A389421C0EBF23F4805343F480536065A1
:101F3000A38110BDB1F90E100BF000BC51F8043CA8
:101F4000181F002BBCBF0B58C01870470E4A002347
:101F5000114610B5147C84420FD11C225343CA1879
:101F6000906848B1CB58FF2818BF43434FF0010099
:101F700018BF5B000133536010BD0133042B02F125
:101F80001C02E7D10020F7E7A00E0020F0B50A4DB3
:101F900000242E462F7C874207D11C2000FB0464BE
:101FA000012061762276A376F0BD0134042C05F180
:101FB0001C05EFD10020F7E7A00E0020094A30B53C
:101FC00000231446157C854205D11C22012002FB0A
:101FD0000343996030BD0133042B02F11C02F1D19F
:101FE0000020F7E7A00E0020094A30B50023144670
:101FF000157C854205D11C22012002FB0343596058
:1020000030BD0133042B02F11C02F1D10020F7E7AF
:10201000A00E002070B50B4C00232546267C86427E
:1020200009D11C204343E818E95000238260C360B3
:102030004374012070BD0133042B04F11C04EDD165
:102040000020F7E7A00E002070B500252E462B4C8F
:102050006368002B4FD0E06808BB637CB3FA83F35E
:102060005B09637409F0E0FBD4E900239342E0606C
:102070002BD266606674E66063690BB1207C98477A
:10208000207CFF2824D100221146104607F022FAB6
:102090000135042D04F11C04DAD1012070BD09F0D2
:1020A00009FC23689842D8D26368002BE4D020460C
:1020B00002F07AFC0028EBD0637C207CB3B1FF28CF
:1020C0000CD1A27E217E607EE0E79B1A6360EBE785
:1020D0005028DDD800231A46194604E05028D7D8E6
:1020E000A37E227E617E06F06DFBD1E7FF28CAD079
:1020F0005028CDD8EFE76374E360C9E7A00E002055
:1021000007B503788DF8003043788DF80130837877
:102110008DF8023003798DF80330C37868468DF866
:1021200004300DF069F903B05DF804FB08B5074B06
:102130005A78032A07D8586809F0BCFBC72894BF0F
:102140000020012008BD0020FCE700BFA40C0020F7
:10215000704708B5002280214FF080400BF08DFCC5
:10216000FFF7F6FF00BF00BF00BF00BF00BF00BF0A
:1021700000BF00BF00BF00BF00BF00BF00BF00BF67
:1021800000BF00BF00BF00BF08BD08B501F00CFBD9
:1021900008BD000008B5054C20780CF029FC20781B
:1021A000FFF7F3FF05200AF0B6FAF5E7183B002029
:1021B00010B5084C236803F07142074B13432360AA
:1021C00009F032FB054B18602068BDE8104004F0B0
:1021D00052BA00BF183B00200001010EAC100020D5
:1021E00010B5064C0122204602210BF046FC0223CA
:1021F000A361BDE8104001F075BB00BF00040040C2
:1022000001207047124B10B51C789CB9114B1B78FC
:10221000042B0FD104F01CF904F030F904F0E2F8BB
:1022200004F05CF9204609F0A3F92046BDE810400F
:1022300009F0BAB90DF0E4F848B10CF0CFFB002872
:10224000FBD1BDE810404CF250300AF064BA10BD2A
:10225000183B0020B43E002038B500230D460B701B
:10226000074C30B109F0E0FA002320602B70002009
:1022700038BD206809F01EFB3228F3D8F7E700BF0D
:10228000BC100020084B9A78012A07D0022A09D0F6
:10229000064B1868B0FA80F040097047587801285A
:1022A000F6D170470120FCE7A40C0020201200208A
:1022B00008B5054B9B78013B012B02D9FFF7E2FFE4
:1022C00008BD0120FCE700BFA40C002008B509F000
:1022D000ABFA014B986008BDA40C00202DE9F04139
:1022E0000C4615460746002837D0B1FA81F35B0942
:1022F0009BB1554E554A3378002C32D00221012B28
:1023000091610AD030460BF097FB30460AF060FF2F
:102310004F48504B836009F001F9A74201D0FFF705
:1023200071FF4D4E3378A34200D11DB100224B4BBB
:102330009A619A83347024B1631E042B747098BF21
:10234000B470306804F097F93378062B76D8DFE85C
:1023500003F0731936404A545E000B1C18BF01236A
:10236000C6E74FF40031042B9161D6D03C4BDFF827
:10237000E0801C703B4B3046C8F8083009F006FD81
:102380004046C8E7312075B10CF0B2FF52200CF086
:10239000AFFF01200CF0B8FF4EF2884143F22D4010
:1023A0000DF00CF851200CF0A3FFFFF78FFF2A4629
:1023B0002146384601F0A6FE0120BDE8F08132201A
:1023C000002DF0D00CF094FF52200CF091FF022071
:1023D000E0E73320002DE6D00CF08AFF52200CF00D
:1023E00087FF0320D6E73420002DDCD00CF080FFDF
:1023F00052200CF07DFF0420CCE73520002DD2D0F8
:102400000CF076FF52200CF073FF0520C2E730205D
:10241000002DC8D00CF06CFF13480CF09BFF134844
:102420000CF0B2FF4EF2884143F22D400CF0C6FF93
:1024300052200CF05DFFB5E71120B4E711200CF03D
:1024400057FFFFF7B5FEB0E7B43E002000040040A0
:102450007C10002001210008183B0020640C0020A3
:10246000682B002051BE000819F8000823F8000866
:10247000002313B50DF107018DF80730FFF7ECFECF
:10248000044690B19DF80730013B032B0DD8DFE8DF
:1024900003F002060F1200221146094B02E000224F
:1024A000074B99781878FFF719FF204602B010BD46
:1024B00000220621F1E7024B00225978F2E700BF23
:1024C000183B002013B5124C20460CF019FA0123DA
:1024D000A37704F0CDF80F4C206008B9FFF768FE31
:1024E000E37843F00103E37009F09EF90A4BFF2201
:1024F000186000234FF4A87100930848084B0AF0B5
:10250000D7F8FFF726FE0120FFF7B2FF02B010BD9B
:10251000640C0020183B0020AC100020C0100020EC
:102520009521000838B5124C054623782070637059
:1025300009F07AF9032D606019D10120FFF798FFA7
:1025400038B90C4B1A785AB1597802460846FFF749
:10255000C5FEFFF7BBFEBDE8384053200CF0C8BEF7
:10256000054909780129F4D111465878EFE738BDBB
:10257000A40C0020183B0020B43E002048B1074ABC
:102580001378013B012B07D893782BB90320FFF771
:10259000C9BF0122024B1A70704700BFA40C002073
:1025A000B8100020014B1878704700BFA40C002021
:1025B000014B9870704700BFA40C0020014B987825
:1025C000704700BFA40C0020014BD870704700BFBB
:1025D000A40C00200122014B1A707047B810002093
:1025E000F8B51C4C1C4DE278A968C2F3420219B937
:1025F000FFF76CFE0020F8BD184B53F822702378CB
:102600002BB9174B1B78042B01D1FFF75FFE154E3A
:10261000327892B1002333704FF080431B69E27827
:10262000DB0963F300022378E27073B101F03AFF33
:102630000028DFD101F0DCF8DDE7002FDAD0A86850
:1026400009F038F9B842E5D2D4E7054B1B78042BE2
:10265000ECD1CDE7183B0020A40C0020C8F70008FF
:10266000B43E0020B81000200C4B10B55A78194623
:10267000012A03D0022A08D0002005E09C78012C12
:1026800003D101F021F9204610BD486809F012F984
:10269000C728F1D9FFF7F6FDF6E700BFA40C00202C
:1026A00008B5074BDB780BB1022B04D10220FFF7F2
:1026B00039FF002008BD0320FFF734FF0120F9E7B0
:1026C000A40C002038B50A4D0024EB78033B012B05
:1026D00008D80320FFF726FF2046AC7001F092F8DF
:1026E000012038BD0220FFF71DFF2046F9E700BF9B
:1026F000A40C002010B50A4CE378032B0AD3042B5A
:1027000008D80320FFF70EFF0020A07001F09AF810
:10271000012010BD0220FFF705FF0020F9E700BFF0
:10272000A40C002070B5884C884D2068B8B109F021
:10273000C1F8B0F5FA6F12D30026552026600CF0D0
:10274000D7FD57200CF0D4FD70200CF0D1FD287877
:1027500032460146B0FA80F04009FFF7BFFD2B7802
:1027600023B17B4B93F820207A4B1A702368DBB996
:10277000794E306809F09EF840F6B733984213D985
:102780002B788BB10CF02AF970B9714CA37F5BB137
:1027900009F04AF8306053200CF0AAFD94F821307B
:1027A00013B970200CF0A4FD4FF080431B69EA7848
:1027B000DB096A4C63F300020020EA70FFF758FE61
:1027C0002378032B1ED8DFE803F002284F9EE3682E
:1027D00033B1984720B10120FFF7A4FE0023A37076
:1027E000236933B1984720B10120FFF79BFE0223F4
:1027F000A370636933B1984720B10120FFF792FEBF
:102800000123A3700CF06EFC554B1B78002B00F0DD
:102810009980BDE8704002F05DBEA369002BF1D045
:1028200098470028EED002F0FBF84E4B187007F0E6
:10283000F1FB2A784C4B1A700022454B9A772A6894
:102840004A4B134063B94A4C2378012B08D002222B
:10285000484B20469A610BF0EFF820460AF0B8FC8E
:102860000220FFF75FFECDE7E369002BCAD098474F
:102870000028C7D00022404B1A704FF080434FF41D
:1028800000129A61A37843B3022B0BD86378022B12
:1028900008D0FFF7B7FC11200CF02AFD0CF09EF8D1
:1028A0000028FBD100F096FF0023E3702E4B2A781E
:1028B0001B789A4208D12A682C4B1340B3F1807FD1
:1028C00002D0A07800F05EFCA378012B18D0A3B151
:1028D000022B97D1FFF7F6FE94E71D4B5B7E002B92
:1028E000E0D111200CF004FD0CF078F80028FBD1A9
:1028F00047F2305009F00FFFD4E7FFF7D1FE81E730
:10290000FFF7F8FE7EE7236A002B3FF47BAF984782
:1029100000283FF477AF01220D4B9A77114B1B78BB
:102920002BB14FF0804320229A6107F061FB002415
:1029300000F014FB104B1C7000F040FFFFF7C6FCCA
:1029400020468EE770BD00BFAC100020183B002071
:10295000640C0020682B0020B4100020A40C002080
:10296000B1100020A8100020B0100020FF000001CE
:10297000B43E002000040040B81000200120704741
:1029800008B5FFF7FBFF08BD37B504460D46FFF756
:102990009DFC29462046FFF7F3FF60B1074B1A78EC
:1029A0004AB1074B20461B78D9090091C3F30013A5
:1029B000A9780CF0BBFB03B030BD00BF183B002072
:1029C000283B002000B50B4B8FB093F821300A4A0A
:1029D000322101A804F0EBFD01A808F0EDF80BF09E
:1029E000F9FF08F0E9F8054808F0E6F80FB05DF8DF
:1029F00004FB00BF640C0020E8F70008F7F70008AC
:102A00002B4B13B51A7804464AB12A4B01211B7887
:102A1000DB09009300230CF089FB02B010BD0028F5
:102A2000FBD0031FDBB2A02B12D8234B0146186842
:102A300008F0F4FD20B1204603F0CCFC03F04EFD7D
:102A4000204603F0BFFC02B0BDE8104003F046BDD5
:102A500000F12003DBB2072B07D800F007040120A8
:102A6000A040C0B203F0E4FCEDE700F15B03DBB291
:102A7000022B06D8114AD05C02B0BDE8104008F025
:102A800077BD00F15803DBB21A2B07D80C4A32F895
:102A9000130002B0BDE8104008F086BD3334E4B244
:102AA000122CBAD8012102B0BDE8104002F0F8BDE6
:102AB000183B0020283B0020280F00208CF700083E
:102AC00090F70008244B13B51A7804464AB1234BFB
:102AD0001B78DB090093002319460CF027FB02B09A
:102AE00010BD0028FBD0031FDBB2A02B06D803F0DB
:102AF00071FC02B0BDE8104003F0F0BC00F120030F
:102B0000DBB2072B07D800F007040120A040C0B2B9
:102B100003F096FCEDE700F15B03DBB2022B05D876
:102B2000104602B0BDE8104008F022BD00F1580385
:102B3000DBB21A2B05D8104602B0BDE8104008F0F1
:102B400033BD3334E4B2122CC9D8114602B0BDE80B
:102B5000104002F0A5BD00BF183B0020283B00201C
:102B60002DE9F3410546C0B1114E3278C2B10127BB
:102B7000DFF84080284602F024FD044698F8003033
:102B8000E030DB09009332780023012180B207FA9C
:102B900004F40CF0CBFAA543ECD102B0BDE8F0810F
:102BA00003F046FC02B0BDE8F04103F097BC00BF63
:102BB000183B0020283B00202DE9F3410546C0B119
:102BC000114E3278C2B10127DFF84080284602F06A
:102BD000F8FC98F800300446DB0900930023E0304D
:102BE0003278194680B207FA04F40CF09FFAA54334
:102BF000ECD102B0BDE8F08103F022FC02B0BDE8E8
:102C0000F04103F06BBC00BF183B0020283B0020C4
:102C10002DE9F3410546C0B1114E3278C2B101270A
:102C2000DFF84080284602F0CCFC044698F80030DB
:102C3000E030DB09009332780023012180B207FAEB
:102C400004F40CF073FAA543ECD102B0BDE8F081B6
:102C500003F004FC02B0BDE8F04103F03FBC00BF4C
:102C6000183B0020283B00202DE9F3410546C0B168
:102C7000114E3278C2B10127DFF84080284602F0B9
:102C8000A0FC98F800300446DB0900930023E030F4
:102C90003278194680B207FA04F40CF047FAA543DB
:102CA000ECD102B0BDE8F08103F0E0FB02B0BDE87A
:102CB000F04103F013BC00BF183B0020283B00206C
:102CC0002DE9F04104460E4601F0F0FAE8B9237808
:102CD000013B142B4ED8DFE803F00B1B48626872EF
:102CE0007575757ACA80848A939C9FA2ABB4BD0027
:102CF000002363700C23A370614B31461B78204680
:102D0000002B40F0B98009F0A9F80120BDE8F0815E
:102D10006378013B032B2DD8DFE803F0020C0F2171
:102D200008F082FD030EA370030CE370030A237105
:102D30006071E1E707F011FCF4E72546A77804F19C
:102D40001C08052FD8D8F8B204F010F8030AEB706D
:102D500028710235454507F10107F2D1CCE7002380
:102D6000A370E37023716371C6E76378022B04D00C
:102D7000052B10D0FF232370BEE7E378A07840EA4C
:102D80000320237940EA0340637940EA036000BAF4
:102D900007F0E6FBB0E7A07807F00CFCACE7E278C0
:102DA000A178607808F002F8C0E722796379A17809
:102DB00043EA02236078E27808F00EF89CE708F016
:102DC0005BF899E73146204607F06FFC94E7002056
:102DD00007F0A6FB07F0CFFB8EE708F0D7F860708E
:102DE0008AE708F0D5F8030A6370A07084E760787A
:102DF000A378221DE17843EA002008F0CCF87BE7B5
:102E00006078A378221DE17843EA002008F0DDF81D
:102E100072E708F0EDF86FE707F0BCFFDFE76078D6
:102E2000A378221DE17843EA002008F06FF863E7F9
:102E30006078A378221DE17843EA002008F07DF84D
:102E40005AE7E278A178003218BF0122607807F0D3
:102E5000D8FF6BE7E27821796379003243EA0123F6
:102E600018BF0122A178607807F0EAFF44E7012348
:102E7000044A637013703FE70CF01AFB45E700BF8C
:102E8000183B0020B110002010B54378044613B160
:102E9000FF23237011E08378013B032BF8D8DFE890
:102EA00003F0021A28410378072B07D0082BEFD133
:102EB000294BDB78C3F34203C37010BDC1780729E7
:102EC000FBD8BDE81040244BDA7861F34302DA7096
:102ED000186803F0D0BB0378072B05D0082BD7D197
:102EE00001F0F1FAE070E8E7C078BDE8104001F0C9
:102EF000BBBB0378072B0AD0082BC9D142790179D3
:102F0000C07801F0E2FAA071000AE071D5E7C27959
:102F10008379017943EA0223BDE810404279C07801
:102F200001F0E9BA0378072B0BD0082BB0D1237935
:102F3000C078A21D617943EA0020BDE8104001F08D
:102F4000EFBA2379C078A21D617943EA0020BDE879
:102F5000104001F000BB00BF183B002008B508F08E
:102F600063FC014B186008BD10120020164B10B511
:102F70001C788CB9154B1B78052B08D0022B06D07A
:102F800008F052FC124B1860124B1C7010BD4FF031
:102F900080431B691B0603D4BDE81040FFF7DEBF6A
:102FA0000B4B18680028F7D008F084FC41F6573323
:102FB0009842EBD9FFF7D2FFBDE810400122054B44
:102FC0001A70FFF707BB00BF183B0020B43E00207B
:102FD0001012002014120020F8B5124B1F7817B100
:102FE00001242046F8BD104D2B78052BF8D1B5F8FB
:102FF0004C309B0702D50D4E347824B9FF2894BF7E
:1030000000240124EDE7FFF7CDFA0328E8D8377054
:10301000FFF7A4FF28460AF087F9284601F084F953
:10302000DFE700BF183B0020B43E00201412002050
:10303000704700001A4B70B59C6C0F2644F4C064B6
:103040009C649B6C012301F003048B4021F003017D
:1030500001F1804101F5A0518D68A400C0F38320E7
:10306000A04006FA04F425EA040528438860D84302
:103070000C4912F0010F8C6814BF1C4304408C6093
:1030800012F0020FCA6814BF1A430240CA60054A10
:10309000536111680B43136053680340536070BD64
:1030A000000C0140001800400F281FD8DFE800F096
:1030B000080C0F121518181818181B1B1B1B1B1BAC
:1030C000062108460AF06BBB06210720FAE7062115
:1030D0000820F7E706210920F4E706210A20F1E796
:1030E00006211020EEE706212120EBE770470120A2
:1030F0007047000010B5FFF7FAFF002836D00C2209
:10310000032418211A4B12209C62DA62194AC2F871
:10311000901000229A62DA62174A0121136C43F47C
:10312000807313644FF47062144B5A645A6C02F447
:1031300070625A640BF05CFB062123200AF02FFB1F
:10314000012207214FF08040FFF774FF0720FFF7AF
:10315000ABFFFFF733FA48B9224609480621FFF7CB
:1031600069FFBDE810400620FFF79EBF10BD00BFFD
:103170000000014000040140000C0140004C0140EF
:10318000000400402DE9F0473023054683F3118801
:10319000FFF7B0FF00264FF00108994FDFF890923B
:1031A00057F8040B95B1012D4DD148454BD120F076
:1031B0000F0A00F00F0008FA00F4214605225046DD
:1031C00024040AF05AFCCAF8184001E0441CEED16D
:1031D00001360F2EE4D1062401278A4EDFF85492DF
:1031E00056F8040B002D3AD0012D40F0FC804845E4
:1031F00040F0F98000F00F01202207FA01F120F0E1
:103200000F000AF03AFC00BF00BF00BF00BF00BFC4
:1032100000BF00BF00BF00BF00BF00BF00BF00BFB6
:1032200000BF00BF00BF00BF00BF56F8040C022261
:1032300000F00F08414620F00F00FFF7FBFE40466C
:10324000FFF732FF0DE0411CC2D000F00F01202239
:1032500008FA01F120F00F000AF00FFCB8E7421C59
:10326000C8D1013CBCD1684B4FF40061DA6C6748AF
:1032700022F00802DA642246DB6C0AF0FEFB00BF93
:1032800000BF00BF00BF00BF00BF00BF00BF00BF46
:1032900000BF00BF00BF00BF00BF00BF00BF00BF36
:1032A00000BF03220B215948FFF7C4FE0B20FFF794
:1032B000FBFE84F3118872B601202646544A136837
:1032C00023F001031360534B534A5A610022B300A9
:1032D00003F1604303F56143D3F80011D4B2012C2C
:1032E00094BF002101F0010109B1C3F8800101324E
:1032F000202AF1D10136082EE8D1484C484D6368A8
:1033000043F0007363602B6803F009032B602B68A4
:1033100043F46C3343F004032B6040F2B3332B626D
:10332000404B43F001039847236943F004032361B2
:1033300030BF3D4B002743F0010398472369344ACF
:1033400023F00403236113682F4C43F0010313603F
:10335000E36943F08003E361A36C43F40073A36467
:1033600008F0A8FD0323AB620C23304AEB62D2F8CD
:10337000903023F01803C2F89030AF62EF62236CF4
:1033800043F480732364236C43F00203236401231A
:103390006363E367E3666661636943F00403636143
:1033A000636943F00103636103F014FD40F282326C
:1033B0004FF4006115480AF060FBE36C43F008032A
:1033C000E364E36CA36C43F48053A364A36CE36CE9
:1033D00043F01003E364E36CFFF72AFE87F31188E0
:1033E00062B6BDE8F087431C3FF43BAF00F00F012D
:1033F000402207FA01F120F00F000AF03EFB30E70F
:1034000058F80008F0F80008000C014000080040DF
:1034100010E000E000180040FFFF070000ED00E0B2
:1034200000000140C8F8000894F8000800040140BA
:10343000030800400D08004001207047012070473C
:1034400001238B40034210B50C4614D08B1E0B2B6E
:1034500018D8DFE803F006171717171117171713F7
:1034600017150420FFF7B0F82046FFF7E5FF10B16D
:103470002046FFF7E3FF10BD0320F3E70220F1E74A
:103480000520EFE70120EDE708B50D4B5A69D2079B
:1034900007D51A68002122F001021A600120FFF707
:1034A000CFFF4022074BC3F88020BFF34F8FBFF3FD
:1034B0006F8F0122024B5A61BDE8084009F020BA23
:1034C0000018004000E100E008B50D4B586910F00D
:1034D000020006D01A68012122F002021A60FFF7EA
:1034E000AFFF8022074BC3F88020BFF34F8FBFF39D
:1034F0006F8F0222024B5A61BDE8084009F000BA02
:103500000018004000E100E008B50E4B586910F0CB
:10351000040006D01A68022122F004021A60FFF7A4
:103520008FFF4FF48072084BC3F88020BFF34F8F9A
:10353000BFF36F8F0422034B5A61BDE8084009F0C6
:10354000DFB900BF0018004000E100E008B50E4BF5
:10355000586910F0080006D01A68032122F008020A
:103560001A60FFF76DFF4FF40072084BC3F880201C
:10357000BFF34F8FBFF36F8F0822034B5A61BDE833
:10358000084009F0BDB900BF0018004000E100E0AC
:1035900008B50E4B586910F0100006D01A680421C7
:1035A00022F010021A60FFF74BFF4FF48062084BC5
:1035B000C3F88020BFF34F8FBFF36F8F1022034BF0
:1035C0005A61BDE8084009F09BB900BF00180040EF
:1035D00000E100E038B5254B5C69A20604F478757B
:1035E00007D51A68052122F020021A602846FFF745
:1035F00027FF600608D51D4A06211368284623F0D8
:1036000040031360FFF71CFF210608D5174A072166
:103610001368284623F080031360FFF711FFE205CB
:1036200008D5124A08211368284623F480731360D2
:10363000FFF706FFA30508D50C4A092113682846A1
:1036400023F400731360FFF7FBFE4FF48032084B46
:10365000C3F88020BFF34F8FBFF36F8F4FF47872A2
:10366000024B5A61BDE8384009F04AB900180040E1
:1036700000E100E038B52A4B5C69620504F47C4542
:1036800007D51A680A2122F480621A602846FFF7DB
:10369000D7FE230508D5224A0B211368284623F4B8
:1036A00000631360FFF7CCFEE00408D51C4A0C2130
:1036B0001368284623F480531360FFF7C1FEA1046A
:1036C00008D5174A0D211368284623F400531360C8
:1036D000FFF7B6FE620408D5114A0E21136828468A
:1036E00023F480431360FFF7ABFE230408D50C4A94
:1036F0000F211368284623F400431360FFF7A0FE50
:103700000222084BC3F88420BFF34F8FBFF36F8FA3
:103710004FF47C42024B5A61BDE8384009F0F0B8E2
:103720000018004000E100E008B50E4B586910F4A5
:10373000802006D01A68122122F480221A60FFF736
:103740007FFE0822084BC3F88420BFF34F8FBFF3DE
:103750006F8F4FF48022034B5A61BDE8084009F097
:10376000CFB800BF0018004000E100E010B5074CE2
:1037700023784BB901F05EF901F041FF07F0D4FE68
:1037800001F03EFF01232370012010BD161200201E
:1037900010B5044C23781BB101F022FA00232370EA
:1037A000012010BD16120020024B1B780BB10BF04C
:1037B00069BD7047191200200120704708B5044BFD
:1037C0001B780BB9FFF7D2FF01F05AF908BD00BF13
:1037D0001612002008B5044B1B780BB1FFF7D8FF79
:1037E000FFF7EAFF08BD00BF161200200120704756
:1037F00008B5FFF7FBFF08BD014B1878704700BF05
:1038000017120020014B1870704700BF17120020DC
:10381000014B1878704700BF18120020084B10B5F4
:103820000446187058B9FEF7BDFE022807D80320D9
:10383000FEF778FE2046BDE81040FEF7B9BE10BD89
:1038400018120020FFF7EABF024B187880F0010041
:10385000FFF7E4BF181200200020FFF7DFBFFFF7DB
:10386000F3BF0000024B187880F00100704700BFE2
:1038700018120020084B1A78084B1B784BB982F0BD
:103880000102A0F5A443203B1F2B8CBF1046012052
:1038900070470022F5E700BF181200201712002021
:1038A00000231946064A937213609375D360054A44
:1038B00001330B2B917242F80C1BF9D1704700BFFA
:1038C000100F0020C80C002008B503F0F5FAFFF730
:1038D000E7FF0022014B1A6008BD00BF2012002044
:1038E0000120704708B5FFF741FFFEF7EBFD01F03F
:1038F000A9F848B1012220214FF080400AF0BDF81C
:103900004FF0804320229A6108BD000000230D4A39
:1039100010B513700C4A4FF0804413700B4A1360BB
:1039200006F090FB01280AD006F084FB4FF4001348
:10393000A36101F07FFCBDE8104002F03EBF2023F0
:10394000F6E700BF151200201A1200201C120020FA
:1039500008B502F0F7FE04F003FF02F082FE054B0B
:10396000188001F0BFF818B1BDE80840FFF7CEBFDE
:1039700008BD00BF283B002037B504460D4601F0C6
:10398000D7F8002800F0BD80002D00F0BA8047F67F
:1039900004639C4200F0858029D847F601639C426D
:1039A0005BD00AD847F603439C4200F0A780B4F5E9
:1039B000FC4F3CD0284603B030BD47F602639C4222
:1039C0005DD047F603639C42F4D100230DF107015B
:1039D00001208DF80730FEF73FFC9DF80730042BDF
:1039E00002D013F0FD0FE5D10122042130E047F6AB
:1039F00012639C427BD00BD847F605639C4263D090
:103A000047F611639C42D5D10020FFF707FFD1E7AD
:103A100047F613639C426ED047F643639C42C9D17C
:103A20000122394B1A700022384B1A60C2E700237A
:103A30000DF1070101208DF80730FEF70DFC9DF810
:103A40000730042B02D013F0FD0FB3D10122114631
:103A50002F4B1878FEF742FCACE700230DF107016D
:103A600001208DF80730FEF7F7FB9DF80730042B97
:103A700002D013F0FD0F9DD101220221E8E70023BF
:103A80000DF1070101208DF80730FEF7E5FB9DF8E9
:103A90000730042B02D013F0FD0F8BD1012203213C
:103AA000D6E700230DF1070101208DF80730FEF75E
:103AB000D3FB9DF80730042B03D013F0FD0F7FF4E8
:103AC00079AF01220521C3E700230DF10701012091
:103AD0008DF80730FEF7C0FB9DF80730DA1E012A8B
:103AE00002D9002B7FF466AF01220621B0E7012244
:103AF000084B1A705EE7FFF7A7FE5BE7FFF728FFAA
:103B000058E7054656E700BF1A1200201C12002095
:103B1000183B00201812002070B5FEF703FE0025A8
:103B200001261B4C206858B1A37A4BB907F0C2FE9E
:103B30006368984204D3A67201212089FFF71CFF15
:103B40000C3415B30026134C206858B1A37A4BB936
:103B500007F0B0FE6368984204D3A5720121208962
:103B6000FFF70AFF01360B2E04F10C04ECD10A4BCF
:103B70001A783AB100221A700AF030FF0028FBD1FF
:103B8000FFF7E6FE00F07EFF70BD0125CAE700BF2B
:103B9000100F0020C80C00202C12002008B5064B86
:103BA0001B780BB9FFF7E2FD4FF0804320229A61AA
:103BB000BDE8084007F004BE161200202DE9F743C7
:103BC0000D46BA4A897804461368E9B1032B00D838
:103BD0000133B74F1360FEF779FB3889844217D061
:103BE000B88A84420CD14FF0010995F802800C2666
:103BF000B8F1000F0FD007F017FE06FB09F6B85119
:103C0000AC4B0027984631E0002BE2D0013BE0E7C7
:103C10004FF00009E9E706FB09F607EB060999F8FA
:103C20000A300BB9BB51EBE74146FFF7A5FE89F817
:103C30000A8047F806800028E2D100209BE07E43FE
:103C400008EB0607BB7A13B948F806301CE0494672
:103C50002046FFF791FE87F80A9048F8069098B939
:103C6000EBE701370B2F03F10C030DD01A899442B7
:103C7000F7D195F802900C26B9F1000FDFD007F0CC
:103C8000D3FD7E4348F8060029462046FFF7F2FDA3
:103C90000028D2D02946204600F0B6FF0028CCD01C
:103CA00047F604639C4200F0C8802CD8B4F5FC4F62
:103CB0006ED009D847F620039C4200F01C8147F6DD
:103CC00003439C42B9D02EE047F602639C42AB7896
:103CD00000F098807BD9002BAFD0774C2278042A53
:103CE000ABD000230DF1070101208DF80730FEF75E
:103CF000B3FA9DF80730042B02D013F0FD0F9CD1CE
:103D0000002204215FE047F640639C4225D01CD886
:103D100047F606639C4200F0D580C0F0AA8047F6C3
:103D200007639C4231D02946204600F0BDFC0028A4
:103D300083D029462046FFF74FF900283FF47DAF96
:103D400029462046FEF720FE15E047F642639C42D6
:103D500014D009D347F64363B3E7AB78002B3FF4A5
:103D60006CAFFEF72FFE68E7A878544B10B1012224
:103D70001A7062E7187003B0BDE8F083AB78002BCF
:103D80003FF45BAFFEF726FC57E7AA784C4BEFE712
:103D9000AB78002B3FF451AF474C2278012A3FF417
:103DA0004CAF00230DF1070101208DF80730FEF71D
:103DB00053FA9DF80730042B03D013F0FD0F7FF466
:103DC0003CAF002201212078FEF788FA35E7002B6E
:103DD0003FF433AF384C2278022A3FF42EAF002351
:103DE0000DF1070101208DF80730FEF735FA9DF837
:103DF0000730042B03D013F0FD0F7FF41EAF002219
:103E00000221E0E7002B3FF418AF2B4C2278032A65
:103E10003FF413AF00230DF1070101208DF80730A7
:103E2000FEF71AFA9DF80730042B03D013F0FD0FAC
:103E30007FF403AF00220321C5E7AB78002B3FF4EA
:103E4000FCAE1D4C2278052A3FF4F7AE00230DF19D
:103E5000070101208DF80730FEF7FEF99DF80730C5
:103E6000042B03D013F0FD0F7FF4E7AE00220521F1
:103E7000A9E7AB78002B3FF4E0AE0F4C2278062A7E
:103E80003FF4DBAE00230DF1070101208DF8073070
:103E9000FEF7E2F99DF80730DA1E012A02D9002B5D
:103EA0007FF4CBAE002206218DE700BF2012002058
:103EB000100F0020C80C0020183B00201912002011
:103EC00015120020AB78002B3FF4B7AE114C2278CE
:103ED000002A3FF4B2AE00230DF1070101208DF856
:103EE0000730FEF7B9F99DF80730012B3FF6A5AE74
:103EF0000022114667E7AB78002B3FF414AF06F0C1
:103F0000A1F84FF0804318B14FF400129A610AE70C
:103F10002022FBE7183B0020014B1878704700BFB8
:103F20002412002001207047F8B505460C46574E74
:103F3000574F21462846FFF7F5FF50B1062C08D809
:103F4000DFE804F004084F91919E9E0000224F4B41
:103F50001A60F8BD326862BBA5F12803092B0DD8A1
:103F6000DFE803F0220C0C0C0C0C0C1D18050023D0
:103F7000FF211A463120FEF709F801224FF4FA71A9
:103F80002846FEF747F82846FDF7E0FF07F04CFC0F
:103F90003060DEE70022FF2311463020EBE70023EC
:103FA000FF2219462F20E6E7FF2328201A4619464C
:103FB000E1E7104607F07EFC47F22F53984203D901
:103FC0000524344B1C70B4E77B7E0BB10324F8E767
:103FD000314B1B78002B4FD02846BDE8F840FDF749
:103FE000B5BF306890BBA5F12803092BB1D801A259
:103FF00052F823F043400008533F0008533F0008A5
:10400000533F0008533F0008533F0008533F000848
:10401000394000082F4000081D4000080023FF2100
:104020001A463120FDF7B2FF0122C821A8E700227D
:10403000FF2311463020F5E70023FF2219462F20E9
:10404000F0E7FF2328201A461946EBE707F032FC79
:1040500047F22F53984201D90624B2E77B7E002B0A
:10406000B6D00424ADE7FF224FF4FA612846FDF7ED
:10407000D1FF2846FDF76AFF0022064B1A7068E759
:104080000022044B1A70FEF7A5FAA5E728120020BB
:10409000640C002024120020183B002001207047EF
:1040A00070B506460D4631200021FDF79DFF10B981
:1040B0000024204670BD00213020FDF795FF002828
:1040C000F6D000212F20FDF78FFF0028F0D000212F
:1040D0002820FDF789FF0028EAD029463046FFF75F
:1040E000DDFF04460028E3D00022044B29461D7062
:1040F000034B30461A60FFF717FFDAE7241200205F
:104100002812002070B50C461546FEF779F80646D1
:1041100080B17CB1134B5B7E13BB013C052C09D8ED
:10412000DFE804F0030C120808182DB10221312039
:10413000FFF7B6FF304670BD0121F8E715B1022147
:104140003020F5E70121FBE715B102212F20EFE731
:104150000121FBE715B102212820E9E70121FBE756
:104160001E46E7E7640C0020064B1B784BB9064B54
:104170001A7832B1054A527E1AB959781046FEF7BC
:10418000ADB8704724120020183B0020640C0020BA
:10419000704700002DE9FF473F4E07468846FFF76E
:1041A000F7FFFFF7E1FF3478002C32D03B4D2B684E
:1041B00013B907F039FB2860286807F07BFB41F250
:1041C0008733984205D933780133337007F02CFBDD
:1041D00028603378013B032B17D8DFE803F0020C8B
:1041E000101400227820114605F074F900242046AE
:1041F00004B0BDE8F087002278211046F4E70021E2
:1042000078220846F0E77822F6E7002434702C6024
:10421000EDE7234B1B788BB941463846FFF760FB2F
:104220000028E3D04146384600F0A4FC04460028AC
:10423000DCD041463846FDF707FFD8E72246214645
:10424000204605F047F9DFF85CA0DFF85C9001AE8E
:104250000A2551462A463046FCF792F999F81F3054
:10426000E2B2B3FBF5F59542A05D11D9312B03D92C
:1042700000237822194605E01D2B4FF00003F8D8E3
:104280001A467821013404F09DFA0A2CE0D1C3E7E4
:1042900000231A46EEE700BF1A1200201C1200206D
:1042A000151200200CF60008640C002070B50546BD
:1042B0000E46FEF70BF8FEF775F910B10320FEF776
:1042C00031F92B780A2B0ED10124084B31461C7092
:1042D000074B28461B781BB907F0C0FD204670BD70
:1042E0000BF0E6F8FAE70020F9E700BF2C120020F7
:1042F000183B0020012810B5044610D0022809D12F
:10430000FEF750F9032805D00320FEF70BF9002033
:10431000FEF74EF92046BDE8104007F02BBA014BDE
:104320001870F7E778100020014808F0F4B900BFD2
:10433000A08601000D4BF0B51B688BB11E22490011
:1043400002FB00100A4901220E461D5A31F8027B79
:10435000D4B2AF4205D104F0070236F812201A5247
:10436000F0BD0132092AF1D10022F8E73012002015
:10437000ECFB00082DE9F04385B004460E4605F03D
:10438000F3FE4FF01E084FF000092D4D2D4F6880B1
:10439000E0B2864250D92C4900230EE01CF801EB14
:1043A000BEF1FF0F01D086451CD001320F2AF5D196
:1043B0000133062B01F10F013CD08C460022EDE7C2
:1043C000012B08D1012A06D16B88ADF804908DF835
:1043D0000630019819E06B88ADF800108DF80230B6
:1043E000009812E0396829B308FB031333F8121060
:1043F00033F8123049BADAB21B0AE1D1002AEAD105
:10440000ADF808208DF80A20029803F0B3FCC0F341
:1044100007238DF80C00C0F307408DF80D308DF8A0
:104420000E009DF80E309DF80C209DF80D102046D2
:1044300004F0C8F90134ABE705B0BDE8F08300BF74
:104440004C0D002030120020500D002041EA0203E4
:10445000184310B405D10146B422094810BCFCF73A
:1044600005B900240F230648013B13F0FF03017038
:1044700042702044F8D11E34B42CF3D110BC7047E4
:104480003412002010B5064A0B461478012C05D1D1
:1044900058780978FFF74EFF204610BD0020FCE752
:1044A0004C0D0020024B1878431E5842584170476B
:1044B0004C0D0020B4235843C1EB01110A442230B3
:1044C00000EB4200704704207047032838B510D82D
:1044D00005290ED80E2A0CD8FFF7ECFF054603F08D
:1044E00073F80446681C03F06FF844EA002080B2B9
:1044F00038BD0020FCE7032870B51C460FD80529FD
:104500000DD80E2A0BD8FFF7D5FF0546E1B203F010
:10451000C3F8210A681CBDE8704003F0BDB870BD47
:104520002DE9F843002405460F461646A14600F142
:104530002208BC4208EB040001D1BDE8F8832B1926
:10454000B3F5347F04DA03F03FF830550134F0E777
:1045500006F80490FAE72DE9F04105460E4690462C
:10456000002400F12207B44207EB040001D1BDE8AA
:10457000F0812B19B3F5347F03DA18F8041003F037
:104580008BF80134EFE70000032806D8B42202FBC1
:1045900000F10248223103F065B870473412002060
:1045A000032838B50CD8084A00231478012C07D109
:1045B0005578A84206D11370FFF7E6FF204638BDB4
:1045C0000020FCE71846FAE74C0D0020032806D827
:1045D000B42202FB00F10248223103F08BB870478D
:1045E00034120020074B084A10B51A600023074C0C
:1045F0002370607005F0B8FD60806078BDE8104001
:10460000FFF7E4BF30120020341200204C0D0020D0
:10461000032808B50CD8074A5070FFF7D7FF05F0FC
:1046200039FD2D2802D02D2005F031FD012000E0BC
:10463000002008BD4C0D0020032810B510D8094BF0
:10464000197869B9012458701C70FFF7BFFF05F095
:1046500021FD2D2802D02D2005F019FD204600E077
:10466000002010BD4C0D0020032810B5044609D8C9
:10467000FFF7ACFF2046FFF793FF2046BDE8104050
:10468000FFF7C6BF10BD000008B5054802F002F8EC
:10469000BDE808404FF434722221024802F0E2BF24
:1046A00008F90008BAFF000808B50B4B0A461B784A
:1046B000012B0CD1A0F5A44020381F2809D98878F7
:1046C00020B150780978FFF735FE002008BD0120A1
:1046D000FCE71846FAE700BF4C0D002070B5044611
:1046E0000078FF2801D105F0D5FC0C4900220D46C9
:1046F00011F8016BD3B2864203D00132102AF7D1F0
:1047000013462278FF2A13BFFF22013303F00F0361
:104710002270E85CBDE8704005F0B9BC0AFC0008F6
:1047200038B50B780546FF2B0C4602D105F0B2FCDC
:104730002070284638BD38B540F2F62440F20635E0
:1047400020460021013402F06AFFAC42F8D138BDA6
:1047500010B505F09FFC0023054911F8014BDAB2B2
:10476000844203D00133102BF7D11A46104610BDF6
:104770000AFC000810B50446FFF7EAFF2146BDE831
:10478000104000F2F62002F04ABF08B5FFF7E0FF44
:1047900000F2F62002F018FF072888BF002008BDAD
:1047A00070B505F077FC0723124A12F8011B81420D
:1047B0001DD0013B13F0FF03F7D10725FFF7E5FFFD
:1047C0000130B0FBF5F405FB14040B4B13F8145047
:1047D00003EB44035E7805F0C7FC314602462846E9
:1047E00005F09BFCE0B2BDE87040FFF7C3BF0625B3
:1047F000E4E700BF1AFC0008FCFB000838B5FFF72F
:104800006DFFFFF7C2FF074B13F8104003EB4003A7
:104810005D7805F0A9FC294602462046BDE83840EF
:1048200005F07BBCFCFB00082DE9FF411A4B1B780F
:104830000BB300221146104604F04CFE0024DFF8B2
:104840006080164F01AE0A2541462A463046FBF7E6
:1048500097FEFB7FE2B2B3FBF5F5954200D8AAB90B
:10486000312B305D0BD9002378221946013403F037
:10487000A9FF0A2CE7D1012004B0BDE8F0811D2B6F
:104880004FF00003F0D81A467821EFE70023305D9F
:104890001A461946EAE700BFE8120020640C00201F
:1048A00016F60008F8B5244E04463578042D30D8A5
:1048B000DFE805F0033C23343C0006F03DFE1F4ECC
:1048C000C0F34007307800F07CFE022818BF1C4B74
:1048D00030781CBF1D78C5F3001500F072FE821EF3
:1048E0005342534139462A462046FDF74FFBFF22EB
:1048F00032212046FDF78EFB0BE0FF231A461946B6
:10490000FDF744FB0322C8212046FDF783FB01236A
:1049100033702046BDE8F840FDF718BBFF231A4668
:104920001946FDF733FB0122C821E2E7002333706B
:10493000FFF7B8FFEDE700BFEA120020FA120020EF
:10494000283B0020FF2810B504461BD10E4BDB6E20
:1049500023F07F43B3F5A04F0DD100225023114621
:10496000FDF714FB20460121FDF728FB2046BDE89A
:104970001040FDF7EBBAB3F5A00F03D1002350228E
:104980001946EDE710BD00BFA00E002008B5054B8D
:1049900000211870FB20FDF727FBBDE80840FB2035
:1049A000FFF780BFEA12002008B5037CFB2B27D15C
:1049B000437C184AD3B1437E6BB910239361027EC6
:1049C000154B5AB94FF400729A61807E48B94FF482
:1049D00080729A6108BD4FF48013EFE74FF00072C8
:1049E000F2E74FF080729A610020F3E710219161A5
:1049F0004FF40071084A91614FF480719161F3E7BF
:104A0000064B1B78002BEFD1FFF74CFD80F0010027
:104A1000C0B2DFE70008004000040040F1120020AF
:104A2000034B187810F0030018BF0120704700BF37
:104A3000443B00200422024B01209A61704700BFD2
:104A4000000C004010B50C4C01222046042109F056
:104A500014F804232022A3614FF400414FF080405A
:104A600009F00BF84FF080431B69044AC3F3C033CD
:104A70001370012010BD00BF000C0040E91200209F
:104A8000012070474FF080431B69124A10B5C3F3F1
:104A9000C0331370FDF786FD60B90F4C206806F037
:104AA00009FFB0F57A7F05D906F0BEFE20605320DD
:104AB0000AF01EFCFDF776FD48B9084BDB7813F0D1
:104AC000010F14BF4FF480220422054B9A6101208C
:104AD00010BD00BFE9120020EC120020183B00209E
:104AE000000C004045F2040307B5ADF8043078230C
:104AF0008DF80630019803F03DF90C4AC0F30743E6
:104B0000C0F30721937010705170C2B2FF20FDF7FF
:104B10003DFA0322FA21FF20FDF77CFAFF20FDF782
:104B200015FA012003B05DF804FB00BF1C3B002018
:104B300008B547F61E63984210D179B10A4B1A683E
:104B40000A4B1340B3F1807F0AD1094B1B78042B29
:104B500006D1FEF787FE08B9FEF77EFE012008BDEC
:104B6000FEF77DFEFAE700BF183B0020FF000001C2
:104B7000B43E0020114B73B51B7805460E46ABB111
:104B800045F20403ADF8043078238DF8063001981F
:104B900003F0F0F80A4BC0F30724C0F30742187083
:104BA000C1B220465C709A7004F094FC31462846ED
:104BB000FFF73AFE012002B070BD00BFF1120020E5
:104BC0001C3B00204FF48072044B9A614FF400723A
:104BD0009A611022C3F81824704700BF00040040F7
:104BE00008B5FFF7EFFF4FF48022024B01209A61D6
:104BF00008BD00BF000C0040024B40F2F2201968D3
:104C000002F066BD243B002070B5C54D04462B78EC
:104C10000E463BB18B782BB10022114610462A700C
:104C200004F058FCB4F5F84F00F0D68170D847F284
:104C300013039C4200F07E8132D8B4F5A44F00F0FB
:104C40001B8207D8E32C00F08581E72C00F09981C6
:104C500001242FE145F221239C4200F0968245F287
:104C600023239C4200F0A88245F202239C42EFD10C
:104C7000B378002B00F0008100213420FDF7B4F957
:104C8000A84C0322FA213520FDF7C4F93520FDF7A1
:104C90005DF9207800F095FC022800F0ED8002E23A
:104CA00047F627039C4200F0BC8118D847F6210341
:104CB0009C4200F00B8247F623039C42C8D1B37894
:104CC000002BC5D0FFF76CFD05F02AFA964BC0F318
:104CD00007221870C0F307405A709870CCE047F66E
:104CE00029039C4200F09081C0F0AF8147F62A036F
:104CF0009C42ADD1B378002BAAD005F0C3FA33287B
:104D0000A6D80220FFF742FE332005F0B3FAB3E045
:104D100047F61E639C4200F054815CD847F602635C
:104D20009C4200F0C98027D8B4F5FC4F00F0A08069
:104D300047F601639C428BD1FFF7B4FB0446002881
:104D400040F09A80B378002B82D0784B1D78022DEA
:104D50007FF47EAFFFF7E0F800287FF479AF5023AF
:104D600030201A461946FDF711F92A4696213020BF
:104D7000FDF750F930209BE047F606639C4200F0B7
:104D8000BB8047F607639C4200F0128147F605633B
:104D90009C427FF45DAFFFF785FB044600286BD192
:104DA000B378002B3FF454AF604B1B78062B7FF495
:104DB0004FAFFFF7B1F800287FF44AAF5023282007
:104DC0001A461946FDF7E2F8022296212820FDF73F
:104DD00021F928206CE047F64C639C4200F0BB812F
:104DE0001AD847F64A639C4200F0938147F64B631A
:104DF0009C427FF42DAFB378002B3DD04C4C6078B3
:104E000000F00F00FFF7E2FB607800F00F00FFF703
:104E1000C7FBA11C01208DE147F654639C4200F0C2
:104E2000E48047F655639C4200F0E68047F6536302
:104E30009C427FF40DAFB378F3B105F02BF92D2828
:104E40001AD13B4E757815F00F0515D1FFF72AFBE7
:104E50000446707800F00F00002C40F08E81FFF7C0
:104E6000EBFB204622462146FFF7F0FA0320D5E06F
:104E7000FFF718FB044608B100241BE0B378002BB1
:104E80003FF4E6AE294B1B78012B7FF4E1AEFFF730
:104E900043F800287FF4DCAE502331201A4619462F
:104EA000FDF774F8022296213120FDF7B3F8312086
:104EB000FDF74CF8204670BDFFF7F4FA04460028D1
:104EC000DAD1B378002B3FF4C3AE184B1B78032B19
:104ED0007FF4BEAEFFF720F800287FF4B9AE502370
:104EE0002F201A461946FDF751F8022296212F204D
:104EF000FDF790F82F20DBE7FFF7D4FA0028BBD1AD
:104F0000B378002B3FF4A4AE084B1B78002B7FF442
:104F10009FAEFFF701F8041C18BF0124CAE700BFC9
:104F2000F1120020FA1200201F3B0020183B002045
:104F3000243B0020B478002C3FF48AAE002350219B
:104F40001A46FF20FDF722F80121FF20FDF736F871
:104F5000FF20ADE7A24B187800F033FB02287FF466
:104F600077AEA04B1B78DA067FF572AEFFF79AFAA0
:104F700000287FF46DAEE320B478B4B100F022FADB
:104F800098E7974B187800F01CFB02287FF460AE7E
:104F9000944B1B78DB067FF55BAEFFF783FA0028A6
:104FA0007FF456AEB478E720E7E700F021FA4FE649
:104FB0008D4B1B7803B1B3788C4A03F00103137057
:104FC0005AE7B478002C7FF457AFA82000F0FAF924
:104FD000A82000F00DFA6DE7B478002C3FF438AE4D
:104FE00001F080FE06F07EFC64E7B378002B3FF40E
:104FF00043AF01232B703FE7B378002B3FF43CAF66
:1050000062200AF075F937E7B478002C3FF420AE3F
:1050100005F038F9FF287FF41BAE0220FFF7B6FC3D
:1050200048E7B478002C3FF413AE05F09DF85F28F4
:105030006F4D05D90220FFF7A9FC7823AB7039E743
:1050400005F092F81830A87034E7B478002C3FF4DB
:10505000FFAD05F089F81828654D09D80220FFF743
:1050600095FC00221146104604F034FA0023E5E7CF
:1050700005F07AF81838E6E7B378002B3FF4FCAE79
:1050800000213520FCF7B0FF554C0322FA213420D3
:10509000FCF7C0FF3420FCF759FF207800F091FAAC
:1050A00002287FF4E9AE207800F08BFA30B90220B4
:1050B00000F0F8F9002000F0D0FDDDE6207800F0E7
:1050C00080FA02287FF4D8AE0020F1E7B378EBB184
:1050D000484C0020FFF75AFC607800F00F00FFF703
:1050E00075FA607800F00F00FFF75AFA0022424B81
:1050F0001A7005F015F83E4BC0F307221870C0F384
:1051000007409870A01C5A70FFF778FBFFF774FDFA
:10511000B2E6B378002B3FF4AFAE364C607800F0C7
:105120000F00FFF753FA607800F00F00FFF738FA2E
:105130000020A11CFFF7F4FA637860F303036370A7
:10514000FFF75AFD607800F00F00FFF761FA0020CA
:10515000FFF71CFC90E6B378002B3FF48DAE254C96
:10516000607800F00F00FFF731FA607800F00F0070
:10517000FFF716FAA11C0220DCE7FFF711FA284618
:10518000FFF704FC1C4B1D7076E6B378002B7FF410
:105190005FADFFF787F900283FF45AAD164B1A7838
:1051A00032B10022314645F221201A70FFF76AF928
:1051B0000124114B1C707DE6B378002B7FF448ADC1
:1051C000FFF770F900283FF443AD0B4B1A78002A23
:1051D000EED0002231461A7045F22320E6E700BFE8
:1051E000FA120020283B0020183B0020E812002083
:1051F0001F3B0020243B0020F012002008B50020B7
:10520000FFF7C4FB0022094B1A70094A138823F4E4
:10521000706323F0010343F001031380FF239370B5
:10522000FFF789FABDE80840FFF7E6BCF01200205E
:10523000243B002038B52E4C012220464FF400714B
:1052400008F01BFC4FF400732A4DA36101221021CA
:10525000284608F012FC10232046AB6101224FF4CF
:10526000807108F00AFC4FF48073A36104F50064B8
:1052700001220421204608F000FC0423A36104F06D
:105280004FFF1D4BC0F307221870C0F307405A7040
:10529000987020224FF400414FF0804008F0EDFB61
:1052A0004FF080431B69154AC3F3C03340F2F2202C
:1052B000137002F0A7F9124C206008B9FFF79EFFA7
:1052C000607800F00F00FFF78DF9FF22C821FA2067
:1052D000FCF7A0FEFA20FCF739FEFF22C821FB20D4
:1052E000FCF798FEFB20FCF731FE012038BD00BF23
:1052F00000040040000800401F3B0020E91200208D
:10530000243B00200520704704280DD805290BD820
:105310000E2A09D85A23C1EB011103FB0010034BDD
:10532000104433F8100070470120704736FC000825
:1053300005207047042808D839B9054B82F00102CE
:1053400002EB400233F8120070470120704700BFA3
:1053500022FC0008A0F58073B3F5F85F10B526D2E3
:1053600010F4805F00F4007400F4807300F4806136
:1053700000F400620DD0002B0CBF002010200CB1F7
:1053800040F0200009B140F040000AB140F0800038
:1053900010BD181C18BF01200CB140F0020009B16B
:1053A00040F00400002AF3D040F00800F0E70020AD
:1053B000EEE710B50C46FFF7CDFF2346BDE81040E1
:1053C00018470000A0F1E003072B10B5044600D9F0
:1053D00040B920460449FFF7ECFFE0B2BDE81040B9
:1053E000FDF70EBB0149F6E7612B0008112C000800
:1053F00010B50446C0B2FDF765FBA4F1E003072B2E
:1054000000D92CB903492046BDE81040FFF7D1BFB1
:105410000149F8E7B92B0008692C00080120704702
:10542000704708B5FFF7FCFF08BD000013B502ABDD
:1054300003E903000F4B1B78B3B99DF802300098C5
:1054400073B16AB100F0BCFC04460146009800F05C
:1054500077FC2046009902B0BDE8104001F030BB57
:1054600000F08EFC0446F4E7009800F0A9FC0099D7
:10547000F1E700BFF9120020034610B400885C88F1
:105480000A4640EA0440998810BCFFF7CFBF0120CC
:10549000704710B504460021FFF7EEFF2146FFF7E5
:1054A000C0FF10BD10B501248440E4B2204601F0D5
:1054B000D4F82046BDE8104000F0A3BB704708B503
:1054C00000F03AFBFFF7FAFFBDE8084046F2A810EB
:1054D00007F021B908B5FFF7F2FFBDE8084006F074
:1054E00001BA08B5FFF7EBFFBDE8084006F022BAA5
:1054F00038B501210546FFF7BFFF2946044605F0F0
:105500005BF808B9002038BD29462046FEF756FB57
:105510000028F7D02946204605F050FE0028F1D09B
:105520002946204605F0DEF90028EBD02946204622
:1055300005F0C2FD0028E5D02946204604F0EAFE29
:105540000028DFD02946204605F086FE0028D9D065
:10555000AB785BB147F603439C421DD00AD8B4F543
:10556000F84F16D047F601439C4217D02846FFF764
:1055700055FFC8E747F65B439C4215D047F65C43AE
:105580009C420ED047F65A439C42EFD101F040F8BE
:10559000ECE7FFF79FFFB5E701F041F8FFF7A1FF48
:1055A000B0E701F029F8E1E701F035F8DEE708B5EA
:1055B00000F02EF8002004F005FDBDE80840FEF7DD
:1055C000EDBA03091CBF1846042382081EBF10460B
:1055D0000233DBB242081CBF0133DBB2184670470E
:1055E000704701207047704738B50546FFF7F9FF4F
:1055F000044610B12846FFF7F6FF204638BD704735
:1056000010B50446FFF7ECFF2046FFF7EDFF10BD95
:1056100008B505F089FFFFF7F3FF08BD10B505F0E9
:1056200083FF074B04461A78824207D0187006F0B1
:10563000FBF8044B18602046FFF7E2FF10BD00BFE7
:10564000F8120020F412002010B586B06C4684E8F1
:1056500003009DF802300BB100F010FF0023ADF8FD
:10566000163094E80300ADF8141089B20490ADF838
:105670000C0004AC29B994E8030000F037FE06B032
:1056800010BD4FF6FF73BDF80C209A42F3D02046B0
:10569000FFF7FDFE0028EED1F1E7008800F0B2BB75
:1056A000704738B505460C46FDF7AAF91CB92846DF
:1056B000FDF708FA38BD6420013C07F02CF8A4B2CD
:1056C000F4E708B539280CBF50210A21FFF7E9FF9C
:1056D00008BD00002DE9F047877981460C468578A2
:1056E00000F096FE3F09804600B3A846F5B1C4F32A
:1056F000072303F0F002402A09D004F12002D2B2BD
:10570000072A25D91FB903F0E003202B23D0AE4B85
:1057100093F8018018F0040808D0022000F038FF48
:1057200000F076FE80F001005FFA80F8C4F30333E6
:105730000B2B41D8DFE813F011001100620062006A
:10574000CE00400040004000E4003F015101510103
:105750004FF00008EAE7B846E8E7C4F30723C4F3CC
:10576000032613F0F00F18BF3601E7B295B156B11A
:1057700007F12003DBB2072B304600D93FB900F018
:1057800057FE00F0ABFE3846FDF73AF914E000F0A2
:1057900065FEF6E73846FDF795F96EB107F120038F
:1057A000DBB2072B304600D917B900F049FE01E003
:1057B00000F05CFE00F092FEC4F30334083C032CBE
:1057C00003D805F0B1FEFFF71BFFB8F1000F00F0A2
:1057D0005C8100F015FE10F0010040F0568189F860
:1057E000020000F005FE00F03FFA484600F064F9C0
:1057F00000F0FEFDBDE8F04700F042BAC4F3072315
:1058000003F0F003C4F30326202B5FFA84FA18BFD9
:105810003601BAF1000F0FD0BAF1010F41D0002DBF
:1058200049D0002F40D099F80630DA0741D56FF300
:10583000071389F8063037E0634B5B7859070FD4BC
:105840003DB126B1304600F0F3FD00F047FE0020E8
:105850009AE72846FDF736F9002EADD03046A4E78A
:1058600085B137B900F010FE3043C0B2FDF778F9CA
:10587000A2E7012FF6D100F007FE3043C0B200F0DE
:105880000FFE99E72FB900F01DFE3046FDF794F9A1
:1058900092E7012F90D03046FDF78EF900F012FE0E
:1058A0008AE71DB1052F87D83046DFE7042F83D85C
:1058B000EBE7504668E7002FE7D0BAF1390F0CBF8D
:1058C0004FF4FA504FF47A7006F025FF5046FDF77A
:1058D000F9F871E7C4F3812343B1012B7FF46CAF76
:1058E00065B1C4F3090005F05FFE65E725B1C4F3B7
:1058F000090005F03DFE5FE72846FAE72846F2E793
:1059000014F4407F27D1002D7FF456AFC4F342102A
:10591000820014F010001EBF0F209040C04304F01E
:105920000F0303FA02F3C4F3812218BFC0B2DBB243
:10593000022A40EA030008D00AD8012A02D000F067
:105940006BF939E700F060F936E700F06DF933E7FD
:1059500000F057F930E7C4F30122D3B205B302F0E7
:105960000103002B3FF428AFC4F34210820014F06F
:1059700010001EBF0F209040C04304F00F0303FA35
:1059800002F3C4F3812218BFC0B2DBB2022A40EA9C
:1059900003000AD00CD8012A04D000F091F90BE7DB
:1059A0005B08DEE700F084F906E700F091F903E711
:1059B00000F048F900E7E7B2C4F3032635B13046FA
:1059C00000F052F9384651E7283B00203846FDF7F1
:1059D000F3F8304600F054F9EEE6E6B2A6F1F00333
:1059E000042B3DD8DFE803F003220E151E003DB165
:1059F000042F3FF6E1AEC4F3042000F04DF9DBE6DE
:105A0000052FF6E7C4F30420002DE3D100F02CF9B4
:105A1000D2E625B1C4F3042000F01FF9CCE600F073
:105A200019F9C9E61A4B5B785B0704D4C4F3042068
:105A3000002DCFD0EAE74DB1C4F30425284600F08D
:105A400013F90321284600F07FFDB5E6012000F0A0
:105A50009FFD012F7FF6B0AE022000F099FDABE66E
:105A60002DB10FB130468FE6C4F30420CEE74FB11D
:105A7000392E0CBF4FF4FA504FF47A7006F04BFEFB
:105A8000304624E7C4F30420A4E7BDE8F08700BF54
:105A9000283B002038B501880446807800F0BEF924
:105AA000054600F01DF900F0ABF829462046BDE898
:105AB0003840FFF70FBE000037B585880446014621
:105AC000022201A8FAF75CFDF5B14FF6FF73BDF8AD
:105AD00004209A4218D02046FFF70AFD70B900F062
