:020000040800F2
:1000000000040020B9010008BB010008BB01000882
:10001000BB010008BB010008BB010008BB010008D0
:10002000BB010008BB010008BB0100087D8A000875
:10003000BB010008BB010008BB010008D196000805
:10004000BB010008BB010008BB010008BB010008A0
:10005000BB010008BB010008918E0008B98E0008A2
:10006000E18E0008098F0008318F0008BB010008ED
:10007000BB010008BB010008099E0008BB01000885
:10008000598F0008BB010008BB010008BB01000834
:10009000BB010008BB010008BB010008BB01000850
:1000A000BB010008BB0100089D9C0008B19C000832
:1000B000BB010008BB010008BB010008BB01000830
:1000C000BB010008BD8F0008BB010008BB01000890
:1000D000BB010008BB010008BB010008BB01000810
:1000E00072B6264880F30888254880F30988254899
:1000F00025490860022080F31488BFF36F8F04F055
:10010000D5F805F0E5FB4FF0553020491B4A9142E8
:100110003CBF41F8040BFAE71D49194A91423CBF24
:1001200041F8040BFAE71B491B4A1C4B9A423EBF9D
:1001300051F8040B42F8040BF8E700201849194A5B
:1001400091423CBF41F8040BFAE705F05FFC05F073
:100150005BFC154C154DAC4203DA54F8041B884780
:10016000F9E706F08FFF124C124DAC4203DA54F857
:10017000041B8847F9E705F048BC00000004002094
:10018000000C00200000000808ED00E00000002046
:1001900000040020FCB60008000C0020A41200207F
:1001A000A812002040270020E0000008E00000081E
:1001B000E0000008E000000892E700F000F8FEE729
:1001C0002DE9F04FC1F80CD0C3689D46BDE8F08F13
:1001D000002383F311882846A047002005F0A0FCE7
:1001E000FEE705F03FFC00DFFEE7000038B5124BEC
:1001F00004461D682A6B1AB10023C2E9044338BDC6
:10020000182000F091F80246286378B100210B23F2
:1002100001209381C2E90401084B0949094DC2E953
:10022000011300231560C2E9044338BD4621064B83
:10023000064800F053F800BF000C0020ECDE05007B
:1002400034126DE60E33CDAB24B600083CB6000880
:1002500038B5194B1C68226B8AB113691749546968
:1002600003FB01F1164800FB0411A3FB003001332E
:1002700041EB0001C2E9043121F0004038BD1820F3
:1002800000F052F80246206388B1012400250B23B8
:100290000A480C49C2E90445116001460A4D0B4C5D
:1002A00093810B4BC2E90154C2E9043138BD52219C
:1002B000084B094800F012F8000C00202DF45158AA
:1002C0002D7F954C0E33CDAB34126DE6ECDE050080
:1002D0002E7F954C24B600083CB60008144600B5A5
:1002E0001A460A4B0D461B6885B0DE6803464CB1C2
:1002F00007490191304607490294009500F0E0F863
:1003000000F006F904490C46F3E700BF000C00209A
:1003100078B6000888B6000884B6000808B5134609
:100320000022FFF7DBFF00BF024B0146186800F018
:1003300031B800BF000C0020024B0146186800F0E5
:10034000EFB800BF000C002070B5114E05463368B1
:100350000C46BBB12146284608F056FD431C014619
:100360000CD0C41C24F00304A04205D02846611A16
:1003700008F04AFD013001D0204670BD4FF0FF3437
:10038000204670BD194608F03FFD3060E2E700BF2F
:10039000A81200202DE9F041CD1C25F003050835F9
:1003A0000C2D38BF0C25002D064682B016DBA94265
:1003B00014D8354F00F06AF87A68AAB1144603E001
:1003C0006368224683B11C4623685B1BF8D40B2B61
:1003D00021D8A242636855D053600DE00C233360EE
:1003E000002002B0BDE8F08129463046FFF7ACFF9F
:1003F000431C044619D00560304600F04DF804F166
:100400000B00231D20F00700C21A1CBF1B1AA350AB
:1004100002B0BDE8F0816119A242256014BF5160AD
:100420007960635163684B60E6E77B6823B31C46E1
:100430005B68002BFBD122681946304604EB0208AA
:10044000019308F0E1FC804516D122683046AD1AD0
:100450002946FFF779FF01300ED0226878682A44D8
:1004600022604268019B12B90CE010465268A24219
:10047000FBD100234360BFE70C233046336000F01C
:100480000BF8ADE77B60B7E7A8120020014800F049
:1004900035B800BFC0120020014800F037B800BFD7
:1004A000C01200200CB400B583B004AB53F8042B89
:1004B000019300F0CFF803B05DF804EB02B0704791
:1004C0000EB400B5074A82B003AB0146106853F87A
:1004D000042B019300F0BEF802B05DF804EB03B00A
:1004E000704700BF000C0020704700BF704700BF7E
:1004F000704700BF704700BF704700BF704700BF24
:100500000120704701207047704700BF704700BF4F
:10051000062008B501F03AF9012008F0A1FC00BF5F
:10052000002950D038B551F8043C0C1F002BB8BF3F
:10053000E4180546FFF7AAFF274A13682BB1A34228
:100540000CD92168601883422CD02846636014605F
:10055000BDE83840FFF7A0BFA3420FD81A465B683A
:10056000002BF9D111685018844217D02CD3636046
:1005700054602846BDE83840FFF78EBF1168501818
:10058000A04214D020D8216860188342EFD11868A7
:100590005B680844C4E900035460EAE723680B443D
:1005A0001360E6E718685B6808442060CDE72068C0
:1005B0000144501883421160DBD1D3E900040144A7
:1005C000C2E90014D5E770470C2328462B60BDE82C
:1005D0003840FFF761BF00BFAC1200209368013BB9
:1005E000002B936005DAD2F818C0634507DB0A29AF
:1005F00005D01368581C106008461970704700F049
:10060000B3BE00BF9BB1F8B5134406460F46541E57
:100610005D1E01E0AC4208D03A46304614F8011F96
:10062000FFF7DCFF431CF5D1F8BD0020F8BD00202A
:10063000704700BF936810B514461BB918460023D5
:10064000636010BD00F0AEFC0023A3600023636074
:1006500010BD00BF2DE9F04FA1B08B4691461C465E
:10066000049018B1036A002B00F04181DBF864208C
:10067000BBF90C30D20702D49F0540F131811E072F
:1006800040F19A80DBF81030002B00F095800023B9
:1006900043F220020D9399F800300127954E0794FC
:1006A000ADF83920002B77D04D4604E015F8013F16
:1006B000002B00F09780252BF8D1B5EB090A40F00C
:1006C00094802B78002B67D000234FF0FF32013548
:1006D000CDE9092308930B938DF863301E9306E050
:1006E0002546089B801B07FA00F0034308932C461D
:1006F000052214F8011B304601F0FAF8A146002843
:10070000EED1089BD80644BF20228DF8632019073C
:1007100048BF2B22297848BF8DF863202A297AD137
:10072000079A1168043200290792C0F2AD800B913C
:1007300069782E2900F086806F4C0322204601F054
:10074000D7F838B14022089B001B8240134309F1BF
:100750000109089319F8011B062268488DF8381022
:1007600001F0C6F8002800F09580654B002B7ED084
:1007700007A900915A460498624B08A9AFF300807C
:100780000390039B013307D00D9B039A13440D93F1
:1007900099F80030002B87D1DBF8643013F0010F9B
:1007A000BBF80C3002D19A0540F193805B0616D459
:1007B0000D9821B0BDE8F08F5946049800F022FE54
:1007C00000283FF464AFDBF86430DD0707D4BBF8E2
:1007D0000C309C0503D4DBF85800FFF797FE4FF070
:1007E000FF30E6E7B5EB090AD6D009F1FF380595E9
:1007F0004546DDF8108001E0A2453FD92C465A4617
:10080000404615F8011FFFF7E9FE02340130A4EB62
:100810000904F1D1C0E7A1F13002092A88BFA94635
:1008200087D80B9B00E00134217803EB830302EBB4
:100830004303A1F13002092AF5D92E29A1460B93D1
:100840007FF47AAF99F801102A292DD1079B09F17D
:1008500002001A680433002A0793B8BF4FF0FF3331
:1008600099F8021009928146B8BF099364E7079B83
:10087000073323F007030833079385E70D99059D98
:1008800051442B780D911DE7494243F002030B912F
:1008900008934DE707A900915A460498194B08A9F7
:1008A00000F0D2F803906CE70023A1F13002092A8E
:1008B00009F1010909933FF63FAF19F8011F03EB56
:1008C000830302EB4303A1F13002092AF5D909930E
:1008D00032E7DBF85800FFF719FEBBF80C3065E78C
:1008E000DBF85800FFF70AFEBBF90C30C7E600F052
:1008F00009FBBBE6B8B60008C0B60008C4B60008DD
:1009000000000000050600088C4600B58646134628
:10091000034A714610685DF804EB6246FFF79ABE21
:10092000000C00202DE9F84F92461F460A698B689B
:100930000C469A42B8BF1A46CAF8002091F84330D4
:100940000646DDF8289013B10132CAF8002022686B
:1009500091065FD5DAF800300233CAF80030226819
:1009600012F0060F11461DD1E1689942D8BF114619
:1009700018DD4FF0000804F1190B05E0E568DAF81E
:100980000030ED1A45450CDD01235A463946304604
:10099000C847013008F10108F0D14FF0FF30BDE841
:1009A000F88F216894F84330003B18BF01238A0672
:1009B0000AD53021E21882F8431094F845105A1CE9
:1009C0002244023382F843103946304604F1430290
:1009D000C8470130E1D0D4E902202368DAF800509A
:1009E00003F00603042B21691BD08A4220DD4FF05F
:1009F0000008521A904400251A3401E0454517DAE0
:100A00000123224639463046C847013005F1010529
:100A1000F4D1C2E712F0060F0DD0003B18BF01233E
:100A2000D2E7401B8A4220EAE078E2DC0028E2DCE0
:100A30000020BDE8F88FE168DAF800309942D8BFAD
:100A4000114696DCAEE700BF2DE9F04717460A7E57
:100A500084B00C46064698460C9D01F1430C002AD2
:100A600035D0A2F15803D9B2202969D8202B67D8F4
:100A7000DFE813F0E00066006600660066006600CE
:100A800066006600660066006600940070006600FE
:100A9000660066006600700066006600660066001C
:100AA00021008300AE00660066009E0066008300A1
:100AB00066006600E6002B682268181D61692860E0
:100AC00010061B6802D4520600F1DC801960002376
:100AD000E14623613B4621463046CDF8008003AA1B
:100AE000FFF720FF013020D04A46394630462369BF
:100AF000C047013019D02368E0689B07DDF80C90EF
:100B000018D5484516DD002504F1190A04E0E0680F
:100B1000A0EB0903AB420DDD0123524639463046B6
:100B2000C047013005F10105F1D14FF0FF3004B0AD
:100B3000BDE8F0874845B8BF484604B0BDE8F08737
:100B4000012084F8422004F142090023206184F846
:100B50004330BFE72A682368111D2960190602D4B3
:100B60005D0600F193801068014600286268C0F2BB
:100B700091804FF00A0E52484AE02B682168181DF8
:100B80002860080601D449067ED419686F2A14BF6C
:100B90004FF00A0E4FF0080E494835E02A68012050
:100BA000116804322A6004F1420984F84210CCE74B
:100BB0002B6800211A1D2A60D3F80090626848460D
:100BC00000F096FE002879D0A0EB09006060BCE739
:100BD000236843F02003236078223A4884F84520B4
:100BE0002A68111D29601D064AD4590648D5118866
:100BF000DA0744BF43F02003236019B9236823F0C8
:100C0000200323604FF0100E0023626884F8433005
:100C1000002AA26016DB236823F00403236089B94D
:100C2000002A45D1E146BEF1080F1CD0ACEB090308
:100C300023614FE75823224884F845302368CFE7E3
:100C40002368C9E77546E146B1FBF5F30A4605FBA3
:100C5000131A194610F80A30AA4209F8013DF3D2D6
:100C6000BEF1080FE2D12368DD07DFD56268236992
:100C70009A42DBDC302309F1FF3989F80030D5E7EF
:100C80001168B5E7198022E719887FE7B2F90010EB
:100C900008466AE72D20002AA26084F8430002DBA0
:100CA00023F0040323600A250548AE464942CAE7FB
:100CB000037804F1420984F84230B4E7606844E7FD
:100CC000CCB60008E0B60008024A0349034800F029
:100CD000DFBA00BF500C0020ED1B0008040C002000
:100CE0000C4B416810B59942044601D000F07EFFDC
:100CF000A168094B994202D0204600F077FFE168D5
:100D0000064B994204D02046BDE8104000F06EBF6B
:100D100010BD00BFD012002038130020A013002007
:100D200008B54B6EDA0702D48B899B0501D50020EC
:100D300008BD886DFFF7E2FB002008BD08B54B6ECB
:100D4000DA0702D48B899B0501D5002008BD886D88
:100D5000FFF7DCFB002008BD2DE9F8430025042344
:100D6000304C3149DFF8C490DFF8C480314F324E47
:100D70000822C4F8381104F15C002946C4E903359F
:100D8000C4E90055C4E90555A560656600F018FC86
:100D900004F15800C4E90849C4E90A872663FFF74B
:100DA000A5FB264B2946082204F1C4006367C4E969
:100DB0001A55C4E91E552567C4F8CC50C4F88050B4
:100DC00000F0FEFB04F1680304F1C000C4F88830B1
:100DD000C4E92398C4E92576FFF788FB184B294618
:100DE00004F596700822C4F8DC30C4E93455C4E92F
:100DF0003855C4F8D850C4F83451C4F8E85000F05D
:100E0000DFFB04F1D003C4E93E87C4F8F49004F595
:100E10009470C4F80061C4F8F030BDE8F843FFF7FF
:100E200065BB00BFD0120020C90C0008D512000815
:100E3000FD1200083D1300086113000809000100BD
:100E400012000200F8B506462A48FFF757FB2A4B66
:100E5000D3F83831002B43D0284FD7E90134013B78
:100E600004D524E05A1C04F1680420D0B4F90C50D5
:100E7000013B002DF6D1224B04F15800E36065667A
:100E8000FFF734FB1B48FFF741FB08222946C4E962
:100E90000155C4E904552560A56104F15C0000F02A
:100EA0008FFBC4E90D55C4E912552046F8BD3D68D5
:100EB0000DB12F46D1E74FF4D6713046FFF76AFAED
:100EC000044680B104230560294605460C304FF4E2
:100ED000D072A060636000F073FB3C602F46BCE7FB
:100EE000FFF73AFFB8E703483C60FFF70FFB0C231E
:100EF0003360DAE7CC120020D0120020500C002022
:100F00000100FFFF10B504460B48FFF7F7FA236A0C
:100F10002BB90A4B0A4AD3F83831226223B1BDE813
:100F200010400548FFF7F2BAFFF716FFBDE8104082
:100F30000148FFF7EBBA00BFCC120020D01200200E
:100F4000E10C00080148FFF7D9BA00BFCC1200201D
:100F50000148FFF7DBBA00BFCC12002008B50548F6
:100F6000FFF7CCFABDE808400020034A034900F02F
:100F70008FB900BFCC120020500C0020210D0008BA
:100F800008B50020044A054900F082F9BDE8084090
:100F90000348FFF7BBBA00BF500C00203D0D00080E
:100FA000CC1200209368002B00F0F0802DE9F04F68
:100FB000B1F90CC090461CF0080F81460C4683B076
:100FC0002BD00B694BB31CF00207D8F8006032D06D
:100FD0004FF0000A5546D4F828B0216AAB4FC5B18E
:100FE000BD422B46524628BF3B464846D8470028BC
:100FF00040F3C280D8F8083082441B1A2D1AC8F872
:101000000830002B00F0AE80D4F828B0216A002D03
:10101000E6D1D6E900A50836E1E72146484600F0CA
:10102000F1F9002840F0AD80B4F90CC0D8F80060A8
:101030001CF00207CCD11CF0010A63D1574623688B
:10104000A16818468B46002F58D01CF4007F00F092
:10105000B180B9420A4600F2DD801CF4906F2FD0B7
:10106000216962695D1A02EB420202EBD2726B1CCB
:1010700052103B44934292BF93469B461A461CF43F
:10108000806F00F0E68011464846FFF783F900289C
:1010900000F0F5802A462169019000F075FCA289D4
:1010A000019B22F4906242F08002A2815819C4F898
:1010B00014B0ABEB05053A46BB462361A560206042
:1010C0003D4600275146019200F0FCF9A1682368D3
:1010D000019AA1EB0B011A44A1602260D8F80830F4
:1010E000AA445B1BC8F80830002B3BD02368A168DA
:1010F00018468B46B4F90CC0002FA6D1D6E900A73C
:1011000008369EE73846BB463D46002D40D00028B5
:1011100045D03A46D4E904C32068AA4228BF2A46EB
:101120006045A16804D901EB030A524500F38280AF
:10113000934272DC5A464846216AD4F828C0E047F8
:10114000B0F1000A18DDB7EB0A070FD00120D8F87C
:101150000830D344A3EB0A03A5EB0A05C8F808300E
:10116000002BD2D1002003B0BDE8F08F21464846C5
:1011700000F03CFD0028EAD0B4F90C3043F0400305
:10118000A3814FF0FF3003B0BDE8F08F002070471F
:10119000756833460836002DFAD0D3F800B02A46D9
:1011A0000A21584600F0A4FB002865D00130A0EBCE
:1011B0000B07AEE722699A4214D36569BD4211D884
:1011C0006FF00043BB4228BF3B4693FBF5F352460A
:1011D00005FB03F34846A56A216AA847051ECBDD37
:1011E0007F1B7BE7B94228BF39460D46184651465A
:1011F0002A4600F067F9A1682368491B2B44A160C7
:1012000023600029ECD12146484600F0EFFC00287D
:10121000E6D0B1E7BB463A4652E7594692460192BC
:1012200000F050F9A368019A9B1AA3602368134445
:10123000236088E75946524600F044F92368214666
:1012400053444846236000F0D1FC00283FF47BAFB4
:1012500092E7484600F00EFC034600287FF426AFD4
:1012600048462169FFF75CF90C22B4F90C30C9F843
:10127000002023F0800381E76A1C17464AE70C220E
:10128000B4F90C30C9F8002078E700BF00FCFF7FFC
:101290002DE9F8434FF0000980460F461646D6E97F
:1012A0000154013D10D4A389013D012B08D9B4F9A3
:1012B0000E30013304D021464046B84749EA0009C0
:1012C0006B1C04F16804EED13668002EE7D1484665
:1012D000BDE8F88310B50C46B1F90E1007F088FD93
:1012E000002803DB636D0344636510BDA38923F409
:1012F0008053A38110BD00BF002070472DE9F0414D
:101300000C46B1F90C101F46CB05054616460BD40A
:1013100021F48051A1813B4632462846B4F90E1093
:10132000BDE8F04107F06BBDB4F90E1002230022B6
:1013300007F063FDB4F90C10EAE700BF10B50C46E6
:10134000B1F90E1007F059FDB4F90C30421C0EBF74
:1013500023F4805343F480536065A38110BD00BF24
:10136000B1F90E1007F04DBDF8B506460D4614460E
:1013700010B1036A002B37D0A269A389A2601A07B3
:1013800019D52369BBB122686169D31AEDB29942BC
:101390002F4620DD0133A1680139A160511C216075
:1013A000157062699A420DD0A389DB0701D50A2D19
:1013B00008D03846F8BD2146304600F023F838B949
:1013C0002369E0E72146304600F010FC0028F0D009
:1013D0004FF0FF37EDE72146304600F007FC0028CC
:1013E000F6D101232268D6E7FFF78CFDC4E700BFE2
:1013F00003460A46024908681946FFF7B5BF00BF11
:10140000000C002038B52E4B05461B680C4613B166
:101410001A6A002A4BD0B4F90C3018071CD522697F
:1014200022B313F0010107D000206169A060494296
:10143000A1613AB1002038BD980758BF6169A16029
:10144000002AF7D1190658BF1046F4D543F04003DF
:101450004FF0FF30A38138BDD9062CD55A0712D4DE
:10146000226943F00803A381002ADAD103F4207132
:10147000B1F5007FD5D02146284600F0F7FBB4F93E
:101480000C302269CDE7616B51B104F14402914205
:1014900004D02846FFF744F8B4F90C300022626308
:1014A0000021226923F02403C4E90021D9E718466A
:1014B000FFF728FDAFE7092243F040032A60C7E7A2
:1014C000000C002088420ED98B1883420BD900EB08
:1014D000020C002A6DD0624613F801CD994202F841
:1014E00001CDF9D170470F2A0FD8034602F1FF3C16
:1014F000002A5ED00CF1010C013B8C4411F8012B49
:10150000614503F8012FF9D1704740EA01039B07B9
:1015100050D1A2F1100370B501F1200C23F00F059A
:1015200001F1100E00F11004AC441B095EF8105CD0
:101530000EF1100E44F8105C5EF81C5C103444F898
:101540001C5C5EF8185C44F8185C5EF8145CE645B8
:1015500044F8145CEAD1013312F00C0F01EB0311D3
:1015600002F00F0400EB031328D08E46043C24F055
:1015700003064FEA940C1E441C1F5EF8045B44F8FB
:10158000045FB442F9D10CF1010402F0030203EB51
:10159000840301EB840102F1FF3C4AB10CF1010C20
:1015A000013B8C4411F8012B614503F8012FF9D15F
:1015B00070BD7047034602F1FF3C9BE72246EAE715
:1015C00070B5860747D0541E002A3ED00346CAB2E3
:1015D00001E0013C39D303F8012B9D07F9D1032C1D
:1015E0002CD9CDB205EB05250F2C1A4605EB054588
:1015F00034D9A4F1100C2CF00F0603F1100EB644F0
:101600004FEA1C1C156055609560D560103272451C
:10161000F8D10CF1010214F00C0F03EB021204F0EC
:101620000F0C13D0ACF1040323F003030433134471
:1016300042F8045B9A42FBD10CF003042CB1C9B20E
:101640001C4403F8011B9C42FBD170BD6446134649
:10165000002CF4D1F9E703461446C0E7A446E1E7BD
:1016600038B5C46B0CB1002038BD80210546FEF7AB
:1016700091FE0246E86330B1031F7C3243F8044F09
:101680009342FBD1EFE74FF0FF3038BD30B51F2953
:10169000054683B008D8C36B0C4653B153F82400F9
:1016A00043F8242003B030BD162303604FF0FF3011
:1016B000F8E780210192FEF76DFE019A0346E86388
:1016C0000028F3D0011F00F17C05002041F8040F31
:1016D000A942FBD1E2E700BF1F2938B505461ED855
:1016E000C26B0C466AB152F8213053B1012B06D0BF
:1016F000591C10D00021204642F8241098470020A1
:1017000038BD284600F0F2F8224601462846BDE8DA
:10171000384000F0D7B8162301202B6038BD1623BF
:101720004FF0FF302B6038BD1F292BD838B5C36B65
:101730000C460546A3B153F8242003EB84034AB1B9
:10174000511C0BD0012A07D0002520461D60904770
:10175000284638BD012038BD032038BD022038BDE1
:101760008021FEF717FE0346E86340B100201A1FF0
:1017700003F17C0142F8040F9142FBD1DBE74FF00B
:10178000FF3038BD4FF0FF30704700BF38B5134B06
:101790001F281D681DD8EA6B044662B152F820303C
:1017A0004BB1012B05D0591C0FD0002142F820105D
:1017B0009847002038BD284600F098F82246014698
:1017C0002846BDE8384000F07DB8162301202B6084
:1017D00038BD16234FF0FF302B6038BD000C0020C1
:1017E000114B1F2870B51E6808D8F36B04460D46D0
:1017F0004BB153F8240043F8245070BD16233360D6
:101800004FF0FF3070BD80213046FEF7C3FD034628
:10181000F0630028F4D00021021F7C3042F8041F3E
:101820009042FBD1E5E700BF000C002038B50B4B20
:101830001D68EC6B0CB1002038BD80212846FEF7F6
:10184000A9FDE86338B1031F00F17C0243F8044F9F
:101850009342FBD1EFE74FF0FF3038BD000C002082
:1018600038B5174B1F281D6826D80446E86BA0B171
:1018700050F8242000EB84034AB1511C0BD0012AFC
:1018800007D0002520461D609047284638BD01201E
:1018900038BD032038BD022038BD80212846FEF720
:1018A00079FDE86340B10021031F00F17C0243F899
:1018B000041F9A42FBD1DBE74FF0FF3038BD00BF79
:1018C000000C002070B50026074D0446084611465E
:1018D0002E6007F0CFFA431C00D070BD2B68002BA0
:1018E000FBD0236070BD00BF0C14002007F0CCBA01
:1018F0005FFA81FC810744D00346511E22B909E0FA
:101900009A0709D0013905D3184602780133624598
:10191000F6D1704700207047184603290CD80029DB
:10192000F8D00346014401E08B42F3D0184613F887
:10193000012B6245F8D1ECE710B50CEB0C24024604
:1019400004EB044402E00439032918D9104652F884
:10195000043B6340A3F1013E2EEA030313F0803FF2
:10196000F1D051B10346014401E08B4205D0184645
:1019700013F8012B6245F8D110BD002010BD1046B0
:10198000EFE71146C9E700BF844641EA000313F0C0
:10199000030349D1403A23D30B6803604B6843608B
:1019A0008B688360CB68C3600B6903614B694361DB
:1019B0008B698361CB69C3610B6A03624B6A4362C3
:1019C0008B6A8362CB6AC3620B6B03634B6B4363AB
:1019D0008B6B8363CB6BC36340304031403ADBD2C7
:1019E00030320BD30B6803604B6843608B688360B5
:1019F000CB68C36010301031103AF3D20C3205D3EB
:101A000051F8043B40F8043B043AF9D2043208D0C0
:101A1000D2071CBF11F8013B00F8013B01D30B8832
:101A200003806046704700BF082A13D38B07B1D0EC
:101A300010F00303AED0C3F10403D21ADB071CBFBE
:101A400011F8013B00F8013BA4D331F8023B20F828
:101A5000023B9FE7043AD9D3013A11F8013B00F861
:101A6000013BF9D20B7803704B7843708B7883700D
:101A7000604670472DE9F041144649B3EAB1064685
:101A80000D4600F07BF98442074602D8B4EB500FB4
:101A90001AD821463046FEF77DFC804678B1BC421C
:101AA0002246294628BF3A46FFF76EFF30462946B0
:101AB000FEF736FD4046BDE8F081FEF731FD4FF000
:101AC00000084046BDE8F081A8464046BDE8F081E8
:101AD0001146BDE8F041FEF75DBC00BFF8B5B1F9B5
:101AE0000C30074618070C4639D44A68002A53DDE3
:101AF000E56A002D31D000223E683A6013F480522E
:101B0000216A55D101233846A847411C02465ED0C0
:101B1000B4F90C30E56A216A5B0705D56368D21A0F
:101B2000636B0BB1236CD21A00233846A847451CBF
:101B300040D00022236962602360A389D90400D5C4
:101B40006065616B3E6041B104F14403994202D08B
:101B50003846FEF7E5FC002363630020F8BD0E69FC
:101B6000002EFAD09B0718BF00230D6808BF4B69F1
:101B70000E60AD1B8B600CE02B463246D4F828C0BB
:101B80003846216AE047B0F1000CA5EB0C0566442D
:101B900006DD002DF0DCE0E70A6C002AA8DCDCE7BB
:101BA000B4F90C3043F040034FF0FF30A381F8BD8F
:101BB000626DB1E73A68B4F90C308AB11D2A01D0E0
:101BC000162AEFD100232269C4E90023B9E73B6854
:101BD000002B9DD01D2B01D0162BE1D13E60BCE720
:101BE000626022692260DA04AAD4AAE738B50B69D8
:101BF000CBB10C46054608B1036ABBB1B4F90C3051
:101C00008BB1626ED00701D4990512D528462146C2
:101C1000FFF764FF636E0546DA0702D4A3899B05CC
:101C20000BD5284638BD0025284638BDFFF76AF990
:101C3000E4E7A06DFEF762FCE8E7A06DFEF766FC46
:101C4000EFE700BF014618B1044B1868FFF7CEBF9D
:101C5000034A04490448FFF71BBB00BF000C0020E7
:101C6000500C0020ED1B0008040C002070B5B1F9E9
:101C70000C300C46990796B007D5012204F14703B2
:101C8000C4E90432236016B070BDB4F90E100546E5
:101C9000002929DB6A4607F0D5F8002822DB4FF43B
:101CA00080612846019EFEF775FB88B3A38906F480
:101CB000704643F08003A3814FF48063B6F5005F64
:101CC000C4E904032060DED12846B4F90E1007F001
:101CD000C5F80028D7D0A38923F0030343F00103FC
:101CE000A381D0E7B4F90C3013F0800F14BF402665
:101CF0004FF4806628463146FEF74CFB40B1A3897D
:101D0000C4E9040643F080032060A38116B070BDCF
:101D1000B4F90C309A05B6D4012123F0030304F181
:101D2000470243F00203C4E90421A3812260AAE729
:101D300070B50C46B1F90E10154600291E4696B036
:101D40000FDB6A4607F07EF800280ADB019B4FF4A0
:101D5000806203F47043A3F50053B3FA83F35B0985
:101D600007E0A289002312F0800F14BF40224FF435
:101D70008062002033602A6016B070BD51F8043CC8
:101D8000181F002BBCBF0B58C0187047032A70B532
:101D900011D940EA01039B071ED104460B4602E01D
:101DA000043A032A1CD91946204653F8045B54F818
:101DB000046BAE42F4D0541EAAB1421E013901E0B8
:101DC000C3180BD012F801EF11F801CFA31AE645A2
:101DD000F6D0AEEB0C0070BD541EEEE7184670BD99
:101DE00020461946E7E7104670BD00BF53B94AB90F
:101DF000002908BF00281CBF4FF0FF314FF0FF3013
:101E000000F00CB8ADF1080C6DE904CE08F0F4FC5C
:101E1000DDF804E0DDE9022304B07047704700BF3D
:101E2000A0F58072B2F5F85F034610B421D213F426
:101E3000805F00F4007403F48062C0F3002003F4B8
:101E400000630BD000010CB140F020000AB140F05B
:101E500040000BB140F0800010BC08470CB140F0CE
:101E600002000AB140F00400002BF5D040F0080059
:101E7000F2E70020F0E7034600091CBF03460420F8
:101E80009A081EBF13460230C0B25B081CBF013067
:101E9000C0B2704710F0020F0CBF10224FF4801236
:101EA000014B9A61704700BF00080040044B1B784B
:101EB0001BB1034103F0010070471846704700BF93
:101EC000542500200123034A8340107818431070E2
:101ED000704700BF542500200123034A8340107837
:101EE00020EA030010707047542500200123034AA4
:101EF0008340107858401070704700BF5425002070
:101F000001F00703C90830B501EB41010124013993
:101F10000A4400219C40E4B212F8015F20FA01F368
:101F200043F300036B40234001315D4003291570EA
:101F3000F2D130BD002210B500F00704C00800EB5C
:101F40004000014410468B5CE34003F001039340E2
:101F500001321843032AC0B2F5D110BD17B40C46A4
:101F6000C1B2C0F3072005280BD80E290FD8C0EB4B
:101F700000100144074A89B2204603B010BCFFF7A5
:101F8000BFBF031DDBB2012B01D8034AF4E703B046
:101F900010BC70471325002010250020C3B2C0F3E9
:101FA0000720052882B009D80E2B0ED8C0EB0010F0
:101FB0001844074980B202B0FFF7BCBF0430C0B27A
:101FC000012802D818460349F5E7002002B07047FF
:101FD000132500201025002030B50124084D04FAF7
:101FE00001F12B7804FA00F00843C1B21840814295
:101FF00004FA02F406BF2343DBB2A3432B7030BDC7
:1020000054250020054B064A1B7812789A4200D1CD
:102010007047013303F00703F8E700BF5A2500209B
:102020005925002010B509490B7823EA000010F06B
:102030000704087009D1984207D0054B5B785B070D
:1020400003D5C008FFF748FF0C7010BD55250020D0
:102050005625002070B5134B134D1878134B2C7870
:102060001B781843D4B1124B1B78C3B1114B124AE1
:1020700093F900301149002BAEBF05231D231146F3
:10208000002211F8016B0EB10132D2B2013BDBB27A
:10209000FF2BF6D10AB100232B70204370BD05231E
:1020A0000649EDE750250020512500205825002045
:1020B00040120020562500201E1800203E18002047
:1020C000024A137823EA000313707047502500205A
:1020D000E72850D8DF2807D8312865D00ED829281E
:1020E00058D02A2867D07047A0F1E003072B42D8C8
:1020F000DFE803F01541242933413D42392804D05B
:10210000822802D0352840D07047334B1A78920786
:102110005CD15B7813F0080F18BF292070472E4A56
:102120001378D9074ED4527812F0010F23D013F050
:10213000100F08BFE32018BF00207047264B1B7804
:1021400013F0040FF2E7244A137859073CD452786D
:10215000D2073BD413F0100FEDE71F4B5A789107CD
:1021600009D51B7813F0100F08BFE720E3E71A4BDF
:102170001B781A07F6D47047174A1378190727D423
:1021800052789107E6D5E4207047134B1B7813F083
:10219000200FC1E7104B1A7892061BD45B7813F01E
:1021A000080F18BF392070470B4B1B7813F0400FF6
:1021B00018BF2A207047084B1B7813F0400F18BF38
:1021C0003120704739207047E2207047E020704787
:1021D000E62070473520CEE75625002010B52F4C5D
:1021E00021784B0713D500F01402A2F1040C00F083
:1021F0001803DCF1000242EB0C02A3F1080CDCF145
:10220000000343EB0C039A4218BF80F00C000B074D
:1022100013D500F01402A2F1140C00F01803DCF145
:10222000000242EB0C02A3F1180CDCF1000343EBBB
:102230000C039A4218BF80F00C006478E30713D5B2
:1022400000F0110202F1FF3C00F01803DCF1000283
:1022500042EB0C02A3F1080CDCF1000343EB0C038E
:102260009A4218BF80F00900A30711D500F01102AF
:1022700000F01803A2F111046242A3F1180C6241AC
:10228000DCF1000343EB0C039A4218BF80F0090015
:10229000CB0648BF00F0E70010BD00BF5625002068
:1022A00038B5FFF715FFB0F5A44F044643D2B0F59B
:1022B000A04F80F0AD80DF2816D8CC2800F28B80AC
:1022C000A7280AD8A42879D8012804D0031F9BB2D4
:1022D000A12B28BF0024204638BDA0F1A8039BB243
:1022E0001A2B70D90024F6E7B0F5804F19D2B0F55B
:1022F000005F80F09C80E728EDD9A0F580739BB249
:10230000B3F5F85FEED2C0F30720FFF767FF05468D
:10231000E0B2FFF7DDFE2D0205F4F85540EA0504B2
:1023200007E0C0B2FFF7D4FE04F47064044344F441
:102330002044A4B2CFE7B0F5A54F22D245F25F23E7
:10234000984252D845F23F2398420BD9012300F01E
:102350000304C0F38202A34043EA421343F40C4354
:102360009CB2B8E745F21F23984237D8012300F00A
:102370000304C0F38502A34043EA421343F40D4330
:10238000EEE745F2BF2398420AD845F29F239842D0
:1023900000F01F0034D84AF2F40343EA00249AE71D
:1023A000A0F5A543403B9BB21F2B9BD8040204F42D
:1023B000F85444F4204444F0F0048CE7A0F12404E1
:1023C00044F48044B5E7224B5834E4B233F8144067
:1023D00044F488447FE740F4A044AAE74AF2F103BA
:1023E00000F01F0443EA042475E7012300F003040E
:1023F000C0F38202A34043EA421343F40A43AFE727
:10240000FFF7ECFE040204F4F85444F4005462E7CD
:1024100000F01F00FFF7E2FEC306C4F3431448BFF9
:102420000001240200B2044344F4104481E7C0F3E5
:102430000420FFF7D3FE0546E0B2FFF749FE2D0268
:1024400005F4F855054345F40055ACB243E700BF29
:1024500046B50008002070470020704730BFFDE7F8
:1024600010B5044610B9C90FC80110BD80EAE0726A
:10247000A2EBE07212B2002901EB02030CDB891A15
:10248000490191FBF3F1C1F120014BB2D8B2002C0C
:10249000BCBF4042C0B2E8E75B01521A93FBF2F3C3
:1024A000C3F160035BB2F1E7144B84B003EB41036B
:1024B000E42193F85A3001904B43C2EB13231C33B1
:1024C000002BC0F30720B8BF5B42A0EBC3031BB2D5
:1024D00023EAE373434300201B128DF80530019B70
:1024E000DAB262F30700C3F3072262F30F20C3F3EB
:1024F000074363F3174004B0704700BFF8B3000808
:10250000144B84B003EB4103E42193F85A3001905B
:102510004B43C2EB13231C33002BC0F30740B8BF5F
:102520005B42A0EBC3031BB223EAE37343430020E7
:102530001B128DF80630019BDAB262F30700C3F379
:10254000072262F30F20C3F3074363F3174004B07D
:10255000704700BFF8B3000830B5C0F3072585B059
:10256000EB1A01901046DCB2FFF77AFFC0EB801344
:1025700000EB830004440020E4B26C4324128DF885
:102580000540019BDAB262F30700C3F3072262F34E
:102590000F20C3F3074363F3174005B030BD30B5D8
:1025A000C0F3074585B0EB1A01901046DCB2FFF787
:1025B00057FFC0EB801300EB830004440020E4B21B
:1025C0006C4324128DF80640019BDAB262F30700D7
:1025D000C3F3072262F30F20C3F3074363F31740EB
:1025E00005B030BD30B585B0C0F3072501909DF82A
:1025F00020001C1A1046FFF733FF2C44E4B2241AC3
:102600000020E4B26C4324128DF80540019BDAB23D
:1026100062F30700C3F3072262F30F20C3F30743FB
:1026200063F3174005B030BD30B585B0C0F3074542
:1026300001909DF820001C1A1046FFF711FF2C4452
:10264000E4B2241A0020E4B26C4324128DF8064050
:10265000019BDAB262F30700C3F3072262F30F2093
:10266000C3F3074363F3174005B030BD84B0019056
:1026700000208DF80420019BDAB262F30700C3F357
:10268000072262F30F20C3F3074363F3174004B03C
:102690007047000084B0019000200B4B03EB410316
:1026A00093F85A309B1A8DF80430019BDAB262F32A
:1026B0000700C3F3072262F30F20C3F3074363F35A
:1026C000174004B0704700BFF8B3000884B0019011
:1026D00000200B4B03EB410393F85B309B1A8DF802
:1026E0000430019BDAB262F30700C3F3072262F3FE
:1026F0000F20C3F3074363F3174004B0704700BFD4
:10270000F8B30008144B2C3130B503EB4104E578E5
:1027100003EB4103A5F1200464B29B78002CB8BF01
:10272000C5F1200585B0B8BF6CB29A1A0190224459
:10273000C0B210448DF804000020019BDAB262F3AD
:102740000700C3F3072262F30F20C3F3074363F3C9
:10275000174005B030BD00BFF8B3000884B0019049
:1027600000209DF8102003EB430302EB53038DF888
:102770000430019BDAB262F30700C3F3072262F36D
:102780000F20C3F3074363F3174004B070471FB52E
:10279000019010461C46FFF763FE031900208DF8D8
:1027A0000430019BDAB262F30700C3F3072262F33D
:1027B0000F20C3F3074363F3174004B010BD1FB5E8
:1027C00001909DF818001C1A1046FFF749FEE4B26C
:1027D000241A00208DF80440019BDAB262F307004E
:1027E000C3F3072262F30F20C3F3074363F31740D9
:1027F00004B010BD84B0019003F12C00104B03EB2A
:102800004003D8789B782038703B4B4302FB003262
:1028100000209DF80430002AB8BF7F3203EBE2139A
:102820008DF80430019BDAB262F30700C3F307228C
:1028300062F30F20C3F3074363F3174004B07047FC
:10284000F8B3000884B0019003F12C00104B03EBA7
:102850004003D8789B782038703B4B4302FB003212
:1028600000209DF80430002AB8BF3F3203EBA213CA
:102870008DF80430019BDAB262F30700C3F307223C
:1028800062F30F20C3F3074363F3174004B07047AC
:10289000F8B300081FB5164C2C3304EB4304E3785F
:1028A000A478203B5343A4F1700252B2002ABCBF6B
:1028B000C4F1700462B2C2F1380201FB023111EBC3
:1028C0004101019048BF7F31C0B200EBE1108DF8AB
:1028D00004000020019BDAB262F30700C3F3072271
:1028E00062F30F20C3F3074363F3174004B010BD36
:1028F000F8B30008114B84B003EB410393F85A106E
:1029000001908B1A5BB2002BBCBF521A53B2182233
:10291000DBB25343C0B200EB13208DF8040000205B
:10292000019BDAB262F30700C3F3072262F30F20C0
:10293000C3F3074363F3174004B07047F8B30008CC
:10294000C94384B00190C9B2C0F30740414300209D
:1029500009128DF80610019BDAB262F30700C3F387
:10296000072262F30F20C3F3074363F3174004B059
:102970007047C94384B0C1F3850101900144002030
:102980008DF80410019BDAB262F30700C3F307224B
:1029900062F30F20C3F3074363F3174004B070479B
:1029A00084B003EB8302BDF81030019013449BB256
:1029B000FF2B28BFFF23DB43C0F30740DBB20344F8
:1029C000FF2B28BFFF2300208DF80630019BDAB2D1
:1029D00062F30700C3F3072262F30F20C3F3074338
:1029E00063F3174004B0704710B485B0BDF81840C9
:1029F000069405B010BCFFF7D3BF00291FB5B8BFC0
:102A00004942002AB8BF524209B2090112B2FF2955
:102A10004FEA0212A8BFFF21FF2AA8BFFF22BDF87C
:102A2000184009B2234412B29BB29142D4BF5B1842
:102A30009B189BB2FF2B28BFFF23DB430190DBB227
:102A4000C0F307400344FF2B28BFFF2300208DF86D
:102A50000630019BDAB262F30700C3F3072262F388
:102A60000F20C3F3074363F3174004B010BD10B445
:102A700085B0BDF81840069405B010BCFFF7BDBF87
:102A80001FB5482B0190C0F3074030D8BDF818405F
:102A9000E31A9BB2FF2B28BFFF23083189B210290C
:102AA00005D902F1080189B2112928BFFF23DB43B0
:102AB000DBB21844002AB8BF0332FF2828BFFF202A
:102AC0008DF8060000200B49497801EBA2028DF831
:102AD0000420019BDAB262F30700C3F3072262F31A
:102AE0000F20C3F3074363F3174004B010BDFF2367
:102AF000D3E700BF4825002010B485B0BDF81840CA
:102B0000069405B010BCFFF7BBBF84B0BDF8102021
:102B1000C0F30741D31A9BB2FF2B28BFFF23DBB2C0
:102B2000DA43D2B21144FF2928BFFF2101900344A8
:102B300000208DF804308DF80610019BDAB262F3A4
:102B40000700C3F3072262F30F20C3F3074363F3C5
:102B5000174004B0704784B0BDF810200190D31A1C
:102B60009BB2FF2B28BFFF23DB43C0F30740DBB240
:102B70000344FF2B28BFFF2300208DF80630019B64
:102B8000DAB262F30700C3F3072262F30F20C3F344
:102B9000074363F3174004B070470000024B1A78F4
:102BA00010431870704700BFA819002000F032B918
:102BB00008B5074B074A1870074B1B78C3F301038E
:102BC000137000F081F90322044B1A7008BD00BF96
:102BD000B00E0020AF0E002048250020A0120020DB
:102BE000054B1A7892071EBF0021044A11701A780B
:102BF0006FF301021A70704748250020A0120020D0
:102C00000C4A034608461178890711D063B12B2B73
:102C10000CD803F03F03117863F387011170002291
:102C2000054B1A70FFF7BABF0123F4E72B23F2E735
:102C3000704700BF48250020A01200200021FFF7A8
:102C4000DFBF00000121044B1878800801302C28D8
:102C500028BF0846FFF7D4BF48250020054B0121B7
:102C60001878C0F38500013810F0FF0008BF2B2052
:102C7000FFF7C6BF4825002030B4074C054618466C
:102C800023789B0705D06570A170E27030BCFFF718
:102C900085BF30BC704700BF48250020034903466C
:102CA0004878CA7808308978FFF7E6BF48250020C1
:102CB0000120FFF7F3BF0000054910B44C7803462C
:102CC000083CCA78A0B2897810BCFFF7D5BF00BF16
:102CD000482500200120FFF7EFBF000010B4064C8C
:102CE0000346A178E2781031FF2928BFFF216078E0
:102CF000C9B210BCFFF7C0BF482500200120FFF774
:102D0000EDBF000010B4064C0346A178E2781039FC
:102D100021EAE1716078C9B210BCFFF7ADBF00BF16
:102D2000482500200120FFF7EDBF000010B4064C3D
:102D30000346E278A1781032FF2A28BFFF2260788C
:102D4000D2B210BCFFF798BF482500200120FFF742
:102D5000EDBF000010B4064C0346E278A178103AAB
:102D600022EAE2726078D2B210BCFFF785BF00BFE2
:102D7000482500200120FFF7EDBF0000044A012094
:102D800013791033FF2B28BFFF231371FFF706BF02
:102D900048250020044A01201379103B23EAE373FD
:102DA0001371FFF7FBBE00BF482500206FF40042FF
:102DB000074B1A634FF055321A6000225A609A602E
:102DC000DA60DA621A625A62024B1A70704700BF08
:102DD0000004004097190020F0B50C4D00EB4007AF
:102DE000EE1996F801C044008C4505D1EF5D97427D
:102DF00002D1B6789E4207D001272044044E2C18F9
:102E0000377061702A54A370F0BD00BFA418002071
:102E10009719002070B5134605460E46002420463B
:102E2000324629460134FFF7D7FF512CF7D170BD48
:102E300000B1104708470000054BC1F180411869F7
:102E400001F2074101F00F01C84000F00100704796
:102E50000004004070B5072301264FF400444FF0F2
:102E60000045184A06FA03F10142946115D0062183
:102E700000BF00BF00BF00BF00BF00BF0139F7D1D6
:102E80000321956100BF00BF00BF00BF00BF00BFAE
:102E90000139F7D1013BE5D270BD032100BF00BF6E
:102EA00000BF00BF00BF00BF0139F7D10621956107
:102EB00000BF00BF00BF00BF00BF00BF0139F7D196
:102EC000E8E700BF0004004070B5124E3378FBB154
:102ED000302383F3118800250F4C2078FFF7BAFFC9
:102EE0006078FFF7B7FF0135A078FFF7B3FF512DEA
:102EF00004F10304F1D14FF4E06300BF00BF00BF51
:102F000000BF00BF00BF013BF7D183F311883370CE
:102F100070BD00BF97190020A418002000EB4003EB
:102F2000C3EB031300EB830083B200B2002807DA7F
:102F3000803800B2002800DAFF3040F307207047E5
:102F400003F18000F9E700000E4B1B78D90710D47D
:102F50009A0710D45B0710D40B4B1B787BB11D2B49
:102F60004FF0500003D843431E20B3FBF0F0C0B233
:102F700070471420FBE72820F9E75020F7E70820E6
:102F8000F5E700BF37250020392500200F4B1B78BF
:102F9000D90710D49A0710D45B0712D40C4B1878B9
:102FA00068B127280DD82823C000B0FBF3F050B13A
:102FB00080B2C0B270470220FBE70420F9E701208D
:102FC000F7E70820F5E70120704700BF372500200C
:102FD0003825002008B5A0F1CD03122B10D8DFE86A
:102FE00003F00A1013192E2E2E2E2E2E2E2E1C21FB
:102FF000252B363C4100FFF7A7FF40421C4BD87001
:1030000008BDFFF7A1FFF9E7FFF79EFF4042184B0D
:103010009870F5E7FFF798FFF9E7FFF7B7FF144B54
:103020001871EDE7FFF7B2FF4042F8E7FFF7AEFF98
:1030300040420F4B5871E3E7FFF7A8FFF9E7012380
:103040000B4AD138517883400B435370D8E7094A73
:10305000137843F001031370D2E7064A137843F064
:103060000203F8E7034A137843F00403F3E700BFD1
:103070003A2500203725002030B5414BCD2893F963
:10308000041093F9052093F9024093F9035012D1EB
:10309000002D01DA0022DA70D9789A780A4351B209
:1030A0000AB9384A11701A795B7913435AB20BB9CD
:1030B000354B1A7030BDCE2802D1002DEADCEBE78B
:1030C000CF2804D1002CE7DA00229A70E4E7D02858
:1030D00002D1002CF8DCDFE7D92804D10029DBDDA0
:1030E00000221A71D8E7DA2802D10029D4DAF7E7EA
:1030F000DB2804D1002ACFDA00225A71CCE7DC2881
:1031000002D1002AF8DCC7E7D1380E28C4D801A2C2
:1031100052F820F0513100085131000851310008B7
:103120005131000851310008513100085131000877
:103130005131000899300008993000089930000892
:10314000993000085F3100086B31000875310008C4
:1031500001215A78814022EA01025A709CE70B490A
:103160000A7822F001020A7096E708490A7822F0EC
:103170000202F8E705490A7822F00402F3E700BFEB
:103180003A25002039250020382500203725002049
:1031900002B1104770470000024B186808B103687D
:1031A00018477047042500200B4B07B51A88824248
:1031B0000ED01880094B1B6853B103228DF805000F
:1031C000000A8DF806001B698DF8042001A89847B5
:1031D00003B05DF804FB00BFA21800200425002006
:1031E0000B4B07B51A8882420FD01880094B1B6819
:1031F0005BB104228DF80500000A8DF806001B69FA
:103200008DF804200DEB0200984703B05DF804FB35
:10321000A01800200425002010B5164B1B7893B190
:10322000154B93F90030002B0DDAEF284FEAD0034D
:1032300008D8124A00F007001A440123917883400D
:103240000B43937010BD00224FF0FF330C4911F86F
:10325000014FA042F6D0B3F1FF3F01D104B953B200
:103260000132062AF3D15A1CECD0064A1344987056
:10327000E8E700BF40120020562500201C1800205F
:103280003D1800203C18002010B5124B1B789BB154
:10329000114B93F90030002B0EDAEF284FEAD002E1
:1032A00009D801210D4B00F0070013449A788140A2
:1032B00022EA01029A7010BD00231946084A12F84A
:1032C000014F01338442DBB208BF1170062BF6D1E7
:1032D000F1E700BF40120020562500201C180020F6
:1032E0003D180020BFF34F8F0549064BCA6802F412
:1032F000E0621343CB60BFF34F8F00BFFDE700BF19
:1033000000ED00E00400FA05002310B521494B60F0
:1033100090F8474090F8462042EA042290F848404E
:1033200090F8490044EA0024100A03281CD005D86C
:1033300001280FD0022813D018460FE0212821D0F1
:103340002228F9D1022CF7D8134B53F82400134B41
:103350001B5D11E0124B4B60122308460B6010BD41
:10336000104B4B605B23F8E7D2B2022AE4D80E4B35
:1033700053F822000D4B9B5C064A0028486018BF9A
:103380001046EBE7022CD7D8094B53F82400092349
:10339000F2E700BF981800208CAE000888AE000845
:1033A00076AE00081BAE0008A8AE0008A4AE000868
:1033B00098AE000890F84A2090F84B00084942EA7D
:1033C0000022022A0B7807D1012B01D0062B05D150
:1033D0004A78044B1A707047024A1370704700BF56
:1033E000941800209118002070B590F844100446FD
:1033F00001F07F03212B40F0938011F0800F90F8B3
:10340000453052D0022B34D0032B27D0012B4CD186
:1034100090F8483090F84610022B00F2A580082959
:1034200000F2A280544AD25C022A00F29D80A820B9
:10343000524B00FB0233D3F8A430002B00F09480F1
:103440004F4D5E6818682A46B04705F10803A3632C
:10345000AB6C0022E3632264012070BD90F8482029
:1034600090F8493052EA03225AD1464B8363012334
:10347000F0E790F8483090F84610022B74D80829ED
:1034800072D83D4AD25C022A6ED8A8203B4B00FB82
:103490000233D3F8A430002B66D05A6918689047DD
:1034A000394B1870A3630123D3E70A2B1FD00B2BD2
:1034B0000FD0092B34D194F8483094F8492043EACE
:1034C000022323F002035BBB304B314AA363022388
:1034D000C0E794F8483094F8492053EA022303D116
:1034E00094F84620274B1A700023A363B1E794F8A1
:1034F000483094F84610022B94F8472034D8082915
:1035000032D81D48C05C02282ED8A8251B4B05FBCD
:103510000033D3F8A4303BB31D691868A847E3E72C
:1035200001F09F01812916D194F84530062B12D164
:1035300094F84920616894F848304D6843EA0223C2
:10354000204694F8472094F84610A84760B1436895
:10355000A36303687DE70325084ED6F89C302BB99A
:10356000013D06F1A806F8D1002076E720469847ED
:103570000028F5D070E700BF18AE0008CC0E002080
:1035800044180020401200209018002094180020B9
:10359000B5330008014B1878704700BF9118002020
:1035A000302383F31188026943699A4210D1C368BA
:1035B00083B10123D0F8882090F88C1012898B40B9
:1035C00013420CBF01200020002383F311887047B1
:1035D0000020F9E71846F7E7036843B19100196046
:1035E00003490B78002A18BF43F001030B707047A2
:1035F00010240020006810B10068C0F387007047F5
:10360000036870B50BB9002070BD302383F31188B7
:10361000036800211C685B6881F31188002CF2D0DC
:103620004FF47A76074A0848D569084AED1AE5FB4F
:1036300006010023FEF7DAFB84428CBF0020012044
:10364000E2E700BF802400209F860100A0860100E1
:103650004B1E072B0BD850F8213043B19100196055
:1036600003490B78002A18BF43F001030B70704721
:1036700010240020082906D850F8210020B1006845
:10368000C0F387007047002070470000082970B51C
:1036900001D9002070BD50F82130002BF9D0302323
:1036A00083F3118850F8213000211C685B6881F396
:1036B0001188002CEDD04FF47A76074A0748D56977
:1036C000074AED1AE5FB06010023FEF78FFB844253
:1036D0008CBF00200120DDE7802400209F860100B0
:1036E000A086010010B51B4B1B78EBB11A4B93F968
:1036F0000030002B18DAFEF7ADFC184C2022607069
:1037000017492046FEF742FB10B3202221461448F9
:10371000FEF73AF9134B1B68D3B106229B6822705F
:103720002046BDE810401847FEF794FC0E4C0822D6
:1037300020700E492046FEF729FB48B10822214699
:103740000A48FEF721F9074B1B680BB15B68E7E7F6
:1037500010BD00BF40120020562500201C1800207C
:10376000E2240020042500203C1800200825002029
:1037700038B51C4B1B78D3B19378C3B11478557806
:10378000844201D0854212D185424C790CBF01217F
:1037900000211144CC7014BF012100215018C078C1
:1037A00028B1022B05D014D9D81E01280CD901202C
:1037B00038BD505C2CB9FFF72FFDFFF793FF0020B9
:1037C000F6E7FFF761FDF8E7033B18BF01239942D5
:1037D000F5D0505C14B9FFF71FFDE8E7FFF754FD83
:1037E000E5E700BFA112002028B1034B1A7810436F
:1037F0001870FFF777BF70475025002008B528B133
:10380000FEF75EFCBDE80840FFF76CBF08BD000096
:1038100028B1034B1A7810431870FFF763BF704745
:103820005825002030B1044A137823EA00031370AE
:10383000FFF758BF704700BF5825002010B5044659
:1038400002698169FFF7A4FC074AE17813782079BF
:1038500023EA01031370FEF733FCFFF743FF002355
:103860002360A38010BD00BF58250020437910B508
:103870009A07044613D4104A43F0020311784371A7
:10388000C3780B4313700D4A037911780B431370FF
:10389000FFF728FF2046E268A169FFF779FC0022C4
:1038A000074B1A806379DB0704D42046BDE810403B
:1038B000FFF7C4BF10BD00BF5825002050250020D1
:1038C000A425002008B5034806F0C8FD0022024BDD
:1038D0001A7008BD48250020A8190020006810B4FF
:1038E00040B1054C8264E469083040F8044C10BCD7
:1038F000FEF74AB810BC70478024002001681346C8
:1039000031B18A6C03F108009A640831FEF73CB8C3
:103910007047000010B40C78082C0BD850F8240025
:1039200040B1054C8264E469083040F8044C10BC96
:10393000FEF72AB810BC70478024002008291346DF
:1039400009D850F8211031B18A6C03F108009A644B
:103950000831FEF719B87047084B1B784BB1084B7C
:1039600093F90030002B04DA1E2200210548FDF7F0
:1039700027BE062200210448F9E700BF40120020BC
:10398000562500201E1800203E18002010B50446C1
:10399000006840B1826C00210830FDF711FE002262
:1039A00023681A605A6010BD70B50026051F00F12B
:1039B000200455F8040F38B1826C00210830FDF75F
:1039C000FFFD2B681E605E60A542F2D170BD01460E
:1039D0000822012006F0FABB01462022002006F052
:1039E000F5BB01460622002006F0F0BB014603228B
:1039F000002006F0EBBB37B5406BD0F88840237849
:103A0000042B13D1012390F88C502289AB40134230
:103A10000CD101A905F03BF8024638B129462046F1
:103A2000019B03B0BDE8304005F0A6B903B030BD3E
:103A300008B50846302383F311880A7D0023052A40
:103A400006D8DFE802F00B050503120E8269136049
:103A50004FF0FF33836105F0C3FE002383F3118829
:103A600008BD8269936801339360426803681360FC
:103A70005A60EDE7082208B51720034906F0E0FC7C
:103A80000022024B1A7008BD48250020A81900200A
:103A9000002307B501220DF107018DF8073006F06C
:103AA000CFFC9DF8070003B05DF804FB242008B5A7
:103AB000FFF7EEFF242801D0002008BD2520FFF7E6
:103AC000E7FF1128F8D12620FFF7E2FFA0F1190344
:103AD00058425841F1E708B52720FFF7D9FF08BD44
:103AE000052838B517D8052915D80E2A13D81E234E
:103AF000540003FB0144B42303FB004404F12800F9
:103B0000FFF7C6FF050204F12900FFF7C1FFADB2C0
:103B1000284380B238BD0020FCE7800038B500F5AE
:103B20008C6559B12846FFF7B3FF04020120A4B207
:103B30002844FFF7ADFF204380B238BD00F2624059
:103B4000FFF7A6FF0402A4B20320F1E7CAB2C1F353
:103B50000721052982B006D80E2A14D8052812D8C4
:103B600002B0FFF7BDBFFD2906D162B905280AD80A
:103B7000012102B0FFF7D1BFFC2904D11AB90528F1
:103B800001D81146F5E7002002B070477FB5052443
:103B90000F4BADF804001E780E4B1B781E4346FAFF
:103BA00004F3DB0705D4013CF9D20025284604B014
:103BB00070BDBDF80430E5B2ADF80C30039928466D
:103BC000FFF7C4FFFEF76CFB80B20128EBD0EDE7F6
:103BD000542500205325002013B502884379ADF801
:103BE0000420019873B169B1FFF7D0FF0446014684
:103BF0000198FEF7B3F92046019902B0BDE81040E4
:103C0000FFF7A4BFFEF7CAF90446F4E71FB5ADF805
:103C100004000198FFF7BAFFBDF80430ADF80C308E
:103C20000399FFF793FF05B05DF804EBFEF738BB8F
:103C300008B503460079A8B11888FFF7E7FFC3B2BB
:103C4000C0F30330062813D094BF0E30063000F0C6
:103C50000F00012810D8F02B10D004D8E72B8CBF10
:103C60000020012008BDF42B14BF00200120F9E73B
:103C7000E72B03D9F12BF7E70020F3E70120F1E769
:103C8000002307B502220DF10601ADF8063006F05B
:103C9000D7FBBDF8060003B05DF804FB37B50C4652
:103CA0000546FFF7F5FEA04207D0012228460DF198
:103CB00007018DF8074006F063FB03B030BD08B57F
:103CC00068B124210846FFF7E9FF11212520FFF7FD
:103CD000E5FF1921BDE808402620FFF7DFBFFF21DF
:103CE0002420FFF7DBFFFF212520FFF7D7FFFF216F
:103CF000F0E7052838B51D4616D8052914D80E2A30
:103D000012D81E23540003FB0144B42303FB0044D8
:103D1000290A04F12800FFF7C1FFE9B204F12900E4
:103D2000BDE83840FFF7BABF38BD052838B51C4696
:103D300015D8A1B9800000F58C65190A4AB128464A
:103D4000FFF7ACFF0120E1B22844BDE83840FFF79F
:103D5000A5BF00F26240FFF7A1FF0320F3E738BDE3
:103D60002DE9F84F00241E4FDFF878A0D146002639
:103D70005FFA84F811E0052C14BF39F815300123DF
:103D8000EAB2594640460135FFF7B3FF0F2DF2D195
:103D90000136062E09F11E090BD000255FFA86FBBD
:103DA000E9E73B88012200214046FFF7BEFF7B8800
:103DB00008E0052CF5D1012300211A462046FFF723
:103DC000B4FF01230022404611460134FFF7ADFF46
:103DD000062C07F104070AF1B40AC7D1BDE8F88F31
:103DE00038B20008B4AE000810B54FF48F64204616
:103DF00000210134FFF752FFB4F5006FF7D110BD79
:103E000008B50020FFF75BFF27200021FFF746FFE2
:103E1000FFF7A6FFFFF7E8FFBDE808400120FFF726
:103E20004EBF37B50C460546FFF72AFFA04207D024
:103E3000022228460DF10601ADF8064006F0A0FA70
:103E400003B030BD094A08B55378C3F380018142FD
:103E50000BD060F38203537004201188FFF7E1FF59
:103E6000BDE808400220FEF7DDB808BD5625002059
:103E700007B506F01EFB4FF6E5610020FFF7D1FF06
:103E800000210220FFF70AFF01211C4B03201970BB
:103E9000FFF704FF4FF4A0510420FFF7C2FF0021F9
:103EA0000620FFF7FBFE00210720FFF7F7FE0820A2
:103EB00006F0EBFA00212320FFF7F0FE00210C2092
:103EC000FFF7ECFE00210D20FFF7E8FE00220023A3
:103ED0006846CDE9002306F0C1FA1F2006F0D5FAA6
:103EE0000020FFF7ECFEFFF78BFF0F2006F0CDFA66
:103EF000132003B05DF804EB06F0C7BA5325002089
:103F0000002208231146014806F0E8BB0C080040D7
:103F1000F7B51F464BBA090C064615468DF8040046
:103F2000ADF806308DF80510FFF7EAFFE8B104217F
:103F30000DEB010006F036FC044648B945B1022EEF
:103F40000BD0032E0ED12846B9B206F035FC04463C
:103F500006F03CFC204603B0F0BD2846B9B206F09E
:103F600021FCF4E74FF0FF34F2E74FF0FF34F1E7C4
:103F700010B40346006F0278042A12D1012293F88C
:103F8000741044898A4022420BD11A695C69A242AA
:103F900001D1DC682CB9DB6910BC043B043204F0AD
:103FA000C3BE10BC7047406BFFF7E2BF08462DE967
:103FB000F843052900F2DB80DFE811F0AD00D900FD
:103FC0000600AD00AD00DB00302383F3118800272D
:103FD0003E46704D704CD5F8883095F88C90E86C62
:103FE00003EB890805F13803C8F80C3018B1142226
:103FF0000021FDF7E5FA286D18B114220021FDF724
:10400000DFFAD8F80C2009F00F01A173136803F050
:104010000303002978D0022B4DD0032B4BD0012B6A
:1040200025D153690BB993690BB3E0205A4B4FF07C
:10403000010C9874108A0CFA01F1C0F3C7001874CF
:1040400040205874082058745874D879C9B208436D
:10405000D871C0205875528AC2F3C702DA74802220
:104060001A7510221A751A755A7A11435972284610
:10407000013706F0A0F8032F2E7205F1A805AAD18A
:10408000464C636A204663612361E660A662E6628D
:1040900006F082F820462672FFF76AFF86F3118841
:1040A0003F4B1B7813B1052006F040F90220BDE814
:1040B000F84306F03BB9536983B10023A374138A14
:1040C0000120C3F3C703237440236374082363747C
:1040D0006374E37988400343DBB2E3719369002B97
:1040E000C5D000232C484375538A0122C3F3C7036C
:1040F000C37480230375102303750375437A8A40C4
:104100001343DBB24372B2E7002BB0D1E37943F043
:104110000103E371ABE706F009F9302383F311885B
:10412000002501261B4C2046267206F035F8204655
:1041300006F041F8D4F8A43013B1DA681868904753
:104140000135032D04F1A804EDD101230025134C02
:104150002046237206F020F8636A2046E56063611A
:104160002361A562E56206F017F885F31188BDE8C2
:10417000F883302383F311880023064A137282F8F0
:10418000B03082F85831054A137283F31188052044
:104190008DE700BFCC0E002000400140B811002088
:1041A000CA22002000EB8103F7B59C6905460E4644
:1041B000002C3AD0302383F311880023226984F83D
:1041C000A03063699A4201D1E36803BB05EB860323
:1041D000DB685B691B68D3B1D4F8A47047B101A94F
:1041E000204604F054FCBB680146019A38689847A1
:1041F000E368E2690133E360636920461344A2691E
:104200006361934224BF636A636105F0B9FF20468E
:1042100001A904F03CFC024648B1019B3146284606
:1042200004F0AAFD002383F3118803B0F0BD05EB71
:104230008603DB681A68022AF4D15A691268002AD8
:10424000F0D01B8A013B1340ECD105F14402E5E7B5
:1042500001F1090310B550F8234034B3302383F340
:10426000118800EB8100C3689B695B68BBB194F85F
:104270007420236F204603EB8203DB689B695A6836
:1042800023691A60E2680132E260E2691344A269BC
:104290002361934224BF636A236105F071FF2046C6
:1042A000FFF766FE002383F3118810BD704708B541
:1042B000302383F31188012100F00F03994020225D
:1042C00020F00F0004F0B2FE002383F3118808BD34
:1042D0000123C1F1804101F2074101F00F012022C9
:1042E000024803FA01F104F0A1BE00BF000400403F
:1042F000044B93F804281AB9012083F80408704786
:1043000002207047681A0020054B93F8042822B158
:104310000022012083F8042870470220704700BF64
:10432000681A002008B5064B4FF4006200211846B9
:10433000FDF746F940F60802C0F8002808BD00BFA6
:10434000681A00207FB503462749C3F3074213F4D8
:104350007F4F895CC0B2C3F3072642D00624FF23F7
:1043600044439A1BB4FBF3F46FF05403634303EB31
:10437000400303EB4303DBB203FB06F5C3F1FF038A
:1043800073432D121B12C5F1FF05C3F1FF034A430E
:104390004D434B43C2F30722C5F30725C3F307235D
:1043A000062C19D8DFE804F00406110F14180400D5
:1043B0000D461946002061F3070065F30F2062F3F4
:1043C000174004B070BD0B46294615461A46F1E762
:1043D0001D460B461146F9E70B4611462A461D4677
:1043E000E8E70A460D46E5E754B20008012830B573
:1043F00001D8C0B230BDB0F5F75F88BFFF224FF0E3
:1044000001049EBF42090832D2B2A3185910C3F367
:104410004705C3F34F035B439BB2984206D2013D6D
:10442000EAB29442F1D9013CE0B2E3E7FF2902D0BD
:104430000135ECB2F5E70846DCE71FB592B2019012
:1044400048B2002802FB02F2BCBF494248B2C0F1A8
:10445000380000FB002080B21C46FFF7C7FF00EBCE
:104460004000044400208DF80440019BDAB262F35E
:104470000700C3F3072262F30F20C3F3074363F37C
:10448000174004B010BD0000074B188800EB402215
:1044900000EB820000F55850193080B2188000EB14
:1044A0001020C0B2704700BFB20E002041064CBFC2
:1044B000C343024610B548BFDAB20D4CC2F3011235
:1044C00004EB420148BF03F00F03497854BF00F0EA
:1044D0000F030133594314F81230020603EB211382
:1044E000DBB244BF5B42DBB283F0800010BD00BF93
:1044F0004CB2000830B50D4685B00190C4B21046EC
:10450000FFF7D4FF124901EB450191F85A30C21868
:10451000D2B2A2F180035BB2002BBCBFC2F1800219
:1045200053B20C2200205B00DBB2534304EB132494
:104530008DF80440019BDAB262F30700C3F307224F
:1045400062F30F20C3F3074363F3174005B030BD98
:10455000F8B30008FEF740BC00EB0010C3B2002027
:1045600003F11102D2B2512A63F30700134628BFA8
:10457000512382B063F30F2002B07047302370B52F
:1045800083F31188124B13481349DC6903680A68E6
:10459000E41AA242114A0AD9A3F58333E03B03602F
:1045A00010680F4B04F583340344E03413600C604F
:1045B0001668002181F311884FF47A7509480023A9
:1045C000E4FB0501084AFDF711FC304470BD00BF53
:1045D00080240020782200207422002070220020F5
:1045E00088598F029F860100A08601002DE9F041C5
:1045F0008846164600251F460E4B2A01995C03EBA0
:10460000051491B9012160709954FFF7B7FF9DF827
:1046100018307600A3739DF81C306060C4F80880E1
:1046200026736773E373BDE8F0810135142DE4D17F
:10463000F9E700BFA825002013B5FF240322234675
:10464000C821022001940094FFF7D0FF03222346E3
:104650001046C82101940094FFF7C8FF23460322A7
:10466000C8213F2001940094FFF7C0FF2346032296
:10467000C821042001940094FFF7B8FF02B010BDD8
:10468000FF2313B504460322C8214F200193009352
:10469000FFF7ACFF84B1002403222346C8214E203B
:1046A00001940094FFF7A2FF23460322C82120466D
:1046B00001940094FFF79AFF02B010BD38B5FFF7E0
:1046C0005DFF00F57A75FFF759FF854214D9FFF7B2
:1046D00017FCA0B1052006F041F806F051F8044699
:1046E00006F074F8002C04DB14F00104EBD1204632
:1046F00038BD231DE7D0FAE76FF00104F7E74FF06C
:10470000FF34F4E738B5FFF7D9FF054690B9FFF756
:10471000F7FB044670B1062006F020F806F056F8C4
:104720002B462A462946D820FFF7F2FB10B9FFF79F
:10473000C5FF00B10024204638BD2DE9F0410746F1
:104740000C46D600FFF7BAFF054648B132460021B5
:104750002046FCF735FFB5FA85F04009BDE8F08149
:104760003346224639460320FFF7D2FB0546002890
:10477000ECD121462644D1E90023D243DB4341F862
:10478000082BB14241F8043CF5D1E4E72DE9F04FA4
:10479000074615464FF0000AC3B00191202D2E4662
:1047A00028BF2026F3001A460093019B02A803EBC2
:1047B000CA01FDF7E9F8002202ABD3E90001C043CA
:1047C000C943013243F8080B964243F8041CF4D164
:1047D000B946DDF800800DF1080B5FFA89F4C4F5E5
:1047E0008074444528BF4446FFF768FF40BBFFF78D
:1047F00087FB28B3062005F0B1FF05F0E7FF23464D
:104800005A4649460220FFF783FBC8B9B8EB0408B3
:10481000A344A144E1D1FFF751FF88B9FFF770FB32
:10482000044668B1042005F099FF05F0CFFF009B16
:10483000AD1B1F44B244B1D1204643B0BDE8F08F58
:104840000024F9E72DE9F347FFF75CFF0146A0B12B
:10485000FFF74EFD2A4904464FF480720020FFF70F
:1048600095FF274D0146002841D1012C01D1FFF7CA
:104870004BFD40F60803C5F80038084602B0BDE815
:10488000F0871CF8013B4FEA4E195A40A2FB06384C
:1048900006FB0E884FEA421A49EAD26913EB0A0373
:1048A00048EB09084FEAC21A9B184FEACE194FEAA3
:1048B00002274EEB080849EA526913EB0A034FEA54
:1048C0000E2E48EB09084EEA126EDB1948EB0E0E6D
:1048D000BE44C2180139D4D16946CDE9002E4FF447
:1048E00000600122FFF752FF4100C9B2BDE740F668
:1048F0000101AC4600201226024ADFF80CE0E9E78D
:10490000681A002025232284E49CF2CB044BD3F8C0
:104910000038B3F5805F01D3FFF794BF01207047E3
:10492000681A00202DE9F04FA54B8FB01B78A54DDC
:104930008342029049D1A44A2B78127803F00303F2
:104940009B1A18BF0123DFF884A29AF801208AF885
:1049500002306B799A4206D00022114610468AF83E
:104960000130FEF723F9029A2B2A00F26584DFE872
:1049700012F02E0048006E00B100E70035017D0105
:1049800081018301960198019C019E01A001A20171
:10499000A401A601A801AA01AC01AE01B201B401B3
:1049A000B601E60117026102630295022303C903FF
:1049B000CD03CF03D903DC03E303E503EC03EE03EC
:1049C000F503F703FE032D044B040123BBE79AF81C
:1049D0000230002B00F02084002211461046FEF722
:1049E000E5F802229AF8003001338AF80030784B5B
:1049F0001A709AF80230002B00F013840FB0BDE853
:104A0000F08F9AF80000FFF7A7FD72490322ADF876
:104A10003000C5B2C0F307240DA8FCF7B5FF0D9810
:104A2000FFF790FC6C4EC2B2C0F30721C0F30743FE
:104A3000E8B2844201D8502CB5E2705D9AF801705A
:104A4000384202D02846FFF785FD0135F0E79AF895
:104A50000000FFF781FDAA78EB786F788DF835209C
:104A60008DF834708DF83630ADF830005FFA80FB89
:104A7000C0F307240D98FFF765FCC3B201932B79AF
:104A8000C0F307281F448DF83470C0F307460D9813
:104A9000FFF758FC504DC0F30743C7B2C0F30729D6
:104AA00003935FFA8BF39C42C5D915F80B309AF843
:104AB000012013420BD0DB0747BF3A464946334635
:104AC000414658464CBF039B019AFFF743FD0BF14B
:104AD000010BE6E79AF80000FFF73EFDDFF8F880EB
:104AE000AB782F7995F80390ADF83000C0F3072428
:104AF0000193BF08C6B2A8F1A10BF3B29C429AD9A8
:104B000018F806309AF80120134217D01BF8162027
:104B10006B78120902FB07338DF83430019B8DF856
:104B200036908DF835300D98FFF70CFCC0F3074335
:104B3000C2B2C0F307213046FFF70CFD0136DCE7B7
:104B40009AF80000FFF708FDDFF88C80AB782F792A
:104B500095F80390ADF83000C0F307240193BF0827
:104B6000C6B2A8F1A20BF3B29C427FF664AF18F86C
:104B700006309AF8012013421FD01BF816206B78DC
:104B80007A4303EB62138DF83430019B8DF8369035
:104B90008DF835300D98FFF7D5FBC0F30721C0F332
:104BA00007438DF82C008DF82D108DF82E30C2B2F1
:104BB000DBB23046C9B2FFF7CDFC0136D3E700BF08
:104BC000B00E002048250020AF0E0020AC0E0020C3
:104BD000A012002049250020F4B400089AF8000033
:104BE000FFF7BAFC954BADF82C00C6B2C0F3072412
:104BF00018882B79EF78DB085843C0F30720FFF7BC
:104C000055FCA0F180035BB2002BBCBFC0F180005B
:104C100043B25B00DBB27B4395F8019095F80280CC
:104C20001B128DF836308DF834908DF835800D9844
:104C3000FFF788FB824DC0F30721C0F307438DF8CF
:104C400031108DF832308DF83000C2B2C9B2DBB20B
:104C5000F0B284427FF6EFAEA85D9AF80170384258
:104C600002D03046FFF776FC0136F1E7754804F0D4
:104C7000A9FB04E07448FAE7744804F0F7F9744BB0
:104C80001A7801321A7000287FF4B8AE0221714AF6
:104C90009B781170002B7FF4B1AE029BABE66E489F
:104CA000EBE76E4804F044FAE9E76D48FAE76D482F
:104CB000DDE76D48DBE76D48D9E76D48D7E76D481C
:104CC000F0E76D48D9E76D48D7E76D48EAE76D48EA
:104CD00004F0A2FAD3E76C48FAE76C48F8E79AF8D0
:104CE0000000FFF739FC9AF80220ADF83400C3B297
:104CF000C0F30724D2B92B79504A1033FF2B28BFB9
:104D0000FF23128853430A22C3F30F23B3FBF2F1AC
:104D100002FB11339BB2002B7FF48DAEFFF7B4FB87
:104D200051235843001204F0E1FA84E61D46A542DF
:104D3000BFF681AE284604F0D9FA0135F7E79AF8B4
:104D40000000FFF709FC9AF80220ADF83400C3B266
:104D5000C0F30724DAB92B79384A1033FF2B28BF68
:104D6000FF23128853430522C3F30F23B3FBF2F250
:104D700002EB82029B1A9BB2002B7FF45CAEFFF722
:104D800083FB51235843001204F0ECFA53E61D460E
:104D9000A542BFF650AE284604F0E4FA0135F7E725
:104DA0009AF80000FFF7D8FB39490322ADF82C0030
:104DB000C6B2C0F307240CA8FCF7E6FD1F4B6F78C2
:104DC00018882B791E4DDB085843C0F30720FFF7E6
:104DD0006DFB0C22A0F180035BB2002BBCBFC0F1C5
:104DE000800043B25B00DBB2534307EB13278DF81F
:104DF00030700C98FFF7A6FAC0F307238DF8340043
:104E0000C0F307408DF835308DF83600F3B29C4280
:104E10007FF611AEAB5D9AF80120134208D0304600
:104E20009DF836309DF834209DF83510FFF792FB41
:104E30000136EBE717481AE7174818E7A4190020CE
:104E4000F4B40008A9240008012500085925000829
:104E5000AC0E0020A01200209F250008E5250008C8
:104E6000292600086D26000895260008CD26000892
:104E7000052700085D2700083B4400088F2700082D
:104E8000BF270008F52700084528000895280008D6
:104E900049250020F5440008F52800089AF800008C
:104EA000FFF75AFBC3B201939AF80230ADF82C0019
:104EB000C0F3072B4BB1002211461046FDF776FEDA
:104EC0005A220021AB48FCF77BFB9AF800307BB9F3
:104ED000A94C2588FFF752FB401B80B218288CBFD5
:104EE00001220022A54B1A7002D9FFF747FB208050
:104EF00000252F460026A24B05EB030A9D4B05EB30
:104F000003081AF8019B019B4B4542D8CB4540D979
:104F10009B4B4B4493F8FC209A4B5B781A4236D05B
:104F200098F80040984904F1AA03FF2B28BFFF23FB
:104F300003EB43038A780233C978DBB24B43A4F115
:104F4000550121EAE1711B0AC1F1AA018DF8301067
:104F50008DF831208DF832300C98FFF7F3F9C0F35B
:104F60000721C0F307438DF834008DF835108DF814
:104F70003630C2B2DBB24846C9B2FFF7EBFA7F4B1C
:104F80001B7823B1013C24EAE47488F8004001371F
:104F9000FFB20136F6B20F2E08F10108B1D14B2D48
:104FA00005D1BBF1500F8CBF0020012067E6102F08
:104FB00005F10F059ED9F4E7ED78744F05EB450335
:104FC0004FEAA30B9B080493FF23B3FBF5F3039372
:104FD0009AF802305BB1002211461046FDF7E6FD5B
:104FE0005A2200216348FCF7EBFA00233B704FF094
:104FF0000009DFF89C8198F80030013388F8003010
:105000005C4B019300245E4B019E4B4405933B781F
:105010002343DBB273B9FBF71BF95E4B984209DC03
:10502000019B1D70564B13F80900FF2814D1012471
:105030000F36ECE733784BB19D4207D998F8002042
:1050400003998A4204BF03F1FF333370059AC4EB1E
:105050000413D05CFF2810D03278049B93424BD2CB
:10506000A2EB0B030BFB03F3A5EB0B0293FBF2F399
:105070002A46DBB21946FFF76DFA0134062C06F119
:105080000F06C4D1019B09F101090133B9F10F0FDA
:105090000193B7D198F80030039A934204BF0023DC
:1050A00088F800303B789AF800200133DBB21C2BE3
:1050B0003B7040F2B98000230520374C3B706E1ED8
:1050C00022460F233549052803D10F78BD4208BF7A
:1050D0000E7012F8017F013BAF4224BF1670D573EA
:1050E00013F0FF0301F10101EDD1013810F0FF00D1
:1050F000A4F10F04E4D1C2E56A43B2FBFBF2002342
:10510000D2B2B7E7264804F0B3F9B8E52548FAE784
:10511000254B26491878013820EAE070C0B204F027
:1051200023FAACE522490020F9E71F4B2149187802
:10513000013820EAE070F1E71F49F4E71A4B1F49F4
:105140001878013820EAE070E8E71D49EBE7164BD4
:105150001C491878013820EAE070DFE71949E2E7D6
:10516000114B19491878013820EAE070D6E7164942
:10517000D9E700BF202300209E1900209C190020A1
:10518000F8B30008AC0E002048250020A11900202B
:10519000A0190020545555055B2300206B230020E7
:1051A000412900087329000888220020A12900084D
:1051B000E9290008FB2900086F2A0008812A000855
:1051C000F92A00080B2B0008572B00089AF800005A
:1051D000FFF7C2F91A4BC5B205EB4506ADF834002E
:1051E000C0F307241E44EBB2A34206F10306BFF44A
:1051F00022AC284616F8013C16F8032C16F8021CBF
:10520000FFF7A8F90135EEE79AF80000FFF7A4F9D7
:10521000C0F307205028C6E69AF8003001338AF818
:1052200000300322074B04E0531C02228AF80030AE
:10523000044B1A70FFF7E2BB9AF800300133F4E731
:10524000C4100020A01200202DE9F043834C8BB045
:10525000D4F80080FFF792F98146A0EB0806FFF72B
:105260008DF9206000247E4F054697F800C0204647
:10527000614608F57F43FF33A3EB090EE3B29C457B
:1052800015D800B13970774B1B783BBB764B1B7838
:1052900013F0030400D09C08744E3378032B00F203
:1052A000DD81DFE813F01D002A00DE01E40104F1D6
:1052B0000C0207EB4202537892F80280013443EA71
:1052C00008239E4529BF9B1901F1FF315370C3F399
:1052D00007233ABF0120C9B29370CFE70024DBE770
:1052E0000022634B5E491A70624B292262481D609E
:1052F000FCF74AFB01233370B0E12046FFF712FBB5
:10530000002C00F0AB815A4B18780138C0B2FFF77F
:1053100023F95A4BADF80400C5B2C0F3072418783E
:10532000FCF7A9FD70B30120FCF7C0FD48B90220CD
:10533000FCF7BCFD28B90420FCF7B8FD002800F0FC
:10534000C1802E46A6422CDD0120FCF7AFFD0028CF
:1053500075D10220FCF7AAFD002800F0B3802E468C
:10536000A6426EDD452D40F28F804A2D00F2AA80C4
:105370004A2C40F2A780FF2300227A214A20FFF71F
:10538000E9F89FE0384B5B79082BCCD12E46A6423A
:10539000C9DA002330461A461946FFF7DBF8013612
:1053A000F5E7B54207DCA64205DA002330461A4687
:1053B0001946FFF7CFF80136C4E7B54207DCB4421F
:1053C00005DD002330461A461946FFF7C3F80136BB
:1053D000B442F2DA0D222A4902A8FCF7D5FA0027D6
:1053E00002AE16F8010B854206D8844204D9802308
:1053F00000211A46FFF7AEF801370D2FF1D10F2229
:10540000204906A8FCF7C0FA002706AE16F8010BE3
:10541000854206D8844204D90022FF231146FFF7B3
:1054200099F801370F2FF1D1402D92D8402C90D907
:105430000023FF211A464020FFF78CF889E72E460B
:10544000C6E7B54207DCA64205DA002330461A4615
:105450001946FFF77FF8013682E700BF9819002050
:105460007A230020CB22002048250020A012002013
:10547000AC0E0020A4190020882200205425002012
:1054800099AB0008A7AB0008452C75D90023FF2174
:105490001A464520FFF75EF82C2D00F28C80A522DD
:1054A0002C20FFF757F80A463020FFF753F84A2C14
:1054B0006ED9FF2300227A214A20FFF74BF8342DC2
:1054C00040F291800420FCF7F1FC60B32E46A64226
:1054D00040F3A0801C2D07D81C2C05D90023FF21E8
:1054E0001A461C20FFF736F81022684906A8FCF778
:1054F0004BFA002706AE16F8010B854206D8844207
:1055000004D90023FF221946FFF724F80137102F92
:10551000F1D1142D07D8142C05D9FF2300227A21AC
:105520001420FFF717F80027B846594E3378002BA0
:1055300000F08E80D6F80490FFF720F8B368A0EB57
:105540000900834277D8FFF719F8337B7060002B8E
:105550006CD186F80080C6F804807078B27B8542F2
:10556000717BF37B74D8844272D9DB43D243C94345
:10557000DBB2D2B2C9B269E02C2D10D9302D40D89F
:10558000302C9FD9FF22002311463020FEF7E2FF86
:10559000342C28D8282D95D8282C93D92CE02C2CC5
:1055A000F8D90023A522FF212C20FEF7D3FF302CB1
:1055B0001FD90A46E9E7302D09D94A2C3FF679AFC1
:1055C000342D3FF67FAF0A4619463420D7E60A4607
:1055D0003020FEF7BFFF4A2CF6D90B4600227A2175
:1055E0004A20FEF7B7FF0023FF2219463420FEF7BA
:1055F000B1FF282D3FF666AFFF2300211A46282071
:10560000BDE6342D3FF65EAF342C7FF65BAF002352
:10561000FF22D9E7B54207DCA64205DA002330466F
:105620001A461946FEF796FF013650E7013BDBB2FA
:105630003373002B8DD0337BDB078ED5707885429A
:1056400006D8844204D9F37BB27B717BFEF782FFDC
:105650000137142F06F110067FF468AF0BB0BDE8D8
:10566000F08320460BB0BDE8F043FDF7A1BA094B2B
:105670001B780BB1FEF726F9074B1C68FEF77EFF7F
:10568000001B0F28EAD9002335E600BFB7AB00089E
:10569000A8250020A8190020A419002010B5FEF7A5
:1056A0006DFF0D4B80B29A78D9780A4318BF0B4A28
:1056B000597918BF10801A790A431CBF084A108014
:1056C000084A126832B1022119700348D368BDE854
:1056D0001040184710BD00BF3A250020BE2300200F
:1056E000BC2300200425002010B5044600285AD011
:1056F000031FDBB2A02B27D82B4B1B78A3B12B4B5E
:1057000093F90030002B0FDA294B00F0070103EB6F
:10571000D0039A7801238B401A420ED02046FDF721
:10572000B3FDFDF7DFFF08E00023224A12F8011F56
:10573000A142F3D00133062BF8D12046FDF76CFDD2
:10574000BDE81040FDF7CEBF00F12003DBB2072B10
:1057500008D80123184A00F007041178A3400B432E
:105760001370EDE700F15B03DBB2022B05D8BDE857
:105770001040243880B2FDF717BD00F15803DBB2AA
:105780001A2B06D8BDE810400C4A32F81300FDF77A
:1057900027BD3334E4B2122C05D8FDF71BFCBDE85D
:1057A0001040FFF77BBF10BD40120020562500209F
:1057B0001C1800203D1800205025002046B5000888
:1057C00010B58378012B10D10C88A4F1E003072BCE
:1057D00000D944B909492046FCF722FBE0B2BDE8F4
:1057E0001040FFF781BF0649F5E7022B04D1BDE861
:1057F00010404B688878184710BD00BFE937000893
:105800001138000808B50346A0B3021FD2B2A02A7F
:1058100005D8FDF739FDBDE80840FDF763BF00F18D
:105820002002D2B2072A07D800F0070301209840CF
:10583000C0B2FCF745FCEEE700F15B02D2B2022AEF
:1058400004D8BDE808400020FDF7AEBC00F15802C6
:10585000D2B21A2A04D8BDE808400020FDF7C0BC27
:105860003333DBB2122B05D8FDF706FCBDE8084048
:10587000FFF714BF08BD000010B500240E4B1C70CC
:10588000FEF76AF82046FDF78FFC2046FDF7A8FCDE
:105890000A4B1C70FDF726FF214606220848FBF73D
:1058A0008FFE084B1C70084B1C70084B1C70BDE829
:1058B0001040FFF7F3BE00BF502500205825002000
:1058C0003A250020392500203825002037250020E2
:1058D000464A13B5464B52F8041C99420CD100239A
:1058E00042F8043C83F31488424B1A6882F3088818
:1058F00062B65B689847FEE70C20032440F2BE7155
:105900003D4B3E4A9C62D862C2F8941000219962D5
:10591000D9629C62D8628020C3F81C0CD3F81C0C9E
:10592000C3F81C0C009101914FF40141C3F8481CCD
:105930004FF6FC71A3F5744319630F21196002231C
:10594000136501234BF68031D364936D03F001039B
:105950000193009B01330093019B13B9009B8B4281
:10596000F3D1019B03B9FEE7254B26498024C3F8F8
:1059700000140021A3F5884399611C62196A012073
:10598000196220215860196019681960196801436B
:10599000196054679067D16F0329FCD102229A6085
:1059A00001220021DA60144A9162D1629A6C42F4B9
:1059B00000429A649A6CDA6C42F40062DA64DA6C3F
:1059C0009A6C42F020029A649A6C9A6C42F04002FF
:1059D0009A649A6C9A6C42F080029A649A6C9A6CFF
:1059E00042F480729A649B6C02B010BD007000207B
:1059F000EFBEADDE00E0FF1F0000014000040140EB
:105A000000500140130000037047FEE770B5082501
:105A1000134C606823680146A268043B8A4219D887
:105A2000D31C1B1AC11E23F003038A4238BF002374
:105A30001844E368C11EDA1C121A22F003029942CC
:105A400088BF00220021FBF7BBFD013D04F11004DB
:105A5000DFD170BD53F8046F41F8046BDEE700BF7F
:105A600098AD00080C4B10B41868D96802685360F0
:105A70001A600122D860002302758A680B750B69D1
:105A80001B689C689442FBD85A680B604A6010BC43
:105A900011605960FAF794BB80240020054BD96847
:105AA00008751868026853601A6001220275D86090
:105AB000FAF786BB8024002070B5114E4B1C0446BB
:105AC000F56886B019D00F4B684603930023049500
:105AD000059303F0E5FD2046FFF7E0FF009B4BB187
