:020000040800F2
:1000000000040020B9010008BB010008BB01000882
:10001000BB010008BB010008BB010008BB010008D0
:10002000BB010008BB010008BB010008158F0008D8
:10003000BB010008BB010008BB01000829A20008A1
:10004000BB010008BB010008BB010008BB010008A0
:10005000BB010008BB01000899960008C196000882
:10006000E99600081197000839970008BB010008BD
:10007000BB010008BB010008A1980008BB010008F3
:1000800061970008BB010008BB010008BB01000824
:10009000BB010008BB010008BB010008BB01000850
:1000A000BB010008BB010008799800088D98000882
:1000B000BB010008BB010008BB010008BB01000830
:1000C000BB010008C5970008BB010008BB01000880
:1000D000BB010008BB010008BB010008BB01000810
:1000E00072B6264880F30888254880F30988254899
:1000F00025490860022080F31488BFF36F8F04F055
:10010000E5F904F073FB4FF0553020491B4A91424A
:100110003CBF41F8040BFAE71D49194A91423CBF24
:1001200041F8040BFAE71B491B4A1C4B9A423EBF9D
:1001300051F8040B42F8040BF8E700201849194A5B
:1001400091423CBF41F8040BFAE704F0EDFB04F0E8
:10015000E9FB154C154DAC4203DA54F8041B8847F3
:10016000F9E707F059F8124C124DAC4203DA54F893
:10017000041B8847F9E704F0D6BB00000004002008
:10018000000C00200000000808ED00E00000002046
:100190000004002044B90008000C00209412002044
:1001A00098120020CC2B0020E0000008E00000089E
:1001B000E0000008E000000892E700F000F8FEE729
:1001C0002DE9F04FC1F80CD0C3689D46BDE8F08F13
:1001D000002383F311882846A047002005F09AFDEC
:1001E000FEE704F0C7FB00DFFEE7000038B5124B66
:1001F00004461D682A6B1AB10023C2E9044338BDC6
:10020000182000F091F80246286378B100210B23F2
:1002100001209381C2E90401084B0949094DC2E953
:10022000011300231560C2E9044338BD4621064B83
:10023000064800F053F800BF000C0020ECDE05007B
:1002400034126DE60E33CDAB6CB8000884B80008EC
:1002500038B5194B1C68226B8AB113691749546968
:1002600003FB01F1164800FB0411A3FB003001332E
:1002700041EB0001C2E9043121F0004038BD1820F3
:1002800000F052F80246206388B1012400250B23B8
:100290000A480C49C2E90445116001460A4D0B4C5D
:1002A00093810B4BC2E90154C2E9043138BD52219C
:1002B000084B094800F012F8000C00202DF45158AA
:1002C0002D7F954C0E33CDAB34126DE6ECDE050080
:1002D0002E7F954C6CB8000884B80008144600B511
:1002E0001A460A4B0D461B6885B0DE6803464CB1C2
:1002F00007490191304607490294009500F0E4F85F
:1003000000F00AF904490C46F3E700BF000C002096
:10031000C0B80008D0B80008CCB8000808B513462B
:100320000022FFF7DBFF00BF024B0146186800F018
:1003300031B800BF000C0020024B0146186800F0E5
:10034000F3B800BF000C002070B5114E05463368AD
:100350000C46BBB12146284609F05AF9431C014618
:100360000CD0C41C24F00304A04205D02846611A16
:1003700009F04EF9013001D0204670BD4FF0FF3436
:10038000204670BD194609F043F93060E2E700BF2E
:10039000981200202DE9F843CD1C25F003050835FF
:1003A0000C2D38BF0C25002D064618DBA94216D8A7
:1003B000DFF8DC8000F06EF8D8F80420A2B1144613
:1003C00003E0636822467BB11C4623685B1BF8D4BC
:1003D0000B2B1FD89442636854D053600CE00C235D
:1003E00033600020BDE8F88329463046FFF7ACFFB4
:1003F000431C044619D00560304600F051F804F162
:100400000B00231D20F00700C21A1CBF1B1AA350AB
:10041000BDE8F88361199442256014BF5160C8F8A3
:100420000410635163684B60E6E7D8F804701FB3AB
:100430003C467F68002FFBD123683946304604EBE9
:10044000030909F0E5F8814516D123683046ED1A15
:100450002946FFF779FF01300ED02368D8F8042031
:100460002B442360536883B1A34203D01A465B68D0
:100470009C42FBD10023B0E70C233046336000F0F0
:100480000FF8AEE7C8F80430B6E7C8F80470B3E771
:1004900098120020014800F035B800BFB0120020CB
:1004A000014800F037B800BFB01200200CB400B50E
:1004B00083B004AB53F8042B019300F0CFF803B0E2
:1004C0005DF804EB02B070470EB400B5074A82B085
:1004D00003AB0146106853F8042B019300F0BEF8FB
:1004E00002B05DF804EB03B0704700BF000C0020C1
:1004F000704700BF704700BF704700BF704700BF24
:10050000704700BF704700BF01207047012070474F
:10051000704700BF704700BF062008B501F03EF9E4
:10052000012009F0A1F800BF002950D038B551F8DA
:10053000043C0C1F002BB8BFE4180546FFF7AAFFC8
:10054000274A13682BB1A3420CD921686018834253
:100550002CD0284663601460BDE83840FFF7A0BF88
:10056000A3420FD81A465B68002BF9D111685018C6
:10057000844217D02CD3636054602846BDE83840CD
:10058000FFF78EBF11685018A04214D020D8216800
:1005900060188342EFD118685B680844C4E900031F
:1005A0005460EAE723680B441360E6E718685B6869
:1005B00008442060CDE72068014450188342116050
:1005C000DBD1D3E900040144C2E90014D5E7704748
:1005D0000C2328462B60BDE83840FFF761BF00BF01
:1005E0009C1200209368013B002B936005DAD2F83F
:1005F00018C0634507DB0A2905D01368581C106032
:1006000008461970704700F0B5BE00BF9BB1F8B541
:10061000134406460F46541E5D1E01E0AC4208D04E
:100620003A46304614F8011FFFF7DCFF431CF5D1B2
:10063000F8BD0020F8BD0020704700BF936810B5DA
:1006400014461BB918460023636010BD00F0B0FCCF
:100650000023A3600023636010BD00BF2DE9F04FAD
:10066000A1B08B4691461C46049018B1036A002B3A
:1006700000F04181DBF86420BBF90C30D20702D4D2
:100680009F0540F131811E0740F19A80DBF8103060
:10069000002B00F09580002343F220020D9399F87F
:1006A00000300127954E0794ADF83920002B77D004
:1006B0004D4604E015F8013F002B00F09780252BF4
:1006C000F8D1B5EB090A40F094802B78002B67D065
:1006D00000234FF0FF320135CDE9092308930B9336
:1006E0008DF863301E9306E02546089B801B07FAB1
:1006F00000F0034308932C46052214F8011B3046F2
:1007000001F0FEF8A1460028EED1089BD80644BFB0
:1007100020228DF86320190748BF2B22297848BF73
:100720008DF863202A297AD1079A116804320029AA
:100730000792C0F2AD800B9169782E2900F0868077
:100740006F4C0322204601F0DBF838B14022089BB1
:10075000001B8240134309F10109089319F8011B9A
:10076000062268488DF8381001F0CAF8002800F019
:100770009580654B002B7ED007A900915A460498BE
:10078000624B08A9AFF300800390039B013307D0AD
:100790000D9B039A13440D9399F80030002B87D1D9
:1007A000DBF8643013F0010FBBF80C3002D19A056E
:1007B00040F193805B0616D40D9821B0BDE8F08F10
:1007C0005946049800F024FE00283FF464AFDBF89B
:1007D0006430DD0707D4BBF80C309C0503D4DBF88C
:1007E0005800FFF797FE4FF0FF30E6E7B5EB090A38
:1007F000D6D009F1FF3805954546DDF8108001E0B7
:10080000A2453FD92C465A46404615F8011FFFF72E
:10081000E9FE02340130A4EB0904F1D1C0E7A1F1F3
:100820003002092A88BFA94687D80B9B00E0013413
:10083000217803EB830302EB4303A1F13002092A81
:10084000F5D92E29A1460B937FF47AAF99F80110C0
:100850002A292DD1079B09F102001A680433002AC6
:100860000793B8BF4FF0FF3399F802100992814601
:10087000B8BF099364E7079B073323F007030833E6
:10088000079385E70D99059D51442B780D911DE740
:10089000494243F002030B9108934DE707A90091E9
:1008A0005A460498194B08A900F0D2F803906CE757
:1008B0000023A1F13002092A09F1010909933FF649
:1008C0003FAF19F8011F03EB830302EB4303A1F1D0
:1008D0003002092AF5D9099332E7DBF85800FFF70F
:1008E00019FEBBF80C3065E7DBF85800FFF70AFE8D
:1008F000BBF90C30C7E600F00BFBBBE600B9000803
:1009000008B900080CB90008000000000D06000836
:100910008C4600B586461346034A714610685DF85A
:1009200004EB6246FFF79ABE000C00202DE9F84F59
:1009300092461F460A698B680C469A42B8BF1A460F
:10094000CAF8002091F843300646DDF8289013B12C
:100950000132CAF80020226891065FD5DAF800302B
:100960000233CAF80030226812F0060F11461DD17A
:10097000E1689942D8BF114618DD4FF0000804F134
:10098000190B05E0E568DAF80030ED1A45450CDD95
:1009900001235A4639463046C847013008F101085C
:1009A000F0D14FF0FF30BDE8F88F216894F8433064
:1009B000003B18BF01238A060AD53021E21882F8CD
:1009C000431094F845105A1C2244023382F8431015
:1009D0003946304604F14302C8470130E1D0D4E93A
:1009E00002202368DAF8005003F00603042B216983
:1009F0001BD08A4220DD4FF00008521A9044002597
:100A00001A3401E0454517DA0123224639463046BB
:100A1000C847013005F10105F4D1C2E712F0060F15
:100A20000DD0003B18BF0123D2E7401B8A4220EAC9
:100A3000E078E2DC0028E2DC0020BDE8F88FE16825
:100A4000DAF800309942D8BF114696DCAEE700BF15
:100A50002DE9F04717460A7E84B00C4606469846B4
:100A60000C9D01F1430C002A35D0A2F15803D9B2F4
:100A7000202969D8202B67D8DFE813F0E60066004C
:100A80006600660066006600660066006600660036
:100A90006600AC00700066006600660066007000CC
:100AA000660066006600660021008300C6006600DE
:100AB0006600B6006600830066006600EC002B68E6
:100AC0002268181D6169286010061B6802D452064E
:100AD00000F1E08019600023E14623613B46214696
:100AE0003046CDF8008003AAFFF720FF013020D068
:100AF0004A46394630462369C047013019D0236839
:100B0000E0689B07DDF80C9018D5484516DD0025F8
:100B100004F1190A04E0E068A0EB0903AB420DDD23
:100B20000123524639463046C047013005F10105E0
:100B3000F1D14FF0FF3004B0BDE8F0874845B8BFB1
:100B4000484604B0BDE8F087012084F8422004F153
:100B500042090023206184F84330BFE72A682368F4
:100B6000111D1806296002D4590600F195801068FD
:100B7000014600286268C0F293804FF00A0E534885
:100B800015E020682B6810F0800F53F8041B02D189
:100B9000400648BF89B26F2A14BF4FF00A0E4FF0CB
:100BA000080E4A482B600023626884F84330002A0C
:100BB000A26051DB236823F00403236000294BD19A
:100BC000002A7BD1E146BEF1080F56D0ACEB0903F9
:100BD000236183E72A680120116804322A6004F146
:100BE000420984F84210B4E72B6800211A1D2A60DC
:100BF000D3F800906268484600F082FE002863D077
:100C0000A0EB09006060A4E7236843F020032360A1
:100C100078222F4884F845202A6813F0800F52F874
:100C2000041B03D113F0400F18BF89B22A60DA0702
:100C300044BF43F02003236019B9236823F0200345
:100C400023604FF0100EAEE75823204884F845305B
:100C50002368E1E72368DBE77546E146B1FBF5F37E
:100C60000A4605FB131A194610F80A30AA4209F879
:100C7000013DF3D2BEF1080FA8D12368DD07A5D549
:100C8000626823699A42A1DC302309F1FF3989F8AF
:100C900000309BE719801EE7B2F90010084668E7AC
:100CA0002D20002AA26084F8430002DB23F0040315
:100CB00023600A250548AE464942CEE7037804F191
:100CC000420984F842307EE7606842E714B90008C0
:100CD00028B90008024A0349034800F0DFBA00BF00
:100CE000500C0020FD1B0008040C00200C4B416838
:100CF00010B59942044601D000F080FFA168094B6D
:100D0000994202D0204600F079FFE168064B9942F3
:100D100004D02046BDE8104000F070BF10BD00BFF9
:100D2000C0120020281300209013002008B54B6E3D
:100D3000DA0702D48B899B0501D5002008BD886D98
:100D4000FFF7E0FB002008BD08B54B6EDA0702D4C0
:100D50008B899B0501D5002008BD886DFFF7DAFB64
:100D6000002008BD2DE9F84300250423304C31490B
:100D7000DFF8C490DFF8C480314F324E0822C4F847
:100D8000381104F15C002946C4E90335C4E9005573
:100D9000C4E90555A560656600F01AFC04F1580029
:100DA000C4E90849C4E90A872663FFF7A3FB264B79
:100DB0002946082204F1C4006367C4E91A55C4E94E
:100DC0001E552567C4F8CC50C4F8805000F000FCD4
:100DD00004F1680304F1C000C4F88830C4E9239822
:100DE000C4E92576FFF786FB184B294604F5967073
:100DF0000822C4F8DC30C4E93455C4E93855C4F8D5
:100E0000D850C4F83451C4F8E85000F0E1FB04F1C4
:100E1000D003C4E93E87C4F8F49004F59470C4F894
:100E20000061C4F8F030BDE8F843FFF763BB00BFD2
:100E3000C0120020D50C0008E112000809130008B8
:100E4000491300086D130008090001001200020098
:100E5000F8B506462A48FFF755FB2A4BD3F8383138
:100E6000002B43D0284FD7E90134013B04D524E0BF
:100E70005A1C04F1680420D0B4F90C50013B002D39
:100E8000F6D1224B04F15800E3606566FFF732FBB0
:100E90001B48FFF73FFB08222946C4E90155C4E976
:100EA00004552560A56104F15C0000F091FBC4E9E4
:100EB0000D55C4E912552046F8BD3D680DB12F46C9
:100EC000D1E74FF4D6713046FFF764FA044680B19B
:100ED00004230560294625460C304FF4D072A060EB
:100EE000636000F075FB3C602F46BCE7FFF73AFFFC
:100EF000B8E703483C60FFF70DFB0C233360DAE7EB
:100F0000BC120020C0120020500C00200100FFFF86
:100F100010B504460B48FFF7F5FA236A2BB90A4BC4
:100F20000A4AD3F83831226223B1BDE8104005489F
:100F3000FFF7F0BAFFF716FFBDE810400148FFF7D2
:100F4000E9BA00BFBC120020C0120020ED0C00085E
:100F50000148FFF7D7BA00BFBC1200200148FFF7D5
:100F6000D9BA00BFBC12002008B50548FFF7CAFA7D
:100F7000BDE808400020034A034900F08FB900BFD4
:100F8000BC120020500C00202D0D000808B50020D8
:100F9000044A054900F082F9BDE808400348FFF71C
:100FA000B9BA00BF500C0020490D0008BC12002047
:100FB0009368002B00F0F0802DE9F04FB1F90CC0E0
:100FC00090461CF0080F81460C4683B02BD00B696D
:100FD0004BB31CF00207D8F8006032D04FF0000A83
:100FE0005546D4F828B0216AAB4FC5B1BD422B4657
:100FF000524628BF3B464846D847002840F3C280A7
:10100000D8F8083082441B1A2D1AC8F80830002B73
:1010100000F0AE80D4F828B0216A002DE6D1D6E9E0
:1010200000A50836E1E72146484600F0F1F900281E
:1010300040F0AD80B4F90CC0D8F800601CF0020795
:10104000CCD11CF0010A63D157462368A168184629
:101050008B46002F58D01CF4007F00F0B180B942BD
:101060000A4600F2DD801CF4906F2FD0216962697E
:101070005D1A02EB420202EBD2726B1C52103B442F
:10108000934292BF93469B461A461CF4806F00F031
:10109000E68011464846FFF77DF9002800F0F5800C
:1010A0002A462169019000F077FCA289019B22F475
:1010B000906242F08002A2815819C4F814B0ABEBE0
:1010C00005053A46BB462361A56020603D460027E2
:1010D0005146019200F0FEF9A1682368019AA1EB44
:1010E0000B011A44A1602260D8F80830AA445B1BA7
:1010F000C8F80830002B3BD02368A16818468B46FF
:10110000B4F90CC0002FA6D1D6E900A708369EE797
:101110003846BB463D46002D40D0002845D03A46D3
:10112000D4E904C32068AA4228BF2A466045A168C2
:1011300004D901EB030A524500F38280934272DC2A
:101140005A464846216AD4F828C0E047B0F1000A60
:1011500018DDB7EB0A070FD00120D8F80830D344C8
:10116000A3EB0A03A5EB0A05C8F80830002BD2D17F
:10117000002003B0BDE8F08F2146484600F03EFD58
:101180000028EAD0B4F90C3043F04003A3814FF0BB
:10119000FF3003B0BDE8F08F00207047756833461C
:1011A0000836002DFAD0D3F800B02A460A21584656
:1011B00000F0A6FB002865D00130A0EB0B07AEE7DE
:1011C00022699A4214D36569BD4211D86FF0004379
:1011D000BB4228BF3B4693FBF5F3524605FB03F3A6
:1011E0004846A56A216AA847051ECBDD7F1B7BE721
:1011F000B94228BF39460D46184651462A4600F0E6
:1012000069F9A1682368491B2B44A1602360002968
:10121000ECD12146484600F0F1FC0028E6D0B1E7C9
:10122000BB463A4652E75946019200F053F9019AFB
:10123000A36892469B1AA36023681344236088E73F
:101240005946524600F046F9236821465344484621
:10125000236000F0D3FC00283FF47BAF92E74846C0
:1012600000F010FC034600287FF426AF48462169B1
:10127000FFF75AF90C22B4F90C30C9F8002023F01A
:10128000800381E76A1C17464AE70C22B4F90C3048
:10129000C9F8002078E700BF00FCFF7F2DE9F84384
:1012A0004FF0000980460F461646D6E90154013D2D
:1012B00010D4A389012B08D9B4F90E30013304D01E
:1012C00021464046B84749EA0009013D6B1C04F13C
:1012D0006804EED13668002EE7D14846BDE8F883B1
:1012E00010B50C46B1F90E1008F086F9002803DBA2
:1012F000636D0344636510BDA38923F48053A38108
:1013000010BD00BF002070472DE9F0410C46B1F937
:101310000C101F46CB05054616460BD421F4805110
:10132000A1813B4632462846B4F90E10BDE8F04193
:1013300008F069B9B4F90E100223002208F061F92F
:10134000B4F90C10EAE700BF10B50C46B1F90E1065
:1013500008F057F9B4F90C30421C0EBF23F4805347
:1013600043F480536065A38110BD00BFB1F90E1036
:1013700008F04BB9F8B506460D46144610B1036A9D
:10138000002B37D0A269A389A2601A0719D5236957
:10139000BBB122686169D31AEDB299422F4620DDB4
:1013A0000133A1680139A160511C21601570626987
:1013B0009A420DD0A389DB0701D50A2D08D0384603
:1013C000F8BD2146304600F023F838B92369E0E73C
:1013D0002146304600F012FC0028F0D04FF0FF37D5
:1013E000EDE72146304600F009FC0028F6D1012344
:1013F0002268D6E7FFF78CFDC4E700BF03460A4624
:10140000024908681946FFF7B5BF00BF000C00206D
:1014100038B52F4B05461B680C4613B11A6A002AD3
:101420004BD0B4F90C3018071CD5226922B313F045
:10143000010107D000206169A0604942A1613AB171
:10144000002038BD980758BF6169A160002AF7D114
:10145000190658BF1046F4D543F04003A3814FF05E
:10146000FF3038BDD9062CD55A0712D4226943F073
:101470000803A381002ADAD103F42071B1F5007FBB
:10148000D5D02146284600F0F9FBB4F90C3022698A
:10149000CDE7616B51B104F14402914204D028467A
:1014A000FFF742F8B4F90C30002262630021226990
:1014B00023F02403C4E90021D9E71846FFF728FDEB
:1014C000AFE7092243F040032A60A381C7E700BFCA
:1014D000000C002088420ED98B1883420BD900EBF8
:1014E000020C002A6DD0624613F801CD994202F831
:1014F00001CDF9D170470F2A0FD8034602F1FF3C06
:10150000002A5ED00CF1010C013B8C4411F8012B38
:10151000614503F8012FF9D1704740EA01039B07A9
:1015200050D1A2F1100370B501F1200C23F00F058A
:1015300001F1100E00F11004AC441B095EF8105CC0
:101540000EF1100E44F8105C5EF81C5C103444F888
:101550001C5C5EF8185C44F8185C5EF8145CE645A8
:1015600044F8145CEAD1013312F00C0F01EB0311C3
:1015700002F00F0400EB031328D08E46043C24F045
:1015800003064FEA940C1E441C1F5EF8045B44F8EB
:10159000045FB442F9D10CF1010402F0030203EB41
:1015A000840301EB840102F1FF3C4AB10CF1010C10
:1015B000013B8C4411F8012B614503F8012FF9D14F
:1015C00070BD7047034602F1FF3C9BE72246EAE705
:1015D00070B5860747D0541E002A3ED00346CAB2D3
:1015E00001E0013C39D303F8012B9D07F9D1032C0D
:1015F0002CD9CDB205EB05250F2C1A4605EB054578
:1016000034D9A4F1100C2CF00F0603F1100EB644DF
:101610004FEA1C1CC2E90055C2E90255103272455E
:10162000F8D10CF1010214F00C0F03EB021204F0DC
:101630000F0C13D0ACF1040323F003030433134461
:1016400042F8045B9342FBD10CF003042CB1C9B205
:101650001C4403F8011BA342FBD170BD6446134632
:10166000002CF4D1F9E703461446C0E7A446E1E7AD
:1016700038B5C46B0CB1002038BD80210546FEF79B
:1016800089FE0246E86330B1031F7C3243F8044F01
:101690009342FBD1EFE74FF0FF3038BD30B51F2943
:1016A000054683B008D8C36B0C4653B153F82400E9
:1016B00043F8242003B030BD162303604FF0FF3001
:1016C000F8E780210192FEF765FE019A0346E86380
:1016D0000028F3D0011F00F17C05002041F8040F21
:1016E000A942FBD1E2E700BF1F2938B505461ED845
:1016F000C26B0C466AB152F8213053B1012B06D0AF
:10170000591C10D00021204642F824109847002090
:1017100038BD284600F0F2F8224601462846BDE8CA
:10172000384000F0D7B8162301202B6038BD1623AF
:101730004FF0FF302B6038BD1F292BD838B5C36B55
:101740000C460546A3B153F8242003EB84034AB1A9
:10175000511C0BD0012A07D0002520461D60904760
:10176000284638BD012038BD032038BD022038BDD1
:101770008021FEF70FFE0346E86340B100201A1FE8
:1017800003F17C0142F8040F8A42FBD1DBE74FF002
:10179000FF3038BD4FF0FF30704700BF38B5134BF6
:1017A0001F281D681DD8EA6B044662B152F820302C
:1017B0004BB1012B05D0591C0FD0002142F820104D
:1017C0009847002038BD284600F098F82246014688
:1017D0002846BDE8384000F07DB8162301202B6074
:1017E00038BD16234FF0FF302B6038BD000C0020B1
:1017F000114B1F2870B51E6808D8F36B04460D46C0
:101800004BB153F8240043F8245070BD16233360C5
:101810004FF0FF3070BD80213046FEF7BBFD034620
:10182000F0630028F4D00021021F7C3042F8041F2E
:101830008242FBD1E5E700BF000C002038B50B4B1E
:101840001D68EC6B0CB1002038BD80212846FEF7E6
:10185000A1FDE86338B1031F00F17C0243F8044F97
:101860009342FBD1EFE74FF0FF3038BD000C002072
:1018700038B5174B1F281D6826D80446E86BA0B161
:1018800050F8242000EB84034AB1511C0BD0012AEC
:1018900007D0002520461D609047284638BD01200E
:1018A00038BD032038BD022038BD80212846FEF710
:1018B00071FDE86340B10021031F00F17C0243F891
:1018C000041F9342FBD1DBE74FF0FF3038BD00BF70
:1018D000000C002070B50026074D0446084611464E
:1018E0002E6007F0CBFE431C00D070BD2B68002B90
:1018F000FBD0236070BD00BFFC13002007F0C8BE02
:101900005FFA81FC810744D00346511E22B909E0E9
:101910009A0709D0013905D3184602780133624588
:10192000F6D1704700207047184603290CD80029CB
:10193000F8D00346014401E08B42F3D0184613F877
:10194000012B6245F8D1704710B50CEB0C24024610
:1019500004EB044402E00439032915D9104652F877
:10196000043B6340A3F1013E2EEA030313F0803FE2
:10197000F1D00346014401E08B4208D0184613F829
:10198000012B6245F8D110BD10460029F1D100208D
:1019900010BD1146C9E700BF844641EA000313F0B9
:1019A000030349D1403A23D30B6803604B6843607B
:1019B0008B688360CB68C3600B6903614B694361CB
:1019C0008B698361CB69C3610B6A03624B6A4362B3
:1019D0008B6A8362CB6AC3620B6B03634B6B43639B
:1019E0008B6B8363CB6BC36340304031403ADBD2B7
:1019F00030320BD30B6803604B6843608B688360A5
:101A0000CB68C36010301031103AF3D20C3205D3DA
:101A100051F8043B40F8043B043AF9D2043208D0B0
:101A2000D2071CBF11F8013B00F8013B01D30B8822
:101A300003806046704700BF082A13D38B07B1D0DC
:101A400010F00303AED0C3F10403D21ADB071CBFAE
:101A500011F8013B00F8013BA4D331F8023B20F818
:101A6000023B9FE7043AD9D3013A11F8013B00F851
:101A7000013BF9D20B7803704B7843708B788370FD
:101A8000604670472DE9F041144641B30AB306465B
:101A90000D4600F07BF98442074602D8B4EB500FA4
:101AA00013D821463046FEF775FC804650B1BC4243
:101AB0002246294628BF3A46FFF76EFF29463046A0
:101AC000FEF732FD4046BDE8F081A8464046BDE83D
:101AD000F081A046FEF728FD4046BDE8F0811146A2
:101AE000BDE8F041FEF756BCF8B5B1F90C300C4634
:101AF0001E07074639D44A68002A53DDE56A002DDF
:101B000031D000223E683A6013F48052216A55D1E8
:101B100001233846A847451C024663D0B4F90C306F
:101B2000E56A216A580705D56368D21A636B0BB161
:101B3000236CD21A00233846A847421C40D000220A
:101B4000236962602360A389DB0400D56065616B53
:101B50003E6041B104F14403994202D03846FEF799
:101B6000E3FC002363630020F8BD0E69002EFAD069
:101B70009B0718BF00230D6808BF4B690E60AD1BA3
:101B80008B600CE02B463246D4F828C03846216AD8
:101B9000E047B0F1000CA5EB0C05664406DD002D16
:101BA000F0DCE0E70A6C002AA8DCDCE7B4F90C30D2
:101BB00043F040034FF0FF30A381F8BD626DB1E701
:101BC0003968B4F90C301D29F2D80B4ACA40D50740
:101BD000EED50022626022692260DA04B7D50029BE
:101BE000B4D0B4E73B68002B98D01D2B01D0162B46
:101BF000DCD13E60B7E700BF0100402038B50B697B
:101C0000CBB10C46054608B1036ABBB1B4F90C3040
:101C10008BB1626ED00701D4990512D528462146B2
:101C2000FFF762FF636E0546DA0702D4A3899B05BE
:101C30000BD5284638BD0025284638BDFFF768F982
:101C4000E4E7A06DFEF75EFCE8E7A06DFEF762FC3E
:101C5000EFE700BF014618B1044B1868FFF7CEBF8D
:101C6000034A04490448FFF719BB00BF000C0020D9
:101C7000500C0020FD1B0008040C002070B5B1F9C9
:101C80000C300C46990796B007D5012204F14703A2
:101C9000C4E90432236016B070BDB4F90E100546D5
:101CA000002929DB6A4607F0D1FC002822DB4FF42B
:101CB00080612846019EFEF76DFB88B3A38906F478
:101CC000704643F08003A3814FF48063B6F5005F54
:101CD000C4E904032060DED12846B4F90E1007F0F1
:101CE000C1FC0028D7D0A38923F0030343F00103EC
:101CF000A381D0E7B4F90C3013F0800F14BF402655
:101D00004FF4806628463146FEF744FB40B1A38974
:101D1000C4E9040643F080032060A38116B070BDBF
:101D2000B4F90C309A05B6D4012123F0030304F171
:101D3000470243F00203C4E90421A3812260AAE719
:101D400070B50C46B1F90E10154600291E4696B026
:101D50000FDB6A4607F07AFC00280ADB019B4FF490
:101D6000806203F47043A3F50053B3FA83F35B0975
:101D700007E0A289002312F0800F14BF40224FF425
:101D80008062002033602A6016B070BD51F8043CB8
:101D9000181F002BBCBF0B58C0187047032A30B463
:101DA00015D941EA0004A40784460B4604D0541E0A
:101DB0000FE0043A032A08D91946604653F8044B49
:101DC0005CF8045BA542F4D0F1E760461946541E66
:101DD0007AB1431E0139021901E09A4209D013F881
:101DE000010F11F801CF6045F7D0A0EB0C0030BC1B
:101DF0007047002030BC704753B94AB9002908BF6A
:101E000000281CBF4FF0FF314FF0FF3000F00CB83E
:101E1000ADF1080C6DE904CE08F004FEDDF804E035
:101E2000DDE9022304B07047704700BFA0F580725F
:101E3000B2F5F85F034610B421D213F4805F00F4CA
:101E4000007403F48062C0F3002003F400630BD03D
:101E500000010CB140F020000AB140F040000BB18D
:101E600040F0800010BC08470CB140F002000AB1FD
:101E700040F00400002BF5D040F00800F2E700200D
:101E8000F0E70246030906BF1846134604209A08E5
:101E90001EBF13460230C0B25B081CBF0130C0B287
:101EA0007047000010F0020F0CBF10224FF4801298
:101EB000014B9A61704700BF00080040044B1B783B
:101EC0001BB1034103F0010070471846704700BF83
:101ED000E22900200123034A834010781843107040
:101EE000704700BFE22900200123034A8340107895
:101EF00020EA030010707047E22900200123034A02
:101F00008340107858401070704700BFE2290020CD
:101F100001F00703C90830B501EB41010124013983
:101F20000A4400219C40E4B212F8015F20FA01F358
:101F300043F300036B40234001315D4003291570DA
:101F4000F2D130BD002210B500F00704C00800EB4C
:101F50004000014410468B5CE34003F001039340D2
:101F600001321843032AC0B2F5D110BD17B40C4694
:101F7000C1B2C0F3072005280BD80E290FD8C0EB3B
:101F800000100144074A89B2204603B010BCFFF795
:101F9000BFBF031DDBB2012B01D8034AF4E703B036
:101FA00010BC7047A3290020A0290020C3B2C0F3B1
:101FB0000720052882B009D80E2B0ED8C0EB0010E0
:101FC0001844074980B202B0FFF7BCBF0430C0B26A
:101FD000012802D818460349F5E7002002B07047EF
:101FE000A3290020A029002030B50124084D04FABF
:101FF00001F12B7804FA00F00843C1B21840814285
:1020000004FA02F406BF2343DBB2A3432B7030BDB6
:10201000E2290020054B064A1B7812789A4200D12B
:102020007047013303F00703F8E700BFE8290020F9
:10203000E729002010B509490B7823EA000010F0C9
:102040000704087009D1984207D0054B5B785B07FD
:1020500003D5C008FFF748FF0C7010BDE32900202E
:10206000E4290020F0B5144B144E1878144B357841
:102070001B781843E5B1134B9B78012B19D1124BF8
:10208000124993F90030002B114BB2BF1E270627CF
:1020900019460C46002214F8013B0BB10132D2B2B2
:1020A0003B1B0B4413F0FF03F5D102B133702843FF
:1020B000F0BD06270649ECE7DE290020DF290020D5
:1020C000E629002048120020E429002016180020EC
:1020D0000E180020024A137823EA00031370704799
:1020E000DE290020E7284FD8DF2807D8312864D020
:1020F0000ED8292857D02A2866D07047A0F1E003CF
:10210000072B41D8DFE803F01540232831403C413C
:10211000392804D0822802D035283FD07047324B6E
:102120001A7892071FD15B7813F0080F18BF292087
:1021300070472D4A1378D9074DD4527812F0010F09
:1021400022D013F0100F14BF0020E3207047264B5D
:102150001B7813F0040FF3E7234A137859073CD494
:102160005278D207EDD5E02070471F4B5A7891077F
:102170000AD51B7813F0100F14BF0020E72070471A
:10218000194B1B781A07F5D47047174A13781907AB
:1021900025D452789107EDD5E4207047124B1B7877
:1021A00013F0200FC2E7104B1A78920619D45B780F
:1021B00013F0080F18BF392070470B4B1B7813F032
:1021C000400F18BF2A207047074B1B7813F0400FB1
:1021D00018BF3120704739207047E2207047E62051
:1021E00070473520D0E700BFE429002010B5304CFF
:1021F00021784B0713D500F01402A2F1040C00F073
:102200001803DCF1000242EB0C02A3F1080CDCF134
:10221000000343EB0C039A4218BF80F00C000B073D
:1022200013D500F01402A2F1140C00F01803DCF135
:10223000000242EB0C02A3F1180CDCF1000343EBAB
:102240000C039A4218BF80F00C006478E30713D5A2
:1022500000F0110202F1FF3C00F01803DCF1000273
:1022600042EB0C02A3F1080CDCF1000343EB0C037E
:102270009A4218BF80F00900A30711D500F011029F
:1022800000F01803A2F111046242A3F1180C62419C
:10229000DCF1000343EB0C039A4218BF80F0090005
:1022A000CA0603D5030748BF00F0E70010BD00BF12
:1022B000E429002038B5FFF715FFB0F5A44F044618
:1022C00043D2B0F5A04F80F0AE80DF2816D8CC28DE
:1022D00000F28C80A7280AD8A42879D8012804D035
:1022E000031F9BB2A12B28BF0024204638BDA0F1BC
:1022F000A8039BB21A2B71D90024F6E7B0F5804FE2
:1023000019D2B0F5005F80F0A180E728EDD9A0F5E3
:1023100080739BB2B3F5F85FEED2C0F30720FFF7EE
:1023200065FF0546E0B2FFF7DDFE2D0205F4F85526
:1023300040EA050450E0C0B2FFF7D4FE04F4706434
:10234000204340F4204084B2CFE7B0F5A54F22D21D
:1023500045F25F23984253D845F23F2398420FD865
:1023600045F21F23984244D8012300F00304C0F330
:102370008502A34043EA421343F40D439CB2B4E701
:10238000012300F00304C0F38202A34043EA421396
:1023900043F40C43F2E745F2BF2398420AD845F2D2
:1023A0009F23984200F01F0035D84AF2F40343EA15
:1023B00000249AE7A0F5A543403B9BB21F2B9BD876
:1023C000040204F4F85444F4204444F0F0048CE78C
:1023D000A0F1240444F48044A4B286E7234B58348B
:1023E000E4B233F8144044F488447EE740F4A04457
:1023F000F2E74AF2F10300F01F0443EA042474E711
:10240000012300F00304C0F38202A34043EA421315
:1024100043F40A43B2E7FFF7E9FE040204F4F85478
:1024200044F4005461E700F01F00FFF7DFFE03B241
:10243000C20648BF1B01C4F343144FEA042448BF3B
:1024400003F0F0031C4344F41044C5E7C0F3042038
:10245000FFF7CCFE0546E0B2FFF744FE2D0205F47F
:10246000F855054345F40055ACB23EE78EB7000879
:10247000002070470020704730BFFDE710B50446CC
:1024800010B9C90FC80110BD80EAE072A2EBE0727A
:1024900012B2002901EB02030CDB891A490191FBFE
:1024A000F3F1C1F120014BB2D8B2002CBCBF4042C5
:1024B000C0B2E8E75B01521A93FBF2F3C3F1600389
:1024C0005BB2F1E7144B84B003EB4103E52193F8D1
:1024D0005A3001904B43C2EB13231C33002BC0F343
:1024E0000720B8BF5B42A0EBC3031BB223EAE37330
:1024F00000FB033300201B128DF80530019BDAB27C
:1025000062F30700C3F3072262F30F20C3F307430C
:1025100063F3174004B0704740B60008144B84B012
:1025200003EB4103E52193F85A3001904B43C2EB92
:1025300013231C33002BC0F30740B8BF5B42A0EB52
:10254000C3031BB223EAE37300FB033300201B1217
:102550008DF80630019BDAB262F30700C3F307225D
:1025600062F30F20C3F3074363F3174004B07047CF
:1025700040B6000830B5C0F3072585B0EB1A0190CE
:102580001046DCB2FFF77AFFC0EB801300EB83004C
:1025900023180020DBB205FB03331B128DF8053036
:1025A000019BDAB262F30700C3F3072262F30F2044
:1025B000C3F3074363F3174005B030BD30B5C0F334
:1025C000074585B0EB1A01901046DCB2FFF756FFC5
:1025D000C0EB801300EB830023180020DBB205FB67
:1025E00003331B128DF80630019BDAB262F3070049
:1025F000C3F3072262F30F20C3F3074363F31740CB
:1026000005B030BD30B585B0C0F3072501909DF809
:1026100020001C1A1046FFF731FF2C44E4B2231AA5
:102620000020DBB205FB03331B128DF80530019B44
:10263000DAB262F30700C3F3072262F30F20C3F399
:10264000074363F3174005B030BD30B585B0C0F324
:10265000074501909DF820001C1A1046FFF70EFF59
:102660002C44E4B2231A0020DBB205FB03331B1217
:102670008DF80630019BDAB262F30700C3F307223C
:1026800062F30F20C3F3074363F3174005B030BD77
:1026900084B0019000208DF80420019BDAB262F32F
:1026A0000700C3F3072262F30F20C3F3074363F36A
:1026B000174004B07047000084B0019000200B4B1D
:1026C00003EB410393F85A309B1A8DF80430019BB9
:1026D000DAB262F30700C3F3072262F30F20C3F3F9
:1026E000074363F3174004B0704700BF40B60008CB
:1026F00084B0019000200B4B03EB410393F85B3057
:102700009B1A8DF80430019BDAB262F30700C3F321
:10271000072262F30F20C3F3074363F3174004B0AB
:10272000704700BF40B60008144B2C3130B503EBA6
:102730004104E57803EB4103A5F1200464B29B78E2
:10274000002CB8BFC5F1200585B0B8BF6CB29A1A8D
:1027500001902244C0B210448DF804000020019B77
:10276000DAB262F30700C3F3072262F30F20C3F368
:10277000074363F3174005B030BD00BF40B6000803
:1027800084B0019000209DF8102003EB430302EB7E
:1027900053038DF80430019BDAB262F30700C3F3F0
:1027A000072262F30F20C3F3074363F3174004B01B
:1027B00070471FB5019010461C46FFF75FFE0319D6
:1027C00000208DF80430019BDAB262F30700C3F3F6
:1027D000072262F30F20C3F3074363F3174004B0EB
:1027E00010BD1FB501909DF818001C1A1046FFF788
:1027F00045FEE4B2241A00208DF80440019BDAB2B1
:1028000062F30700C3F3072262F30F20C3F3074309
:1028100063F3174004B010BD84B0019003F12C00A5
:10282000104B03EB4003D8789B782038703B4B4328
:1028300002FB003200209DF80430002AB8BF7F322E
:1028400003EBE2138DF80430019BDAB262F3070068
:10285000C3F3072262F30F20C3F3074363F3174068
:1028600004B0704740B6000884B0019003F12C001A
:10287000104B03EB4003D8789B782038703B4B43D8
:1028800002FB003200209DF80430002AB8BF3F321E
:1028900003EBA2138DF80430019BDAB262F3070058
:1028A000C3F3072262F30F20C3F3074363F3174018
:1028B00004B0704740B600081FB5164C2C3304EB2B
:1028C0004304E378A478203B5343A4F1700252B24E
:1028D000002ABCBFC4F1700462B2C2F1380201FB2D
:1028E000023111EB4101019048BF7F31C0B200EBD2
:1028F000E1108DF804000020019BDAB262F30700BA
:10290000C3F3072262F30F20C3F3074363F31740B7
:1029100004B010BD40B60008114B84B003EB410376
:1029200093F85A1001908B1A5BB2002BBCBF521A5D
:1029300053B21922DBB25343C0B200EB13208DF81F
:1029400004000020019BDAB262F30700C3F3072200
:1029500062F30F20C3F3074363F3174004B07047DB
:1029600040B60008FF2928BFFF21C94384B0019069
:10297000C9B2C0F3074000FB0111002009128DF815
:102980000610019BDAB262F30700C3F3072262F379
:102990000F20C3F3074363F3174004B07047FF29C8
:1029A00028BFFF21C94384B0C9B2019001EB811156
:1029B000C0B200EB11208DF804000020019BDAB2B8
:1029C00062F30700C3F3072262F30F20C3F3074348
:1029D00063F3174004B0704784B003EB8302BDF883
:1029E0001030019013449BB2FF2B28BFFF23DB4321
:1029F000C0F30740DBB20344FF2B28BFFF230020B6
:102A00008DF80630019BDAB262F30700C3F30722A8
:102A100062F30F20C3F3074363F3174004B070471A
:102A200010B485B0BDF81840069405B010BCFFF78F
:102A3000D3BF00291FB5B8BF4942002AB8BF5242D0
:102A400009B2090112B2FF294FEA0212A8BFFF2101
:102A5000FF2AA8BFFF22BDF8184009B2234412B2D2
:102A60009BB29142D4BF5B189B189BB2FF2B28BF2F
:102A7000FF23DB430190DBB2C0F307400344FF2B8D
:102A800028BFFF2300208DF80630019BDAB262F3E5
:102A90000700C3F3072262F30F20C3F3074363F376
:102AA000174004B010BD10B485B0BDF818400694AE
:102AB00005B010BCFFF7BDBF1FB5482B0190C0F398
:102AC000074030D8BDF81840E31A9BB2FF2B28BF4F
:102AD000FF23083189B2102905D902F1080189B212
:102AE000112928BFFF23DB43DBB21844002AB8BFFB
:102AF0000332FF2828BFFF208DF8060000200B4975
:102B0000497801EBA2028DF80420019BDAB262F34E
:102B10000700C3F3072262F30F20C3F3074363F3F5
:102B2000174004B010BDFF23D3E700BFD029002019
:102B300010B485B0BDF81840069405B010BCFFF77E
:102B4000BBBF84B0BDF81020C0F30741D31A9BB2BD
:102B5000FF2B28BFFF23DBB2DA43D2B21144FF2997
:102B600028BFFF210190034400208DF804308DF828
:102B70000610019BDAB262F30700C3F3072262F387
:102B80000F20C3F3074363F3174004B0704784B0CA
:102B9000BDF810200190D31A9BB2FF2B28BFFF2352
:102BA000DB43C0F30740DBB20344FF2B28BFFF2306
:102BB00000208DF80630019BDAB262F30700C3F300
:102BC000072262F30F20C3F3074363F3174004B0F7
:102BD00070470000024B1A7810431870704700BF0E
:102BE000AD28002000F056B908B5074B074A187009
:102BF000074B1B78C3F30103137000F059F903224C
:102C0000044B1A7008BD00BFB30E0020B20E0020A6
:102C1000D0290020AE0E0020044A137883F001036F
:102C200013700022024B1A70FFF7D4BFD029002086
:102C3000AE0E0020064A137813F0030304BF0549C3
:102C40000B700121137861F301031370704700BF0B
:102C5000D0290020AE0E0020054B1A7892071EBF27
:102C60000021044A11701A7822F003021A7070478A
:102C7000D0290020AE0E00200C4A034608461178E9
:102C8000890711D063B12B2B0CD803F03F031178C7
:102C900063F3870111700022054B1A70FFF79ABF8A
:102CA0000123F4E72B23F2E7704700BFD02900206F
:102CB000AE0E00200021FFF7DFBF0000054B0146EC
:102CC0001B789B0801332C2B34BF18460120FFF7DB
:102CD000D3BF00BFD0290020064B01461B78C3F3A9
:102CE0008503013B13F0FF0314BF18462B20FFF7A9
:102CF000C3BF00BFD029002030B4074C054618469A
:102D000023789B0705D06570A170E27030BCFFF797
:102D100061BF30BC704700BFD02900200349034683
:102D20004878CA7808308978FFF7E6BFD0290020B4
:102D3000054910B44C780346083CCA78A0B289789B
:102D400010BCFFF7D9BF00BFD029002010B4064C3B
:102D50000346A178E2781031FF2928BFFF2160786F
:102D6000C9B210BCFFF7C8BFD029002010B4064C70
:102D70000346A178E278103921EAE1716078C9B29E
:102D800010BCFFF7B9BF00BFD029002010B4064C1B
:102D90000346E278A1781032FF2A28BFFF2260782C
:102DA000D2B210BCFFF7A8BFD029002010B4064C47
:102DB0000346E278A178103A22EAE2726078D2B251
:102DC00010BCFFF799BF00BFD0290020044A137937
:102DD0001033FF2B28BFFF231371FFF7FBBE00BF8B
:102DE000D0290020034A1379103B23EAE3731371BF
:102DF000FFF7F0BED0290020054A01205379A3F146
:102E0000FF014B424B410349CB5C5371FFF7E2BEDC
:102E1000D029002090B40008054A01205379A3F17D
:102E2000FF014B424B410349CB5C5371FFF7D2BECC
:102E3000D029002090B40008054BC1F180411869E9
:102E400001F2074101F00F01C84000F00100704796
:102E500000040040C1F10301490040FA01F30222DD
:102E600013F0010F14BF0E2308238A4002421ABF39
:102E7000A3F12000C0B243F08000704730B5044D8C
:102E800000EB40002C1861702A54A37030BD00BFC5
:102E9000301D002070B5134605460E46002420461E
:102EA000324629460134FFF7E9FF512CF7D170BDB6
:102EB0002DE9F84F08272B4D2B4C002695F800B034
:102EC00095F801A095F80290A4F1080831465846FB
:102ED000FFF7C0FF0136042E08F8010FF6D10026D7
:102EE000A4F1040831465046FFF7B4FF0136042E22
:102EF00008F8010FF6D1A046002631464846FFF7F4
:102F0000A9FF0136042E08F8010FF6D10C37B7F5EA
:102F1000757F05F1030504F10C04CED1302383F352
:102F200011880323114A00211370114B916213621F
:102F30004FF488635362D362138ED2695B08B3F592
:102F4000886F28BF4FF488639361013BD361D36AD4
:102F500043F01103D3620123936081F31188BDE82C
:102F6000F88F00BF301D0020FB180020B41E002089
:102F7000F018002000EB4003C3EB031300EB8300C9
:102F800083B200B2002807DA803800B2002800DAE5
:102F9000FF3040F30720704703F18000F9E700009D
:102FA0000E4B1B78D90710D49A0710D45B0710D4A6
:102FB0000B4B1B787BB11D2B4FF0500003D84343C4
:102FC0001E20B3FBF0F0C0B270471420FBE72820AE
:102FD000F9E75020F7E70820F5E700BFC7290020F0
:102FE000C92900200F4B1B78D90710D49A0710D499
:102FF0005B0712D40C4B187868B127280DD828230A
:10300000C000B0FBF3F050B180B2C0B270470220F4
:10301000FBE70420F9E70120F7E70820F5E70120A6
:10302000704700BFC7290020C829002008B5A0F1BB
:10303000CD03122B10D8DFE803F00A1013192E2E3F
:103040002E2E2E2E2E2E1C21252B363C4100FFF736
:10305000A7FF40421C4BD87008BDFFF7A1FFF9E75E
:10306000FFF79EFF4042184B9870F5E7FFF798FF77
:10307000F9E7FFF7B7FF144B1871EDE7FFF7B2FF61
:103080004042F8E7FFF7AEFF40420F4B5871E3E7CD
:10309000FFF7A8FFF9E701230B4AD13851788340A5
:1030A0000B435370D8E7094A137843F001031370B8
:1030B000D2E7064A137843F00203F8E7034A13788D
:1030C00043F00403F3E700BFCA290020C72900200A
:1030D00030B5414BCD2893F9035093F9024093F951
:1030E000041093F9052012D1002D01DA0022DA70C4
:1030F000D9789A780A4351B20AB9384A11701A79C4
:103100005B7913435AB20BB9354B1A7030BDCE28D8
:1031100002D1002DEADCEBE7CF2804D1002CE7DA5E
:1031200000229A70E4E7D02802D1002CF8DCDFE717
:10313000D92804D10029DBDD00221A71D8E7DA286A
:1031400002D10029D4DAF7E7DB2804D1002ACFDA4C
:1031500000225A71CCE7DC2802D1002AF8DCC7E74C
:10316000D1380E28C4D801A252F820F0A9310008A5
:10317000A9310008A9310008A9310008A9310008C7
:10318000A9310008A9310008A9310008F130000870
:10319000F1300008F1300008F1300008B7310008C4
:1031A000C3310008CD31000801215A78814022EA5C
:1031B00001025A709CE70B490A7822F001020A705A
:1031C00096E708490A7822F00202F8E705490A78EA
:1031D00022F00402F3E700BFCA290020C929002019
:1031E000C8290020C72900200246022A084670B5D7
:1031F00028D80021144B9D1D03EBC10466793607C6
:1032000005D515F83160964201D1204670BD0131D7
:103210000329F1D10028F9D059790C07C1F3C00076
:1032200006D5597B08070BD5597D09070AD402201A
:1032300003EBC0004379827143F008034371E5E773
:103240000120F5E70020E1E7D818002002B110477F
:1032500070470000034B1B6813B11B6803B118478C
:1032600000207047942900200B4B07B51A88824232
:103270000FD01880094B1B685BB11B694BB103224F
:103280008DF80500000A8DF806008DF8042001A8CD
:10329000984703B05DF804FBD6180020942900205D
:1032A0000C4B07B51A88824210D018800A4B1B6855
:1032B00063B11B6953B104228DF80500000A8DF833
:1032C00006008DF804200DEB0200984703B05DF86E
:1032D00004FB00BFD418002094290020034B1B6876
:1032E00013B15B6903B11847704700BF94290020F0
:1032F00010B5164B9B78012B11D1154A92F900207D
:10330000002A0CDAEF284FEAD00107D8114A00F062
:1033100007000A44917883400B43937010BD00224C
:103320004FF0FF330C4911F8014FA042F6D0B3F132
:10333000FF3F01D104B953B20132062AF3D15A1C1E
:10334000ECD0064A13449870E8E700BF481200200A
:10335000E4290020141800200D1800200C1800206B
:1033600010B5124B9A78012A12D1114B93F9003003
:10337000002B0DDAEF284FEAD00108D80D4B00F0F2
:1033800007000B449978824021EA02029A7010BD2E
:1033900006230021084A12F8014F013B844208BF6E
:1033A000117013F0FF03F6D1F1E700BF48120020BF
:1033B000E4290020141800200D180020014B587833
:1033C000704700BF48120020BFF34F8F0549064BDE
:1033D000CA6802F4E0621343CB60BFF34F8F00BFB3
:1033E000FDE700BF00ED00E00400FA057FB5002313
:1033F0003A4C636090F8471090F8462042EA012268
:1034000090F8481090F8490041EA0021100A03287A
:1034100014D00DD801285AD002280DD15B23304A90
:10342000002A2E4808BF10466260236004B070BDB9
:1034300021283DD0222842D01A46F1E7D3B2032BEF
:1034400006D8DFE803F04702070A0623254AE7E724
:103450000023F1E72A23244AE2E7244B244E1D7877
:103460001DBB012229461A7068461022FEF7B0F8EB
:103470002946204804AB03EB610313F8102C06EB3C
:1034800041031509455D02F00F029D700025825C25
:10349000DD704B1C023106EB430320299A70DD706E
:1034A000E8D142233370032373703378104AB7E7AF
:1034B0000229C1D8104B53F821200923B0E7022973
:1034C000BAD80E4B53F821200D4B5B5CA8E71223B2
:1034D0000C4AA5E704230C4AA2E700BFCC18002041
:1034E0005CB0000850B0000824B000088618002026
:1034F0008718002013B00008D8B00008CCB000082E
:10350000C9B00008B7B0000858B0000890F84A20C9
:1035100090F84B00084942EA0022022A0B7807D1B2
:10352000012B01D0062B05D14A78044B5A70704705
:10353000024A5370704700BF8418002048120020D0
:1035400070B590F84410044601F07F03212B40F041
:103550009B8011F0800F90F8453055D0022B37D06A
:10356000032B27D0012B4FD190F8483090F846100C
:10357000022B00F2AD80082900F2AA80584AD25CE2
:10358000022A00F2A580A820564B00FB0233D3F894
:10359000A430002B00F09C80534D5E6818682A46CA
:1035A000B04705F10803A363AB6C0022E363226418
:1035B000012070BD90F8482090F8493052EA03226B
:1035C00062D14A494A4B8978836319700123EDE738
:1035D00090F8483090F84610022B79D8082977D80F
:1035E0003F4AD25C022A73D8A8203E4B00FB02332C
:1035F000D3F8A430002B6BD05A69186890473D4B24
:103600001870A3630123D0E70A2B22D00B2B0FD015
:10361000092B39D194F8483094F8492043EA022321
:1036200023F0020383BB344B344AA3630223BDE778
:1036300094F8483094F8492053EA022306D194F8CC
:1036400046302A4A003B18BF012393700023A3632E
:10365000ABE7264B94F8472094F846101A7094F87C
:103660004830022B34D8082932D81D48C05C0228C3
:103670002ED8A8251B4B05FB0033D3F8A4303BB351
:103680001D691868A847E1E701F09F01812916D15B
:1036900094F84530062B12D194F84920616894F8CB
:1036A00048304D6843EA0223204694F8472094F8B6
:1036B0004610A84760B14368A363036875E7032514
:1036C000084ED6F89C302BB9013D06F1A806F8D17A
:1036D00000206EE7204698470028F5D068E700BF35
:1036E00010B00008D40E002034180020481200202A
:1036F0008118002080180020841800200D35000853
:10370000302383F31188026943699A4210D1C36858
:1037100083B10123D0F8882090F88C1012898B4057
:1037200013420CBF01200020002383F3118870474F
:103730000020F9E71846F7E7036843B191001960E4
:1037400003490B78002A18BF43F001030B70704740
:10375000AC280020006810B10068C0F387007047F3
:10376000036870B50BB9002070BD302383F3118856
:10377000036800211C685B6881F31188002CF2D07B
:103780004FF47A76074A0848D569084AED1AE5FBEE
:1037900006010023FEF730FB84428CBF002001208D
:1037A000E2E700BF102900209F860100A0860100EB
:1037B0004B1E072B0BD850F8213043B191001960F4
:1037C00003490B78002A18BF43F001030B707047C0
:1037D000AC280020082906D850F8210020B1006844
:1037E000C0F387007047002070470000082970B5BB
:1037F00001D9002070BD50F82130002BF9D03023C2
:1038000083F3118850F8213000211C685B6881F334
:103810001188002CEDD04FF47A76074A0748D56915
:10382000074AED1AE5FB06010023FEF7E5FA84429C
:103830008CBF00200120DDE7102900209F860100B9
:10384000A0860100034610B51B68984203D09C680F
:103850008A689442F8D25A680B604A6011605960D5
:1038600010BD000010B51C4B9B78012B1ED11B4BCB
:1038700093F90030002B19DAFEF7F4FB184C2022E4
:10388000607018492046FEF789FA20B320222146AD
:103890001448FEF781F8144B1B68E3B19B68D3B161
:1038A000062222702046BDE810401847FEF7DAFBDA
:1038B0000E4C082220700E492046FEF76FFA50B1D8
:1038C000082221460A48FEF767F8074B1B6813B128
:1038D0005B68002BE6D110BD48120020E4290020CF
:1038E0001418002072290020942900200C180020B0
:1038F0009829002038B51C4B1B78D3B19378C3B1FD
:1039000014785578844201D0854212D185424C7991
:103910000CBF012100211144CC7014BF01210021F2
:103920005018C07828B1022B05D014D9D81E012810
:103930000CD9012038BD505C2CB9FFF7D9FCFFF73A
:1039400091FF0020F6E7FFF70BFDF8E7033B18BFF8
:1039500001239942F5D0505C14B9FFF7C9FCE8E7A0
:10396000FFF7FEFCE5E700BF5712002028B1034B2C
:103970001A7810431870FFF775BF7047DE290020D2
:1039800008B528B1FEF7A6FBBDE80840FFF76ABFFF
:1039900008BD000028B1034B1A7810431870FFF7D8
:1039A00061BF7047E629002030B1044A137823EA4A
:1039B00000031370FFF756BF704700BFE6290020D1
:1039C000006810B440B1054C8264E469083040F8E6
:1039D000044C10BCFDF7E0BF10BC7047102900205C
:1039E0000168134631B18A6C03F108009A6408310A
:1039F000FDF7D2BF7047000010B40C78082C0BD82C
:103A000050F8240040B1054C8264E469083040F865
:103A1000044C10BCFDF7C0BF10BC7047102900203B
:103A20000829134609D850F8211031B18A6C03F1E6
:103A300008009A640831FDF7AFBF704710B50C4617
:103A4000826801692046FFF701FC094AE178137892
:103A5000207923EA01031370FEF73CFBFFF702FF16
:103A60002046BDE8104008220021FDF7B1BD00BF8F
:103A7000E629002038B54B7905469A070C4613D441
:103A8000104A43F002034B71CB7811780B4313704B
:103A90000D4A237911780B431370FFF7E3FE20469C
:103AA0006A682969FFF7D2FB0022084B1A80637904
:103AB000DB0705D421462846BDE83840FFF7BEBFE6
:103AC00038BD00BFE6290020DE290020322A002070
:103AD000084B9B78012B09D1074B93F90030002B41
:103AE00004DA1E2200210548FDF772BD06220021DE
:103AF0000348F9E748120020E429002016180020A6
:103B00000E18002010B50446006840B1826C0021F8
:103B10000830FDF75DFD002223681A605A6010BD71
:103B200070B50026051F00F1200455F8040F38B1C8
:103B3000826C00210830FDF74BFD2B681E605E6033
:103B4000A542F2D170BD002307B501220DF1070196
:103B50008DF8073006F08EFD9DF8070003B05DF884
:103B600004FB38B52520FFF7EEFF05462620FFF7BA
:103B7000EAFF04462720FFF7E6FF262D06D1052C95
:103B800004D1A0F125035842584138BD0020FCE77C
:103B9000052838B517D8052915D80E2A13D81E239D
:103BA000540003FB0144B42303FB004404F1290047
:103BB000FFF7C9FF050204F12A00FFF7C4FFADB209
:103BC000284380B238BD0020FCE72DE9F84300F21D
:103BD000794805460F461646444640F28639A4EB1E
:103BE00008039BB2BB4201D3BDE8F8832B444B458D
:103BF00006D82046FFF7A7FF06F8010B0134EEE7D1
:103C00000020F9E713B50446012100680DF1070211
:103C1000FFF7DBFF23689DF807000133236002B044
:103C200010BD800070B500F2614481F001000E46C5
:103C300004EB4000FFF787FF002E4FEA00250CBF82
:103C4000032001202044FFF77EFFADB2284380B25D
:103C500070BDCAB2C1F30721052982B006D80E2A69
:103C600014D8052812D802B0FFF792BFFD2906D15B
:103C700062B905280AD8012102B0FFF7D2BFFC299A
:103C800004D11AB9052801D81146F5E7002002B081
:103C9000704700007FB505240F4BADF804001E7877
:103CA0000E4B1B781E4346FA04F3DB0705D4013C98
:103CB000F9D20025284604B070BDBDF80430E5B245
:103CC000ADF80C3003992846FFF7C3FFFEF7F2FA70
:103CD00080B20128EBD0EDE7E2290020E1290020A5
:103CE00013B502884379ADF80420019873B169B126
:103CF000FFF7D0FF044601460198FEF737F920464A
:103D0000019902B0BDE81040FFF7A3BFFEF74EF9DE
:103D10000446F4E71FB5ADF804000198FFF7BAFFB9
:103D2000BDF80430ADF80C300399FFF792FF05B0F1
:103D30005DF804EBFEF7BEBA08B503460079A8B1FA
:103D40001888FFF7E7FFC3B2C0F30330062813D08B
:103D500094BF0E30063000F00F00012810D8F02B71
:103D600010D004D8E72B8CBF0020012008BDF42B15
:103D700014BF00200120F9E7E72B03D9F12BF7E767
:103D80000020F3E70120F1E708B52820FFF7DBFE6C
:103D900008BD002307B502220DF10601ADF806307B
:103DA00006F068FCBDF8060003B05DF804FB0146B0
:103DB0000822012006F0CEBA01462022002006F09B
:103DC000C9BA01460622002006F0C4BA0146032201
:103DD000002006F0BFBA40290A4603D1014602205E
:103DE00006F0B8BA704737B5406BD0F888402378F2
:103DF000042B13D1012390F88C502289AB4013423D
:103E00000CD101A905F08FF8024638B129462046A9
:103E1000019B03B0BDE8304005F006BA03B030BDE9
:103E200008B50846302383F311880A7D0023052A4C
:103E300006D8DFE802F00B050503120E8269136055
:103E40004FF0FF33836106F021FA002383F31188DA
:103E500008BD826993680133936042680368136008
:103E60005A60EDE7F8B50D4606461446D31D23F01B
:103E7000070300AFADEB030D6946284606F0FAFBD9
:103E8000224669463046FDF789FF20B12246314679
:103E9000284606F08DFBBD46F8BD0000082208B597
:103EA00017210348FFF7DEFF0022024B1A7008BDFE
:103EB000D0290020AD28002010B5084C052320464D
:103EC000032200F8013B0649FDF766FD4FF67F73BC
:103ED000A380BDE81040FFF7E1BF00BFD02900205C
:103EE000C4AC0008F0B585B0102200216846FDF78B
:103EF0006FFB392440F2873540F27947102D2E466A
:103F000028BF1026394632466846FFF7ABFF013C12
:103F10003744A5EB0605F1D105B0F0BD37B50C4629
:103F20000546FFF710FEA04207D0012228460DF1FA
:103F300007018DF8074006F03BFB03B030BD0528B4
:103F400038B51D4616D8052914D80E2A12D81E23B6
:103F5000540003FB0144B42303FB0044290A04F189
:103F60002900FFF7DBFFE9B204F12A00BDE8384081
:103F7000FFF7D4BF38BD052870B516461D4614D8C6
:103F800099B9800000F2614482F0010004EB400026
:103F9000190AFFF7C3FF002E0CBF03200120E9B26E
:103FA0002044BDE87040FFF7B9BF70BD2DE9F84F60
:103FB0000025DFF87880DFF878A0D1460027ECB242
:103FC00011E0052D14BF39F816300123F2B259461D
:103FD00020460136FFF7B3FF0F2EF2D10137062F2F
:103FE00009F11E091DD000265FFA87FBE9E7B8F842
:103FF0000030012200212046FFF7BDFF0022052CE2
:1040000014BFB8F802300123114620460135FFF7EE
:10401000B2FF062D08F104080AF1B40ACDD1BDE8BB
:10402000F88F052CE3D10123E3E700BF68B4000853
:10403000E4B0000808B5FF212520FFF76FFFFF213E
:104040002620FFF76BFFFF212720FFF767FF0021E6
:104050002820FFF763FFFFF7A9FFFFF743FF2621A3
:104060002520FFF75BFF05212620FFF757FFBDE85E
:10407000084025212720FFF751BF37B50C460546DC
:10408000FFF787FEA04207D0022228460DF1060165
:10409000ADF8064006F08CFA03B030BD018804206C
:1040A000FFF7EBBF0246094808B54378C3F3800128
:1040B000914209D062F382034370FFF7EFFFBDE83E
:1040C00008400220FDF7B6BF08BD00BFE42900206C
:1040D00007B506F0F1FA4FF6E3610020FFF7CDFFD8
:1040E00000210220FFF71AFF01210D4B0320197058
:1040F000FFF714FF4FF4A05301A8ADF80430FFF709
:10410000CDFFFFF7D9FEFFF795FF0F2006F0C0FAAD
:10411000132006F0BDFA03B05DF804EBFFF7BEBE56
:10412000E1290020002208231146014806F01CBCAA
:104130000C080040F7B51F464BBA090C0646154659
:104140008DF80400ADF806308DF80510FFF7EAFF92
:10415000E8B104210DEB010006F03AFC044648B931
:1041600045B1022E0BD0032E0ED12846B9B206F06F
:1041700039FC044606F040FC204603B0F0BD28465A
:10418000B9B206F025FCF4E74FF0FF34F2E74FF048
:10419000FF34F1E710B40346006F0278042A12D10D
:1041A000012293F8741044898A4022420BD11A6983
:1041B0005C69A24201D1DC682CB9DB6910BC043B0C
:1041C000043205F009B810BC7047406BFFF7E2BF3E
:1041D00008462DE9F843052900F2D980DFE811F0FF
:1041E000AD00D7000600AD00AD00D900302383F349
:1041F000118800273E466F4D6F4CD5F8883095F8F2
:104200008C90E86C03EB890805F13803C8F80C3092
:1042100018B114220021FDF7DBF9286D18B1142222
:104220000021FDF7D5F9D8F80C2009F00F01A17392
:10423000136803F00303002978D0022B4DD0032B21
:104240004BD0012B25D153690BB993690BB3E020F7
:10425000594B4FF0010C9874108A0CFA01F1C0F31D
:10426000C700187440205874082058745874D879BE
:10427000C9B20843D871C0205875528AC2F3C70228
:10428000DA7480221A7510221A751A755A7A114337
:1042900059722846013706F052F8032F2E7205F1A5
:1042A000A805AAD1454C636A204663612361E66094
:1042B000A662E66206F034F820462672FFF76AFF2F
:1042C00086F311883E4B1B7813B1052006F0F2F8F7
:1042D0000220BDE8F84306F0EDB8536983B100232E
:1042E000A374138A0120C3F3C703237440236374A8
:1042F000082363746374E37988400343DBB2E3719A
:104300009369002BC5D000232B484375538A0122A3
:10431000C3F3C703C37480230375102303750375A8
:10432000437A8A401343DBB24372B2E7002BB0D129
:10433000E37943F00103E371ABE706F0BBF8302308
:1043400083F31188032501261A4C2046267205F0B6
:10435000E7FF204605F0F3FFD4F8A43013B1DA6884
:1043600018689047013D04F1A804EED10123134CD5
:104370002046237205F0D4FF636A2046E56063613E
:104380002361A562E56205F0CBFF85F31188BDE8E6
:10439000F883302383F311880023064A137282F8CE
:1043A000B03082F85831054A137283F31188052022
:1043B0008FE700BFD40E002000400140C011002054
:1043C0004B27002000EB8103F7B59C6905460E469C
:1043D000002C3AD0302383F311880023226984F81B
:1043E000A03063699A4201D1E36803BB05EB860301
:1043F000DB685B691B68D3B1D4F8A47047B101A92D
:10440000204604F090FDBB680146019A3868984741
:10441000E368E2690133E360636920461344A269FB
:104420006361934224BF636A636105F06DFF2046B8
:1044300001A904F078FD024648B1019B31462846A7
:1044400004F0F2FE002383F3118803B0F0BD05EB06
:104450008603DB681A68022AF4D15A691268002AB6
:10446000F0D01B8A013B1340ECD105F14402E5E793
:1044700001F1090310B550F8234034B3302383F31E
:10448000118800EB8100C3689B695B68BBB194F83D
:104490007420236F204603EB8203DB689B695A6814
:1044A00023691A60E2680132E260E2691344A2699A
:1044B0002361934224BF636A236105F025FF2046F0
:1044C000FFF768FE002383F3118810BD704708B51D
:1044D000302383F31188012100F00F03994020223B
:1044E00020F00F0005F0A8F9002383F3118808BD20
:1044F0000123C1F1804101F2074101F00F012022A7
:10450000024803FA01F105F097B900BF000400402A
:10451000044B93F804281AB9012083F80408704763
:1045200002207047F01E0020054B93F8042822B1AA
:104530000022012083F8042870470220704700BF42
:10454000F01E002008B5064B4FF40062002118460B
:10455000FDF73EF840F60802C0F8002808BD00BF8D
:10456000F01E0020034630B52A49C3F3074213F476
:104570007F4F8A5C85B0C0B2C3F3072546D00624BE
:10458000FF234443591BB4FBF3F46FF0540363431C
:1045900003EB400303EB4303DBB203FB05F0C3F182
:1045A000FF036B4300121B12C0F1FF00C3F1FF03B6
:1045B000514350435343C1F30721C0F30720C3F3D2
:1045C0000723062C1ED8DFE804F004061114181D7A
:1045D000040010461A4613460246002062F3070004
:1045E00063F30F2061F3174005B030BD084619464C
:1045F000F1E7034608461146ECE710460A46014635
:104600001846E8E7034610460A46F0E71146134607
:10461000E3E700BF9AB40008012830B501D8C0B262
:1046200030BDB0F5F75F88BFFF224FF001049EBF99
:1046300042090832D2B2A3185910C3F34705C3F395
:104640004F035B439BB2984206D2013DEAB29442CB
:10465000F1D9013CE0B2E3E7FF2902D00135ECB229
:10466000F5E70846DCE71FB592B2019048B2002892
:1046700002FB02F2BCBF494248B2C0F1380000FB65
:10468000002080B21C46FFF7C7FF00EB4000044447
:1046900000208DF80440019BDAB262F30700C3F3F7
:1046A000072262F30F20C3F3074363F3174004B0FC
:1046B00010BD0000074B188800EB402200EB820081
:1046C00000F55850193080B2188000EB1020C0B2AD
:1046D000704700BFB40E002010F0400216BFC34365
:1046E0000346DBB210B503F00F0102B10131094CF2
:1046F000C3F3011304EB4302527814F813304A4316
:1047000003EB2213DBB2020644BF5B42DBB283F051
:10471000800010BD92B400081FB5C4B201905008CB
:10472000FFF7DAFF0D22A0F180035BB2002BBCBFC4
:10473000C0F1800043B200205B00DBB2534304EBC6
:1047400013248DF80440019BDAB262F30700C3F32F
:10475000072262F30F20C3F3074363F3174004B04B
:1047600010BD000030B50D4685B00190C4B21046B2
:10477000FFF7B2FF124901EB450191F85A30C21818
:10478000D2B2A2F180035BB2002BBCBFC2F18002A7
:1047900053B20D2200205B00DBB2534304EB132421
:1047A0008DF80440019BDAB262F30700C3F30722DD
:1047B00062F30F20C3F3074363F3174005B030BD26
:1047C00040B60008FEF75ABB00EB0010C3B2002051
:1047D00003F11102D2B2512A63F30700134628BF36
:1047E000512382B063F30F2002B07047464A13B5DD
:1047F000464B52F8041C99420CD1002342F8043C69
:1048000083F31488424B1A6882F3088862B65B68A7
:104810009847FEE70C20032440F2BE713D4B3E4A10
:104820009C62D862C2F8941000219962D9629C629D
:10483000D8628020C3F81C0CD3F81C0CC3F81C0CE5
:10484000009101914FF40141C3F8481C4FF6FC71EF
:10485000A3F5744319630F21196002231365012323
:104860004BF68031D364936D03F001030193009BF9
:1048700001330093019B13B9009B8B42F3D1019B41
:1048800003B9FEE7254B26498024C3F80014002114
:10489000A3F5884399611C62196A012019622021DD
:1048A00058601960196819601968014319605467E4
:1048B0009067D16F0329FCD102229A600122002166
:1048C000DA60144A9162D1629A6C42F400429A64AE
:1048D0009A6CDA6C42F40062DA64DA6C9A6C42F038
:1048E00020029A649A6C9A6C42F040029A649A6C24
:1048F0009A6C42F080029A649A6C9A6C42F48072CC
:104900009A649B6C02B010BD00700020EFBEADDE5B
:1049100000E0FF1F00000140000401400050014082
:10492000130000037047FEE7F0B508200026104989
:1049300091E81C001D46043AAC4210D8E21CD21A81
:10494000DD1E22F00302A54288BF00221344CA687C
:104950009A4209D8013801F11001E9D1F0BD52F8AD
:10496000047F45F8047BE7E743F8046BF0E700BFFA
:1049700090AF00080C4B10B41868D96802685360F7
:104980001A600122D860002302758A680B750B69D2
:104990001B689C689442FBD85A680B604A6010BC44
:1049A00011605960FBF70CBC10290020054BD96839
:1049B00008751868026853601A6001220275D86091
:1049C000FBF7FEBB1029002070B5114E4B1C0446AE
:1049D000F56886B019D00F4B684603930023049501
:1049E000059305F009FC2046FFF7E0FF009B4BB163
:1049F0009A6802990A449A60019A13605A604FF0CB
:104A0000FF33B361A86906B070BDFFF7CFFFF9E7C8
:104A100010290020213E0008044B1A68DB689268C8
:104A20009B689A4201D9FFF7A5BF70471029002063
:104A300070B5EFF3118525B9EFF30583302282F3CA
:104A40001188174B174E1849DC6933680A68E41A55
:104A5000A242164A0AD9A3F58333E03B10683360BB
:104A6000134B04F583340344E034136016680C6080
:104A700035B9EFF30583C3F308036BB185F31188F0
:104A80004FF47A7500210B480023E4FB05010A4A24
:104A9000FDF7B2F9304470BDFFF7BEFFEEE700BF8F
:104AA0001029002000270020FC260020F8260020E6
:104AB00088598F029F860100A08601002DE9F041F0
:104AC0008846164600251F460E4B2A01995C03EBCB
:104AD000051491B9012160709954FFF7A9FF9DF861
:104AE00018307600A3739DF81C306060C4F808800D
:104AF00026736773E373BDE8F0810135142DE4D1AB
:104B0000F9E700BF342A002013B5FF24032223460F
:104B1000C821022001940094FFF7D0FF032223460E
:104B20001046C82101940094FFF7C8FF23460322D2
:104B3000C8213F2001940094FFF7C0FF23460322C1
:104B4000C821042001940094FFF7B8FF02B010BD03
:104B5000FF2313B504460322C8214F20019300937D
:104B6000FFF7ACFF84B1002403222346C8214E2066
:104B700001940094FFF7A2FF23460322C821204698
:104B800001940094FFF79AFF02B010BD38B5FFF70B
:104B90004FFF00F57A75FFF74BFF854214D9FFF7F9
:104BA000C1FAA0B1052005F0EFFE05F0FFFE0446B6
:104BB00005F022FF002C04DB14F00104EBD12046A9
:104BC00038BD231DE7D0FAE76FF00104F7E74FF097
:104BD000FF34F4E738B5FFF7D9FF054690B9FFF782
:104BE000A1FA044670B1062005F0CEFE05F004FFE0
:104BF0002B462A462946D820FFF79CFA10B9FFF722
:104C0000C5FF00B10024204638BD2DE9F04107461C
:104C10000C46D600FFF7BAFF054648B132460021E0
:104C20002046FCF7D5FCB5FA85F04009BDE8F081D7
:104C30003346224639460320FFF77CFA0546002812
:104C4000ECD121462644D1E90023D243DB4341F88D
:104C5000082BB14241F8043CF5D1E4E72DE9F04FCF
:104C6000074615464FF0000AC3B00191202D2E468D
:104C700028BF2026F3001A460093019B02A803EBED
:104C8000CA01FCF789FE002202ABD3E90001C04350
:104C9000C943013243F8080B964243F8041CF4D18F
:104CA000B946DDF800800DF1080B5FFA89F4C4F510
:104CB0008074444528BF4446FFF768FF40BBFFF7B8
:104CC00031FA28B3062005F05FFE05F095FE234675
:104CD0005A4649460220FFF72DFAC8B9B8EB040836
:104CE000A344A144E1D1FFF751FF88B9FFF71AFAB5
:104CF000044668B1042005F047FE05F07DFE009BE8
:104D0000AD1B1F44B244B1D1204643B0BDE8F08F83
:104D10000024F9E72DE9F347FFF75CFF0146A0B156
:104D2000FFF7F6FB2B4904464FF480720020FFF793
:104D300095FF284D0146002842D1012C01D1FFF7F3
:104D4000F3FB40F60803C5F80038084602B0BDE89A
:104D5000F08717F8013B4FEA4E195A40A2FB003882
:104D600000FB0E884FEA421A49EAD26913EB0A03A4
:104D700048EB09084FEAC21A9B184FEACE194FEACE
:104D800002264EEB080849EA526913EB0A034FEA80
:104D90000E2E48EB09084EEA126E9B1948EB0E0ED8
:104DA000B64413EB0C020139D3D16946CDE9002E8C
:104DB0004FF400600122FFF751FF4100C9B2BCE788
:104DC00040F601012F464FF0000C1220024ADFF896
:104DD0000CE0E8E7F01E002025232284E49CF2CBBF
:104DE000044BD3F80038B3F5805F01D3FFF792BFCF
:104DF00001207047F01E00202DE9F04F9E4B8FB030
:104E00001B789E4D8342019046D19D4B2F781B7895
:104E100007F00307FF1A18BF01279A4E6B797278C3
:104E2000B7709A4205D00022114610467370FDF704
:104E3000D9FE019B2B2B31D8013B2A2B34D8DFE83C
:104E400013F03B006100A300DB0027017201760133
:104E5000780190019201960198019A019C019E01AE
:104E6000A001A201A401A601A801AC01AE01B001FC
:104E7000EB011A021C021E025302DF027A037E03B8
:104E800080038A038D03940396039D039F03A60367
:104E9000A803AF03DD03FA030127BEE7019BFF2B45
:104EA00000F0D083002047E1002FFBD00022114604
:104EB0001046FDF797FEF5E73078FFF785FC72495D
:104EC0000322ADF83000C5B2C0F307240DA8FCF7EB
:104ED00063FD0D98FFF746FB6C4FC1B2C0F307228C
:104EE000C0F30743E8B2844201D8502C7FE2785DDA
:104EF00096F801C010EA0C0F02D02846FFF762FCBA
:104F00000135EFE73078FFF75FFCAA78EB786F7830
:104F10008DF835208DF834708DF83630ADF83000CE
:104F20005FFA80FBC0F307240D98FFF71BFBC0F36B
:104F3000074302932B795FFA80F81F448DF8347091
:104F4000C0F3072A0D98FFF70DFB504DC0F3074340
:104F5000C7B2C0F3072903935FFA8BF39C42C4D90D
:104F600015F80B30727813420BD0DB0747BF4A4667
:104F700039465246414658464CBF039B029BFFF7B9
:104F800021FC0BF1010BE7E73078FFF71DFC95F8EA
:104F90000480EB78DFF8F49008F1010895F802A09E
:104FA000ADF83000C0F3072402934FEA9808C7B267
:104FB000A9F1A10BFBB29C4297D919F8073072787E
:104FC000134217D01BF817206B78120902FB083325
:104FD0008DF83430029B8DF835A08DF836300D9861
:104FE000FFF7C0FAC0F30743C0F30722C1B2384647
:104FF000FFF7E8FB0137DDE73078FFF7E5FB2B79BA
:10500000DFF8888001339B0895F8029095F803A09B
:10501000ADF83000C0F307240293C7B2A8F1A20B89
:10502000FBB29C427FF661AF18F8073072781342EA
:105030001FD0029B1BF817208DF835905A436B78D0
:105040008DF836A003EB62138DF834300D98FFF71E
:1050500089FAC0F30722C0F307438DF82C008DF8BE
:105060002D208DF82E30C1B2DBB23846D2B2FFF718
:10507000A9FB0137D4E700BFB30E0020D0290020E0
:10508000B20E0020AF0E0020D12900203CB700084E
:105090003078FFF799FB7B4A2B79ADF82C00C7B22B
:1050A000C0F307241088DB0803FB0000C0F30720CF
:1050B000FFF712FBA0F180035BB2002BBCBFC0F175
:1050C000800043B295F803805B00DBB208FB03333A
:1050D00095F801A095F802901B128DF836308DF8E6
:1050E00034A08DF835900D98FFF73CFA664DC0F36B
:1050F0000722C0F307438DF831208DF832308DF848
:105100003000C1B2D2B2DBB2F8B2A042BFF4EDAE11
:10511000E85D96F801C010EA0C0F02D03846FFF7A0
:1051200051FB0137F0E7594804F0F2FE04E058481B
:10513000FAE7584804F044FD574B1A7801321A70C8
:10514000002840F092820221544A9B781170002B73
:1051500040F08B82019B002B40F087820323137069
:1051600083E24F48E6E74F4804F08CFDE4E74E4801
:10517000FAE74E48D8E74E48D6E74E48D4E74E48BF
:10518000D2E74E48F0E74E48D4E74E48D2E74E48C3
:10519000EAE74E4804F0ECFDCEE74D48FAE74D480B
:1051A000F8E73178C1B92A79364B1032FF2A28BF87
:1051B000FF221B8802FB03330A22C3F30F23B3FB36
:1051C000F2F002FB10339BB233B9FFF773FA5123AD
:1051D0005843414B001218800846FFF7F5FA044681
:1051E000ADF83400C5B2C4F3072497B93A4E3088FD
:1051F00085423FF67AAEA042BFF477AEC0B204F06B
:1052000023FE5223338070E6284604F01DFE01354C
:10521000EDB2AC42F8D868E63078FFF7D5FAADF8D1
:105220003400C3B2C0F30724E7B92A79154B103212
:10523000FF2A28BFFF221B8802FB03330522C3F38A
:105240000F23B3FBF2F202EB82029B1A9BB2002BFC
:105250007FF44BAEFFF72EFA51235843001204F0AF
:1052600027FE42E61D46A542BFF63FAE284604F0A3
:105270001FFE0135F7E7194856E7194854E7194862
:1052800052E700BF301E00203CB70008C5240008CC
:105290001D25000875250008AF0E0020AE0E002069
:1052A000BD250008052600084B26000891260008A9
:1052B000B9260008F12600082927000881270008E0
:1052C00067460008B3270008E327000819280008EC
:1052D00069280008B9280008AC0E0020194700080A
:1052E000654700081929000834782046FFF76CFA52
:1052F000C3B2ADF82C000293C0F3072B4FB10022CC
:1053000011461046FDF76EFC5A220021A548FCF715
:105310005FF97CB9A44C2588FFF78AFB401B80B25B
:1053200018288CBF01220022A04B1A7002D9FFF767
:105330007FFB208000252F460F269D4B05EB030A9F
:10534000984B05EB03081AF8019B029B4B4544D888
:10535000CB4542D9964B4B4493F8FC20954B5B7858
:105360001A4238D098F80040934904F1AA03FF2B61
:1053700028BFFF2303EB43038A780233C978DBB2EB
:1053800001FB0333A4F1550121EAE171C3F30723C3
:10539000C1F1AA018DF830108DF831208DF832302E
:1053A0000C98FFF7DFF8C0F30722C0F307438DF82E
:1053B00034008DF835208DF83630C1B2DBB2484666
:1053C000D2B2FFF7FFF9794B1B7823B1013C24EAF5
:1053D000E47488F800400137FFB2013E16F0FF0682
:1053E00008F10108AFD14B2D05D1BBF1500F8CBF97
:1053F00000200120A0E6102F05F10F059CD9F4E74D
:10540000EC786E4E04EB44034FEAA3099B08039328
:10541000FF23B3FBF4F302935FB100221146104661
:10542000FDF7E0FB5A2200215E48FCF7D1F800238B
:1054300033704FF0000A624FDFF868B13B780133F8
:105440003B70D84600255A4B53440493A4EB090300
:10545000059333782B43DBB2002B36D1FAF7F8FEF5
:10546000584B984231DC8BF80040049AC5EB051389
:10547000D05CFF2810D098F80020039B934233D2D1
:10548000A2EB090309FB03F3059A93FBF2F322460F
:10549000DBB21946FFF796F90135062D08F10F0822
:1054A000D7D10AF1010ABAF10F0F0BF1010BC8D1E4
:1054B0003B78029A934204BF00233B703378013358
:1054C000DBB21C2B16D83370ECE498F80030002BBC
:1054D000CBD09C42C9D93A7802998A4204BF03F1E1
:1054E000FF3388F80030C0E76243B2FBF9F20023D3
:1054F000D2B2CEE7002333700523334D661E294612
:105500000F223248052B03D10778BC4208BF067032
:1055100011F8017F013AA74224BF0E70CC7312F03C
:10552000FF0200F10100EDD1013B13F0FF03A5F1F3
:105530000F05E4D1B6E4264804F040FDFCE525481B
:10554000FAE7254B25491878013820EAE070C0B207
:1055500004F0B2FDF0E522490020F9E71E4B214995
:105560001878013820EAE070F1E71F49F4E71A4B98
:105570001E491878013820EAE070E8E71C49EBE79B
:10558000154B1C491878013820EAE070DFE719490B
:10559000E2E7114B18491878013820EAE070D6E7A5
:1055A0001549D9E7B02700202A1E0020291E002017
:1055B00040B60008AF0E0020D02900202D1E00208C
:1055C0002C1E002054555505EB270020FB270020FA
:1055D000652900089F29000810270020D929000804
:1055E000212A0008332A0008A72A0008B92A00083F
:1055F000312B0008432B00088F2B00083078FFF771
:10560000E3F8204BC5B205EB4506ADF83400C0F316
:1056100007241E44EBB2A34206F10306BFF465ACB7
:10562000284616F8013C16F8022C16F8031CFFF762
:10563000C9F80135EEE73078FFF7C6F8C0F3072068
:105640005028D4E6104B1B68C3F38123022B12D0E1
:10565000032B14D0012B4FF0000209D01146142067
:10566000FDF7C0FA0222094B1A700FB0BDE8F08FA7
:1056700014211046F4E7002114220846F0E7142212
:105680001146F6E7CC100020301E0020AE0E0020A0
:105690002DE9F043944C8BB0D4F80080FFF7C8F9A3
:1056A0008146A0EB0806FFF7C3F9206000248F4F66
:1056B000054697F800C02046614608F57F43FF3352
:1056C000A3EB090EE3B29C4510D800B13970884EA7
:1056D000DFF82082347898F80070032C00F2A28161
:1056E000DFE814F01B003300A301A90104F10C0250
:1056F00007EB4202537892F80280013443EA082310
:105700009E4529BF9B1901F1FF315370C3F3072355
:105710003ABF0120C9B29370D4E70022764B734997
:105720001A70764B292276481D60FCF735F9754BC7
:105730001B782BB9744B1B7813F0030418BF9C081B
:10574000012388F8004033706CE13846FFF754FBC2
:10575000002F00F06781684B18780138C0B2FFF75E
:1057600033F86A4BADF80400C5B2C0F307241878CB
:10577000FCF787FB00283ED00120FCF79FFB48B9CF
:105780000220FCF79BFB28B90420FCF797FB0028BC
:1057900000F0CB802E46A6423CDD0120FCF78EFBBC
:1057A000002840F085800220FCF788FB002800F0EC
:1057B000BC802E46A6427DDD452D00F20D81452C94
:1057C00040F284800023FF211A464520FEF7FAFFAD
:1057D0002C2D00F281800023A522FF212C20FEF732
:1057E000F1FF302C00F23B81282D00F29E80282C06
:1057F00040F29B8048E1444B5B79082BBCD12E469C
:10580000A642B9DA002330461A461946FEF7DAFFF7
:105810000136F5E7B54207DCA64205DA002330463B
:105820001A461946FEF7CEFF0136B4E7B54207DC4B
:10583000B44205DD002330461A461946FEF7C2FF82
:105840000136B442F2DA0D22314902A8FCF7A4F87D
:10585000002702AE16F8010B854206D8844204D90F
:10586000802300211A46FEF7ADFF01370D2FF1D13D
:105870000F22284906A8FCF78FF8002706AE16F875
:10588000010B854206D8844204D90022FF23114629
:10589000FEF798FF01370F2FF1D1402D83D8402C10
:1058A00081D90023FF211A464020FEF78BFF7AE7BB
:1058B0002E46C6E7B54207DCA64205DA002330468D
:1058C0001A461946FEF77EFF013673E72C2D00F2CB
:1058D000C0802C2C88D97EE7302D40F2C0804A2C25
:1058E0001AD8342D21D8C3E0241E00200A28002015
:1058F000AE0E0020281E0020AF0E0020301E00201B
:10590000102700204C270020D0290020E229002069
:10591000C9AD0008D7AD0008FF2300227A214A2034
:10592000FEF750FF342D40F2A6800420FCF7C6FAA3
:1059300058B32E46A64252DD1C2D07D81C2C05D983
:105940000023FF211A461C20FEF73CFF102252497B
:1059500006A8FCF721F8002706AE16F8010B8542D1
:1059600006D8844204D90023FF221946FEF72AFFF5
:105970000137102FF1D1142D07D8142C05D9FF238E
:1059800000227A211420FEF71DFF0027B846434E5F
:105990003378002B41D0D6F80490FFF749F8B3686C
:1059A000A0EB090083422BD8FFF742F8337B7060ED
:1059B0000BBB86F80080C6F804807078717B854246
:1059C000B27BF37B29D8844227D9DB43D243C94336
:1059D000DBB2D2B2C9B21EE04A2DA6D87FE7B542EB
:1059E00007DCA64205DA002330461A461946FEF7C0
:1059F000E9FE01369EE7013BDBB23373002BD8D0C2
:105A0000337B7078DB07D8D5854206D8844204D929
:105A1000F37BB27B717BFEF7D5FE0137142F06F1C5
:105A20001006B5D10BB0BDE8F08338460BB0BDE829
:105A3000F043FDF7D9B81A4B1B780BB1FEF72EFADD
:105A4000184B1C68FEF7F4FF001B0F28EAD900234F
:105A500079E6302D3FF645AF302C7FF666AFFF225A
:105A6000002311463020FEF7ADFE4A2C3FF654AF1E
:105A7000342C7FF6B9AE0023FF2219463420FEF7FE
:105A8000A1FE282D3FF651AFFF2300211A46282002
:105A9000FEF798FE49E700BFE7AD0008342A002072
:105AA000AD280020301E002010B5FEF7C1FF0D4BC1
:105AB00080B29A78D9780A4318BF0B4A597918BF2F
:105AC00010801A790A431CBF084A1080084A1268DD
:105AD0003AB1D2682AB1022119700248BDE81040DB
